:020000040000FA
:06000000FEEF31F01200DA
:020006001200E6
:0600080092EF2FF0120040
:02000E000000F0
:050010000000000605E0
:060018001DEF2FF01200A5
:02001E000700D9
:10002000146500004901000028000000CB640000B6
:100030000001000049000000C76400006F0F0000CD
:100040000400000066640000000F00006100000072
:1000500054640000E5000000120000003464000059
:1000600071010000200000000E000000F7000000F9
:040070000700000085
:0C007400D9CFE6FFE1CFD9FF020EE12654
:10008000DE6ADD6A78D8D1EC07F052EC06F0C6ECF7
:1000900006F0000EE66EE66A93DBE552E552000ECE
:1000A000E66EE66A88EC04F0E552E552B2EC22F026
:1000B000A9EC24F0E80EE66E030EE66E18D8E552C1
:1000C000E55201017C51FDE07C6B8FEC2DF0E2EC00
:1000D00007F0C7D8A9EC24F037EC08F063EC0EF079
:1000E0000AEC09F030EC14F0D8EC24F0EAD7D9CFC0
:1000F000E6FFE1CFD9FF040EE126DE6ADD6ADECF3E
:1001000010F0DDCF11F0FD0EDBCF12F0FE0EDBCFD5
:1001100013F011501318E8AE02D0133404D012506B
:10012000105C135011581DE2020EDB6A030EDB6AED
:10013000020EDBCF10F0030EDBCF11F0D890115080
:1001400004E6EE0E105C000E115806E2020EDB2AE9
:10015000030EEEE3DB2AECD7DF2A010ED0E3DB2A25
:10016000CED7040EE15C02E2E16AE552E16EE552AF
:10017000E7CFD9FF1200936A956A926A09EC21F0E1
:10018000836A15EC2FF0E80EE66E030EE66EAFDF25
:10019000E552E552660EE66EB70EE66EACEC2BF05D
:1001A000E552E552320EE66EE66AB8EC2CF0E55206
:1001B000E552DBEC2CF049EC27F019EC31F0030EA2
:1001C0009310936E1200D9CFE6FFE1CFD9FF000163
:1001D0008151106E116AFD0EDB5010183DE1FE0ECC
:1001E000DB50111839E18251126E136AFB0EDB509D
:1001F000121832E1FC0EDB5013182EE18351146EFD
:10020000156AF90EDB50141827E1FA0EDB501518A9
:1002100023E18451166E176AF70EDB5016181CE1A5
:10022000F80EDB50171818E18551186E196AF50E93
:10023000DB50181811E1F60EDB5019180DE186514C
:100240001A6E1B6AF30EDB501A1806E1F40EDB502F
:100250001B1802E1010E01D0000EE552E7CFD9FFD5
:1002600012000001F80556E1300EE66EE66AE66E11
:10027000E66AE66EE66A3A0EE66EE66A530EE66EE9
:10028000E66A520EE66EE66A9EDF106E0C0EE15EC6
:10029000105000093FE00001F86B0A0E0101166FD3
:1002A000176B01011A6F1B6B050E0101186F196B9B
:1002B00001011C6F1D6B01010069016B0A0E010138
:1002C0000A6F0B6B050E01010C6F0D6B01010A51DA
:1002D00001010C250101146F01010B5101010D21D8
:1002E0000101156F0A0E0101106F116B050E01015E
:1002F000126F136B010110510101122501010E6FE4
:10030000010111510101132101010F6F52EC06F09F
:10031000C6EC06F01200D9CFE6FFE1CFD9FFFE0E02
:10032000DBCF11F0800E11141AE1FD0EDBCF12F0BD
:10033000FE0EDBCF13F0133404E212500708000E58
:1003400013540DE3FD0EDBCFE9FFFE0EDBCFEAFF1A
:10035000E50EE926000EEA22EF508310836EE55287
:10036000E7CFD9FF1200D9CFE6FFE1CFD9FFFE0ECC
:10037000DBCF11F0800E11141AE1FD0EDBCF12F06D
:10038000FE0EDBCF13F0133404E212500708000E08
:1003900013540DE3FD0EDBCFE9FFFE0EDBCFEAFFCA
:1003A000E50EE926000EEA22EF1C8314836EE55267
:1003B000E7CFD9FF1200D9CFE6FFE1CFD9FFFD0E7D
:1003C000DBCFE9FFFE0EDBCFEAFFED0EE926000EE4
:1003D000EA22EF0415E1FD0EDBCFE6FFFE0EDBCFD8
:1003E000E6FFC1DFE552E552FD0EDBCFE9FFFE0E71
:1003F000DBCFEAFFED0EE926000EEA22EF6A15D008
:10040000FD0EDBCFE6FFFE0EDBCFE6FF84DFE5521D
:10041000E552FD0EDBCFE9FFFE0EDBCFEAFFED0E6E
:10042000E926000EEA22010EEF6EE552E7CFD9FF72
:100430001200D9CFE6FFE1CFD9FF020EE126DE6A36
:10044000DD6ADECF10F0DDCF11F0113404E2105080
:100450000708000E115421E3DECFE6FFDDCFE6FFF3
:100460005ADFE552E552F40EE66E010EE66E3FDE0F
:10047000E552E552DECFE6FFDDCFE6FF74DFE55261
:10048000E552F40EE66E010EE66E31DEE552E552FF
:10049000DF2A010ED6E3DB2AD4D7020EE15C02E2AA
:1004A000E16AE552E16EE552E7CFD9FF12000101A2
:1004B000010E491903E14A5101E1010C000C01014F
:1004C000010E4B1903E14C5101E1010C000C080E27
:1004D0000101021901E103515AE0070E021901E17D
:1004E00003514EE0060E021901E1035145E0050EED
:1004F000021901E103513CE0040E021901E103512C
:1005000025E0030E021901E103511AE0020E02195F
:1005100001E103510FE0010E021901E1035104E072
:10052000025142E1035140D0A9EC24F0E00EE66E06
:10053000600E11D0A9EC24F0D00EE66E600E0BD048
:10054000A9EC24F0C20EE66E600E05D0A9EC24F0F2
:10055000B40EE66E600EE66EE66AE66A1EEC27F002
:10056000E552E552E552E55201011E0E096F1CD01D
:10057000A30EE66E600E07D0920EE66E600E0AD0F5
:10058000810EE66E600EE66EE66AE66A07D0700ED1
:10059000E66E600EE66EE66A010EE66E1EEC27F071
:1005A000E552E552E552E5520101010E1E1908E13E
:1005B0001F5106E10101026B036B01011E0E096F61
:1005C0001200000EE66EE66AA6DEE552E552010173
:1005D000010E226F1200000EE66EE66AC4DEE552DE
:1005E000E5520101226B1200040EE66EE66A93DE0C
:1005F000E552E5520101010E216F1200040EE66E74
:10060000E66AB1DEE552E5520101216B1200060EE9
:10061000E66EE66A80DEE552E5520101010E206FCA
:100620001200060EE66EE66A9EDEE552E552010114
:10063000206B1200010EE66EE66A6DDEE552E552B1
:100640000101010E256F1200010EE66EE66A8BDED7
:10065000E552E5520101256B1200050EE66EE66AD1
:100660005ADEE552E5520101010E246F1200050E1B
:10067000E66EE66A78DEE552E5520101246B12006F
:10068000070EE66EE66A47DEE552E5520101010E0D
:10069000236F1200070EE66EE66A65DEE552E5524C
:1006A0000101236B12000101010E491903E14A51B6
:1006B00001E1010C000C0101010E4B1903E14C5149
:1006C00001E1010C000C0101010E4F1903E1505131
:1006D00001E1010C000C0101010E4D1903E14E5125
:1006E00001E1010C000C0101010E4B1903E14C5119
:1006F00001E1010C000C0101140E4B5D000E4C5980
:1007000015E34BC110F04CC111F00A0E0D6E0E6ACC
:100710004BC108F04CC109F0D8EC31F005C011F024
:10072000010E041803E1115001E1010C000C01015C
:10073000010E4D1903E14E5101E1010C000C0101C4
:10074000010E4F1903E1505101E1010C000C0101B0
:10075000010E511903E1525101E1010C000C6E0E22
:10076000E66E600EE66ECAEC27F0E552E552660EC4
:10077000E66E600EE66ECAEC27F0E552E5522FC138
:1007800010F030C111F0126A136A11AE02D0126873
:10079000136810C0E6FF11C0E6FF12C0E6FF13C0E9
:1007A000E6FFBDEC28F0E552E552E552E552640E55
:1007B000E66E600EE66ECAEC27F0E552E5521200D6
:1007C000D9CFE6FFE1CFD9FF6E0EE66E600EE66E82
:1007D000CAEC27F0E552E5525C0EE66E600EE66E5E
:1007E000CAEC27F0E552E552D950FD0FE96EFF0E35
:1007F000DA20EA6EEE50ED1017E131C110F032C18F
:1008000011F0126A136A11AE02D01268136810C098
:10081000E6FF11C0E6FF12C0E6FF13C0E6FFBDEC25
:1008200028F0E552E55206D0560EE66E600EE66EF2
:10083000CAEC27F0E552E552540EE66E600EE66E05
:10084000CAEC27F0E552E5523DC110F03EC111F06F
:10085000126A136A11AE02D01268136810C0E6FF64
:1008600011C0E6FF12C0E6FF13C0E6FFBDEC28F0A2
:10087000E552E552E552E552540EE66E600EE66E24
:10088000CAEC27F0E552E55245C110F046C111F01F
:10089000126A136A11AE02D01268136810C0E6FF24
:1008A00011C0E6FF12C0E6FF13C0E6FFBDEC28F062
:1008B000E552E552E552E552540EE66E600EE66EE4
:1008C000CAEC27F0E552E55241C110F042C111F0E7
:1008D000126A136A11AE02D01268136810C0E6FFE4
:1008E00011C0E6FF12C0E6FF13C0E6FFBDEC28F022
:1008F000E552E552E552E552640EE66E600EE66E94
:10090000CAEC27F0E552E552E552E7CFD9FF1200D5
:10091000D9CFE6FFE1CFD9FF6E0EE66E600EE66E30
:10092000CAEC27F0E552E5524C0EE66E600EE66E1C
:10093000CAEC27F0E552E552D950FD0FE96EFF0EE3
:10094000DA20EA6EEE50ED1017E133C110F034C139
:1009500011F0126A136A11AE02D01268136810C047
:10096000E6FF11C0E6FF12C0E6FF13C0E6FFBDECD4
:1009700028F0E552E55206D0560EE66E600EE66EA1
:10098000CAEC27F0E552E552540EE66E600EE66EB4
:10099000CAEC27F0E552E5523FC110F040C111F01A
:1009A000126A136A11AE02D01268136810C0E6FF13
:1009B00011C0E6FF12C0E6FF13C0E6FFBDEC28F051
:1009C000E552E552E552E552540EE66E600EE66ED3
:1009D000CAEC27F0E552E55247C110F048C111F0CA
:1009E000126A136A11AE02D01268136810C0E6FFD3
:1009F00011C0E6FF12C0E6FF13C0E6FFBDEC28F011
:100A0000E552E552E552E552540EE66E600EE66E92
:100A1000CAEC27F0E552E55243C110F044C111F091
:100A2000126A136A11AE02D01268136810C0E6FF92
:100A300011C0E6FF12C0E6FF13C0E6FFBDEC28F0D0
:100A4000E552E552E552E552640EE66E600EE66E42
:100A5000CAEC27F0E552E552E552E7CFD9FF120084
:100A60006E0EE66E600EE66ECAEC27F0E552E552B9
:100A70005C0EE66E600EE66ECAEC27F0E552E552BB
:100A800031C110F032C111F0126A136A11AE02D0F6
:100A90001268136810C0E6FF11C0E6FF12C0E6FF3F
:100AA00013C0E6FFBDEC28F0E552E552E552E552F1
:100AB000540EE66E600EE66ECAEC27F0E552E55283
:100AC0003DC110F03EC111F0126A136A11AE02D09E
:100AD0001268136810C0E6FF11C0E6FF12C0E6FFFF
:100AE00013C0E6FFBDEC28F0E552E552E552E552B1
:100AF000540EE66E600EE66ECAEC27F0E552E55243
:100B000045C110F046C111F0126A136A11AE02D04D
:100B10001268136810C0E6FF11C0E6FF12C0E6FFBE
:100B200013C0E6FFBDEC28F0E552E552E552E55270
:100B3000540EE66E600EE66ECAEC27F0E552E55202
:100B400041C110F042C111F0126A136A11AE02D015
:100B50001268136810C0E6FF11C0E6FF12C0E6FF7E
:100B600013C0E6FFBDEC28F0E552E552E552E55230
:100B7000640EE66E600EE66ECAEC27F0E552E552B2
:100B800012006E0EE66E600EE66ECAEC27F0E552BD
:100B9000E5524C0EE66E600EE66ECAEC27F0E552AA
:100BA000E55233C110F034C111F0126A136A11AE6C
:100BB00002D01268136810C0E6FF11C0E6FF12C031
:100BC000E6FF13C0E6FFBDEC28F0E552E552E55222
:100BD000E552540EE66E600EE66ECAEC27F0E55262
:100BE000E5523FC110F040C111F0126A136A11AE14
:100BF00002D01268136810C0E6FF11C0E6FF12C0F1
:100C0000E6FF13C0E6FFBDEC28F0E552E552E552E1
:100C1000E552540EE66E600EE66ECAEC27F0E55221
:100C2000E55247C110F048C111F0126A136A11AEC3
:100C300002D01268136810C0E6FF11C0E6FF12C0B0
:100C4000E6FF13C0E6FFBDEC28F0E552E552E552A1
:100C5000E552540EE66E600EE66ECAEC27F0E552E1
:100C6000E55243C110F044C111F0126A136A11AE8B
:100C700002D01268136810C0E6FF11C0E6FF12C070
:100C8000E6FF13C0E6FFBDEC28F0E552E552E55261
:100C9000E552640EE66E600EE66ECAEC27F0E55291
:100CA000E55212006E0EE66E600EE66ECAEC27F09C
:100CB000E552E552460EE66E600EE66ECAEC27F08F
:100CC000E552E552010135513725106E3651382174
:100CD000116E126A136A11AE02D01268136810C046
:100CE000E6FF11C0E6FF12C0E6FF13C0E6FFBDEC51
:100CF00028F0E552E552E552E552540EE66E600EDC
:100D0000E66ECAEC27F0E552E55237C110F038C163
:100D100011F0126A136A11AE02D01268136810C083
:100D2000E6FF11C0E6FF12C0E6FF13C0E6FFBDEC10
:100D300028F0E552E552E552E552540EE66E600E9B
:100D4000E66ECAEC27F0E552E55235C110F036C127
:100D500011F0126A136A11AE02D01268136810C043
:100D6000E6FF11C0E6FF12C0E6FF13C0E6FFBDECD0
:100D700028F0E552E552E552E552640EE66E600E4B
:100D8000E66ECAEC27F0E552E55212006E0EE66EF2
:100D9000600EE66ECAEC27F0E552E552400EE66EB4
:100DA000600EE66ECAEC27F0E552E55201013951BA
:100DB0003B25106E3A513C21116E126A136A11AE36
:100DC00002D01268136810C0E6FF11C0E6FF12C01F
:100DD000E6FF13C0E6FFBDEC28F0E552E552E55210
:100DE000E552540EE66E600EE66ECAEC27F0E55250
:100DF000E5523BC110F03CC111F0126A136A11AE0A
:100E000002D01268136810C0E6FF11C0E6FF12C0DE
:100E1000E6FF13C0E6FFBDEC28F0E552E552E552CF
:100E2000E552540EE66E600EE66ECAEC27F0E5520F
:100E3000E55239C110F03AC111F0126A136A11AECD
:100E400002D01268136810C0E6FF11C0E6FF12C09E
:100E5000E6FF13C0E6FFBDEC28F0E552E552E5528F
:100E6000E552640EE66E600EE66ECAEC27F0E552BF
:100E7000E55212000101080526E101012E5123E18E
:100E80000101323507E33151FF08FF0E325502E30D
:100E9000010E01D0000EE66EE66A92DCE552E552E4
:100EA0000101343507E33351FF08FF0E345502E3E7
:100EB000010E01D0000EE66EE66A2ADDE552E5522B
:100EC0000101010E2E6F12000101080508E1010168
:100ED0002E5105E1C5DD55DE0101010E2E6F120018
:100EE00001012C5104E13BDC0101010E2C6F1200C9
:100EF00001012D5105E1D6DE49DF0101010E2D6F03
:100F0000120000C12FF101C130F112000101050EE4
:100F1000001901E101510FE0060E001901E1015134
:100F20000AE0690E001901E1015105E06A0E00199D
:100F30000BE1015109E104C131F105C132F106C1F2
:100F400033F107C134F11200010109510101316F80
:100F5000326B010109510101336F346B120020C162
:100F60003DF101013E6B3DBF3E6923C13FF1406B46
:100F70003FBF406922C141F10101426B41BF42695B
:100F800025C143F1446B43BF446921C145F10101CF
:100F9000466B45BF466924C147F1486B47BF486966
:100FA000120016C135F117C136F118C137F119C158
:100FB00038F11AC139F11BC13AF11CC13BF11DC115
:100FC0003CF11200530EE66EE66A540EE66EE66AD7
:100FD000530EE66EE66A4B0EE66EE66A430EE66E6A
:100FE000E66A410EE66EE66AE3EC00F0106E0C0E67
:100FF000E15E1050000902E001012C6B4D0EE66E1F
:10100000E66A490EE66EE66A540EE66EE66A4B0E36
:10101000E66EE66A430EE66EE66A410EE66EE66A44
:10102000E3EC00F0106E0C0EE15E1050000902E0DF
:1010300001012D6B440EE66EE66A450EE66EE66A29
:101040004C0EE66EE66A4B0EE66EE66A430EE66E00
:10105000E66A410EE66EE66AE3EC00F0106E0C0EF6
:10106000E15E1050000902E001012E6B1200010147
:101070002C511CE0010E01012625266F000E2721B0
:10108000276F0A0E0D6E0E6A26C108F027C109F0FF
:1010900077EC30F004C026F105C027F10101010E04
:1010A000041804E1275102E1AFEC03F001012D51D6
:1010B0001CE0010E01012825286F000E2921296F4F
:1010C0000A0E0D6E0E6A28C108F029C109F077ECEE
:1010D00030F004C028F105C029F10101010E041807
:1010E00004E1295102E1DEDD51DE01012E5154E01F
:1010F000010E01012A252A6F000E2B212B6F0A0EEB
:101100000D6E0E6A2AC108F02BC109F077EC30F0A1
:1011100004C02AF105C02BF10101010E04183CE1C5
:101120002B513AE10101050E001901E101510FE0D7
:10113000060E001901E101510AE0690E001901E1F2
:10114000015105E06A0E001925E1015123E1010179
:10115000323507E33151FF08FF0E325502E3010E2D
:1011600001D0000EE66EE66AE0EC03F0E552E552CF
:101170000101343507E33351FF08FF0E345502E314
:10118000010E01D0000EE66EE66A88EC04F0E5522E
:10119000E55202D065DCF5DC010E01011E251E6F53
:1011A000000E1F211F6F280E0D6E0E6A1EC108F063
:1011B0001FC109F0D8EC31F004C01EF105C01FF1C9
:1011C00001010829106E140E116E0E6E10C009F088
:1011D0000CEC32F005C008F1010105041AE101012F
:1011E0000407000E055B01010607075B0101090703
:1011F0000101800E051502E0046905690101800EF8
:10120000071502E006690769000E0101095D01E2A8
:1012100009691200320E0101001901E1015102E1D8
:1012200062EF0EF06A0E001901E1015101E1DED317
:10123000690E001901E1015101E1AED2060E00195B
:1012400001E1015101E146D1050E001901E1015111
:101250001BE0E868001901E1015101E01200050EF0
:10126000006F016B0AC104F10BC105F114C106F155
:1012700015C107F101012C5105E143DE010E010109
:10128000266F276B70EF07F0E1EC02F011EC03F032
:10129000FEEC02F040EC03F024EC03F037EC03F03A
:1012A0000101061D06E1071D04E1080E0101026FA0
:1012B000036B01012E5106E129DE51DE010E010111
:1012C0002A6F2B6BD7DD340EE66E600EE66EE66A93
:1012D000E66A1EEC27F0E552E552E552E55204C1FC
:1012E00010F005C111F0126A136A11AE02D0126833
:1012F000136810C0E6FF11C0E6FF12C0E6FF13C07E
:10130000E6FF0D0EE66EE66AF7EC25F0146E060EAB
:10131000E15E14502A0EE66E600EE66EE66A010E7D
:10132000E66E1EEC27F0E552E552E552E55206C1A5
:1013300010F007C111F0126A136A11AE02D01268E0
:10134000136810C0E6FF11C0E6FF12C0E6FF13C02D
:10135000E6FF0D0EE66E010EE66EF7EC25F0146E5C
:10136000060EE15E145001010251031114E1010166
:10137000061D13E1071D11E1560EE66E600EE66EC6
:101380000B0EE66E010EE66E1EEC27F0E552E552FE
:10139000E552E55202D067EC02F00101053504E2A6
:1013A00004510008000E055512E3060E0101006FFE
:1013B000016B01012C5105E1A4DD010E0101266F35
:1013C000276B8EDD0CC104F10DC105F161D053EC2A
:1013D00003F000091BE10001F8052BE1300EE66E79
:1013E000E66AE66EE66AE66EE66A3A0EE66EE66A79
:1013F000540EE66EE66A420EE66EE66AE3EC00F034
:10140000106E0C0EE15E1050000913E00001F86B45
:101410000F0E0101006F016B01012C5105E171DD1F
:10142000010E0101266F276B5BDD01011E0E096FA6
:101430002FD05BEC03F000091CE10001F80528E166
:10144000300EE66EE66AE66EE66A310EE66EE66A33
:101450003A0EE66EE66A540EE66EE66A420EE66EF6
:10146000E66AE3EC00F0106E0C0EE15E105000092D
:101470000FE00001F86B01010069010E016F01012D
:101480002C5105E13EDD010E0101266F276B28DDA1
:101490000001F80502E062EF0EF0450EE66EE66A26
:1014A0004D0EE66EE66A490EE66EE66A540EE66E8C
:1014B000E66A480EE66EE66A430EE66EE66AE3EC1E
:1014C00000F0106E0C0EE15E1050000901E1FAD33D
:1014D0005BEF0EF0F4EC02F0EBEC02F011EC03F039
:1014E00040EC03F024EC03F037EC03F00101041DA1
:1014F00006E1051D04E1050E0101026F036B010108
:10150000061D06E1071D04E1080E0101026F036BD1
:1015100001012E5106E1FADC22DD010E01012A6FE4
:101520002B6BA8DC1D0EE66E600EE66EE66AE66AC0
:101530001EEC27F0E552E552E552E55204C110F0E9
:1015400005C111F0126A136A11AE02D01268136855
:1015500010C0E6FF11C0E6FF12C0E6FF13C0E6FFB1
:101560000D0EE66EE66AF7EC25F0146E060EE15EEF
:1015700014502A0EE66E600EE66EE66A010EE66E06
:101580001EEC27F0E552E552E552E55206C110F097
:1015900007C111F0126A136A11AE02D01268136803
:1015A00010C0E6FF11C0E6FF12C0E6FF13C0E6FF61
:1015B0000D0EE66E010EE66EF7EC25F0146E060ECB
:1015C000E15E145001010251031126E10101041DE5
:1015D0000FE1051D0DE1560EE66E600EE66E0B0E78
:1015E000E66EE66A1EEC27F0E552E552E552E5525A
:1015F0000101061D13E1071D11E1560EE66E600E96
:10160000E66E0B0EE66E010EE66E1EEC27F0E5525E
:10161000E552E552E55202D067EC02F001010651B5
:10162000071107E101010451051102E0000E01D08C
:10163000010E01010451051107E1010106510711D5
:1016400002E0000E01D0010E0101053504E2045153
:101650000008000E05551DE30101073504E206519F
:101660000008000E075515E3690E0101006F016BBC
:1016700001012C5105E145DC010E0101266F276BAC
:101680002FDC0EC104F10FC105F110C106F111C12B
:1016900007F153EC03F000091BE10001F8052BE111
:1016A000300EE66EE66AE66EE66AE66EE66A3A0EC8
:1016B000E66EE66A540EE66EE66A420EE66EE66A8C
:1016C000E3EC00F0106E0C0EE15E1050000913E028
:1016D0000001F86B100E0101006F016B01012C512C
:1016E00005E10FDC010E0101266F276B70EC07F09E
:1016F00001011E0E096F5BEC03F000091CE1000103
:10170000F8052AE1300EE66EE66AE66EE66A310E0C
:10171000E66EE66A3A0EE66EE66A540EE66EE66A33
:10172000420EE66EE66AE3EC00F0106E0C0EE15E2F
:101730001050000911E00001F86B01010069010E71
:10174000016F01012C5106E181EC07F0010E01014E
:10175000266F276B70EC07F00001F80501E0B2D2AC
:10176000450EE66EE66A4D0EE66EE66A490EE66ED8
:10177000E66A540EE66EE66A480EE66EE66A430EC8
:10178000E66EE66AE3EC00F0106E0C0EE15E1050BF
:10179000000901E197D28FD207EC03F0FEEC02F0D2
:1017A000EBEC02F01AEC03F04AEC03F037EC03F038
:1017B0000101041D06E1051D04E1070E0101026F90
:1017C000036B01012E5108E186EC07F0AFEC07F046
:1017D000010E01012A6F2B6B3AEC07F0130EE66E37
:1017E000600EE66EE66AE66A1EEC27F0E552E55208
:1017F000E552E55204C110F005C111F0126A136AF6
:1018000011AE02D01268136810C0E6FF11C0E6FFE7
:1018100012C0E6FF13C0E6FF0D0EE66EE66AF7ECB7
:1018200025F0146E060EE15E1450070EE66E600E93
:10183000E66EE66A010EE66E1EEC27F0E552E55212
:10184000E552E55206C110F007C111F0126A136AA1
:1018500011AE02D01268136810C0E6FF11C0E6FF97
:1018600012C0E6FF13C0E6FF0D0EE66E010EE66E37
:10187000F7EC25F0146E060EE15E145001010251E2
:10188000031113E10101041D12E1051D10E1560EC3
:10189000E66E600EE66E0B0EE66EE66A1EEC27F054
:1018A000E552E552E552E55202D067EC02F0010143
:1018B000073504E206510008000E075513E36A0ECF
:1018C0000101006F016B01012C5106E181EC07F071
:1018D000010E0101266F276B70EC07F012C106F1B3
:1018E00013C107F153EC03F000091BE10001F805F7
:1018F0002CE1300EE66EE66AE66EE66AE66EE66AB1
:101900003A0EE66EE66A540EE66EE66A420EE66E41
:10191000E66AE3EC00F0106E0C0EE15E1050000978
:1019200014E00001F86B730E0101006F016B0101FF
:101930002C5106E181EC07F0010E0101266F276BA7
:1019400070EC07F001011E0E096F5BEC03F000095B
:101950001CE10001F8052AE1300EE66EE66AE66E4B
:10196000E66A310EE66EE66A3A0EE66EE66A540EF6
:10197000E66EE66A420EE66EE66AE3EC00F0106E92
:101980000C0EE15E1050000911E00001F86B01013E
:101990000069010E016F01012C5106E181EC07F095
:1019A000010E0101266F276B70EC07F00001F805AE
:1019B00001E088D1450EE66EE66A4D0EE66EE66AF7
:1019C000490EE66EE66A540EE66EE66A480EE66E6C
:1019D000E66A430EE66EE66AE3EC00F0106E0C0E6B
:1019E000E15E1050000901E16DD165D107EC03F013
:1019F000FEEC02F0EBEC02F02DEC03F04AEC03F00D
:101A000024EC03F00101041D06E1051D04E1070EAD
:101A10000101026F036B0101061D06E1071D04E1D0
:101A2000060E0101026F036B01012E5108E186ECE5
:101A300007F0AFEC07F0010E01012A6F2B6B3AECB7
:101A400007F0130EE66E600EE66EE66AE66A1EECBE
:101A500027F0E552E552E552E55204C110F005C108
:101A600011F0126A136A11AE02D01268136810C026
:101A7000E6FF11C0E6FF12C0E6FF13C0E6FF0D0E41
:101A8000E66EE66AF7EC25F0146E060EE15E145081
:101A9000FA0EE66E5F0EE66EE66A010EE66E1EEC6C
:101AA00027F0E552E552E552E55206C110F007C1B4
:101AB00011F0126A136A11AE02D01268136810C0D6
:101AC000E6FF11C0E6FF12C0E6FF13C0E6FF0D0EF1
:101AD000E66E010EE66EF7EC25F0146E060EE15E82
:101AE000145001010251031126E10101041D0FE10F
:101AF000051D0DE1560EE66E600EE66E0B0EE66EEF
:101B0000E66A1EEC27F0E552E552E552E552010186
:101B1000061D13E1071D11E1560EE66E600EE66E1E
:101B20000B0EE66E010EE66E1EEC27F0E552E55256
:101B3000E552E55202D067EC02F0010106510711AF
:101B400007E101010451051102E0000E01D0010E70
:101B500001010451051107E101010651071102E0DD
:101B6000000E01D0010E0101073504E20651000804
:101B7000000E07551FE30101053504E2045100087A
:101B8000000E055517E3050E0101006F016B010101
:101B90002C5106E181EC07F0010E0101266F276B45
:101BA00070EC07F00AC104F10BC105F114C106F194
:101BB00015C107F153EC03F000091BE10001F80522
:101BC0002CE1300EE66EE66AE66EE66AE66EE66ADE
:101BD0003A0EE66EE66A540EE66EE66A420EE66E6F
:101BE000E66AE3EC00F0106E0C0EE15E10500009A6
:101BF00014E00001F86B740E0101006F016B01012C
:101C00002C5106E181EC07F0010E0101266F276BD4
:101C100070EC07F001011E0E096F5BEC03F0000988
:101C20001CE10001F8052AE1300EE66EE66AE66E78
:101C3000E66A310EE66EE66A3A0EE66EE66A540E23
:101C4000E66EE66A420EE66EE66AE3EC00F0106EBF
:101C50000C0EE15E1050000911E00001F86B01016B
:101C60000069010E016F01012C5106E181EC07F0C2
:101C7000010E0101266F276B70EC07F00001F805DB
:101C800021E1450EE66EE66A4D0EE66EE66A490E05
:101C9000E66EE66A540EE66EE66A480EE66EE66AA0
:101CA000430EE66EE66AE3EC00F0106E0C0EE15EA9
:101CB0001050000907E001010069010E016F0001E9
:101CC000F86B12001200740E0101001901E10151BC
:101CD00002E1C1EF12F0730E001901E1015101E1BF
:101CE000E5D2100E001901E1015101E174D10F0E8E
:101CF000001901E1015101E01200E1EC02F011ECE8
:101D000003F0FEEC02F040EC03F024EC03F037ECBF
:101D100003F001012E5108E186EC07F0AFEC07F06B
:101D2000010E01012A6F2B6B64EC07F0340EE66E96
:101D3000600EE66EE66AE66A1EEC27F0E552E552B2
:101D4000E552E55209C110F0116A126A136A09C11D
:101D5000E6FF11C0E6FF12C0E6FF13C0E6FF0D0E5E
:101D6000E66EE66AF7EC25F0146E060EE15E14509E
:101D70002A0EE66E600EE66EE66A010EE66E1EEC58
:101D800027F0E552E552E552E55209C110F0116A1B
:101D9000126A136A09C1E6FF11C0E6FF12C0E6FF2E
:101DA00013C0E6FF0D0EE66E010EE66EF7EC25F0B1
:101DB000146E060EE15E145001010951000817E38C
:101DC000060E0101006F016B01012C5106E181EC4F
:101DD00007F0010E0101266F276B70EC07F00CC1B4
:101DE00004F10DC105F10CC106F10DC107F153EC71
:101DF00003F000091BE10001F8052CE1300EE66E4E
:101E0000E66AE66EE66AE66EE66A3A0EE66EE66A4E
:101E1000540EE66EE66A420EE66EE66AE3EC00F009
:101E2000106E0C0EE15E1050000914E00001F86B1A
:101E3000100E0101006F016B01012C5106E181ECD4
:101E400007F0010E0101266F276B70EC07F001010E
:101E50001E0E096F5BEC03F000091CE10001F805A0
:101E60002AE1300EE66EE66AE66EE66A310EE66E4E
:101E7000E66A3A0EE66EE66A540EE66EE66A420ED0
:101E8000E66EE66AE3EC00F0106E0C0EE15E1050B8
:101E9000000911E00001F86B01010069010E016FFA
:101EA00001012C5106E181EC07F0010E0101266FC2
:101EB000276B70EC07F06BEC03F000091CE10001EC
:101EC000F80532E1300EE66EE66AE66EE66A320E3C
:101ED000E66EE66A3A0EE66EE66A540EE66EE66A6C
:101EE000420EE66EE66AE3EC00F0106E0C0EE15E68
:101EF0001050000919E00001F86B050E0101006F98
:101F0000016B01012C5106E181EC07F0010E01018A
:101F1000266F276B70EC07F00AC104F10BC105F1C5
:101F200014C106F115C107F163EC03F000091CE1CF
:101F30000001F8052DE1300EE66EE66AE66EE66A0F
:101F4000330EE66EE66A3A0EE66EE66A540EE66E0A
:101F5000E66A420EE66EE66AE3EC00F0106E0C0EE6
:101F6000E15E1050000914E00001F86B740E0101ED
:101F7000006F016B01012C5106E181EC07F0010EAD
:101F80000101266F276B70EC07F001011E0E096F2F
:101F90000001F80502E02FEF14F0450EE66EE66A48
:101FA0004D0EE66EE66A490EE66EE66A540EE66E81
:101FB000E66A480EE66EE66A430EE66EE66AE3EC13
:101FC00000F0106E0C0EE15E1050000902E12FEFE0
:101FD00014F028EF14F0F4EC02F0EBEC02F011EC4A
:101FE00003F040EC03F024EC03F037EC03F00101C4
:101FF0002E5108E186EC07F0AFEC07F0010E01016D
:102000002A6F2B6B64EC07F01D0EE66E600EE66E19
:10201000E66AE66A1EEC27F0E552E552E552E55223
:1020200009C110F0116A126A136A09C1E6FF11C0F2
:10203000E6FF12C0E6FF13C0E6FF0D0EE66EE66A8D
:10204000F7EC25F0146E060EE15E14502A0EE66ED3
:10205000600EE66EE66A010EE66E1EEC27F0E552B3
:10206000E552E552E55209C110F0116A126A136A8D
:1020700009C1E6FF11C0E6FF12C0E6FF13C0E6FF8C
:102080000D0EE66E010EE66EF7EC25F0146E060EF0
:10209000E15E145001010951000817E3690E0101C6
:1020A000006F016B01012C5106E181EC07F0010E7C
:1020B0000101266F276B70EC07F00EC104F10FC110
:1020C00005F110C106F111C107F153EC03F000094D
:1020D0001BE10001F8052CE1300EE66EE66AE66EC3
:1020E000E66AE66EE66A3A0EE66EE66A540EE66E5A
:1020F000E66A420EE66EE66AE3EC00F0106E0C0E45
:10210000E15E1050000914E00001F86B730E01014C
:10211000006F016B01012C5106E181EC07F0010E0B
:102120000101266F276B70EC07F001011E0E096F8D
:102130005BEC03F000091CE10001F8052AE1300E18
:10214000E66EE66AE66EE66A310EE66EE66A3A0E1C
:10215000E66EE66A540EE66EE66A420EE66EE66AE1
:10216000E3EC00F0106E0C0EE15E1050000911E07F
:102170000001F86B01010069010E016F01012C5192
:1021800006E181EC07F0010E0101266F276B70EC70
:1021900007F06BEC03F000091CE10001F80532E1E7
:1021A000300EE66EE66AE66EE66A320EE66EE66AC5
:1021B0003A0EE66EE66A540EE66EE66A420EE66E89
:1021C000E66AE3EC00F0106E0C0EE15E10500009C0
:1021D00019E00001F86B060E0101006F016B0101AF
:1021E0002C5106E181EC07F0010E0101266F276BEF
:1021F00070EC07F00CC104F10DC105F10CC106F142
:102200000DC107F163EC03F000091CE10001F805C2
:102210002DE1300EE66EE66AE66EE66A330EE66E95
:10222000E66A3A0EE66EE66A540EE66EE66A420E1C
:10223000E66EE66AE3EC00F0106E0C0EE15E105004
:10224000000914E00001F86B0F0E0101006F016B33
:1022500001012C5106E181EC07F0010E0101266F0E
:10226000276B70EC07F001011E0E096F0001F805E5
:1022700001E0F5D2450EE66EE66A4D0EE66EE66AC0
:10228000490EE66EE66A540EE66EE66A480EE66EA3
:10229000E66A430EE66EE66AE3EC00F0106E0C0EA2
:1022A000E15E1050000901E1DAD2D2D21AEC03F05B
:1022B0004AEC03F037EC03F007EC03F0EBEC02F030
:1022C000FEEC02F001012E5108E186EC07F0AFECC4
:1022D00007F0010E01012A6F2B6B64EC07F0130E5F
:1022E000E66E600EE66EE66AE66A1EEC27F0E552E0
:1022F000E552E552E55209C110F0116A126A136AFB
:1023000009C1E6FF11C0E6FF12C0E6FF13C0E6FFF9
:102310000D0EE66EE66AF7EC25F0146E060EE15E31
:102320001450070EE66E600EE66EE66A010EE66E6B
:102330001EEC27F0E552E552E552E55209C110F0D6
:10234000116A126A136A09C1E6FF11C0E6FF12C0E2
:10235000E6FF13C0E6FF0D0EE66E010EE66EF7EC2B
:1023600025F0146E060EE15E1450010109510008BB
:1023700017E36A0E0101006F016B01012C5106E1A8
:1023800081EC07F0010E0101266F276B70EC07F05E
:1023900012C104F113C105F112C106F113C107F115
:1023A00053EC03F000091BE10001F8052CE1300EAD
:1023B000E66EE66AE66EE66AE66EE66A3A0EE66E95
:1023C000E66A540EE66EE66A420EE66EE66AE3ECF4
:1023D00000F0106E0C0EE15E1050000914E00001D8
:1023E000F86B740E0101006F016B01012C5106E1C5
:1023F00081EC07F0010E0101266F276B70EC07F0EE
:1024000001011E0E096F5BEC03F000091CE10001E5
:10241000F8052AE1300EE66EE66AE66EE66A310EEF
:10242000E66EE66A3A0EE66EE66A540EE66EE66A16
:10243000420EE66EE66AE3EC00F0106E0C0EE15E12
:102440001050000911E00001F86B01010069010E54
:10245000016F01012C5106E181EC07F0010E010131
:10246000266F276B70EC07F06BEC03F000091CE1A2
:102470000001F80532E1300EE66EE66AE66EE66AC5
:10248000320EE66EE66A3A0EE66EE66A540EE66EC6
:10249000E66A420EE66EE66AE3EC00F0106E0C0EA1
:1024A000E15E1050000919E00001F86B690E0101AE
:1024B000006F016B01012C5106E181EC07F0010E68
:1024C0000101266F276B70EC07F00EC104F10FC1FC
:1024D00005F110C106F111C107F163EC03F0000929
:1024E0001CE10001F8052DE1300EE66EE66AE66EAD
:1024F000E66A330EE66EE66A3A0EE66EE66A540E59
:10250000E66EE66A420EE66EE66AE3EC00F0106EF6
:102510000C0EE15E1050000914E00001F86B100E83
:102520000101006F016B01012C5106E181EC07F004
:10253000010E0101266F276B70EC07F001011E0EE2
:10254000096F0001F80501E08AD1450EE66EE66AE2
:102550004D0EE66EE66A490EE66EE66A540EE66ECB
:10256000E66A480EE66EE66A430EE66EE66AE3EC5D
:1025700000F0106E0C0EE15E1050000901E16FD109
:1025800067D12DEC03F024EC03F04AEC03F007ECE8
:1025900003F0EBEC02F0FEEC02F001012E5108E139
:1025A00086EC07F0AFEC07F0010E01012A6F2B6BF0
:1025B00064EC07F0130EE66E600EE66EE66AE66AFD
:1025C0001EEC27F0E552E552E552E55209C110F044
:1025D000116A126A136A09C1E6FF11C0E6FF12C050
:1025E000E6FF13C0E6FF0D0EE66EE66AF7EC25F097
:1025F000146E060EE15E1450FA0EE66E5F0EE66E85
:10260000E66A010EE66E1EEC27F0E552E552E55251
:10261000E55209C110F0116A126A136A09C1E6FF96
:1026200011C0E6FF12C0E6FF13C0E6FF0D0EE66E16
:10263000010EE66EF7EC25F0146E060EE15E145006
:102640000101095117E1050E0101006F016B010144
:102650002C5106E181EC07F0010E0101266F276B7A
:1026600070EC07F00AC104F10BC105F10EC106F1CF
:102670000FC107F153EC03F000091BE10001F8055D
:102680002CE1300EE66EE66AE66EE66AE66EE66A13
:102690003A0EE66EE66A540EE66EE66A420EE66EA4
:1026A000E66AE3EC00F0106E0C0EE15E10500009DB
:1026B00014E00001F86B0F0E0101006F016B0101C6
:1026C0002C5106E181EC07F0010E0101266F276B0A
:1026D00070EC07F001011E0E096F5BEC03F00009BE
:1026E0001CE10001F8052AE1300EE66EE66AE66EAE
:1026F000E66A310EE66EE66A3A0EE66EE66A540E59
:10270000E66EE66A420EE66EE66AE3EC00F0106EF4
:102710000C0EE15E1050000911E00001F86B0101A0
:102720000069010E016F01012C5106E181EC07F0F7
:10273000010E0101266F276B70EC07F06BEC03F0C4
:1027400000091CE10001F80532E1300EE66EE66A90
:10275000E66EE66A320EE66EE66A3A0EE66EE66A05
:10276000540EE66EE66A420EE66EE66AE3EC00F0B0
:10277000106E0C0EE15E1050000919E00001F86BBC
:102780006A0E0101006F016B01012C5106E181EC21
:1027900007F0010E0101266F276B70EC07F012C1E4
:1027A00004F113C105F112C106F113C107F163EC85
:1027B00003F000091CE10001F8052DE1300EE66E82
:1027C000E66AE66EE66A330EE66EE66A3A0EE66E94
:1027D000E66A540EE66EE66A420EE66EE66AE3ECE0
:1027E00000F0106E0C0EE15E1050000914E00001C4
:1027F000F86B730E0101006F016B01012C5106E1B2
:1028000081EC07F0010E0101266F276B70EC07F0D9
:1028100001011E0E096F0001F80521E1450EE66E6B
:10282000E66A4D0EE66EE66A490EE66EE66A540EFC
:10283000E66EE66A480EE66EE66A430EE66EE66A05
:10284000E3EC00F0106E0C0EE15E1050000907E0A2
:1028500001010069010E016F0001F86B1200120006
:102860001D0E0101001901E1015102E148EF1DF0C7
:102870001C0E001901E1015102E155EF1AF01B0E87
:10288000001901E1015101E121D31A0E001901E102
:10289000015129E0E868001902E1010E011901E087
:1028A00012001A0E006F016B01012C5106E181EC40
:1028B00007F0010E0101266F276B70EC07F0010194
:1028C0001E0E096F0AC116F10BC117F10CC118F1E8
:1028D0000DC119F110C11AF111C11BF112C11CF186
:1028E00013C11DF11200010108050DE111EC03F007
:1028F000EBEC02F0F4EC02F04AEC03F024EC03F011
:102900002DEC03F00CD011EC03F0EBEC02F0FEEC3C
:1029100002F04AEC03F024EC03F037EC03F0010181
:102920002E5108E186EC07F0AFEC07F0010E010133
:102930002A6F2B6B64EC07F073EC03F000091CE1C9
:102940000001F8053CE1300EE66EE66AE66EE66AE6
:10295000340EE66EE66A3A0EE66EE66A540EE66EEF
:10296000E66A420EE66EE66AE3EC00F0106E0C0ECC
:10297000E15E1050000923E00001F86B0101E70E51
:10298000165D030E175913E201011E0E096F0101B6
:10299000162B000E172301012D5106E1D1EC07F093
:1029A000010E0101286F296B78EC07F008D0010EA9
:1029B0000101026F036B020E01011E6F1F6B7BECA6
:1029C00003F000091CE10001F8053DE1300EE66E60
:1029D000E66AE66EE66A350EE66EE66A3A0EE66E80
:1029E000E66A540EE66EE66A420EE66EE66AE3ECCE
:1029F00000F0106E0C0EE15E1050000924E00001A2
:102A0000F86B0101010ED8801655000E175513E220
:102A100001011E0E096F01011607000E175B01016F
:102A20002D5106E1D1EC07F0010E0101286F296B51
:102A300078EC07F008D0010E0101026F036B020E63
:102A400001011E6F1F6B01010251031126E1340EBB
:102A5000E66E600EE66EE66A010EE66E1EEC27F08C
:102A6000E552E552E552E55216C110F017C111F0DA
:102A7000126A136A16C1E6FF17C1E6FF12C0E6FF2D
:102A800013C0E6FF0D0EE66E010EE66EF7EC25F0C4
:102A9000146E060EE15E145002D067EC02F00101E4
:102AA00009510EE101010069016B01012C5106E1A0
:102AB00081EC07F0010E0101266F276B70EC07F027
:102AC00053EC03F000091CE10001F8052DE1300E84
:102AD000E66EE66AE66EE66A310EE66EE66A3A0E83
:102AE000E66EE66A540EE66EE66A420EE66EE66A48
:102AF000E3EC00F0106E0C0EE15E1050000914E0E3
:102B00000001F86B1B0E0101006F016B01012C51DC
:102B100006E181EC07F0010E0101266F276B70ECD6
:102B200007F001011E0E096F63EC03F000091CE1C0
:102B30000001F8052DE1300EE66EE66AE66EE66A03
:102B4000330EE66EE66A3A0EE66EE66A540EE66EFE
:102B5000E66A420EE66EE66AE3EC00F0106E0C0EDA
:102B6000E15E1050000914E00001F86B01011E0E37
:102B7000096F01012C5106E181EC07F0010E010102
:102B8000266F276B70EC07F01D0E0101006F016BC3
:102B900097EC03F0000938E10001F80519E1300E67
:102BA000E66EE66AE66EE66A320EE66EE66A3A0EB1
:102BB000E66EE66A540EE66EE66A420EE66EE66A77
:102BC000E3EC00F0106E0C0EE15E105000091CE109
:102BD0000001F8055CE1540EE66EE66A490EE66E09
:102BE000E66A4D0EE66EE66AE66EE66A4F0EE66E41
:102BF000E66A430EE66EE66AE3EC00F0116E0C0E38
:102C0000E15E1150000943E00001F86B16C10AF1C2
:102C100017C10BF118C10CF119C10DF11AC110F156
:102C20001BC111F11CC112F11DC113F101010A51A7
:102C300001010C250101146F01010B5101010D214E
:102C40000101156F010110510101122501010E6FE3
:102C5000010111510101132101010F6F01010069EF
:102C6000016B01012D5106E1D1EC07F0010E0101CC
:102C7000286F296B78EC07F001012C5106E181ECFB
:102C800007F0010E0101266F276B70EC07F0A7EC2F
:102C900003F000091CE10001F80537E14E0EE66E75
:102CA000E66A550EE66EE66A540EE66EE66AE66E73
:102CB000E66A550EE66EE66A4F0EE66EE66AE3ECED
:102CC00000F0106E0C0EE15E105000091EE00101D4
:102CD0000069016B0AC116F10BC117F110C11AF19D
:102CE00011C11BF10CC118F10DC119F112C11CF178
:102CF00013C11DF101012D5106E1D1EC07F0010EC8
:102D00000101286F296B78EC07F00001F80529E133
:102D1000470E0001815D25E1310E825D22E1000157
:102D2000F86B300E0001865D116E300E855D0A0D68
:102D3000F3CF10F0300E845D640DF3501024112495
:102D40000101166F176B01011E0E096F01012D5154
:102D500006E1D1EC07F0010E0101286F296B78EC38
:102D600007F00001F80538E1470E0001815D34E10C
:102D7000320E825D31E10001F86B300E0001865D9C
:102D8000116E300E855D0A0DF3CF10F0300E845DAC
:102D9000640DF3501024112401011A6F1B6B010103
:102DA0001E0E096F1C0E0101006F016B01012C51F9
:102DB00006E181EC07F0010E0101266F276B70EC34
:102DC00007F001012D5106E1D1EC07F0010E0101E0
:102DD000286F296B78EC07F00001F80538E1590EEF
:102DE0000001815D34E1310E825D31E10001F86B5B
:102DF000300E0001865D116E300E855D0A0DF3CF39
:102E000010F0300E845D640DF35010241124010184
:102E1000186F196B01011E0E096F1B0E0101006F67
:102E2000016B01012C5106E181EC07F0010E01015B
:102E3000266F276B70EC07F001012D5106E1D1ECF4
:102E400007F0010E0101286F296B78EC07F00001F3
:102E5000F80502E038EF20F0590E0001815D02E034
:102E600038EF20F0320E825D02E038EF20F00001F2
:102E7000F86B300E0001865D116E300E855D0A0D17
:102E8000F3CF10F0300E845D640DF3501024112444
:102E900001011C6F1D6B01011E0E096F1D0E01014A
:102EA000006F016BC6EC06F001012C5106E181ECCC
:102EB00007F0010E0101266F276B70EC07F001018E
:102EC0002D5102E036EF20F030EF20F0010108052F
:102ED0000DE111EC03F0EBEC02F0F4EC02F04AEC43
:102EE00003F024EC03F02DEC03F00CD011EC03F014
:102EF000EBEC02F0FEEC02F04AEC03F024EC03F001
:102F000037EC03F001012E5108E186EC07F0AFEC3D
:102F100007F0010E01012A6F2B6B64EC07F073ECD4
:102F200003F000091CE10001F8053CE1300EE66EFB
:102F3000E66AE66EE66A340EE66EE66A3A0EE66E1B
:102F4000E66A540EE66EE66A420EE66EE66AE3EC68
:102F500000F0106E0C0EE15E1050000923E000013D
:102F6000F86B0101E70E185D030E195913E2010118
:102F70001E0E096F0101182B000E192301012D519E
:102F800006E1D1EC07F0010E0101286F296B78EC06
:102F900007F008D0010E0101026F036B020E010160
:102FA0001E6F1F6B7BEC03F000091CE10001F805AC
:102FB0003DE1300EE66EE66AE66EE66A350EE66ED6
:102FC000E66A3A0EE66EE66A540EE66EE66A420E6F
:102FD000E66EE66AE3EC00F0106E0C0EE15E105057
:102FE000000924E00001F86B0101010ED88018559A
:102FF000000E195513E201011E0E096F0101180799
:10300000000E195B01012D5106E1D1EC07F0010E14
:103010000101286F296B78EC07F008D0010E01013F
:10302000026F036B020E01011E6F1F6B0101025143
:10303000031126E11D0EE66E600EE66EE66A010ED5
:10304000E66E1EEC27F0E552E552E552E55218C156
:1030500010F019C111F0126A136A18C1E6FF19C104
:10306000E6FF12C0E6FF13C0E6FF0D0EE66E010E8E
:10307000E66EF7EC25F0146E060EE15E145002D0F9
:1030800067EC02F0010109510EE101010069016BD9
:1030900001012C5106E181EC07F0010E0101266FC0
:1030A000276B70EC07F053EC03F000091CE1000102
:1030B000F8052DE1300EE66EE66AE66EE66A310E40
:1030C000E66EE66A3A0EE66EE66A540EE66EE66A6A
:1030D000420EE66EE66AE3EC00F0106E0C0EE15E66
:1030E0001050000914E00001F86B1C0E0101006F84
:1030F000016B01011E0E096F01012C5106E181ECEB
:1031000007F0010E0101266F276B70EC07F063ECEE
:1031100003F000091CE10001F8052DE1300EE66E18
:10312000E66AE66EE66A330EE66EE66A3A0EE66E2A
:10313000E66A540EE66EE66A420EE66EE66AE3EC76
:1031400000F0106E0C0EE15E1050000914E000015A
:10315000F86B1A0E0101006F016B01011E0E096F61
:1031600001012C5106E181EC07F0010E0101266FEF
:10317000276B70EC07F097EC03F0000938E10001D1
:10318000F80519E1300EE66EE66AE66EE66A320E82
:10319000E66EE66A3A0EE66EE66A540EE66EE66A99
:1031A000420EE66EE66AE3EC00F0106E0C0EE15E95
:1031B000105000091CE10001F8055CE1540EE66EB8
:1031C000E66A490EE66EE66A4D0EE66EE66AE66E61
:1031D000E66A4F0EE66EE66A430EE66EE66AE3ECDA
:1031E00000F0116E0C0EE15E1150000943E0000189
:1031F000F86B16C10AF117C10BF118C10CF119C116
:103200000DF11AC110F11BC111F11CC112F11DC148
:1032100013F101010A5101010C250101146F010193
:103220000B5101010D210101156F01011051010127
:10323000122501010E6F010111510101132101013C
:103240000F6F01010069016B01012D5106E1D1EC05
:1032500007F0010E0101286F296B78EC07F00101DE
:103260002C5106E181EC07F0010E0101266F276B5E
:1032700070EC07F0A7EC03F000091CE10001F80571
:1032800037E14E0EE66EE66A550EE66EE66A540EBD
:10329000E66EE66AE66EE66A550EE66EE66A4F0E82
:1032A000E66EE66AE3EC00F0106E0C0EE15E105084
:1032B00000091EE001010069016B0AC116F10BC192
:1032C00017F110C11AF111C11BF10CC118F10DC198
:1032D00019F112C11CF113C11DF101012D5106E1BB
:1032E000D1EC07F0010E0101286F296B78EC07F093
:1032F0000001F80538E1470E0001815D34E1310E2F
:10330000825D31E10001F86B300E0001865D116EC7
:10331000300E855D0A0DF3CF10F0300E845D640D24
:10332000F350102411240101166F176B01011E0EBA
:10333000096F1A0E0101006F016B01012D5106E1A9
:10334000D1EC07F0010E0101286F296B78EC07F032
:1033500001012C5106E181EC07F0010E0101266FFD
:10336000276B70EC07F00001F80538E1470E00010B
:10337000815D34E1320E825D31E10001F86B300E87
:103380000001865D116E300E855D0A0DF3CF10F0E1
:10339000300E845D640DF3501024112401011A6F66
:1033A0001B6B01011E0E096F1C0E0101006F016BEA
:1033B00001012D5106E1D1EC07F0010E0101286F4A
:1033C000296B78EC07F001012C5106E181EC07F044
:1033D000010E0101266F276B70EC07F00001F80564
:1033E00029E1590E0001815D25E1310E825D22E166
:1033F0000001F86B300E0001865D116E300E855DA8
:103400000A0DF3CF10F0300E845D640DF3501024DC
:1034100011240101186F196B01011E0E096F0101C2
:103420002D5106E1D1EC07F0010E0101286F296B47
:1034300078EC07F00001F80502E038EF20F0590EB3
:103440000001815D02E038EF20F0320E825D02E083
:1034500038EF20F00001F86B300E0001865D116E30
:10346000300E855D0A0DF3CF10F0300E845D640DD3
:10347000F3501024112401011C6F1D6B01011E0E5D
:10348000096F1D0E0101006F016B01012D5106E155
:10349000D1EC07F0010E0101286F296B78EC07F0E1
:1034A00001012C5101E0F2D2EBD2010108050DE13E
:1034B00011EC03F0EBEC02F0F4EC02F04AEC03F058
:1034C00024EC03F02DEC03F00CD011EC03F0EBEC4A
:1034D00002F0FEEC02F04AEC03F024EC03F037ECCF
:1034E00003F001012E5108E186EC07F0AFEC07F084
:1034F000010E01012A6F2B6B64EC07F073EC03F0F3
:1035000000091CE10001F8053CE1300EE66EE66AB8
:10351000E66EE66A340EE66EE66A3A0EE66EE66A35
:10352000540EE66EE66A420EE66EE66AE3EC00F0E2
:10353000106E0C0EE15E1050000923E00001F86BE4
:103540000101E70E1A5D030E1B5913E201011E0E65
:10355000096F01011A2B000E1B2301012D5106E1F9
:10356000D1EC07F0010E0101286F296B78EC07F010
:1035700008D0010E0101026F036B020E01011E6FE4
:103580001F6B7BEC03F000091CE10001F8053DE135
:10359000300EE66EE66AE66EE66A350EE66EE66ABE
:1035A0003A0EE66EE66A540EE66EE66A420EE66E85
:1035B000E66AE3EC00F0106E0C0EE15E10500009BC
:1035C00024E00001F86B0101010ED8801A55000EAD
:1035D0001B5513E201011E0E096F01011A07000EAF
:1035E0001B5B01012D5106E1D1EC07F0010E010139
:1035F000286F296B78EC07F008D0010E0101026FEB
:10360000036B020E01011E6F1F6B010102510311BA
:1036100026E1070EE66E600EE66EE66A010EE66EC5
:103620001EEC27F0E552E552E552E5521AC110F0C2
:103630001BC111F0126A136A1AC1E6FF1BC1E6FF33
:1036400012C0E6FF13C0E6FF0D0EE66E010EE66E39
:10365000F7EC25F0146E060EE15E145002D067EC14
:1036600002F00101095100080EE301010069016B3C
:1036700001012C5106E181EC07F0010E0101266FDA
:10368000276B70EC07F053EC03F000091CE100011C
:10369000F8052DE1300EE66EE66AE66EE66A310E5A
:1036A000E66EE66A3A0EE66EE66A540EE66EE66A84
:1036B000420EE66EE66AE3EC00F0106E0C0EE15E80
:1036C0001050000914E00001F86B01011E0E096F93
:1036D0001D0E0101006F016B01012C5106E181EC0F
:1036E00007F0010E0101266F276B70EC07F063EC09
:1036F00003F000091CE10001F8052DE1300EE66E33
:10370000E66AE66EE66A330EE66EE66A3A0EE66E44
:10371000E66A540EE66EE66A420EE66EE66AE3EC90
:1037200000F0106E0C0EE15E1050000914E0000174
:10373000F86B01011E0E096F1B0E0101006F016B7A
:1037400001012C5106E181EC07F0010E0101266F09
:10375000276B70EC07F097EC03F0000938E10001EB
:10376000F80519E1300EE66EE66AE66EE66A320E9C
:10377000E66EE66A3A0EE66EE66A540EE66EE66AB3
:10378000420EE66EE66AE3EC00F0106E0C0EE15EAF
:10379000105000091CE10001F8055CE1540EE66ED2
:1037A000E66A490EE66EE66A4D0EE66EE66AE66E7B
:1037B000E66A4F0EE66EE66A430EE66EE66AE3ECF4
:1037C00000F0116E0C0EE15E1150000943E00001A3
:1037D000F86B16C10AF117C10BF118C10CF119C130
:1037E0000DF11AC110F11BC111F11CC112F11DC163
:1037F00013F101010A5101010C250101146F0101AE
:103800000B5101010D210101156F01011051010141
:10381000122501010E6F0101115101011321010156
:103820000F6F01010069016B01012D5106E1D1EC1F
:1038300007F0010E0101286F296B78EC07F00101F8
:103840002C5106E181EC07F0010E0101266F276B78
:1038500070EC07F0A7EC03F000091CE10001F8058B
:1038600037E14E0EE66EE66A550EE66EE66A540ED7
:10387000E66EE66AE66EE66A550EE66EE66A4F0E9C
:10388000E66EE66AE3EC00F0106E0C0EE15E10509E
:1038900000091EE001010069016B0AC116F10BC1AC
:1038A00017F110C11AF111C11BF10CC118F10DC1B2
:1038B00019F112C11CF113C11DF101012D5106E1D5
:1038C000D1EC07F0010E0101286F296B78EC07F0AD
:1038D0000001F80538E1470E0001815D34E1310E49
:1038E000825D31E10001F86B300E0001865D116EE2
:1038F000300E855D0A0DF3CF10F0300E845D640D3F
:10390000F350102411240101166F176B01011E0ED4
:10391000096F1A0E0101006F016B01012D5106E1C3
:10392000D1EC07F0010E0101286F296B78EC07F04C
:1039300001012C5106E181EC07F0010E0101266F17
:10394000276B70EC07F00001F80529E1470E000134
:10395000815D25E1320E825D22E10001F86B300EBF
:103960000001865D116E300E855D0A0DF3CF10F0FB
:10397000300E845D640DF3501024112401011A6F80
:103980001B6B01011E0E096F01012D5106E1D1ECE7
:1039900007F0010E0101286F296B78EC07F0000198
:1039A000F80538E1590E0001815D34E1310E825D88
:1039B00031E10001F86B300E0001865D116E300EB2
:1039C000855D0A0DF3CF10F0300E845D640DF35069
:1039D000102411240101186F196B01011E0E096FCB
:1039E0001B0E0101006F016B01012D5106E1D1ECAD
:1039F00007F0010E0101286F296B78EC07F0010137
:103A00002C5106E181EC07F0010E0101266F276BB6
:103A100070EC07F00001F80501E02AD3590E00010F
:103A2000815D01E025D3320E825D01E021D30001EA
:103A3000F86B300E0001865D116E300E855D0A0D4B
:103A4000F3CF10F0300E845D640DF3501024112478
:103A500001011C6F1D6B01011E0E096F1D0E01017E
:103A6000006F016B01012D5106E1D1EC07F0010E51
:103A70000101286F296B78EC07F001012C5106E158
:103A800081EC07F0010E0101266F276B70EF07F044
:103A9000010108050DE111EC03F0EBEC02F0F4EC90
:103AA00002F04AEC03F024EC03F02DEC03F00CD010
:103AB00011EC03F0EBEC02F0FEEC02F04AEC03F048
:103AC00024EC03F037EC03F001012E5108E186EC01
:103AD00007F0AFEC07F0010E01012A6F2B6B64ECCD
:103AE00007F073EC03F000091CE10001F8053CE16C
:103AF000300EE66EE66AE66EE66A340EE66EE66A5A
:103B00003A0EE66EE66A540EE66EE66A420EE66E1F
:103B1000E66AE3EC00F0106E0C0EE15E1050000956
:103B200023E00001F86B0101E70E1C5D030E1D5937
:103B300013E201011E0E096F01011C2B000E1D2353
:103B400001012D5106E1D1EC07F0010E0101286FB2
:103B5000296B78EC07F008D0010E0101026F036BAE
:103B6000020E01011E6F1F6B7BEC03F000091CE1CC
:103B70000001F8053DE1300EE66EE66AE66EE66AA3
:103B8000350EE66EE66A3A0EE66EE66A540EE66EAC
:103B9000E66A420EE66EE66AE3EC00F0106E0C0E8A
:103BA000E15E1050000924E00001F86B0101010EF4
:103BB000D8801C55000E1D5513E201011E0E096F21
:103BC00001011C07000E1D5B01012D5106E1D1EC26
:103BD00007F0010E0101286F296B78EC07F008D07F
:103BE000010E0101026F036B020E01011E6F1F6BBC
:103BF00001010251031126E1FA0EE66E5F0EE66E38
:103C0000E66A010EE66E1EEC27F0E552E552E5523B
:103C1000E5521CC110F01DC111F0126A136A1CC1DB
:103C2000E6FF1DC1E6FF12C0E6FF13C0E6FF0D0E62
:103C3000E66E010EE66EF7EC25F0146E060EE15E00
:103C4000145002D067EC02F00101095100080EE3A4
:103C500001010069016B01012C5106E181EC07F0C3
:103C6000010E0101266F276B70EC07F053EC03F097
:103C700000091CE10001F8052DE1300EE66EE66A50
:103C8000E66EE66A310EE66EE66A3A0EE66EE66AC1
:103C9000540EE66EE66A420EE66EE66AE3EC00F06B
:103CA000106E0C0EE15E1050000914E00001F86B7C
:103CB00001011E0E096F1A0E0101006F016B010157
:103CC0002C5106E181EC07F0010E0101266F276BF4
:103CD00070EC07F063EC03F000091CE10001F8054B
:103CE0002DE1300EE66EE66AE66EE66A330EE66EAB
:103CF000E66A3A0EE66EE66A540EE66EE66A420E32
:103D0000E66EE66AE3EC00F0106E0C0EE15E105019
:103D1000000914E00001F86B01011E0E096F1C0E72
:103D20000101006F016B01012C5106E181EC07F0EC
:103D3000010E0101266F276B70EC07F097EC03F082
:103D4000000938E10001F80519E1300EE66EE66A77
:103D5000E66EE66A320EE66EE66A3A0EE66EE66AEF
:103D6000540EE66EE66A420EE66EE66AE3EC00F09A
:103D7000106E0C0EE15E105000091CE10001F80508
:103D80005CE1540EE66EE66A490EE66EE66A4D0E9A
:103D9000E66EE66AE66EE66A4F0EE66EE66A430E89
:103DA000E66EE66AE3EC00F0116E0C0EE15E115077
:103DB000000943E00001F86B16C10AF117C10BF1CD
:103DC00018C10CF119C10DF11AC110F11BC111F18B
:103DD0001CC112F11DC113F101010A5101010C2591
:103DE0000101146F01010B5101010D210101156F3A
:103DF000010110510101122501010E6F0101115144
:103E00000101132101010F6F01010069016B010123
:103E10002D5106E1D1EC07F0010E0101286F296B4D
:103E200078EC07F001012C5106E181EC07F0010E5E
:103E30000101266F276B70EC07F0A7EC03F0000977
:103E40001CE10001F80537E14E0EE66EE66A550EFC
:103E5000E66EE66A540EE66EE66AE66EE66A550EB1
:103E6000E66EE66A4F0EE66EE66AE3EC00F0106E70
:103E70000C0EE15E105000091EE001010069016BAB
:103E80000AC116F10BC117F110C11AF111C11BF1D2
:103E90000CC118F10DC119F112C11CF113C11DF1B2
:103EA00001012D5106E1D1EC07F0010E0101286F4F
:103EB000296B78EC07F00001F80538E1470E0001A6
:103EC000815D34E1310E825D31E10001F86B300E2D
:103ED0000001865D116E300E855D0A0DF3CF10F086
:103EE000300E845D640DF350102411240101166F0F
:103EF000176B01011E0E096F1A0E0101006F016B95
:103F000001012D5106E1D1EC07F0010E0101286FEE
:103F1000296B78EC07F001012C5106E181EC07F0E8
:103F2000010E0101266F276B70EC07F00001F80508
:103F300038E1470E0001815D34E1320E825D31E1EE
:103F40000001F86B300E0001865D116E300E855D4C
:103F50000A0DF3CF10F0300E845D640DF350102481
:103F6000112401011A6F1B6B01011E0E096F1C0E3B
:103F70000101006F016B01012D5106E1D1EC07F049
:103F8000010E0101286F296B78EC07F001012C511B
:103F900006E181EC07F0010E0101266F276B70EC42
:103FA00007F00001F80538E1590E0001815D34E1A8
:103FB000310E825D31E10001F86B300E0001865D4B
:103FC000116E300E855D0A0DF3CF10F0300E845D5A
:103FD000640DF350102411240101186F196B0101B5
:103FE0001E0E096F1B0E0101006F016B01012D51A7
:103FF00006E1D1EC07F0010E0101286F296B78EC86
:1040000007F001012C5106E181EC07F0010E0101DE
:10401000266F276B70EC07F00001F80529E1590EB7
:104020000001815D25E1320E825D22E10001F86B25
:10403000300E0001865D116E300E855D0A0DF3CFE6
:1040400010F0300E845D640DF35010241124010132
:104050001C6F1D6B01011E0E096F01012D5106E140
:10406000D1EC07F0010E0101286F296B78EF07F002
:0240700012003C
:0E407200D9CFE6FFE1CFD9FF040EE126DE6ACA
:10408000DD6ADECF10F0DDCF11F0126A136A11AED7
:1040900002D012681368D950FB0FE96EFF0EDA20C8
:1040A000EA6EEE50105CEE501158EE501258EE5081
:1040B00013581DE2020EDB6A030EDB6A020EDBCF31
:1040C00010F0030EDBCF11F0D890115004E6050E6E
:1040D000105C000E115806E2020EDB2A030EEEE31E
:1040E000DB2AECD7DF2A010ECCE3DB2ACAD7040E89
:1040F000E15C02E2E16AE552E16EE552E7CFD9FF09
:104100001200D9CFE6FFE1CFD9FF040EE126DE6A27
:10411000DD6ADECF10F0DDCF11F0126A136A11AE46
:1041200002D012681368D950FB0FE96EFF0EDA2037
:10413000EA6EEE50105CEE501158EE501258EE50F0
:1041400013581DE2020EDB6A030EDB6A020EDBCFA0
:1041500010F0030EDBCF11F0D890115004E6EE0EF4
:10416000105C000E115806E2020EDB2A030EEEE38D
:10417000DB2AECD7DF2A010ECCE3DB2ACAD7040EF8
:10418000E15C02E2E16AE552E16EE552E7CFD9FF78
:104190001200D9CFE6FFE1CFD9FF0F0E8116FE0E38
:1041A000DB50F00B81128186010EE66EE66AE66A4C
:1041B000E66AA7DFE552E552E552E5528196010E27
:1041C000E66EE66AE66AE66A9CDFE552E552E5528B
:1041D000E5520F0E8116FE0EDB38F00B8112818640
:1041E000010EE66EE66AE66AE66A8BDFE552E552A4
:1041F000E552E5528196010EE66EE66AE66AE66AE7
:1042000080DFE552E552E552E552E552E7CFD9FFAE
:104210001200D9CFE6FFE1CFD9FFE652190EE66EC4
:10422000E66AE66AE66A6DDFE552E552E552E55276
:104230000F0E8116F80E81160F0E8116300E8112A8
:104240008186010EE66EE66AE66AE66A5ADFE552A4
:10425000E552E552E5528196010EE66EE66AE66A9F
:10426000E66A4FDFE552E552E552E5520F0E811640
:10427000300E81128186010EE66EE66AE66AE66A13
:1042800040DFE552E552E552E5528196010EE66EB9
:10429000E66AE66AE66A35DFE552E552E552E5523E
:1042A0000F0E8116300E81128186010EE66EE66ACF
:1042B000E66AE66A26DFE552E552E552E552819666
:1042C000010EE66EE66AE66AE66A1BDFE552E55233
:1042D000E552E5520F0E8116818A8186010EE66E47
:1042E000E66AE66AE66A0DDFE552E552E552E55216
:1042F0008196010EE66EE66AE66AE66A02DFE5523C
:10430000E552E552E552280EE66E43DFE5520C0E0B
:10431000E66E3FDFE552E552E552E7CFD9FF1200E6
:10432000D9CFE6FFE1CFD9FF020EE126DF6A010E09
:10433000DB6A81940F0EE66EE66AE66AE66A99DE4B
:10434000E552E552E552E5520F0E81128186E66E86
:10435000E66AE66AE66A8DDEE552E552E552E55226
:104360000F0E8114E76E010EE7CFDBFF81960F0E73
:10437000E66EE66AE66AE66A7CDEE552E552E552FA
:10438000E5520F0E81128186E66EE66AE66AE66AFB
:1043900070DEE552E552E552E5520F0E8114DF6EF4
:1043A000010EDB50DF128196010EE66EE66AE66AC8
:1043B000E66A5FDEE552E552E552E552DF50106EE7
:1043C000020EE15C02E2E16AE552E16E1050E55254
:1043D000E7CFD9FF1200D9CFE6FFE1CFD9FFE652F0
:1043E000DF6A9EDFDF6EDFBEFCD7DF50E552E552AD
:1043F000E7CFD9FF1200D9CFE6FFE1CFD9FF0F0EEB
:104400008116FE0EDB5081128186050EE66EE66A8D
:10441000E66AE66A2EDEE552E552E552E5528196FD
:10442000050EE66EE66AE66AE66A23DEE552E552C6
:10443000E552E552E552E7CFD9FF1200D9CFE6FFAA
:10444000E1CFD9FF8194050EE66EE66AE66AE66A78
:1044500010DEE552E552E552E552FE0EDBCFE6FFF7
:10446000CADFE552FE0EDB38F00BE66EC4DFE55224
:10447000E552E7CFD9FF1200D9CFE6FFE1CFD9FF50
:104480008184050EE66EE66AE66AE66AF2DDE552CA
:10449000E552E552E552FE0EDBCFE6FFACDFE5521A
:1044A000FE0EDB38F00BE66EA6DFE5528194E55296
:1044B000E7CFD9FF1200D9CFE6FFE1CFD9FFFE0E3B
:1044C000DBCFE6FFD9DFE552E552E7CFD9FF120097
:1044D000D9CFE6FFE1CFD9FFFE0EDBCFE6FFCCDF81
:1044E000E552E552E7CFD9FF1200D9CFE6FFE1CF81
:1044F000D9FFFD0EDBCFF6FFFE0EDBCFF7FF080086
:10450000F5500FE0FD0EDBCFF6FFDB2AFE0EDBCF12
:10451000F7FF01E3DB2A0800F550E66ED9DFE5522C
:10452000E8D7E552E7CFD9FF1200D9CFE6FFE1CFB8
:10453000D9FFE652FD0EDB500F0B106EFE0EDB5066
:10454000010B400DF3501024DF6E7F0EDF14800F3F
:10455000DF6EDFCFE6FF72DFE552E552E552E7CFCF
:10456000D9FF1200010EE66E69DFE552E66AE66ADF
:10457000DCDFE552E5521200D9CFE6FFE1CFD9FFEB
:10458000050EE126010EF36EDB6E020EDB6A030EF2
:10459000DB6A040EDB6ADF6ADFCF10F0116A10BE3F
:1045A0001168FB0EDBCF12F0FC0EDBCF13F01150C5
:1045B0001318E8AE02D0133404D01250105C13501C
:1045C00011582DE2FD0EDBCF10F0FE0EDBCF11F007
:1045D000126A136A11AE02D012681368D950010F23
:1045E000E96EDACFEAFF10C00BF011C00CF012C078
:1045F0000DF013C00EF0EECF06F0EECF07F0EECFC9
:1046000008F0EFCF09F05FEC31F005C0EDFF04C01A
:10461000EDFF03C0EDFF02C0EFFFDF2ABDD7010EA3
:10462000DBCF10F0020EDBCF11F0030EDBCF12F068
:10463000040EDBCF13F010C006F011C007F012C05B
:1046400008F013C009F0050EE15C02E2E16AE552F0
:10465000E16EE552E7CFD9FF1200D9CFE6FFE1CFF7
:10466000D9FF020EE126DF6AFB0EDBCF10F0FC0E55
:10467000DBCF11F0FD0EDBCF12F0FE0EDBCF13F01F
:10468000105011101210131005E1300EE66E20DFED
:10469000E552F4D0D950FB0FE96EFF0EDA20EA6E36
:1046A000D890030EEB50000A08E6000EEE5C000EF8
:1046B000EE58000EEE58000EEE5815E22D0EE66E86
:1046C00007DFE552D950FB0FE96EFF0EDA20EA6EE4
:1046D000000EEE6CEF1EEE22EF1EEE22EF1EEF221A
:1046E000ED52ED52ED52DE52070EDD6E010EDBCFC4
:1046F00010F0000EE76E1018E8AE02D0103403D0B0
:10470000E750D880105401E3B9D0010EDB04146ED9
:10471000156A14BE156814C0E6FF15C0E6FF0A0E40
:10472000E66EE66A29DFE552E552E552E55206C03B
:1047300010F007C011F008C012F009C013F006C055
:104740000BF007C00CF008C00DF009C00EF0FB0E16
:10475000DBCF06F0FC0EDBCF07F0FD0EDBCF08F061
:10476000FE0EDBCF09F097EC31F006500710081071
:10477000091041E0010EDF6EDB04186E196A18BEE5
:10478000196818C0E6FF19C0E6FF0A0EE66EE66A71
:10479000F3DEE552E552E552E55206C014F007C0DB
:1047A00015F008C016F009C017F006C00BF007C0DE
:1047B0000CF008C00DF009C00EF0FB0EDBCF06F0C8
:1047C000FC0EDBCF07F0FD0EDBCF08F0FE0EDBCFDB
:1047D00009F097EC31F006C010F007C011F008C0E6
:1047E00012F009C013F0300E1026000E1122122212
:1047F0001322105003D0DF5004E0300EE66E68DE66
:10480000E552010EDB04146E156A14BE156814C05F
:10481000E6FF15C0E6FF0A0EE66EE66AADDEE5527B
:10482000E552E552E55206C010F007C011F008C08D
:1048300012F009C013F0D950FB0FE96EFF0EDA2019
:10484000EA6E06C00BF007C00CF008C00DF009C0FE
:104850000EF0EECF06F0EECF07F0EECF08F0EFCF80
:1048600009F097EC31F005C0EDFF04C0EDFF03C087
:10487000EDFF02C0EFFF010EDB0638D7020EE15C50
:1048800002E2E16AE552E16EE552E7CFD9FF12009C
:10489000D9CFE6FFE1CFD9FFFD0EDBCFE6FFFE0E5D
:1048A000DBCFE6FF42DEE552E552D950F90FE96E63
:1048B000FF0EDA20EA6EEECFE6FFEECFE6FFEECF98
:1048C000E6FFEFCFE6FFC9DEE552E552E552E552DD
:1048D000E552E7CFD9FF1200D9CFE6FFE1CFD9FFEC
:1048E000FD0EDBCFE6FFFE0EDBCFE6FF1EDEE55260
:1048F000E552FB0EDBCFE6FFFC0EDBCFE6FFF5DD7E
:10490000E552E552E552E7CFD9FF1200D9CFE6FFD5
:10491000E1CFD9FF6BCF10F06CCF11F0040ED8901F
:1049200010361136E806FBE1410E10260F0E11225B
:1049300010500F016D25E96E11506E21EA6EFE0ECA
:10494000DBCFEFFF6D2B000E6E23E552E7CFD9FFD3
:104950001200D9CFE6FFE1CFD9FFE652DF6ADFCF01
:1049600010F0100EE76E1018E8AE02D0E73402D057
:10497000E750105C18E2DFCFE9FFEA6AE9BEEA68B7
:10498000410EE9260F0EEA22200EEF6EDFCFE9FF7F
:10499000EA6AE9BEEA68510EE9260F0EEA22200E05
:1049A000EF6EDF2ADCD7E552E552E7CFD9FF1200E0
:1049B000D9CFE6FFE1CFD9FFE6520F014051030AFC
:1049C00052E0010A36E0030A1AE0010A67E1E66AEA
:1049D000E66AABDDE552E552DF6A080EDF5C0CE209
:1049E000DF50EA6A410FE96E0F0EEA22EF50E66EE1
:1049F0006FDDE552DF2AF1D70F01010E32D0080E2C
:104A0000E66EE66A92DDE552E552DF6A080EDF5C8B
:104A10000DE2080EDF24EA6A410FE96E0F0EEA226A
:104A2000EF50E66E55DDE552DF2AF0D70F01020E9A
:104A300018D0E66A010EE66E78DDE552E552DF6ACF
:104A4000080EDF5C0CE2DF50EA6A510FE96E0F0ED0
:104A5000EA22EF50E66E3CDDE552DF2AF1D70F0186
:104A6000030E406F1CD0080EE66E010EE66E5DDD93
:104A7000E552E552DF6A080EDF5C0DE2080EDF2426
:104A8000EA6A510FE96E0F0EEA22EF50E66E20DD62
:104A9000E552DF2AF0D70F01406B01D0406BE552A1
:104AA000E552E7CFD9FF1200D9CFE6FFE1CFD9FF1A
:104AB000E6520F014051010A1BE0010A32E1E66AA9
:104AC000E66A33DDE552E552DF6A100EDF5C0CE288
:104AD000DF50EA6A410FE96E0F0EEA22EF50E66EF0
:104AE000F7DCE552DF2AF1D70F01010E406F1AD033
:104AF000E66A010EE66E19DDE552E552DF6A100E38
:104B0000DF5C0CE2DF50EA6A510FE96E0F0EEA2219
:104B1000EF50E66EDDDCE552DF2AF1D70F01406B86
:104B200001D0406BE552E552E7CFD9FF1200D9CF53
:104B3000E6FFE1CFD9FFE652E66AE66AF6DCE55227
:104B4000E552DF6A100EDF5C0CE2DF50EA6A410FCB
:104B5000E96E0F0EEA22EF50E66EBADCE552DF2A6C
:104B6000F1D7E66A010EE66EE0DCE552E552DF6A57
:104B7000100EDF5C0CE2DF50EA6A510FE96E0F0E97
:104B8000EA22EF50E66EA4DCE552DF2AF1D7E552C7
:104B9000E552E7CFD9FF1200D9CFE6FFE1CFD9FF29
:104BA000FE0EDB50010B0F016B6F6C6BFD0EDB50CB
:104BB0000F0B6D6F6E6B6BCF10F06CCF11F0040E9E
:104BC000D89010361136E806FBE1410E10260F0E84
:104BD000112210500F016D25E96E11506E21EA6E01
:104BE000FC0EDBCFEFFFE552E7CFD9FF1200D9CFA4
:104BF000E6FFE1CFD9FF020EE126DF6AFE0EDB50B1
:104C0000010B0F016B6F6C6BFD0EDB500F0B6D6FAB
:104C10006E6BF90EDBCF10F0FA0EDBCF11F0FB0E4E
:104C2000DBCF12F0FC0EDBCF13F01050111012107E
:104C3000131005E1300EE66E69DEE552F5D0D9506D
:104C4000F90FE96EFF0EDA20EA6ED890030EEB50F2
:104C5000000A08E6000EEE5C000EEE58000EEE585C
:104C6000000EEE5815E22D0EE66E50DEE552D950DC
:104C7000F90FE96EFF0EDA20EA6E000EEE6CEF1E01
:104C8000EE22EF1EEE22EF1EEF22ED52ED52ED521C
:104C9000DE52070EDD6E010EDBCF10F0000EE76E68
:104CA0001018E8AE02D0103403D0E750D88010546A
:104CB00001E3BAD0010EDB04146E156A14BE156848
:104CC00014C0E6FF15C0E6FF0A0EE66EE66A54DC85
:104CD000E552E552E552E55206C010F007C011F06A
:104CE00008C012F009C013F006C00BF007C00CF0AA
:104CF00008C00DF009C00EF0F90EDBCF06F0FA0E79
:104D0000DBCF07F0FB0EDBCF08F0FC0EDBCF09F0AA
:104D100097EC31F0065007100810091041E0010E21
:104D2000DF6EDB04186E196A18BE196818C0E6FF3A
:104D300019C0E6FF0A0EE66EE66A1EDCE552E55291
:104D4000E552E55206C014F007C015F008C016F091
:104D500009C017F006C00BF007C00CF008C00DF03A
:104D600009C00EF0F90EDBCF06F0FA0EDBCF07F02C
:104D7000FB0EDBCF08F0FC0EDBCF09F097EC31F037
:104D800006C010F007C011F008C012F009C013F0FF
:104D9000300E1026000E112212221322105003D0C2
:104DA000DF5004E0300EE66EB1DDE552010EDB04AB
:104DB000146E156A14BE156814C0E6FF15C0E6FF30
:104DC0000A0EE66EE66ABCEC22F0E552E552E552C8
:104DD000E55206C010F007C011F008C012F009C07B
:104DE00013F0D950F90FE96EFF0EDA20EA6E06C013
:104DF0000BF007C00CF008C00DF009C00EF0EECFAC
:104E000006F0EECF07F0EECF08F0EFCF09F097EC09
:104E100031F005C0EDFF04C0EDFF03C0EDFF02C09F
:104E2000EFFF010EDB0637D7020EE15C02E2E16A1A
:104E3000E552E16EE552E7CFD9FF1200D9CFE6FF88
:104E4000E1CFD9FFFE0EDB50010B0F016B6F6C6BD6
:104E5000FD0EDB500F0B6D6F6E6BFB0EDBCFF6FFA5
:104E6000FC0EDBCFF7FF0800F5500FE0FB0EDBCFA9
:104E7000F6FFDB2AFC0EDBCFF7FF01E3DB2A08009D
:104E8000F550E66E43DDE552E8D7E552E7CFD9FFAE
:024E900012000E
:0E4E9200B06A810EAF6EAC8AAC94B886AC9854
:104EA000AB8EAB889E9A9D8A9F9A949C948E12009A
:104EB000D9CFE6FFE1CFD9FF040EE126DE6ADD6A35
:104EC000DECF10F0DDCF11F0FD0EDBCF12F0FE0EC5
:104ED000DBCF13F011501318E8AE02D0133404D016
:104EE0001250105C135011581DE2020EDB6A030EC3
:104EF000DB6A020EDBCF10F0030EDBCF11F0D8908F
:104F0000115004E6EE0E105C000E115806E2020E7F
:104F1000DB2A030EEEE3DB2AECD7DF2A010ED0E317
:104F2000DB2ACED7040EE15C02E2E16AE552E16ED3
:104F3000E552E7CFD9FF1200D9CFE6FFE1CFD9FF85
:104F40009EA8FED7FE0EDB50AD6E9E98E552E7CFD1
:104F5000D9FF1200D9CFE6FFE1CFD9FFFD0EDBCF9D
:104F6000E9FFFE0EDBCFEAFFEF5010E0FD0EDBCFD6
:104F7000E9FFFE0EDBCFEAFFEF50E66EDDDFE55224
:104F8000FD0EDB2AFE0EEAE3DB2AE8D7E552E7CF87
:104F9000D9FF1200D9CFE6FFE1CFD9FFFD0EDBCF5D
:104FA000F6FFFE0EDBCFF7FF0800F55015E0FD0E13
:104FB000DBCFF6FFFE0EDBCFF7FF0800F550E66E05
:104FC000BBDFE552FD0EDBCFF6FFDB2AFE0EDBCFAB
:104FD000F7FFE4E3DB2AE2D7E552E7CFD9FF12007F
:104FE000D9CFE6FFE1CFD9FFE652AE50DF6E000128
:104FF000F751050A2AE0010A21E0070A11E0010A37
:105000000AE0020A02E0010A2AE1210EDF5C28E13F
:10501000FA6B020E22D0210EDF5C15E1030E1DD0CB
:10502000FA51EA6A810FE96E000EEA22DFCFEFFF44
:10503000FA2BFC51FA5D14E3040E0FD0230EDF5C53
:1050400002E1050E0AD0010E08D0230EDF5C04E158
:10505000010EF86FF76B04D0010EF76F01D0F76BFC
:10506000E552E552E7CFD9FF1200F0EF27F0D9CF94
:10507000E6FFE1CFD9FFE6685FDFE552E6685CDF77
:10508000E552FE0EDBCFE6FF57DFE552FD0EDBCF2C
:1050900010F0FE0EDBCF11F00D6A010E0E6E10C087
:1050A00008F011C009F077EC30F004C010F005C032
:1050B00011F00450E66E40DFE552FC0EDBCFE6FF58
:1050C0003BDFE552FB0EDBCF10F0FC0EDBCF11F027
:1050D0000D6A010E0E6E10C008F011C009F077ECD9
:1050E00030F004C010F005C011F00450E66E24DF6B
:1050F000E552FA0EDBCFE6FF1FDFE552F90EDBCFFC
:1051000010F0FA0EDBCF11F00D6A010E0E6E10C01A
:1051100008F011C009F077EC30F004C010F005C0C1
:1051200011F00450E66E08DFE552F80EDBCFE6FF23
:1051300003DFE552F70EDBCF10F0F80EDBCF11F0F6
:105140000D6A010E0E6E10C008F011C009F077EC68
:1051500030F004C010F005C011F00450E66EECDE33
:10516000E552FE0EE66EE8DEE552FE0EE66EE4DE89
:10517000E552E552E7CFD9FF1200D9CFE6FFE1CFE4
:10518000D9FF020EE126DF6AFB0EDBCF10F0FC0E2A
:10519000DBCF11F0FD0EDBCF12F0FE0EDBCF13F0F4
:1051A000105011101210131005E1300EE66EC4DE1F
:1051B000E552F4D0D950FB0FE96EFF0EDA20EA6E0B
:1051C000D890030EEB50000A08E6000EEE5C000ECD
:1051D000EE58000EEE58000EEE5815E22D0EE66E5B
:1051E000ABDEE552D950FB0FE96EFF0EDA20EA6E16
:1051F000000EEE6CEF1EEE22EF1EEE22EF1EEF22EF
:10520000ED52ED52ED52DE520A0EDD6E010EDBCF95
:1052100010F0000EE76E1018E8AE02D0103403D084
:10522000E750D880105401E3B9D0010EDB04146EAE
:10523000156A14BE156814C0E6FF15C0E6FF0A0E15
:10524000E66EE66AB5D8E552E552E552E55206C08B
:1052500010F007C011F008C012F009C013F006C02A
:105260000BF007C00CF008C00DF009C00EF0FB0EEB
:10527000DBCF06F0FC0EDBCF07F0FD0EDBCF08F036
:10528000FE0EDBCF09F097EC31F006500710081046
:10529000091041E0010EDF6EDB04186E196A18BEBA
:1052A000196818C0E6FF19C0E6FF0A0EE66EE66A46
:1052B0007FD8E552E552E552E55206C014F007C02A
:1052C00015F008C016F009C017F006C00BF007C0B3
:1052D0000CF008C00DF009C00EF0FB0EDBCF06F09D
:1052E000FC0EDBCF07F0FD0EDBCF08F0FE0EDBCFB0
:1052F00009F097EC31F006C010F007C011F008C0BB
:1053000012F009C013F0300E1026000E11221222E6
:105310001322105003D0DF5004E0300EE66E0CDE96
:10532000E552010EDB04146E156A14BE156814C034
:10533000E6FF15C0E6FF0A0EE66EE66A39D8E552CA
:10534000E552E552E55206C010F007C011F008C062
:1053500012F009C013F0D950FB0FE96EFF0EDA20EE
:10536000EA6E06C00BF007C00CF008C00DF009C0D3
:105370000EF0EECF06F0EECF07F0EECF08F0EFCF55
:1053800009F097EC31F005C0EDFF04C0EDFF03C05C
:10539000EDFF02C0EFFF010EDB0638D7020EE15C25
:1053A00002E2E16AE552E16EE552E7CFD9FF120071
:1053B000D9CFE6FFE1CFD9FF050EE126010EF36E4E
:1053C000DB6E020EDB6A030EDB6A040EDB6ADF6A49
:1053D000DFCF10F0116A10BE1168FB0EDBCF12F0A8
:1053E000FC0EDBCF13F011501318E8AE02D01334CB
:1053F00004D01250105C135011582DE2FD0EDBCF7B
:1054000010F0FE0EDBCF11F0126A136A11AE02D05B
:1054100012681368D950010FE96EDACFEAFF10C0A5
:105420000BF011C00CF012C00DF013C00EF0EECF57
:1054300006F0EECF07F0EECF08F0EFCF09F05FEC0B
:1054400031F005C0EDFF04C0EDFF03C0EDFF02C069
:10545000EFFFDF2ABDD7010EDBCF10F0020EDBCF4E
:1054600011F0030EDBCF12F0040EDBCF13F010C0EF
:1054700006F011C007F012C008F013C009F0050EC5
:10548000E15C02E2E16AE552E16EE552E7CFD9FF65
:02549000120008
:0E549200D9CFE6FFE1CFD9FFD59EFD0EDBCFCF
:1054A00071F1FE0EDBCF72F1D59C13681468156A9A
:1054B00071C116F072C117F0186A1650135C106EA5
:1054C00017501458116E18501558126E0C6A010EB0
:1054D0000D6E0E6A10C007F011C008F012C009F07E
:1054E0009DEC30F00350D66E13681468156A71C1D4
:1054F00016F072C117F0186A1650135C106E175030
:105500001458116E18501558126E0C6A010E0D6E5B
:105510000E6A10C007F011C008F012C009F09DEC2F
:1055200030F007C010F008C011F009C012F00750A9
:10553000D76ED59AD586F28AF294F184D58EE5524B
:10554000E7CFD9FF1200D59E120013681468156AC0
:1055500071C116F072C117F0186A1650135C106E04
:1055600017501458116E18501558126E0C6A010E0F
:105570000D6E0E6A10C007F011C008F012C009F0DD
:105580009DEC30F00350D66E13681468156A71C133
:1055900016F072C117F0186A1650135C106E17508F
:1055A0001458116E18501558126E0C6A010E0D6EBB
:1055B0000E6A10C007F011C008F012C009F09DEC8F
:1055C00030F007C010F008C011F009C012F0075009
:1055D000D76ED58E1200D9CFE6FFE1CFD9FFCD909F
:1055E000FD0EDBCF73F1FE0EDBCF74F11368146890
:1055F000156A73C116F074C117F0186A1650135C5F
:10560000106E17501458116E18501558126E0C6AFF
:10561000010E0D6E0E6A10C007F011C008F012C026
:1056200009F09DEC30F00750CF6E13681468156ACE
:1056300073C116F074C117F0186A1650135C106E1F
:1056400017501458116E18501558126E0C6A010E2E
:105650000D6E0E6A10C007F011C008F012C009F0FC
:105660009DEC30F003C010F004C011F005C012F042
:105670000350CE6E9D809E909F90CD8ECD8CCD9808
:10568000CD9ACD96CD92CD80E552E7CFD9FF1200CD
:1056900013681468156A73C116F074C117F0186A9C
:1056A0001650135C106E17501458116E1850155880
:1056B000126E0C6A010E0D6E0E6A10C007F011C05A
:1056C00008F012C009F09DEC30F00750CF6E13685F
:1056D0001468156A73C116F074C117F0186A165071
:1056E000135C106E17501458116E18501558126E26
:1056F0000C6A010E0D6E0E6A10C007F011C008F0A2
:1057000012C009F09DEC30F003C010F004C011F09D
:1057100005C012F00350CE6ECD801200CD90120065
:10572000D9CFE6FFE1CFD9FFCA94CC6AFE0EDB5099
:105730000101756F766BCB6E9D829E929F92CA908F
:10574000CA92CA84E552E7CFD9FF120075C1CBFFD8
:10575000CA841200CA941200D9CFE6FFE1CFD9FF64
:10576000B190FD0EDBCF77F1FE0EDBCF78F1136841
:105770001468156A77C116F078C117F0186A1650C8
:10578000135C106E17501458116E18501558126E85
:105790000C6A010E0D6E0E6A10C007F011C008F001
:1057A00012C009F09DEC30F00750B36E1368146816
:1057B000156A77C116F078C117F0186A1650135C95
:1057C000106E17501458116E18501558126E0C6A3E
:1057D000010E0D6E0E6A10C007F011C008F012C065
:1057E00009F09DEC30F003C010F004C011F005C0CA
:1057F00012F00350B26EA082A192A292B18EB19823
:10580000B19AB192B180E552E7CFD9FF1200136887
:105810001468156A77C116F078C117F0186A165027
:10582000135C106E17501458116E18501558126EE4
:105830000C6A010E0D6E0E6A10C007F011C008F060
:1058400012C009F09DEC30F00350B26E136814687A
:10585000156A77C116F078C117F0186A1650135CF4
:10586000106E17501458116E18501558126E0C6A9D
:10587000010E0D6E0E6A10C007F011C008F012C0C4
:1058800009F09DEC30F007C010F008C011F009C01D
:1058900012F00750B36EB1801200B19012000101F6
:1058A000812B000E82238951815D8A51825904E344
:1058B000816B826B010E796F12000101832B000E48
:1058C00084238B51835D8C51845904E3836B846BF7
:1058D000010E7A6F12000101852B000E86238D5177
:1058E000855D8E51865904E3856B866B010E7B6F57
:1058F00012000101872B000E88238F51875D905184
:10590000885904E3876B886B010E7C6F1200D9CF36
:10591000E6FFE1CFD9FFFD0EDBCF89F1FE0EDBCF35
:105920008AF10101816B826B796BE552E7CFD9FF78
:105930001200D9CFE6FFE1CFD9FFFD0EDBCF8BF10F
:10594000FE0EDBCF8CF1050E0D6E0E6A8BC108F0DA
:105950008CC109F077EC30F008C08BF109C08CF1F4
:105960000101836B846B7A6BE552E7CFD9FF12009C
:10597000D9CFE6FFE1CFD9FFFD0EDBCF8FF1FE0ED1
:10598000DBCF90F10A0E0D6E0E6A8FC108F090C148
:1059900009F077EC30F008C08FF109C090F10101F7
:0E59A000876B886B7C6BE552E7CFD9FF120056
:0259AE000F0EDA
:1059B000946E82681200CF0E9414946E8268120066
:1059C000D9CFE6FFE1CFD9FF040EE126DE6ADD6A1A
:1059D000DECF10F0DDCF11F0D890115004E6040EA8
:1059E000105C000E115801E390D0DECFE9FFDDCF4F
:1059F000EAFF690EE926010EEA22EF1C826E020E12
:105A0000DB6A030EDB6A020EDBCF10F0030EDBCF86
:105A100011F0D890115004E6040E105C000E1158DD
:105A20006EE2020EDBCFE9FF030EDBCFEAFF6D0E65
:105A3000E926010EEA22EF5082143FE1DECF14F096
:105A4000DDCF15F0D89014361536D89014361536AB
:105A5000020EDB501424E96E030EDB501520EA6EB3
:105A6000D890E936EA36490EE926010EEA22EECF51
:105A700012F0EFCF13F0010E1226000E1322DECF2C
:105A800010F0DDCF11F0D89010361136D8901036C6
:105A90001136020EDB501024E96E030EDB5011208C
:105AA000EA6ED890E936EA36490EE926010EEA2276
