:020000040000FA
:06000000D2EF2DF012000A
:020006001200E6
:060008004AEF2BF012008C
:02000E000000F0
:050010000000000605E0
:06001800D5EF2AF01200F2
:02001E000700D9
:10002000B05C000029020000280000008A5C00008B
:100030005102000026000000865C0000F000000075
:1000400004000000255C0000000F000061000000BB
:10005000FC5B00000002000029000000DC5B0000E7
:1000600077020000200000000E000000E500000004
:040070000700000085
:0C007400D9CFE6FFE1CFD9FF020EE12654
:10008000DE6ADD6A75D85BEC08F0C5EC08F0000E9E
:10009000E66EE66AF3EC05F0E552E552000EE66E18
:1000A000E66A9BEC06F0E552E5526AEC1EF061EC64
:1000B00020F0E80EE66E030EE66E16D8E552E55225
:1000C00002018251FDE0826B47EC29F0C7D861EC58
:1000D00020F05EEC09F05FEC0EF09CEC09F048ECCF
:1000E00013F090EC20F0ECD7D9CFE6FFE1CFD9FFA9
:1000F000040EE126DE6ADD6ADECF10F0DDCF11F0FE
:10010000FD0EDBCF12F0FE0EDBCF13F011501318F3
:10011000E8AE02D0133404D01250105C13501158C2
:100120001DE2020EDB6A030EDB6A020EDBCF10F06B
:10013000030EDBCF11F0D890115004E6EE0E105CE8
:10014000000E115806E2020EDB2A030EEEE3DB2A54
:10015000ECD7DF2A010ED0E3DB2ACED7040EE15C18
:1001600002E2E16AE552E16EE552E7CFD9FF120003
:10017000936A956A926AC1EC1CF0836ACDEC2AF00E
:10018000E80EE66E030EE66EAFDFE552E552660E50
:10019000E66EB70EE66E64EC27F0E552E552320EDD
:1001A000E66EE66A70EC28F0E552E55293EC28F032
:1001B00001EC23F0EDEC2CF0030E9310936E120083
:1001C000D9CFE6FFE1CFD9FF00018151106E116A4E
:1001D000FD0EDB5010183DE1FE0EDB50111839E129
:1001E0008251126E136AFB0EDB50121832E1FC0EC4
:1001F000DB5013182EE18351146E156AF90EDB5093
:10020000141827E1FA0EDB50151823E18451166EFD
:10021000176AF70EDB5016181CE1F80EDB501718A2
:1002200018E18551186E196AF50EDB50181811E1A6
:10023000F60EDB5019180DE186511A6E1B6AF30E8B
:10024000DB501A1806E1F40EDB501B1802E1010E18
:1002500001D0000EE552E7CFD9FF12000001E605FC
:1002600056E1300EE66EE66AE66EE66AE66EE66A2D
:100270003A0EE66EE66A530EE66EE66A520EE66ED9
:10028000E66A9EDF106E0C0EE15E105000093FE042
:100290000001E66B0A0E0201676F686B02016B6F6B
:1002A0006C6B050E0201696F6A6B02016D6F6E6BFC
:1002B00002015169526B0A0E02015B6F5C6B050E05
:1002C00002015D6F5E6B02015B5102015D2502015F
:1002D000656F02015C5102015E210201666F0A0E28
:1002E0000201616F626B050E0201636F646B0201B4
:1002F00061510201632502015F6F02016251020137
:1003000064210201606F5BEC08F0C5EC08F012009C
:10031000D9CFE6FFE1CFD9FFFE0EDBCF11F0800E83
:1003200011141AE1FD0EDBCF12F0FE0EDBCF13F03D
:10033000133404E212500708000E13540DE3FD0EAF
:10034000DBCFE9FFFE0EDBCFEAFF000EE926020E4F
:10035000EA22EF508310836EE552E7CFD9FF1200F7
:10036000D9CFE6FFE1CFD9FFFE0EDBCF11F0800E33
:1003700011141AE1FD0EDBCF12F0FE0EDBCF13F0ED
:10038000133404E212500708000E13540DE3FD0E5F
:10039000DBCFE9FFFE0EDBCFEAFF000EE926020EFF
:1003A000EA22EF1C8314836EE552E7CFD9FF1200D7
:1003B000D9CFE6FFE1CFD9FFFD0EDBCFE9FFFE0E7F
:1003C000DBCFEAFF080EE926020EEA22EF0415E170
:1003D000FD0EDBCFE6FFFE0EDBCFE6FFC1DFE55211
:1003E000E552FD0EDBCFE9FFFE0EDBCFEAFF080E84
:1003F000E926020EEA22EF6A15D0FD0EDBCFE6FFFA
:10040000FE0EDBCFE6FF84DFE552E552FD0EDBCFCB
:10041000E9FFFE0EDBCFEAFF080EE926020EEA2214
:10042000010EEF6EE552E7CFD9FF1200D9CFE6FFFC
:10043000E1CFD9FF020EE126DE6ADD6ADECF10F0E1
:10044000DDCF11F0113404E210500708000E1154F2
:1004500021E3DECFE6FFDDCFE6FF5ADFE552E552CE
:10046000F40EE66E010EE66E3FDEE552E552DECF9B
:10047000E6FFDDCFE6FF74DFE552E552F40EE66EEF
:10048000010EE66E31DEE552E552DF2A010ED6E3BB
:10049000DB2AD4D7020EE15C02E2E16AE552E16EAA
:1004A000E552E7CFD9FF12000201010E291903E13D
:1004B0002A5101E1010C000C0201010E2B1903E18C
:1004C0002C5101E1010C000CD9CFE6FFE1CFD9FF9F
:1004D000E652DF6A02012851010A53E0010A01E0F5
:1004E000D2D01C6B1D6B1E6B1F6BFCD981B210D060
:1004F00002011C2B000E1D231E231F23D880E80E93
:100500001C55030E1D55000E1E55000E1F55EEE224
:1005100002011C6B1D6B1E6B1F6B81A206D01C2B76
:10052000000E1D231E231F23F8D71CC224F21DC258
:1005300025F21EC226F21FC227F21BC2E9FFEA6A99
:10054000E9BEEA68D890E936EA36D890E936EA3664
:10055000A60EE926010EEA2224C2EEFF25C2EEFF16
:1005600026C2EEFF27C2EEFF1B29106E096E140E85
:100570000E6E31EC2CF005C01BF20201010E286F4B
:1005800083D0206B216B226B236BDF6ADFCF10F0EF
:10059000140EE76E1018E8AE02D0E73402D0E75030
:1005A000105C1DE2DFCFE9FFEA6AE9BEEA68D89095
:1005B000E936EA36D890E936EA36A60EE926010E83
:1005C000EA222051EE24206F2151EE20216F22518A
:1005D000EE20226F2351EE20236FDF2AD7D7140E8F
:1005E0000B6E0C6A0D6A0E6A20C206F021C207F07B
:1005F00022C208F023C209F06BEC2DF006C020F2F5
:1006000007C021F208C022F209C023F2000EE66EF4
:10061000E66A06C010F007C011F008C012F009C069
:1006200013F0030E0B6E0C6A0D6A0E6A6BEC2DF064
:1006300006C010F007C011F008C012F009C013F096
:1006400006C0E6FF07C0E6FF20C214F021C215F085
:1006500022C216F023C217F0640E145E000E155A63
:10066000165A175A14C0E6FF15C0E6FF24C2E6FF6B
:1006700025C2E6FFEFEC23F0186E080EE15E18507D
:100680000201286B01D0286BE552E552E7CFD9FF74
:100690001200D9CFE6FFE1CFD9FFE652DF6A0201AF
:1006A0001A51010A54E0010A01E0F3D0E66AF4ECC1
:1006B0002CF0E552F3CF16F2F4CF17F20201186BCB
:1006C000196B17AF02D0186919695D0EE66E580EE6
:1006D000E66EE66A010EE66ED6EC22F0E552E552D1
:1006E000E552E55216C2E6FF17C2E6FF18C2E6FF62
:1006F00019C2E6FFE66A010EE66EAFEC21F0106E5D
:10070000060EE15E10501BC2E9FFEA6AE9BEEA6824
:10071000D890E936EA36D890E936EA36060EE92668
:10072000010EEA2216C2EEFF17C2EEFF18C2EEFF5C
:1007300019C2EEFF02011B29106E096E280E0E6E03
:1007400031EC2CF005C01BF20201010E1A6F126B86
:10075000136B146B156BDF6ADFCF10F0280EE76E9A
:100760001018E8AE02D0E73402D0E750105C1DE26A
:10077000DFCFE9FFEA6AE9BEEA68D890E936EA36EF
:10078000D890E936EA36060EE926010EEA22125121
:10079000EE24126F1351EE20136F1451EE20146FDC
:1007A0001551EE20156FDF2AD7D7280E0B6E0C6A75
:1007B0000D6A0E6A12C206F013C207F014C208F0E6
:1007C00015C209F06BEC2DF006C012F207C013F24F
:1007D00008C014F209C015F2000EE66EE66A06C003
:1007E00010F007C011F008C012F009C013F0030E9A
:1007F0000B6E0C6A0D6A0E6A6BEC2DF006C010F0E1
:1008000007C011F008C012F009C013F006C0E6FFDF
:1008100007C0E6FF12C214F013C215F014C216F09E
:1008200015C217F0640E145E000E155A165A175AA8
:1008300014C0E6FF15C0E6FF16C2E6FF17C2E6FFCA
:10084000EFEC23F0186E080EE15E18505D0EE66EB8
:10085000580EE66E080EE66E010EE66ED6EC22F03D
:10086000E552E552E552E55212C2E6FF13C2E6FF39
:1008700014C2E6FF15C2E6FF080EE66E010EE66E34
:10088000AFEC21F0106E060EE15E105002011A6B03
:1008900001D01A6BE552E552E7CFD9FF1200D9CF4C
:1008A000E6FFE1CFD9FF020EE126DE6ADD6ADECF88
:1008B00010F0DDCF11F0D890115004E61E0E105C40
:1008C000000E115805E2DF2A010EF1E3DB2AEFD713
:1008D000020EE15C02E2E16AE552E16EE552E7CF29
:1008E000D9FF1200010EE66EE66A3ADDE552E552E6
:1008F000010EE66EE66A0CDDE552E552D0DF010E30
:10090000E66EE66A2DDDE552E5521200080E0201A0
:10091000531901E154515AE0070E531901E15451A2
:100920004EE0060E531901E1545145E0050E5319EE
:1009300001E154513CE0040E531901E1545125E00A
:10094000030E531901E154511AE0020E531901E14B
:1009500054510FE0010E531901E1545104E0535179
:1009600042E1545140D061EC20F0500EE66E580E3A
:1009700011D061EC20F0400EE66E580E0BD061EC09
:1009800020F0320EE66E580E05D061EC20F0240EF9
:10099000E66E580EE66EE66AE66AD6EC22F0E5529E
:1009A000E552E552E55202011E0E5A6F1CD0130E9D
:1009B000E66E580E07D0020EE66E580E0AD0F10E03
:1009C000E66E570EE66EE66AE66A07D0E00EE66E61
:1009D000570EE66EE66A010EE66ED6EC22F0E552A0
:1009E000E552E552E5520201010E6F1908E170511E
:1009F00006E10201536B546B02011E0E5A6F120086
:100A0000000EE66EE66A84DCE552E5520201010E54
:100A1000736F1200000EE66EE66AA2DCE552E55244
:100A20000201736B1200040EE66EE66A71DCE55299
:100A3000E5520201010E726F1200040EE66EE66AC4
:100A40008FDCE552E5520201726B1200060EE66E73
:100A5000E66A5EDCE552E5520201010E716F12009A
:100A6000060EE66EE66A7CDCE552E5520201716B29
:100A70001200010EE66EE66A4BDCE552E552020119
:100A8000010E766F1200010EE66EE66A69DCE55231
:100A9000E5520201766B1200050EE66EE66A38DC5E
:100AA000E552E5520201010E756F1200050EE66E69
:100AB000E66A56DCE552E5520201756B1200070E3C
:100AC000E66EE66A25DCE552E5520201010E746F1E
:100AD0001200070EE66EE66A43DCE552E5520201BB
:100AE000746B12000201010E291903E12A5101E180
:100AF000010C000C0201010E2B1903E12C5101E144
:100B0000010C000C0201010E2F1903E1305101E12B
:100B1000010C000C0201010E2D1903E12E5101E11F
:100B2000010C000C0201010E2B1903E12C5101E113
:100B3000010C000C0201140E2B5D000E2C5915E364
:100B40002BC210F02CC211F00A0E0D6E0E6A2BC2D1
:100B500008F02CC209F0ACEC2DF005C011F0010E2C
:100B6000041803E1115001E1010C000C0201010E17
:100B70002D1903E12E5101E1010C000C0201010EBF
:100B80002F1903E1305101E1010C000CDE0EE66E7D
:100B9000570EE66E82EC23F0E552E552D60EE66E75
:100BA000570EE66E82EC23F0E552E55251C210F08A
:100BB00052C211F0126A136A51C2E6FF52C2E6FF36
:100BC00012C0E6FF13C0E6FF75EC24F0E552E552D3
:100BD000E552E552D40EE66E570EE66E82EC23F037
:100BE000E552E5521200D9CFE6FFE1CFD9FFDE0E84
:100BF000E66E570EE66E82EC23F0E552E552CC0E1F
:100C0000E66E570EE66E82EC23F0E552E552D950BF
:100C1000FD0FE96EFF0EDA20EA6EEE50ED1017E1DF
:100C200055C210F056C211F0126A136A11AE02D00A
:100C30001268136810C0E6FF11C0E6FF12C0E6FF9D
:100C400013C0E6FF75EC24F0E552E55206D0C60E5F
:100C5000E66E570EE66E82EC23F0E552E552C40EC6
:100C6000E66E570EE66E82EC23F0E552E55271C255
:100C700010F0116A126A136A10AE03D0116812687C
:100C8000136810C0E6FF11C0E6FF12C0E6FF13C0F4
:100C9000E6FF75EC24F0E552E552E552E552C40E4C
:100CA000E66E570EE66E82EC23F0E552E55272C214
:100CB00010F0116A126A136A10AE03D0116812683C
:100CC000136810C0E6FF11C0E6FF12C0E6FF13C0B4
:100CD000E6FF75EC24F0E552E552E552E552C40E0C
:100CE000E66E570EE66E82EC23F0E552E55273C2D3
:100CF00010F0116A126A136A10AE03D011681268FC
:100D0000136810C0E6FF11C0E6FF12C0E6FF13C073
:100D1000E6FF75EC24F0E552E552E552E552D40EBB
:100D2000E66E570EE66E82EC23F0E552E552E55290
:100D3000E7CFD9FF1200D9CFE6FFE1CFD9FFDE0E12
:100D4000E66E570EE66E82EC23F0E552E552BC0EDD
:100D5000E66E570EE66E82EC23F0E552E552D9506E
:100D6000FD0FE96EFF0EDA20EA6EEE50ED1017E18E
:100D700057C210F058C211F0126A136A11AE02D0B5
:100D80001268136810C0E6FF11C0E6FF12C0E6FF4C
:100D900013C0E6FF75EC24F0E552E55206D0C60E0E
:100DA000E66E570EE66E82EC23F0E552E552C40E75
:100DB000E66E570EE66E82EC23F0E552E55274C201
:100DC00010F0116A126A136A10AE03D0116812682B
:100DD000136810C0E6FF11C0E6FF12C0E6FF13C0A3
:100DE000E6FF75EC24F0E552E552E552E552C40EFB
:100DF000E66E570EE66E82EC23F0E552E55275C2C0
:100E000010F0116A126A136A10AE03D011681268EA
:100E1000136810C0E6FF11C0E6FF12C0E6FF13C062
:100E2000E6FF75EC24F0E552E552E552E552C40EBA
:100E3000E66E570EE66E82EC23F0E552E55276C27E
:100E400010F0116A126A136A10AE03D011681268AA
:100E5000136810C0E6FF11C0E6FF12C0E6FF13C022
:100E6000E6FF75EC24F0E552E552E552E552D40E6A
:100E7000E66E570EE66E82EC23F0E552E552E5523F
:100E8000E7CFD9FF1200DE0EE66E570EE66E82EC5B
:100E900023F0E552E552CC0EE66E570EE66E82EC7C
:100EA00023F0E552E5525AC210F0116A126A136A31
:100EB0005AC2E6FF11C0E6FF12C0E6FF13C0E6FF0C
:100EC00075EC24F0E552E552E552E552C40EE66EAB
:100ED000570EE66E82EC23F0E552E55271C210F037
:100EE000116A126A136A10AE03D01168126813688F
:100EF00010C0E6FF11C0E6FF12C0E6FF13C0E6FF18
:100F000075EC24F0E552E552E552E552C40EE66E6A
:100F1000570EE66E82EC23F0E552E55272C210F0F5
:100F2000116A126A136A10AE03D01168126813684E
:100F300010C0E6FF11C0E6FF12C0E6FF13C0E6FFD7
:100F400075EC24F0E552E552E552E552C40EE66E2A
:100F5000570EE66E82EC23F0E552E55273C210F0B4
:100F6000116A126A136A10AE03D01168126813680E
:100F700010C0E6FF11C0E6FF12C0E6FF13C0E6FF97
:100F800075EC24F0E552E552E552E552D40EE66EDA
:100F9000570EE66E82EC23F0E552E5521200DE0EAB
:100FA000E66E570EE66E82EC23F0E552E552BC0E7B
:100FB000E66E570EE66E82EC23F0E552E5525AC219
:100FC00010F0116A126A136A5AC2E6FF11C0E6FFF6
:100FD00012C0E6FF13C0E6FF75EC24F0E552E552BF
:100FE000E552E552C40EE66E570EE66E82EC23F033
:100FF000E552E55274C210F0116A126A136A10AE1B
:1010000003D011681268136810C0E6FF11C0E6FF34
:1010100012C0E6FF13C0E6FF75EC24F0E552E5527E
:10102000E552E552C40EE66E570EE66E82EC23F0F2
:10103000E552E55275C210F0116A126A136A10AED9
:1010400003D011681268136810C0E6FF11C0E6FFF4
:1010500012C0E6FF13C0E6FF75EC24F0E552E5523E
:10106000E552E552C40EE66E570EE66E82EC23F0B2
:10107000E552E55276C210F0116A126A136A10AE98
:1010800003D011681268136810C0E6FF11C0E6FFB4
:1010900012C0E6FF13C0E6FF75EC24F0E552E552FE
:1010A000E552E552D40EE66E570EE66E82EC23F062
:1010B000E552E5521200DE0EE66E570EE66E82EC49
:1010C00023F0E552E552B60EE66E570EE66E82EC60
:1010D00023F0E552E5520201675102016925106EC5
:1010E0000201685102016A21116E126A136A10C06E
:1010F000E6FFE66E12C0E6FF13C0E6FF75EC24F0D3
:10110000E552E552E552E552C40EE66E570EE66E24
:1011100082EC23F0E552E55269C210F06AC211F088
:10112000126A136A69C2E6FF6AC2E6FF12C0E6FFEE
:1011300013C0E6FF75EC24F0E552E552E552E552A6
:10114000C40EE66E570EE66E82EC23F0E552E552D1
:1011500067C210F068C211F0126A136A67C2E6FF34
:1011600068C2E6FF12C0E6FF13C0E6FF75EC24F08C
:10117000E552E552E552E552D40EE66E570EE66EA4
:1011800082EC23F0E552E5521200DE0EE66E570EB9
:10119000E66E82EC23F0E552E552B00EE66E570E95
:1011A000E66E82EC23F0E552E55202016B5102013A
:1011B0006D25106E02016C5102016E21116E126AD2
:1011C000136A10C0E6FFE66E12C0E6FF13C0E6FF2A
:1011D00075EC24F0E552E552E552E552C40EE66E98
:1011E000570EE66E82EC23F0E552E5526DC210F028
:1011F0006EC211F0126A136A6DC2E6FF6EC2E6FF9C
:1012000012C0E6FF13C0E6FF75EC24F0E552E5528C
:10121000E552E552C40EE66E570EE66E82EC23F000
:10122000E552E5526BC210F06CC211F0126A136AFB
:101230006BC2E6FF6CC2E6FF12C0E6FF13C0E6FF1A
:1012400075EC24F0E552E552E552E552D40EE66E17
:10125000570EE66E82EC23F0E552E55212000201D1
:10126000590525E10201563507E35551FF08FF0EE8
:10127000565502E3010E01D0000EE66EE66AB3DCBD
:10128000E552E552020158350CE35751FF08FF0EB5
:10129000585507E3010EE66EE66A4DDDE552E5526C
:1012A0001200000EE66EE66A46DDE552E5521200D7
:1012B0000201590502E1E7DD72DE1200010E0201B2
:1012C0006F256F6F000E7021706F280E0D6E0E6A05
:1012D0006FC208F070C209F0ACEC2DF004C06FF2E0
:1012E00005C070F202015929106E140E116E0E6EB7
:1012F00010C009F0E0EC2DF005C059F20201050420
:101300001AE102015507000E565B02015707585BB0
:1013100002015A070201800E561502E0556956690E
:101320000201800E581502E057695869000E02014B
:101330005A5D01E25A691200320E0201511901E1AF
:10134000525102E15EEF0EF06A0E511901E1525165
:1013500001E16ED3690E511901E1525101E165D2EB
:10136000060E511901E1525101E11ED1050E51192C
:1013700001E1525113E0E868511901E1525101E0D5
:101380001200050E516F526B5BC255F25CC256F2F1
:1013900065C257F266C258F2C6EF05F000EC05F0E0
:1013A00030EC05F01DEC05F05FEC05F043EC05F0CA
:1013B00056EC05F00201571D06E1581D04E1080E28
:1013C0000201536F546B4BDFA40EE66E570EE66EB0
:1013D000E66AE66AD6EC22F0E552E552E552E552BD
:1013E00055C210F056C211F0126A136A11AE02D043
:1013F0001268136810C0E6FF11C0E6FF12C0E6FFD6
:1014000013C0E6FF0D0EE66EE66AAFEC21F0146E37
:10141000060EE15E14509A0EE66E570EE66EE66A10
:10142000010EE66ED6EC22F0E552E552E552E552A9
:1014300057C210F058C211F0126A136A11AE02D0EE
:101440001268136810C0E6FF11C0E6FF12C0E6FF85
:1014500013C0E6FF0D0EE66E010EE66EAFEC21F056
:10146000146E060EE15E145002015351541114E142
:101470000201571D13E1581D11E1C60EE66E570E0D
:10148000E66E0B0EE66E010EE66ED6EC22F0E5522D
:10149000E552E552E55202D086EC04F002015635E1
:1014A00004E255510008000E56550BE3060E0201EA
:1014B000516F526BC6EC05F05DC255F25EC256F23A
:1014C00053D072EC05F000091BE10001E60524E1B0
:1014D000300EE66EE66AE66EE66AE66EE66A3A0E9A
:1014E000E66EE66A540EE66EE66A420EE66EE66A5E
:1014F000E0EC00F0106E0C0EE15E105000090CE004
:101500000001E66B0F0E0201516F526BC6EC05F045
:1015100002011E0E5A6F28D07AEC05F000091CE17A
:101520000001E60521E1300EE66EE66AE66EE66A47
:10153000310EE66EE66A3A0EE66EE66A540EE66E26
:10154000E66A420EE66EE66AE0EC00F0106E0C0E03
:10155000E15E1050000908E00001E66B02015169EC
:10156000010E526FC6EC05F00001E60501E0A6D3BE
:10157000450EE66EE66A4D0EE66EE66A490EE66ECA
:10158000E66A540EE66EE66A480EE66EE66A430EBA
:10159000E66EE66AE0EC00F0106E0C0EE15E1050B4
:1015A000000901E18BD383D313EC05F00AEC05F0BD
:1015B00030EC05F05FEC05F043EC05F056EC05F07F
:1015C0000201551D06E1561D04E1050E0201536F8F
:1015D000546B0201571D06E1581D04E1080E02017B
:1015E000536F546B3CDE8D0EE66E570EE66EE66A68
:1015F000E66AD6EC22F0E552E552E552E55255C2D4
:1016000010F056C211F0126A136A11AE02D01268BD
:10161000136810C0E6FF11C0E6FF12C0E6FF13C05A
:10162000E6FF0D0EE66EE66AAFEC21F0146E060ED4
:10163000E15E14509A0EE66E570EE66EE66A010EF3
:10164000E66ED6EC22F0E552E552E552E55257C27D
:1016500010F058C211F0126A136A11AE02D012686B
:10166000136810C0E6FF11C0E6FF12C0E6FF13C00A
:10167000E6FF0D0EE66E010EE66EAFEC21F0146E85
:10168000060EE15E145002015351541126E102018D
:10169000551D0FE1561D0DE1C60EE66E570EE66EA6
:1016A0000B0EE66EE66AD6EC22F0E552E552E55204
:1016B000E5520201571D13E1581D11E1C60EE66EF9
:1016C000570EE66E0B0EE66E010EE66ED6EC22F0BD
:1016D000E552E552E552E55202D086EC04F00201F3
:1016E0005751581107E102015551561102E0000E01
:1016F00001D0010E02015551561107E10201575167
:10170000581102E0000E01D0010E0201563504E22C
:1017100055510008000E565516E30201583504E2F3
:1017200057510008000E58550EE3690E0201516F23
:10173000526BC6EC05F05FC255F260C256F261C250
:1017400057F262C258F272EC05F000091BE1000189
:10175000E60523E1300EE66EE66AE66EE66AE66EC0
:10176000E66A3A0EE66EE66A540EE66EE66A420EE7
:10177000E66EE66AE0EC00F0106E0C0EE15E1050D2
:1017800000090BE00001E66B100E0201516F526B75
:10179000C6EC05F002011E0E5A6F7AEC05F0000946
:1017A0001CE10001E60521E1300EE66EE66AE66E18
:1017B000E66A310EE66EE66A3A0EE66EE66A540EA8
:1017C000E66EE66A420EE66EE66AE0EC00F0106E47
:1017D0000C0EE15E1050000908E00001E66B02010A
:1017E0005169010E526FC6EC05F00001E60501E0FB
:1017F00065D2450EE66EE66A4D0EE66EE66A490E65
:10180000E66EE66A540EE66EE66A480EE66EE66A34
:10181000430EE66EE66AE0EC00F0106E0C0EE15E40
:101820001050000901E14AD242D226EC05F01DEC2D
:1018300005F00AEC05F039EC05F069EC05F056EC22
:1018400005F00201551D06E1561D04E1070E0201D7
:10185000536F546B04DD830EE66E570EE66EE66A38
:10186000E66AD6EC22F0E552E552E552E55255C261
:1018700010F056C211F0126A136A11AE02D012684B
:10188000136810C0E6FF11C0E6FF12C0E6FF13C0E8
:10189000E6FF0D0EE66EE66AAFEC21F0146E060E62
:1018A000E15E1450770EE66E570EE66EE66A010EA4
:1018B000E66ED6EC22F0E552E552E552E55257C20B
:1018C00010F058C211F0126A136A11AE02D01268F9
:1018D000136810C0E6FF11C0E6FF12C0E6FF13C098
:1018E000E6FF0D0EE66E010EE66EAFEC21F0146E13
:1018F000060EE15E145002015351541113E102012E
:10190000551D12E1561D10E1C60EE66E570EE66E2D
:101910000B0EE66EE66AD6EC22F0E552E552E55291
:10192000E55202D086EC04F00201583504E257512A
:101930000008000E58550AE36A0E0201516F526BFF
:10194000C6EC05F063C257F264C258F272EC05F0BF
:1019500000091BE10001E60523E1300EE66EE66AB0
:10196000E66EE66AE66EE66A3A0EE66EE66A540EE1
:10197000E66EE66A420EE66EE66AE0EC00F0106E95
:101980000C0EE15E105000090BE00001E66B730ED7
:101990000201516F526BC6EC05F002011E0E5A6F28
:1019A0007AEC05F000091CE10001E60521E1300EAA
:1019B000E66EE66AE66EE66A310EE66EE66A3A0EB4
:1019C000E66EE66A540EE66EE66A420EE66EE66A79
:1019D000E0EC00F0106E0C0EE15E1050000908E023
:1019E0000001E66B02015169010E526FC6EC05F071
:1019F0000001E60501E062D1450EE66EE66A4D0E95
:101A0000E66EE66A490EE66EE66A540EE66EE66A31
:101A1000480EE66EE66A430EE66EE66AE0EC00F01B
:101A2000106E0C0EE15E1050000901E147D13FD16C
:101A300026EC05F01DEC05F00AEC05F04CEC05F089
:101A400069EC05F043EC05F00201551D06E1561D59
:101A500004E1070E0201536F546B0201571D06E1AA
:101A6000581D04E1060E0201536F546B2FEC09F070
:101A7000830EE66E570EE66EE66AE66AD6EC22F054
:101A8000E552E552E552E55255C210F056C211F04A
:101A9000126A136A11AE02D01268136810C0E6FF12
:101AA00011C0E6FF12C0E6FF13C0E6FF0D0EE66EA2
:101AB000E66AAFEC21F0146E060EE15E14506A0E79
:101AC000E66E570EE66EE66A010EE66ED6EC22F082
:101AD000E552E552E552E55257C210F058C211F0F6
:101AE000126A136A11AE02D01268136810C0E6FFC2
:101AF00011C0E6FF12C0E6FF13C0E6FF0D0EE66E52
:101B0000010EE66EAFEC21F0146E060EE15E14508D
:101B100002015351541126E10201551D0FE1561DDA
:101B20000DE1C60EE66E570EE66E0B0EE66EE66A29
:101B3000D6EC22F0E552E552E552E5520201571D7E
:101B400013E1581D11E1C60EE66E570EE66E0B0E40
:101B5000E66E010EE66ED6EC22F0E552E552E55255
:101B6000E55202D086EC04F002015751581107E10A
:101B700002015551561102E0000E01D0010E020182
:101B80005551561107E102015751581102E0000E5C
:101B900001D0010E0201583504E257510008000E31
:101BA000585516E30201563504E255510008000E5F
:101BB00056550EE3050E0201516F526BC6EC05F04F
:101BC0005BC255F25CC256F265C257F266C258F269
:101BD00072EC05F000091BE10001E60523E1300E7F
:101BE000E66EE66AE66EE66AE66EE66A3A0EE66E6D
:101BF000E66A540EE66EE66A420EE66EE66AE0ECCF
:101C000000F0106E0C0EE15E105000090BE00001B8
:101C1000E66B740E0201516F526BC6EC05F00201C7
:101C20001E0E5A6F7AEC05F000091CE10001E60572
:101C300021E1300EE66EE66AE66EE66A310EE66E89
:101C4000E66A3A0EE66EE66A540EE66EE66A420E02
:101C5000E66EE66AE0EC00F0106E0C0EE15E1050ED
:101C6000000908E00001E66B02015169010E526FA4
:101C7000C6EC05F00001E60521E1450EE66EE66AD8
:101C80004D0EE66EE66A490EE66EE66A540EE66EA4
:101C9000E66A480EE66EE66A430EE66EE66AE0EC39
:101CA00000F0106E0C0EE15E1050000907E002011A
:101CB0005169010E526F0001E66B12001200740EA2
:101CC0000201511901E1525101E1ABD3730E5119D7
:101CD00001E1525101E172D2100E511901E152514C
:101CE00001E139D10F0E511901E1525101E0120009
:101CF00000EC05F030EC05F01DEC05F05FEC05F0B4
:101D000043EC05F056EC05F058EC09F0A40EE66E35
:101D1000570EE66EE66AE66AD6EC22F0E552E55228
:101D2000E552E5525AC210F0116A126A136A5AC299
:101D3000E6FF11C0E6FF12C0E6FF13C0E6FF0D0E7E
:101D4000E66EE66AAFEC21F0146E060EE15E14500A
:101D50009A0EE66E570EE66EE66A010EE66ED6EC59
:101D600022F0E552E552E552E5525AC210F0116AEE
:101D7000126A136A5AC2E6FF11C0E6FF12C0E6FFFC
:101D800013C0E6FF0D0EE66E010EE66EAFEC21F01D
:101D9000146E060EE15E145002015A5100080EE363
:101DA000060E0201516F526BC6EC05F05DC255F292
:101DB0005EC256F25DC257F25EC258F272EC05F096
:101DC00000091BE10001E60523E1300EE66EE66A3C
:101DD000E66EE66AE66EE66A3A0EE66EE66A540E6D
:101DE000E66EE66A420EE66EE66AE0EC00F0106E21
:101DF0000C0EE15E105000090BE00001E66B100EC6
:101E00000201516F526BC6EC05F002011E0E5A6FB3
:101E10007AEC05F000091CE10001E60521E1300E35
:101E2000E66EE66AE66EE66A310EE66EE66A3A0E3F
:101E3000E66EE66A540EE66EE66A420EE66EE66A04
:101E4000E0EC00F0106E0C0EE15E1050000908E0AE
:101E50000001E66B02015169010E526FC6EC05F0FC
:101E60008AEC05F000091CE10001E60529E1300ECD
:101E7000E66EE66AE66EE66A320EE66EE66A3A0EEE
:101E8000E66EE66A540EE66EE66A420EE66EE66AB4
:101E9000E0EC00F0106E0C0EE15E1050000910E056
:101EA0000001E66B050E0201516F526BC6EC05F0A6
:101EB0005BC255F25CC256F265C257F266C258F276
:101EC00082EC05F000091CE10001E60524E1300E7A
:101ED000E66EE66AE66EE66A330EE66EE66A3A0E8D
:101EE000E66EE66A540EE66EE66A420EE66EE66A54
:101EF000E0EC00F0106E0C0EE15E105000090BE0FB
:101F00000001E66B740E0201516F526BC6EC05F0D6
:101F100002011E0E5A6F0001E60501E0B8D3450E1E
:101F2000E66EE66A4D0EE66EE66A490EE66EE66A13
:101F3000540EE66EE66A480EE66EE66A430EE66EFC
:101F4000E66AE0EC00F0106E0C0EE15E1050000945
:101F500001E19DD395D313EC05F00AEC05F030ECCC
:101F600005F05FEC05F043EC05F056EC05F058EC9D
:101F700009F08D0EE66E570EE66EE66AE66AD6EC5E
:101F800022F0E552E552E552E5525AC210F0116ACC
:101F9000126A136A5AC2E6FF11C0E6FF12C0E6FFDA
:101FA00013C0E6FF0D0EE66EE66AAFEC21F0146E8C
:101FB000060EE15E14509A0EE66E570EE66EE66A65
:101FC000010EE66ED6EC22F0E552E552E552E552FE
:101FD0005AC210F0116A126A136A5AC2E6FF11C09F
:101FE000E6FF12C0E6FF13C0E6FF0D0EE66E010E1F
:101FF000E66EAFEC21F0146E060EE15E14500201A5
:102000005A5100080EE3690E0201516F526BC6EC83
:1020100005F05FC255F260C256F261C257F262C269
:1020200058F272EC05F000091BE10001E60523E11E
:10203000300EE66EE66AE66EE66AE66EE66A3A0E2E
:10204000E66EE66A540EE66EE66A420EE66EE66AF2
:10205000E0EC00F0106E0C0EE15E105000090BE099
:102060000001E66B730E0201516F526BC6EC05F076
:1020700002011E0E5A6F7AEC05F000091CE1000106
:10208000E60521E1300EE66EE66AE66EE66A310E9E
:10209000E66EE66A3A0EE66EE66A540EE66EE66AAA
:1020A000420EE66EE66AE0EC00F0106E0C0EE15EA9
:1020B0001050000908E00001E66B02015169010EB1
:1020C000526FC6EC05F08AEC05F000091CE1000136
:1020D000E60529E1300EE66EE66AE66EE66A320E45
:1020E000E66EE66A3A0EE66EE66A540EE66EE66A5A
:1020F000420EE66EE66AE0EC00F0106E0C0EE15E59
:102100001050000910E00001E66B060E0201516F4D
:10211000526BC6EC05F05DC255F25EC256F25DC26E
:1021200057F25EC258F282EC05F000091CE1000192
:10213000E60524E1300EE66EE66AE66EE66A330EE8
:10214000E66EE66A3A0EE66EE66A540EE66EE66AF9
:10215000420EE66EE66AE0EC00F0106E0C0EE15EF8
:10216000105000090BE00001E66B0F0E0201516FE9
:10217000526BC6EC05F002011E0E5A6F0001E60517
:1021800001E085D2450EE66EE66A4D0EE66EE66A21
:10219000490EE66EE66A540EE66EE66A480EE66E94
:1021A000E66A430EE66EE66AE0EC00F0106E0C0E96
:1021B000E15E1050000901E16AD262D239EC05F00B
:1021C00069EC05F056EC05F026EC05F00AEC05F09C
:1021D0001DEC05F058EC09F0830EE66E570EE66E26
:1021E000E66AE66AD6EC22F0E552E552E552E5529F
:1021F0005AC210F0116A126A136A5AC2E6FF11C07D
:10220000E6FF12C0E6FF13C0E6FF0D0EE66EE66ABB
:10221000AFEC21F0146E060EE15E1450770EE66E00
:10222000570EE66EE66A010EE66ED6EC22F0E55237
:10223000E552E552E5525AC210F0116A126A136A69
:102240005AC2E6FF11C0E6FF12C0E6FF13C0E6FF68
:102250000D0EE66E010EE66EAFEC21F0146E060E6A
:10226000E15E145002015A5100080EE36A0E0201A9
:10227000516F526BC6EC05F063C255F264C256F260
:1022800063C257F264C258F272EC05F000091BE118
:102290000001E60523E1300EE66EE66AE66EE66AC8
:1022A000E66EE66A3A0EE66EE66A540EE66EE66A98
:1022B000420EE66EE66AE0EC00F0106E0C0EE15E97
:1022C000105000090BE00001E66B740E0201516F23
:1022D000526BC6EC05F002011E0E5A6F7AEC05F047
:1022E00000091CE10001E60521E1300EE66EE66A18
:1022F000E66EE66A310EE66EE66A3A0EE66EE66A6B
:10230000540EE66EE66A420EE66EE66AE0EC00F017
:10231000106E0C0EE15E1050000908E00001E66B43
:1023200002015169010E526FC6EC05F08AEC05F00E
:1023300000091CE10001E60529E1300EE66EE66ABF
:10234000E66EE66A320EE66EE66A3A0EE66EE66A19
:10235000540EE66EE66A420EE66EE66AE0EC00F0C7
:10236000106E0C0EE15E1050000910E00001E66BEB
:10237000690E0201516F526BC6EC05F05FC255F257
:1023800060C256F261C257F262C258F282EC05F0A6
:1023900000091CE10001E60524E1300EE66EE66A64
:1023A000E66EE66A330EE66EE66A3A0EE66EE66AB8
:1023B000540EE66EE66A420EE66EE66AE0EC00F067
:1023C000106E0C0EE15E105000090BE00001E66B90
:1023D000100E0201516F526BC6EC05F002011E0E89
:1023E0005A6F0001E60501E052D1450EE66EE66A3D
:1023F0004D0EE66EE66A490EE66EE66A540EE66E2D
:10240000E66A480EE66EE66A430EE66EE66AE0ECC1
:1024100000F0106E0C0EE15E1050000901E137D1A2
:102420002FD14CEC05F043EC05F069EC05F026ECFF
:1024300005F00AEC05F01DEC05F058EC09F0830EF0
:10244000E66E570EE66EE66AE66AD6EC22F0E552D4
:10245000E552E552E5525AC210F0116A126A136A47
:102460005AC2E6FF11C0E6FF12C0E6FF13C0E6FF46
:102470000D0EE66EE66AAFEC21F0146E060EE15E1C
:1024800014506A0EE66E570EE66EE66A010EE66EB0
:10249000D6EC22F0E552E552E552E5525AC210F070
:1024A000116A126A136A5AC2E6FF11C0E6FF12C02F
:1024B000E6FF13C0E6FF0D0EE66E010EE66EAFEC12
:1024C00021F0146E060EE15E145002015A510EE125
:1024D000050E0201516F526BC6EC05F05BC255F25E
:1024E0005CC256F25FC257F260C258F272EC05F05D
:1024F00000091BE10001E60523E1300EE66EE66A05
:10250000E66EE66AE66EE66A3A0EE66EE66A540E35
:10251000E66EE66A420EE66EE66AE0EC00F0106EE9
:102520000C0EE15E105000090BE00001E66B0F0E8F
:102530000201516F526BC6EC05F002011E0E5A6F7C
:102540007AEC05F000091CE10001E60521E1300EFE
:10255000E66EE66AE66EE66A310EE66EE66A3A0E08
:10256000E66EE66A540EE66EE66A420EE66EE66ACD
:10257000E0EC00F0106E0C0EE15E1050000908E077
:102580000001E66B02015169010E526FC6EC05F0C5
:102590008AEC05F000091CE10001E60529E1300E96
:1025A000E66EE66AE66EE66A320EE66EE66A3A0EB7
:1025B000E66EE66A540EE66EE66A420EE66EE66A7D
:1025C000E0EC00F0106E0C0EE15E1050000910E01F
:1025D0000001E66B6A0E0201516F526BC6EC05F00A
:1025E00063C255F264C256F263C257F264C258F233
:1025F00082EC05F000091CE10001E60524E1300E43
:10260000E66EE66AE66EE66A330EE66EE66A3A0E55
:10261000E66EE66A540EE66EE66A420EE66EE66A1C
:10262000E0EC00F0106E0C0EE15E105000090BE0C3
:102630000001E66B730E0201516F526BC6EC05F0A0
:1026400002011E0E5A6F0001E60521E1450EE66EFD
:10265000E66A4D0EE66EE66A490EE66EE66A540ECE
:10266000E66EE66A480EE66EE66A430EE66EE66AD7
:10267000E0EC00F0106E0C0EE15E1050000907E077
:1026800002015169010E526F0001E66B1200120047
:102690001D0E0201511901E1525102E1C9EF19F079
:1026A0001C0E511901E1525102E19FEF17F01B0E70
:1026B000511901E1525101E134D21A0E511901E1CF
:1026C000525120E0E868511902E1010E521901E06F
:1026D00012001A0E516F526BC6EC05F002011E0E6D
:1026E0005A6F5BC267F25CC268F25DC269F25EC299
:1026F0006AF261C26BF262C26CF263C26DF264C2D2
:102700006EF212000201590509E126EC05F00AEC0F
:1027100005F01DEC05F05FEC05F008D030EC05F09D
:102720000AEC05F01DEC05F069EC05F043EC05F052
:1027300056EC05F058EC09F092EC05F000091CE1AC
:102740000001E60533E1300EE66EE66AE66EE66A03
:10275000340EE66EE66A3A0EE66EE66A540EE66EF1
:10276000E66A420EE66EE66AE0EC00F0106E0C0ED1
:10277000E15E105000091AE00001E66B0201E70E6D
:10278000675D030E68590AE202011E0E5A6F0201CC
:10279000672B000E68235BEC08F008D0010E0201E5
:1027A000536F546B020E02016F6F706B9AEC05F061
:1027B00000091CE10001E60534E1300EE66EE66A30
:1027C000E66EE66A350EE66EE66A3A0EE66EE66A92
:1027D000540EE66EE66A420EE66EE66AE0EC00F043
:1027E000106E0C0EE15E105000091BE00001E66B5C
:1027F0000201010ED8806755000E68550AE20201F9
:102800001E0E5A6F02016707000E685B5BEC08F052
:1028100008D0010E0201536F546B020E02016F6F5C
:10282000706B02015351541126E1A40EE66E570E4F
:10283000E66EE66A010EE66ED6EC22F0E552E5524F
:10284000E552E55267C210F068C211F0126A136ACD
:1028500067C2E6FF68C2E6FF12C0E6FF13C0E6FFEC
:102860000D0EE66E010EE66EAFEC21F0146E060E54
:10287000E15E145002D086EC04F002015A5105E1E9
:1028800002015169526BC6EC05F072EC05F00009CB
:102890001CE10001E60524E1300EE66EE66AE66E14
:1028A000E66A310EE66EE66A3A0EE66EE66A540EA7
:1028B000E66EE66A420EE66EE66AE0EC00F0106E46
:1028C0000C0EE15E105000090BE00001E66B1B0EE0
:1028D0000201516F526BC6EC05F002011E0E5A6FD9
:1028E00082EC05F000091CE10001E60524E1300E50
:1028F000E66EE66AE66EE66A330EE66EE66A3A0E63
:10290000E66EE66A540EE66EE66A420EE66EE66A29
:10291000E0EC00F0106E0C0EE15E105000090BE0D0
:102920000001E66B02011E0E5A6FC6EC05F01D0E8B
:102930000201516F526BB6EC05F0000938E100015D
:10294000E60519E1300EE66EE66AE66EE66A320EDC
:10295000E66EE66A3A0EE66EE66A540EE66EE66AE1
:10296000420EE66EE66AE0EC00F0106E0C0EE15EE0
:10297000105000091CE10001E6054CE1540EE66E22
:10298000E66A490EE66EE66A4D0EE66EE66AE66EA9
:10299000E66A4F0EE66EE66A430EE66EE66AE0EC25
:1029A00000F0116E0C0EE15E1150000933E00001E1
:1029B000E66B67C25BF268C25CF269C25DF26AC232
:1029C0005EF26BC261F26CC262F26DC263F26EC201
:1029D00064F202015B5102015D250201656F020193
:1029E0005C5102015E210201666F02016151020128
:1029F000632502015F6F020162510201642102013D
:102A0000606F02015169526B5BEC08F0C5EC08F095
:102A1000C6EC05F00001E60520E1470E0001815DEE
:102A20001CE1310E825D19E10001E66B300E000100
:102A3000865D116E300E855D0A0DF3CF10F0300EFD
:102A4000845D640DF350102411240201676F686BDC
:102A500002011E0E5A6F5BEC08F00001E60526E14C
:102A6000470E0001815D22E1320E825D1FE100010F
:102A7000E66B300E0001865D116E300E855D0A0D2D
:102A8000F3CF10F0300E845D640DF3501024112448
:102A900002016B6F6C6B02011E0E5A6F1C0E02015D
:102AA000516F526BC5EC08F0C6EC05F00001E6056D
:102AB00026E1590E0001815D22E1310E825D1FE1A8
:102AC0000001E66B300E0001865D116E300E855DF3
:102AD0000A0DF3CF10F0300E845D640DF350102416
:102AE00011240201696F6A6B02011E0E5A6F1B0EE0
:102AF0000201516F526B5BEC08F0C6EC05F000016F
:102B0000E60502E0F0EF1BF0590E0001815D02E0E6
:102B1000F0EF1BF0320E825D02E0F0EF1BF0AAEF47
:102B200019F00201590509E126EC05F00AEC05F05F
:102B30001DEC05F05FEC05F008D030EC05F00AEC78
:102B400005F01DEC05F069EC05F043EC05F056ECE2
:102B500005F058EC09F092EC05F000091CE10001C9
:102B6000E60533E1300EE66EE66AE66EE66A340E9E
:102B7000E66EE66A3A0EE66EE66A540EE66EE66ABF
:102B8000420EE66EE66AE0EC00F0106E0C0EE15EBE
:102B9000105000091AE00001E66B0201E70E695DC2
:102BA000030E6A590AE202011E0E5A6F0201692BD6
:102BB000000E6A235BEC08F008D0010E0201536F8F
:102BC000546B020E02016F6F706B9AEC05F00009F6
:102BD0001CE10001E60534E1300EE66EE66AE66EC1
:102BE000E66A350EE66EE66A3A0EE66EE66A540E60
:102BF000E66EE66A420EE66EE66AE0EC00F0106E03
:102C00000C0EE15E105000091BE00001E66B0201B2
:102C1000010ED8806955000E6A550AE202011E0EA7
:102C20005A6F02016907000E6A5B5BEC08F008D07E
:102C3000010E0201536F546B020E02016F6F706B35
:102C400002015351541126E18D0EE66E570EE66EC9
:102C5000E66A010EE66ED6EC22F0E552E552E55248
:102C6000E55269C210F06AC211F0126A136A69C2B1
:102C7000E6FF6AC2E6FF12C0E6FF13C0E6FF0D0ED4
:102C8000E66E010EE66EAFEC21F0146E060EE15E0C
:102C9000145002D086EC04F002015A5105E1020101
:102CA0005169526BC6EC05F072EC05F000091CE1AD
:102CB0000001E60524E1300EE66EE66AE66EE66A9D
:102CC000310EE66EE66A3A0EE66EE66A540EE66E7F
:102CD000E66A420EE66EE66AE0EC00F0106E0C0E5C
:102CE000E15E105000090BE00001E66B1C0E0201D2
:102CF000516F526B02011E0E5A6FC6EC05F082EC4A
:102D000005F000091CE10001E60524E1300EE66E45
:102D1000E66AE66EE66A330EE66EE66A3A0EE66E3E
:102D2000E66A540EE66EE66A420EE66EE66AE0EC8D
:102D300000F0106E0C0EE15E105000090BE0000177
:102D4000E66B1A0E0201516F526B02011E0E5A6F92
:102D5000C6EC05F0B6EC05F0000938E10001E60527
:102D600019E1300EE66EE66AE66EE66A320EE66E4F
:102D7000E66A3A0EE66EE66A540EE66EE66A420EC1
:102D8000E66EE66AE0EC00F0106E0C0EE15E1050AC
:102D900000091CE10001E6054CE1540EE66EE66A0E
:102DA000490EE66EE66A4D0EE66EE66AE66EE66A85
:102DB0004F0EE66EE66A430EE66EE66AE0EC00F061
:102DC000116E0C0EE15E1150000933E00001E66B5C
:102DD00067C25BF268C25CF269C25DF26AC25EF20F
:102DE0006BC261F26CC262F26DC263F26EC264F2D7
:102DF00002015B5102015D250201656F02015C5118
:102E000002015E210201666F020161510201632528
:102E100002015F6F02016251020164210201606FD1
:102E200002015169526B5BEC08F0C5EC08F0C6EC8E
:102E300005F00001E60526E1470E0001815D22E173
:102E4000310E825D1FE10001E66B300E0001865DF0
:102E5000116E300E855D0A0DF3CF10F0300E845DDB
:102E6000640DF350102411240201676F686B020196
:102E70001E0E5A6F1A0E0201516F526B5BEC08F076
:102E8000C6EC05F00001E60526E1470E0001815D74
:102E900022E1320E825D1FE10001E66B300E00017F
:102EA000865D116E300E855D0A0DF3CF10F0300E89
:102EB000845D640DF3501024112402016B6F6C6B60
:102EC00002011E0E5A6F1C0E0201516F526BC5ECAF
:102ED00008F0C6EC05F00001E60520E1590E0001FE
:102EE000815D1CE1310E825D19E10001E66B300E5F
:102EF0000001865D116E300E855D0A0DF3CF10F076
:102F0000300E845D640DF350102411240201696FAA
:102F10006A6B02011E0E5A6F5BEC08F00001E605B9
:102F200002E0F0EF1BF0590E0001815D02E0F0EFCE
:102F30001BF0320E825D02E0F0EF1BF00BD20201BB
:102F4000590509E126EC05F00AEC05F01DEC05F049
:102F50005FEC05F008D030EC05F00AEC05F01DEC54
:102F600005F069EC05F043EC05F056EC05F058EC83
:102F700009F092EC05F000091CE10001E60533E1DF
:102F8000300EE66EE66AE66EE66A340EE66EE66AD5
:102F90003A0EE66EE66A540EE66EE66A420EE66E9B
:102FA000E66AE0EC00F0106E0C0EE15E10500009D5
:102FB0001AE00001E66B0201E70E6B5D030E6C592F
:102FC0000AE202011E0E5A6F02016B2B000E6C23E7
:102FD000C5EC08F008D0010E0201536F546B020ECD
:102FE00002016F6F706B9AEC05F000091CE10001A3
:102FF000E60534E1300EE66EE66AE66EE66A350E08
:10300000E66EE66A3A0EE66EE66A540EE66EE66A2A
:10301000420EE66EE66AE0EC00F0106E0C0EE15E29
:10302000105000091BE00001E66B0201010ED88080
:103030006B55000E6C550AE202011E0E5A6F02011A
:103040006B07000E6C5BC5EC08F008D0010E0201A6
:10305000536F546B020E02016F6F706B020153517C
:10306000541126E1770EE66E570EE66EE66A010E03
:10307000E66ED6EC22F0E552E552E552E5526BC21F
:1030800010F06CC211F0126A136A6BC2E6FF6CC2D8
:10309000E6FF12C0E6FF13C0E6FF0D0EE66E010E5E
:1030A000E66EAFEC21F0146E060EE15E145002D015
:1030B00086EC04F002015A51000805E3020151694F
:1030C000526BC6EC05F072EC05F000091CE1000142
:1030D000E60524E1300EE66EE66AE66EE66A310E3B
:1030E000E66EE66A3A0EE66EE66A540EE66EE66A4A
:1030F000420EE66EE66AE0EC00F0106E0C0EE15E49
:10310000105000090BE00001E66B02011E0E5A6F21
:103110001D0E0201516F526BC6EC05F082EC05F0FA
:1031200000091CE10001E60524E1300EE66EE66AC6
:10313000E66EE66A330EE66EE66A3A0EE66EE66A1A
:10314000540EE66EE66A420EE66EE66AE0EC00F0C9
:10315000106E0C0EE15E105000090BE00001E66BF2
:1031600002011E0E5A6F1B0E0201516F526BC6EC0C
:1031700005F0B6EC05F0000938E10001E60519E1BB
:10318000300EE66EE66AE66EE66A320EE66EE66AD5
:103190003A0EE66EE66A540EE66EE66A420EE66E99
:1031A000E66AE0EC00F0106E0C0EE15E10500009D3
:1031B0001CE10001E6054CE1540EE66EE66A490E9C
:1031C000E66EE66A4D0EE66EE66AE66EE66A4F0E5B
:1031D000E66EE66A430EE66EE66AE0EC00F0116E1B
:1031E0000C0EE15E1150000933E00001E66B67C28E
:1031F0005BF268C25CF269C25DF26AC25EF26BC2E7
:1032000061F26CC262F26DC263F26EC264F20201DC
:103210005B5102015D250201656F02015C510201F3
:103220005E210201666F0201615102016325020104
:103230005F6F02016251020164210201606F0201AD
:103240005169526B5BEC08F0C5EC08F0C6EC05F078
:103250000001E60526E1470E0001815D22E1310E05
:10326000825D1FE10001E66B300E0001865D116E8C
:10327000300E855D0A0DF3CF10F0300E845D640DC5
:10328000F350102411240201676F686B02011E0EB7
:103290005A6F1A0E0201516F526B5BEC08F0C6ECCC
:1032A00005F00001E60520E1470E0001815D1CE10B
:1032B000320E825D19E10001E66B300E0001865D81
:1032C000116E300E855D0A0DF3CF10F0300E845D67
:1032D000640DF3501024112402016B6F6C6B02011A
:1032E0001E0E5A6FC5EC08F00001E60526E1590EE6
:1032F0000001815D22E1310E825D1FE10001E66B7C
:10330000300E0001865D116E300E855D0A0DF3CF23
:1033100010F0300E845D640DF3501024112402016E
:10332000696F6A6B02011E0E5A6F1B0E0201516F0C
:10333000526B5BEC08F0C6EC05F00001E60501E01D
:103340004FD2590E0001815D01E04AD2320E825DFA
:1033500001E046D20001E66B300E0001865D116E81
:10336000300E855D0A0DF3CF10F0300E845D640DD4
:10337000F3501024112402016D6F6E6B02011E0EBA
:103380005A6F1D0E0201516F526BC5EC08F0C6EF6B
:1033900005F00201590509E126EC05F00AEC05F0FB
:1033A0001DEC05F05FEC05F008D030EC05F00AEC00
:1033B00005F01DEC05F069EC05F043EC05F056EC6A
:1033C00005F058EC09F092EC05F000091CE1000151
:1033D000E60533E1300EE66EE66AE66EE66A340E26
:1033E000E66EE66A3A0EE66EE66A540EE66EE66A47
:1033F000420EE66EE66AE0EC00F0106E0C0EE15E46
:10340000105000091AE00001E66B0201E70E6D5D45
:10341000030E6E590AE202011E0E5A6F02016D2B55
:10342000000E6E23C5EC08F008D0010E0201536FA8
:10343000546B020E02016F6F706B9AEC05F000097D
:103440001CE10001E60534E1300EE66EE66AE66E48
:10345000E66A350EE66EE66A3A0EE66EE66A540EE7
:10346000E66EE66A420EE66EE66AE0EC00F0106E8A
:103470000C0EE15E105000091BE00001E66B02013A
:10348000010ED8806D55000E6E550AE202011E0E27
:103490005A6F02016D07000E6E5BC5EC08F008D094
:1034A000010E0201536F546B020E02016F6F706BBD
:1034B00002015351541126E16A0EE66E570EE66E74
:1034C000E66A010EE66ED6EC22F0E552E552E552D0
:1034D000E5526DC210F06EC211F0126A136A6DC22D
:1034E000E6FF6EC2E6FF12C0E6FF13C0E6FF0D0E58
:1034F000E66E010EE66EAFEC21F0146E060EE15E94
:10350000145002D086EC04F002015A51000805E381
:1035100002015169526BC6EC05F072EC05F000092E
:103520001CE10001E60524E1300EE66EE66AE66E77
:10353000E66A310EE66EE66A3A0EE66EE66A540E0A
:10354000E66EE66A420EE66EE66AE0EC00F0106EA9
:103550000C0EE15E105000090BE00001E66B020169
:103560001E0E5A6F1A0E0201516F526BC6EC05F017
:1035700082EC05F000091CE10001E60524E1300EB3
:10358000E66EE66AE66EE66A330EE66EE66A3A0EC6
:10359000E66EE66A540EE66EE66A420EE66EE66A8D
:1035A000E0EC00F0106E0C0EE15E105000090BE034
:1035B0000001E66B02011E0E5A6F1C0E0201516FD4
:1035C000526BC6EC05F0B6EC05F0000938E10001DD
:1035D000E60519E1300EE66EE66AE66EE66A320E40
:1035E000E66EE66A3A0EE66EE66A540EE66EE66A45
:1035F000420EE66EE66AE0EC00F0106E0C0EE15E44
:10360000105000091CE10001E6054CE1540EE66E85
:10361000E66A490EE66EE66A4D0EE66EE66AE66E0C
:10362000E66A4F0EE66EE66A430EE66EE66AE0EC88
:1036300000F0116E0C0EE15E1150000933E0000144
:10364000E66B67C25BF268C25CF269C25DF26AC295
:103650005EF26BC261F26CC262F26DC263F26EC264
:1036600064F202015B5102015D250201656F0201F6
:103670005C5102015E210201666F0201615102018B
:10368000632502015F6F02016251020164210201A0
:10369000606F02015169526B5BEC08F0C5EC08F0F9
:1036A000C6EC05F00001E60526E1470E0001815D4C
:1036B00022E1310E825D1FE10001E66B300E000158
:1036C000865D116E300E855D0A0DF3CF10F0300E61
:1036D000845D640DF350102411240201676F686B40
:1036E00002011E0E5A6F1A0E0201516F526B5BECF3
:1036F00008F0C6EC05F00001E60526E1470E0001E2
:10370000815D22E1320E825D1FE10001E66B300E29
:103710000001865D116E300E855D0A0DF3CF10F04D
:10372000300E845D640DF3501024112402016B6F80
:103730006C6B02011E0E5A6F1C0E0201516F526B10
:10374000C5EC08F0C6EC05F00001E60526E1590ECF
:103750000001815D22E1310E825D1FE10001E66B17
:10376000300E0001865D116E300E855D0A0DF3CFBF
:1037700010F0300E845D640DF3501024112402010A
:10378000696F6A6B02011E0E5A6F1B0E0201516FA8
:10379000526B5BEC08F0C6EC05F00001E60520E199
:1037A000590E0001815D1CE1320E825D19E10001BC
:1037B000E66B300E0001865D116E300E855D0A0DE0
:1037C000F3CF10F0300E845D640DF35010241124FB
:1037D00002016D6F6E6B02011E0E5A6FC5EF08F08D
:0237E0001200D5
:0E37E200D9CFE6FFE1CFD9FF040EE126DE6A63
:1037F000DD6ADECF10F0DDCF11F0126A136A11AE70
:1038000002D012681368D950FB0FE96EFF0EDA2060
:10381000EA6EEE50105CEE501158EE501258EE5019
:1038200013581DE2020EDB6A030EDB6A020EDBCFC9
:1038300010F0030EDBCF11F0D890115004E6050E06
:10384000105C000E115806E2020EDB2A030EEEE3B6
:10385000DB2AECD7DF2A010ECCE3DB2ACAD7040E21
:10386000E15C02E2E16AE552E16EE552E7CFD9FFA1
:103870001200D9CFE6FFE1CFD9FF040EE126DE6AC0
:10388000DD6ADECF10F0DDCF11F0126A136A11AEDF
:1038900002D012681368D950FB0FE96EFF0EDA20D0
:1038A000EA6EEE50105CEE501158EE501258EE5089
:1038B00013581DE2020EDB6A030EDB6A020EDBCF39
:1038C00010F0030EDBCF11F0D890115004E6EE0E8D
:1038D000105C000E115806E2020EDB2A030EEEE326
:1038E000DB2AECD7DF2A010ECCE3DB2ACAD7040E91
:1038F000E15C02E2E16AE552E16EE552E7CFD9FF11
:103900001200D9CFE6FFE1CFD9FF0F0E8116FE0ED0
:10391000DB50F00B81128186010EE66EE66AE66AE4
:10392000E66AA7DFE552E552E552E5528196010EBF
:10393000E66EE66AE66AE66A9CDFE552E552E55223
:10394000E5520F0E8116FE0EDB38F00B81128186D8
:10395000010EE66EE66AE66AE66A8BDFE552E5523C
:10396000E552E5528196010EE66EE66AE66AE66A7F
:1039700080DFE552E552E552E552E552E7CFD9FF47
:103980001200D9CFE6FFE1CFD9FFE652190EE66E5D
:10399000E66AE66AE66A6DDFE552E552E552E5520F
:1039A0000F0E8116F80E81160F0E8116300E811241
:1039B0008186010EE66EE66AE66AE66A5ADFE5523D
:1039C000E552E552E5528196010EE66EE66AE66A38
:1039D000E66A4FDFE552E552E552E5520F0E8116D9
:1039E000300E81128186010EE66EE66AE66AE66AAC
:1039F00040DFE552E552E552E5528196010EE66E52
:103A0000E66AE66AE66A35DFE552E552E552E552D6
:103A10000F0E8116300E81128186010EE66EE66A67
:103A2000E66AE66A26DFE552E552E552E5528196FE
:103A3000010EE66EE66AE66AE66A1BDFE552E552CB
:103A4000E552E5520F0E8116818A8186010EE66EDF
:103A5000E66AE66AE66A0DDFE552E552E552E552AE
:103A60008196010EE66EE66AE66AE66A02DFE552D4
:103A7000E552E552E552280EE66E43DFE5520C0EA4
:103A8000E66E3FDFE552E552E552E7CFD9FF12007F
:103A9000D9CFE6FFE1CFD9FF020EE126DF6A010EA2
:103AA000DB6A81940F0EE66EE66AE66AE66A99DEE4
:103AB000E552E552E552E5520F0E81128186E66E1F
:103AC000E66AE66AE66A8DDEE552E552E552E552BF
:103AD0000F0E8114E76E010EE7CFDBFF81960F0E0C
:103AE000E66EE66AE66AE66A7CDEE552E552E55293
:103AF000E5520F0E81128186E66EE66AE66AE66A94
:103B000070DEE552E552E552E5520F0E8114DF6E8C
:103B1000010EDB50DF128196010EE66EE66AE66A60
:103B2000E66A5FDEE552E552E552E552DF50106E7F
:103B3000020EE15C02E2E16AE552E16E1050E552EC
:103B4000E7CFD9FF1200D9CFE6FFE1CFD9FFE65288
:103B5000DF6A9EDFDF6EDFBEFCD7DF50E552E55245
:103B6000E7CFD9FF1200D9CFE6FFE1CFD9FF0F0E83
:103B70008116FE0EDB5081128186050EE66EE66A26
:103B8000E66AE66A2EDEE552E552E552E552819696
:103B9000050EE66EE66AE66AE66A23DEE552E5525F
:103BA000E552E552E552E7CFD9FF1200D9CFE6FF43
:103BB000E1CFD9FF8194050EE66EE66AE66AE66A11
:103BC00010DEE552E552E552E552FE0EDBCFE6FF90
:103BD000CADFE552FE0EDB38F00BE66EC4DFE552BD
:103BE000E552E7CFD9FF1200D9CFE6FFE1CFD9FFE9
:103BF0008184050EE66EE66AE66AE66AF2DDE55263
:103C0000E552E552E552FE0EDBCFE6FFACDFE552B2
:103C1000FE0EDB38F00BE66EA6DFE5528194E5522E
:103C2000E7CFD9FF1200D9CFE6FFE1CFD9FFFE0ED3
:103C3000DBCFE6FFD9DFE552E552E7CFD9FF12002F
:103C4000D9CFE6FFE1CFD9FFFE0EDBCFE6FFCCDF19
:103C5000E552E552E7CFD9FF1200D9CFE6FFE1CF19
:103C6000D9FFFD0EDBCFF6FFFE0EDBCFF7FF08001E
:103C7000F5500FE0FD0EDBCFF6FFDB2AFE0EDBCFAB
:103C8000F7FF01E3DB2A0800F550E66ED9DFE552C5
:103C9000E8D7E552E7CFD9FF1200D9CFE6FFE1CF51
:103CA000D9FFE652FD0EDB500F0B106EFE0EDB50FF
:103CB000010B400DF3501024DF6E7F0EDF14800FD8
:103CC000DF6EDFCFE6FF72DFE552E552E552E7CF68
:103CD000D9FF1200010EE66E69DFE552E66AE66A78
:103CE000DCDFE552E5521200D9CFE6FFE1CFD9FF84
:103CF000050EE126010EF36EDB6E020EDB6A030E8B
:103D0000DB6A040EDB6ADF6ADFCF10F0116A10BED7
:103D10001168FB0EDBCF12F0FC0EDBCF13F011505D
:103D20001318E8AE02D0133404D01250105C1350B4
:103D300011582DE2FD0EDBCF10F0FE0EDBCF11F09F
:103D4000126A136A11AE02D012681368D950010FBB
:103D5000E96EDACFEAFF10C00BF011C00CF012C010
:103D60000DF013C00EF0EECF06F0EECF07F0EECF61
:103D700008F0EFCF09F033EC2DF005C0EDFF04C0E3
:103D8000EDFF03C0EDFF02C0EFFFDF2ABDD7010E3C
:103D9000DBCF10F0020EDBCF11F0030EDBCF12F001
:103DA000040EDBCF13F010C006F011C007F012C0F4
:103DB00008F013C009F0050EE15C02E2E16AE55289
:103DC000E16EE552E7CFD9FF1200D9CFE6FFE1CF90
:103DD000D9FF020EE126DF6AFB0EDBCF10F0FC0EEE
:103DE000DBCF11F0FD0EDBCF12F0FE0EDBCF13F0B8
:103DF000105011101210131005E1300EE66E20DF86
:103E0000E552F4D0D950FB0FE96EFF0EDA20EA6ECE
:103E1000D890030EEB50000A08E6000EEE5C000E90
:103E2000EE58000EEE58000EEE5815E22D0EE66E1E
:103E300007DFE552D950FB0FE96EFF0EDA20EA6E7C
:103E4000000EEE6CEF1EEE22EF1EEE22EF1EEF22B2
:103E5000ED52ED52ED52DE52070EDD6E010EDBCF5C
:103E600010F0000EE76E1018E8AE02D0103403D048
:103E7000E750D880105401E3B9D0010EDB04146E72
:103E8000156A14BE156814C0E6FF15C0E6FF0A0ED9
:103E9000E66EE66A29DFE552E552E552E55206C0D4
:103EA00010F007C011F008C012F009C013F006C0EE
:103EB0000BF007C00CF008C00DF009C00EF0FB0EAF
:103EC000DBCF06F0FC0EDBCF07F0FD0EDBCF08F0FA
:103ED000FE0EDBCF09F06BEC2DF00650071008103A
:103EE000091041E0010EDF6EDB04186E196A18BE7E
:103EF000196818C0E6FF19C0E6FF0A0EE66EE66A0A
:103F0000F3DEE552E552E552E55206C014F007C073
:103F100015F008C016F009C017F006C00BF007C076
:103F20000CF008C00DF009C00EF0FB0EDBCF06F060
:103F3000FC0EDBCF07F0FD0EDBCF08F0FE0EDBCF73
:103F400009F06BEC2DF006C010F007C011F008C0AE
:103F500012F009C013F0300E1026000E11221222AA
:103F60001322105003D0DF5004E0300EE66E68DEFE
:103F7000E552010EDB04146E156A14BE156814C0F8
:103F8000E6FF15C0E6FF0A0EE66EE66AADDEE55214
:103F9000E552E552E55206C010F007C011F008C026
:103FA00012F009C013F0D950FB0FE96EFF0EDA20B2
:103FB000EA6E06C00BF007C00CF008C00DF009C097
:103FC0000EF0EECF06F0EECF07F0EECF08F0EFCF19
:103FD00009F06BEC2DF005C0EDFF04C0EDFF03C050
:103FE000EDFF02C0EFFF010EDB0638D7020EE15CE9
:103FF00002E2E16AE552E16EE552E7CFD9FF120035
:10400000D9CFE6FFE1CFD9FFFD0EDBCFE6FFFE0EF5
:10401000DBCFE6FF42DEE552E552D950F90FE96EFB
:10402000FF0EDA20EA6EEECFE6FFEECFE6FFEECF30
:10403000E6FFEFCFE6FFC9DEE552E552E552E55275
:10404000E552E7CFD9FF1200D9CFE6FFE1CFD9FF84
:10405000FD0EDBCFE6FFFE0EDBCFE6FF1EDEE552F8
:10406000E552FB0EDBCFE6FFFC0EDBCFE6FFF5DD16
:10407000E552E552E552E7CFD9FF1200D9CFE6FF6E
:10408000E1CFD9FFECC010F0EDC011F0040ED890D4
:1040900010361136E806FBE1410E10260F0E1122F4
:1040A00010500001EE25E96E1150EF21EA6EFE0E70
:1040B000DBCFEFFFEE2B000EEF23E552E7CFD9FF6A
:1040C0001200D9CFE6FFE1CFD9FFE652DF6ADFCF9A
:1040D00010F0100EE76E1018E8AE02D0E73402D0F0
:1040E000E750105C18E2DFCFE9FFEA6AE9BEEA6850
:1040F000410EE9260F0EEA22200EEF6EDFCFE9FF18
:10410000EA6AE9BEEA68510EE9260F0EEA22200E9D
:10411000EF6EDF2ADCD7E552E552E7CFD9FF120078
:10412000D9CFE6FFE1CFD9FFE6520F014051030A94
:1041300052E0010A36E0030A1AE0010A67E1E66A82
:10414000E66AABDDE552E552DF6A080EDF5C0CE2A1
:10415000DF50EA6A410FE96E0F0EEA22EF50E66E79
:104160006FDDE552DF2AF1D70F01010E32D0080EC4
:10417000E66EE66A92DDE552E552DF6A080EDF5C24
:104180000DE2080EDF24EA6A410FE96E0F0EEA2203
:10419000EF50E66E55DDE552DF2AF0D70F01020E33
:1041A00018D0E66A010EE66E78DDE552E552DF6A68
:1041B000080EDF5C0CE2DF50EA6A510FE96E0F0E69
:1041C000EA22EF50E66E3CDDE552DF2AF1D70F011F
:1041D000030E406F1CD0080EE66E010EE66E5DDD2C
:1041E000E552E552DF6A080EDF5C0DE2080EDF24BF
:1041F000EA6A510FE96E0F0EEA22EF50E66E20DDFB
:10420000E552DF2AF0D70F01406B01D0406BE55239
:10421000E552E7CFD9FF1200D9CFE6FFE1CFD9FFB2
:10422000E6520F014051010A1BE0010A32E1E66A41
:10423000E66A33DDE552E552DF6A100EDF5C0CE220
:10424000DF50EA6A410FE96E0F0EEA22EF50E66E88
:10425000F7DCE552DF2AF1D70F01010E406F1AD0CB
:10426000E66A010EE66E19DDE552E552DF6A100ED0
:10427000DF5C0CE2DF50EA6A510FE96E0F0EEA22B2
:10428000EF50E66EDDDCE552DF2AF1D70F01406B1F
:1042900001D0406BE552E552E7CFD9FF1200D9CFEC
:1042A000E6FFE1CFD9FFE652E66AE66AF6DCE552C0
:1042B000E552DF6A100EDF5C0CE2DF50EA6A410F64
:1042C000E96E0F0EEA22EF50E66EBADCE552DF2A05
:1042D000F1D7E66A010EE66EE0DCE552E552DF6AF0
:1042E000100EDF5C0CE2DF50EA6A510FE96E0F0E30
:1042F000EA22EF50E66EA4DCE552DF2AF1D7E55260
:10430000E552E7CFD9FF1200D9CFE6FFE1CFD9FFC1
:10431000FE0EDB50010B0001EC6FED6BFD0EDB5070
:104320000F0BEE6FEF6BECC010F0EDC011F0040E50
:10433000D89010361136E806FBE1410E10260F0E1C
:10434000112210500001EE25E96E1150EF21EA6EA6
:10435000FC0EDBCFEFFFE552E7CFD9FF1200D9CF3C
:10436000E6FFE1CFD9FF020EE126DF6AFE0EDB5049
:10437000010B0001EC6FED6BFD0EDB500F0BEE6FD0
:10438000EF6BF90EDBCF10F0FA0EDBCF11F0FB0E66
:10439000DBCF12F0FC0EDBCF13F010501110121017
:1043A000131005E1300EE66E69DEE552F5D0D95006
:1043B000F90FE96EFF0EDA20EA6ED890030EEB508B
:1043C000000A08E6000EEE5C000EEE58000EEE58F5
:1043D000000EEE5815E22D0EE66E50DEE552D95075
:1043E000F90FE96EFF0EDA20EA6E000EEE6CEF1E9A
:1043F000EE22EF1EEE22EF1EEF22ED52ED52ED52B5
:10440000DE52070EDD6E010EDBCF10F0000EE76E00
:104410001018E8AE02D0103403D0E750D880105402
:1044200001E3BAD0010EDB04146E156A14BE1568E0
:1044300014C0E6FF15C0E6FF0A0EE66EE66A54DC1D
:10444000E552E552E552E55206C010F007C011F002
:1044500008C012F009C013F006C00BF007C00CF042
:1044600008C00DF009C00EF0F90EDBCF06F0FA0E11
:10447000DBCF07F0FB0EDBCF08F0FC0EDBCF09F043
:104480006BEC2DF0065007100810091041E0010EEA
:10449000DF6EDB04186E196A18BE196818C0E6FFD3
:1044A00019C0E6FF0A0EE66EE66A1EDCE552E5522A
:1044B000E552E55206C014F007C015F008C016F02A
:1044C00009C017F006C00BF007C00CF008C00DF0D3
:1044D00009C00EF0F90EDBCF06F0FA0EDBCF07F0C5
:1044E000FB0EDBCF08F0FC0EDBCF09F06BEC2DF000
:1044F00006C010F007C011F008C012F009C013F098
:10450000300E1026000E112212221322105003D05A
:10451000DF5004E0300EE66EB1DDE552010EDB0443
:10452000146E156A14BE156814C0E6FF15C0E6FFC8
:104530000A0EE66EE66A74EC1EF0E552E552E552AC
:10454000E55206C010F007C011F008C012F009C013
:1045500013F0D950F90FE96EFF0EDA20EA6E06C0AB
:104560000BF007C00CF008C00DF009C00EF0EECF44
:1045700006F0EECF07F0EECF08F0EFCF09F06BECCE
:104580002DF005C0EDFF04C0EDFF03C0EDFF02C03C
:10459000EFFF010EDB0637D7020EE15C02E2E16AB3
:1045A000E552E16EE552E7CFD9FF1200D9CFE6FF21
:1045B000E1CFD9FFFE0EDB50010B0001EC6FED6B7C
:1045C000FD0EDB500F0BEE6FEF6BFB0EDBCFF6FF3C
:1045D000FC0EDBCFF7FF0800F5500FE0FB0EDBCF42
:1045E000F6FFDB2AFC0EDBCFF7FF01E3DB2A080036
:1045F000F550E66E43DDE552E8D7E552E7CFD9FF47
:024600001200A6
:0E460200B06A810EAF6EAC8AAC94B886AC98EC
:10461000AB8EAB889E9A9D8A9F9A949C948E120032
:10462000D9CFE6FFE1CFD9FF040EE126DE6ADD6ACD
:10463000DECF10F0DDCF11F0FD0EDBCF12F0FE0E5D
:10464000DBCF13F011501318E8AE02D0133404D0AE
:104650001250105C135011581DE2020EDB6A030E5B
:10466000DB6A020EDBCF10F0030EDBCF11F0D89027
:10467000115004E6EE0E105C000E115806E2020E18
:10468000DB2A030EEEE3DB2AECD7DF2A010ED0E3B0
:10469000DB2ACED7040EE15C02E2E16AE552E16E6C
:1046A000E552E7CFD9FF1200D9CFE6FFE1CFD9FF1E
:1046B0009EA8FED7FE0EDB50AD6E9E98E552E7CF6A
:1046C000D9FF1200D9CFE6FFE1CFD9FFFD0EDBCF36
:1046D000E9FFFE0EDBCFEAFFEF5010E0FD0EDBCF6F
:1046E000E9FFFE0EDBCFEAFFEF50E66EDDDFE552BD
:1046F000FD0EDB2AFE0EEAE3DB2AE8D7E552E7CF20
:10470000D9FF1200D9CFE6FFE1CFD9FFFD0EDBCFF5
:10471000F6FFFE0EDBCFF7FF0800F55015E0FD0EAB
:10472000DBCFF6FFFE0EDBCFF7FF0800F550E66E9D
:10473000BBDFE552FD0EDBCFF6FFDB2AFE0EDBCF43
:10474000F7FFE4E3DB2AE2D7E552E7CFD9FF120017
:10475000D9CFE6FFE1CFD9FFE652AE50DF6E0001C0
:10476000E551050A2AE0010A21E0070A11E0010AE1
:104770000AE0020A02E0010A2AE1210EDF5C28E1D8
:10478000E86B020E22D0210EDF5C15E1030E1DD076
:10479000E851EA6A810FE96E000EEA22DFCFEFFFEF
:1047A000E82BEA51E85D14E3040E0FD0230EDF5C22
:1047B00002E1050E0AD0010E08D0230EDF5C04E1F1
:1047C000010EE66FE56B04D0010EE56F01D0E56BDD
:1047D000E552E552E7CFD9FF1200A8EF23F0D9CF79
:1047E000E6FFE1CFD9FFE6685FDFE552E6685CDF10
:1047F000E552FE0EDBCFE6FF57DFE552FD0EDBCFC5
:1048000010F0FE0EDBCF11F00D6A010E0E6E10C01F
:1048100008F011C009F04BEC2CF004C010F005C0FA
:1048200011F00450E66E40DFE552FC0EDBCFE6FFF0
:104830003BDFE552FB0EDBCF10F0FC0EDBCF11F0BF
:104840000D6A010E0E6E10C008F011C009F04BEC9D
:104850002CF004C010F005C011F00450E66E24DF07
:10486000E552FA0EDBCFE6FF1FDFE552F90EDBCF94
:1048700010F0FA0EDBCF11F00D6A010E0E6E10C0B3
:1048800008F011C009F04BEC2CF004C010F005C08A
:1048900011F00450E66E08DFE552F80EDBCFE6FFBC
:1048A00003DFE552F70EDBCF10F0F80EDBCF11F08F
:1048B0000D6A010E0E6E10C008F011C009F04BEC2D
:1048C0002CF004C010F005C011F00450E66EECDED0
:1048D000E552FE0EE66EE8DEE552FE0EE66EE4DE22
:1048E000E552E552E7CFD9FF1200D9CFE6FFE1CF7D
:1048F000D9FF020EE126DF6AFB0EDBCF10F0FC0EC3
:10490000DBCF11F0FD0EDBCF12F0FE0EDBCF13F08C
:10491000105011101210131005E1300EE66EC4DEB7
:10492000E552F4D0D950FB0FE96EFF0EDA20EA6EA3
:10493000D890030EEB50000A08E6000EEE5C000E65
:10494000EE58000EEE58000EEE5815E22D0EE66EF3
:10495000ABDEE552D950FB0FE96EFF0EDA20EA6EAE
:10496000000EEE6CEF1EEE22EF1EEE22EF1EEF2287
:10497000ED52ED52ED52DE520A0EDD6E010EDBCF2E
:1049800010F0000EE76E1018E8AE02D0103403D01D
:10499000E750D880105401E3B9D0010EDB04146E47
:1049A000156A14BE156814C0E6FF15C0E6FF0A0EAE
:1049B000E66EE66AB5D8E552E552E552E55206C024
:1049C00010F007C011F008C012F009C013F006C0C3
:1049D0000BF007C00CF008C00DF009C00EF0FB0E84
:1049E000DBCF06F0FC0EDBCF07F0FD0EDBCF08F0CF
:1049F000FE0EDBCF09F06BEC2DF00650071008100F
:104A0000091041E0010EDF6EDB04186E196A18BE52
:104A1000196818C0E6FF19C0E6FF0A0EE66EE66ADE
:104A20007FD8E552E552E552E55206C014F007C0C2
:104A300015F008C016F009C017F006C00BF007C04B
:104A40000CF008C00DF009C00EF0FB0EDBCF06F035
:104A5000FC0EDBCF07F0FD0EDBCF08F0FE0EDBCF48
:104A600009F06BEC2DF006C010F007C011F008C083
:104A700012F009C013F0300E1026000E112212227F
:104A80001322105003D0DF5004E0300EE66E0CDE2F
:104A9000E552010EDB04146E156A14BE156814C0CD
:104AA000E6FF15C0E6FF0A0EE66EE66A39D8E55263
:104AB000E552E552E55206C010F007C011F008C0FB
:104AC00012F009C013F0D950FB0FE96EFF0EDA2087
:104AD000EA6E06C00BF007C00CF008C00DF009C06C
:104AE0000EF0EECF06F0EECF07F0EECF08F0EFCFEE
:104AF00009F06BEC2DF005C0EDFF04C0EDFF03C025
:104B0000EDFF02C0EFFF010EDB0638D7020EE15CBD
:104B100002E2E16AE552E16EE552E7CFD9FF120009
:104B2000D9CFE6FFE1CFD9FF050EE126010EF36EE6
:104B3000DB6E020EDB6A030EDB6A040EDB6ADF6AE1
:104B4000DFCF10F0116A10BE1168FB0EDBCF12F040
:104B5000FC0EDBCF13F011501318E8AE02D0133463
:104B600004D01250105C135011582DE2FD0EDBCF13
:104B700010F0FE0EDBCF11F0126A136A11AE02D0F4
:104B800012681368D950010FE96EDACFEAFF10C03E
:104B90000BF011C00CF012C00DF013C00EF0EECFF0
:104BA00006F0EECF07F0EECF08F0EFCF09F033ECD0
:104BB0002DF005C0EDFF04C0EDFF03C0EDFF02C006
:104BC000EFFFDF2ABDD7010EDBCF10F0020EDBCFE7
:104BD00011F0030EDBCF12F0040EDBCF13F010C088
:104BE00006F011C007F012C008F013C009F0050E5E
:104BF000E15C02E2E16AE552E16EE552E7CFD9FFFE
:024C00001200A0
:0E4C0200D9CFE6FFE1CFD9FFD59EFD0EDBCF67
:104C100077F2FE0EDBCF78F2D59C13681468156A24
:104C200077C216F078C217F0186A1650135C106E2F
:104C300017501458116E18501558126E0C6A010E48
:104C40000D6E0E6A10C007F011C008F012C009F016
:104C500071EC2CF00350D66E13681468156A77C295
:104C600016F078C217F0186A1650135C106E1750C1
:104C70001458116E18501558126E0C6A010E0D6EF4
:104C80000E6A10C007F011C008F012C009F071ECF4
:104C90002CF007C010F008C011F009C012F0075046
:104CA000D76ED59AD586F28AF294F184D58EE552E4
:104CB000E7CFD9FF1200D59E120013681468156A59
:104CC00077C216F078C217F0186A1650135C106E8F
:104CD00017501458116E18501558126E0C6A010EA8
:104CE0000D6E0E6A10C007F011C008F012C009F076
:104CF00071EC2CF00350D66E13681468156A77C2F5
:104D000016F078C217F0186A1650135C106E175020
:104D10001458116E18501558126E0C6A010E0D6E53
:104D20000E6A10C007F011C008F012C009F071EC53
:104D30002CF007C010F008C011F009C012F00750A5
:104D4000D76ED58E1200D9CFE6FFE1CFD9FFCD9037
:104D5000FD0EDBCF79F2FE0EDBCF7AF2136814681A
:104D6000156A79C216F07AC217F0186A1650135CE9
:104D7000106E17501458116E18501558126E0C6A98
:104D8000010E0D6E0E6A10C007F011C008F012C0BF
:104D900009F071EC2CF00750CF6E13681468156A97
:104DA00079C216F07AC217F0186A1650135C106EAA
:104DB00017501458116E18501558126E0C6A010EC7
:104DC0000D6E0E6A10C007F011C008F012C009F095
:104DD00071EC2CF003C010F004C011F005C012F00B
:104DE0000350CE6E9D809E909F90CD8ECD8CCD98A1
:104DF000CD9ACD96CD92CD80E552E7CFD9FF120066
:104E000013681468156A79C216F07AC217F0186A26
:104E10001650135C106E17501458116E1850155818
:104E2000126E0C6A010E0D6E0E6A10C007F011C0F2
:104E300008F012C009F071EC2CF00750CF6E136827
:104E40001468156A79C216F07AC217F0186A1650FB
:104E5000135C106E17501458116E18501558126EBE
:104E60000C6A010E0D6E0E6A10C007F011C008F03A
:104E700012C009F071EC2CF003C010F004C011F066
:104E800005C012F00350CE6ECD801200CD901200FE
:104E9000D9CFE6FFE1CFD9FFCA94CC6AFE0EDB5032
:104EA00002017B6F7C6BCB6E9D829E929F92CA901B
:104EB000CA92CA84E552E7CFD9FF12007BC2CBFF6A
:104EC000CA841200CA941200D9CFE6FFE1CFD9FFFD
:104ED000B190FD0EDBCF7DF2FE0EDBCF7EF21368CC
:104EE0001468156A7DC216F07EC217F0186A165053
:104EF000135C106E17501458116E18501558126E1E
:104F00000C6A010E0D6E0E6A10C007F011C008F099
:104F100012C009F071EC2CF00750B36E13681468DE
:104F2000156A7DC216F07EC217F0186A1650135C1F
:104F3000106E17501458116E18501558126E0C6AD6
:104F4000010E0D6E0E6A10C007F011C008F012C0FD
:104F500009F071EC2CF003C010F004C011F005C092
:104F600012F00350B26EA082A192A292B18EB198BB
:104F7000B19AB192B180E552E7CFD9FF1200136820
:104F80001468156A7DC216F07EC217F0186A1650B2
:104F9000135C106E17501458116E18501558126E7D
:104FA0000C6A010E0D6E0E6A10C007F011C008F0F9
:104FB00012C009F071EC2CF00350B26E1368146843
:104FC000156A7DC216F07EC217F0186A1650135C7F
:104FD000106E17501458116E18501558126E0C6A36
:104FE000010E0D6E0E6A10C007F011C008F012C05D
:104FF00009F071EC2CF007C010F008C011F009C0E6
:1050000012F00750B36EB1801200B190120002018D
:10501000872B000E88238F51875D9051885904E3B8
:10502000876B886B010E7F6F12000201892B000EC7
:105030008A239151895D92518A5904E3896B8A6B65
:10504000010E806F120002018B2B000E8C239351F6
:105050008B5D94518C5904E38B6B8C6B010E816FCB
:10506000120002018D2B000E8E2395518D5D9651FD
:105070008E5904E38D6B8E6B010E826F1200D9CFB7
:10508000E6FFE1CFD9FFFD0EDBCF8FF2FE0EDBCFC7
:1050900090F20201876B886B7F6BE552E7CFD9FFF7
:1050A0001200D9CFE6FFE1CFD9FFFD0EDBCF91F2A1
:1050B000FE0EDBCF92F2050E0D6E0E6A91C208F065
:1050C00092C209F04BEC2CF008C091F209C092F2A8
:1050D0000201896B8A6B806BE552E7CFD9FF120022
:1050E000D9CFE6FFE1CFD9FFFD0EDBCF95F2FE0E63
:1050F000DBCF96F20A0E0D6E0E6A95C208F096C2CC
:1051000009F04BEC2CF008C095F209C096F20201B0
:0E5110008D6B8E6B826BE552E7CFD9FF1200DC
:02511E000F0E72
:10512000946E82681200CF0E9414946E82681200FE
:10513000D9CFE6FFE1CFD9FF040EE126DE6ADD6AB2
:10514000DECF10F0DDCF11F0D890115004E6040E40
:10515000105C000E115801E390D0DECFE9FFDDCFE7
:10516000EAFF490EE926020EEA22EF1C826E020EC9
:10517000DB6A030EDB6A020EDBCF10F0030EDBCF1F
:1051800011F0D890115004E6040E105C000E115876
:105190006EE2020EDBCFE9FF030EDBCFEAFF4D0E1E
:1051A000E926020EEA22EF5082143FE1DECF14F02E
:1051B000DDCF15F0D89014361536D8901436153644
:1051C000020EDB501424E96E030EDB501520EA6E4C
:1051D000D890E936EA36290EE926020EEA22EECF09
:1051E00012F0EFCF13F0010E1226000E1322DECFC5
:1051F00010F0DDCF11F0D89010361136D89010365F
:105200001136020EDB501024E96E030EDB50112024
:10521000EA6ED890E936EA36290EE926020EEA222D
:1052200012C0EEFF13C0EDFF1BD0DECF10F0DDCFBC
:1052300011F0D89010361136D89010361136020E73
:10524000DB501024E96E030EDB501120EA6ED8907B
:10525000E936EA36290EE926020EEA22EE6AED6AFE
:10526000020EDB2A030E01E286D7DB2A84D7DF2A6F
:10527000010E01E265D7DB2A63D7040EE15C02E28E
:10528000E16AE552E16EE552E7CFD9FF1200D9CFCE
:10529000E6FFE1CFD9FF040EE126DE6ADD6ADECF4C
:1052A00010F0DDCF11F0D890115004E6020E105C22
:1052B000000E115801E390D0DECFE9FFDDCFEAFF09
:1052C000490EE926020EEA22EF1C826E020EDB6A0C
:1052D000030EDB6A020EDBCF10F0030EDBCF11F002
:1052E000D890115004E6040E105C000E11586EE2C6
:1052F000020EDBCFE9FF030EDBCFEAFF4D0EE926FE
:10530000020EEA22EF5082143FE1DECF14F0DDCF2F
:1053100015F0D89014361536D89014361536020E7E
:10532000DB501424E96E030EDB501520EA6ED89092
:10533000E936EA36290EE926020EEA22EECF12F00D
:10534000EFCF13F0010E1226000E1322DECF10F065
:10535000DDCF11F0D89010361136D89010361136B6
:10536000020EDB501024E96E030EDB501120EA6EB2
:10537000D890E936EA36290EE926020EEA2212C052
:10538000EEFF13C0EDFF1BD0DECF10F0DDCF11F02C
:10539000D89010361136D89010361136020EDB50E8
:1053A0001024E96E030EDB501120EA6ED890E93626
:1053B000EA36290EE926020EEA22EE6AED6A020EAC
:1053C000DB2A030E01E286D7DB2A84D7DF2A010E0F
:1053D00001E265D7DB2A63D7040EE15C02E2E16AF1
:1053E000E552E16EE552E7CFD9FF1200D9CFE6FFD3
:1053F000E1CFD9FF040EE126DE6ADD6ADECF10F0D0
:10540000DDCF11F0FD0EDBCF12F0FE0EDBCF13F07F
:1054100011501318E8AE02D0133404D01250105CAF
:10542000135011581DE2020EDB6A030EDB6A020EF6
:10543000DBCF10F0030EDBCF11F0D890115004E653
:10544000EE0E105C000E115806E2020EDB2A030E6F
:10545000EEE3DB2AECD7DF2A010ED0E3DB2ACED73E
:10546000040EE15C02E2E16AE552E16EE552E7CF4B
:10547000D9FF1200D9CFE6FFE1CFD9FF040EE12614
:10548000DE6ADD6ADECF10F0DDCF11F0D89011506A
:1054900004E6040E105C000E115875E2DECFE9FF41
:1054A000DDCFEAFF490EE926020EEA22EF1C826EEA
:1054B000020EDB6A030EDB6A020EDBCF10F0030E76
:1054C000DBCF11F0D890115004E6040E105C000EF2
:1054D00011584AE2DECF10F0DDCF11F0D89010362F
:1054E0001136D89010361136020EDB501024E96EBA
:1054F000030EDB501120EA6ED890E936EA36290E09
:10550000E926020EEA22EE6AED6A020EDBCFE9FF1F
:10551000030EDBCFEAFF4D0EE926020EEA22EF5022
:1055200082141CE1DECF10F0DDCF11F0D8901036E0
:105530001136D89010361136020EDB501024E96E69
:10554000030EDB501120EA6ED890E936EA36290EB8
:10555000E926020EEA22010EEE6EED6A020EDB2A49
:10556000030EAAE3DB2AA8D78250816EE80EE66E0E
:10557000030EE66E3BDFE552E552DF2A010E01E243
:1055800081D7DB2A7FD7040EE15C02E2E16AE552B3
:0A559000E16EE552E7CFD9FF1200EB
:06559A00F28ED08EF28CAF
:1055A0001200F19CF292F2881200D8CFE4FFE0CF13
:1055B000E4FFE46EDACFE4FFE2CFDAFFE9CFE4FF05
:1055C000EACFE4FFF6CFE4FFF7CFE4FFF5CFE4FF47
:1055D000F3CFE4FFF4CFE4FFFACFE4FF00EE00F0F6
:1055E000100EE80403E3EECFE4FFFBD700EE10F06B
:1055F0000C0EE80403E3EECFE4FFFBD7E652F2A47F
:1056000007D05BEC26F0F2945DEC26F007EC28F076
:105610009EA007D046EC27F09E9000EC27F015ECFA
:1056200028F0A1A207D005EC28F0A192BFEC27F04A
:1056300031EC28F0F2B2F2929EAA03D09E9AEDECE1
:1056400023F0E55200EE1BF00C0EE80403E3E5CF77
:10565000EDFFFBD700EE0FF0100EE80403E3E5CFFB
:10566000EDFFFBD7E5CFFAFFE5CFF4FFE5CFF3FF82
:10567000E5CFF5FFE5CFF7FFE5CFF6FFE5CFEAFF92
:10568000E5CFE9FFE5CFDAFFE550E5CFE0FFE5CF75
:10569000D8FF1000DACFE4FFE2CFDAFFE9CFE4FF72
:1056A000EACFE4FFF6CFE4FFF7CFE4FFF5CFE4FF66
:1056B000F3CFE4FFF4CFE4FFFACFE4FF00EE00F015
:1056C000100EE80403E3EECFE4FFFBD700EE10F08A
:1056D0000C0EE80403E3EECFE4FFFBD7E652F2A49E
:1056E00007D05BEC26F0F2945DEC26F007EC28F096
:1056F0009EA007D046EC27F09E9000EC27F015EC1A
:1057000028F0A1A207D005EC28F0A192BFEC27F069
:1057100031EC28F0F2B2F2929EAA03D09E9AEDEC00
:1057200023F0E55200EE1BF00C0EE80403E3E5CF96
:10573000EDFFFBD700EE0FF0100EE80403E3E5CF1A
:10574000EDFFFBD7E5CFFAFFE5CFF4FFE5CFF3FFA1
:10575000E5CFF5FFE5CFF7FFE5CFF6FFE5CFEAFFB1
:0A576000E5CFE9FFE5CFDAFF110005
:06576A0059454C4C4F575D
:1057700020323A20202000475245454E20323A2020
:1057800020200052454420313A2020200059454C29
:105790004C4F5720313A2020200052454420323AC5
:1057A00020202000475245454E20313A202020003D
:1057B000534554323A00534554313A004C49474816
:1057C00054323A003A0044454C4159004C4947484C
:1057D00054313A0023005354415455533A002100A8
:1057E00044454C415920524544322020202020205D
:1057F0000044454C4159205245443120202020206E
:10580000200044454C41592059454C4C4F573120BC
:1058100020200044454C41592059454C4C4F5732AB
:10582000202020004348414E47494E4720524544DE
:1058300032004348414E47494E47205245443100CB
:105840004150504C5920494E2059454C4C4F57001F
:105850004F5554204F462052414E474500202020AE
:02586000200026
:0E586200006A0EAE37EF2CF00E6C001E09AE81
:105870003CEF2CF0096C001EE0EC2DF009BE46EF69
:105880002CF000AE000C096C056C000C00BE43EF60
:105890002CF00188FF0C006A0EAE54EF2CF00D6C5A
:1058A0000E1EE86A0E22001E09AE5CEF2CF0086C9A
:1058B000091EE86A0922001EACEC2DF009BE6CEF4F
:1058C0002CF000AE000C086C091EE86A0922046C7A
:1058D000051EE86A0522000C00BE63EF2CF001886B
:1058E000FF0C006A0EAE7CEF2CF00C6C0D1E0E1E31
:1058F000E86A0D220E22001E09AE86EF2CF0076C1E
:10590000081E091EE86A08220922001E8FEC2DF0ED
:1059100009BE99EF2CF000AE000C076C081E091EA2
:10592000E86A08220922036C041E051E04220522CF
:0C593000000C00BE8DEF2CF00188FF0C75
:04593C001E0EF66ED7
:10594000000EF76E000EF86E01010900F550FB6FB6
:105950000900F550FC6F03E1FB6701D03DD0090061
:10596000F550F66F0900F550F76F0900F550F86F24
:1059700009000900F550E96E0900F550EA6E0900CA
:1059800009000900F550F96F0900F550FA6F090098
:105990000900F6CFFDF1F7CFFEF1F8CFFFF1F6C128
:1059A000F6FFF7C1F7FFF8C1F8FF0101F95302E173
:1059B000FA5307E00900F550EE6EF907F8E2FA072E
:1059C000F9D7FDC1F6FFFEC1F7FFFFC1F8FF0101E6
:0A59D000FB07000EFC5BBFD71200BE
:0659DA000F0E926E0B0E91
:1059E000C16E040EC06E1200D9CFE6FFE1CFD9FF21
:1059F000020EE126FE0EDB50040DF350C26EC28093
:105A0000C282C2B2FED7C450DE6EDD6ADECF12F0B3
:105A1000DDCF13F0D89012361336D89012361336E5
:105A2000060EC3CFE7FF070B04E0E742E79EE80658
:105A3000FCE1E7501224106E000E132010C0DEFFB0
:105A4000DD6EDECF10F0DDCF11F010C0F3FF11C01E
:105A5000F4FF020EE15C02E2E16AE552E16EE5521A
:065A6000E7CFD9FF1200A0
:0A5A660006500B02F3CF02F0F4CF5C
:105A700003F00C02F3500326000EF420046E0650CF
:105A80000D02F3500426000EF420056E06500E029F
