:020000040000FA
:0600000037EF2CF01200A6
:020006001200E6
:06000800CBEF29F012000D
:02000E000000F0
:050010000000000605E0
:0600180056EF29F0120072
:02001E000700D9
:100020006359000000010000280000003D59000055
:100030002801000026000000395900006F0F000061
:1000400004000000D8580000000F0000610000000C
:10005000C6580000E500000012000000A65800008D
:100060004E010000200000000E000000F70000001C
:040070000700000085
:0C007400D9CFE6FFE1CFD9FF020EE12654
:10008000DE6ADD6A74D840EC06F0AAEC06F0000ED9
:10009000E66EE66A8DDBE552E552000EE66EE66A34
:1000A00080EC04F0E552E552EBEC1CF0E2EC1EF0C3
:1000B000E80EE66E030EE66E16D8E552E552010133
:1000C0005951FDE0596BC8EC27F0C7D8E2EC1EF09F
:1000D00043EC07F044EC0CF081EC07F02DEC11F050
:1000E00011EC1FF0ECD7D9CFE6FFE1CFD9FF040E1A
:1000F000E126DE6ADD6ADECF10F0DDCF11F0FD0E05
:10010000DBCF12F0FE0EDBCF13F011501318E8AE68
:1001100002D0133404D01250105C135011581DE259
:10012000020EDB6A030EDB6A020EDBCF10F0030E59
:10013000DBCF11F0D890115004E6EE0E105C000EEB
:10014000115806E2020EDB2A030EEEE3DB2AECD79F
:10015000DF2A010ED0E3DB2ACED7040EE15C02E2F7
:10016000E16AE552E16EE552E7CFD9FF1200936AEA
:10017000956A926A42EC1BF0836A4EEC29F0E80E15
:10018000E66E030EE66EAFDFE552E552660EE66EF2
:10019000B70EE66EE5EC25F0E552E552320EE66E5E
:1001A000E66AF1EC26F0E552E55214EC27F082EC19
:1001B00021F052EC2BF0030E9310936E1200D9CF66
:1001C000E6FFE1CFD9FF00018151106E116AFD0EEB
:1001D000DB5010183DE1FE0EDB50111839E1825161
:1001E000126E136AFB0EDB50121832E1FC0EDB506C
:1001F00013182EE18351146E156AF90EDB50141892
:1002000027E1FA0EDB50151823E18451166E176AA8
:10021000F70EDB5016181CE1F80EDB50171818E12A
:100220008551186E196AF50EDB50181811E1F60E9B
:10023000DB5019180DE186511A6E1B6AF30EDB5064
:100240001A1806E1F40EDB501B1802E1010E01D072
:10025000000EE552E7CFD9FF12000001F80556E184
:10026000300EE66EE66AE66EE66AE66EE66A3A0E1C
:10027000E66EE66A530EE66EE66A520EE66EE66AD1
:100280009EDF106E0C0EE15E105000093FE0000191
:10029000F86B0A0E01013E6F3F6B0101426F436B29
:1002A000050E0101406F416B0101446F456B010177
:1002B0002869296B0A0E0101326F336B050E0101AB
:1002C000346F356B010132510101342501013C6F5E
:1002D000010133510101352101013D6F0A0E010178
:1002E000386F396B050E01013A6F3B6B01013851D4
:1002F00001013A250101366F0101395101013B210C
:100300000101376F40EC06F0AAEC06F01200D9CFDD
:10031000E6FFE1CFD9FFFE0EDBCF11F0800E111406
:100320001AE1FD0EDBCF12F0FE0EDBCF13F013341B
:1003300004E212500708000E13540DE3FD0EDBCF4C
:10034000E9FFFE0EDBCFEAFFE50EE926000EEA220A
:10035000EF508310836EE552E7CFD9FF1200D9CF5B
:10036000E6FFE1CFD9FFFE0EDBCF11F0800E1114B6
:100370001AE1FD0EDBCF12F0FE0EDBCF13F01334CB
:1003800004E212500708000E13540DE3FD0EDBCFFC
:10039000E9FFFE0EDBCFEAFFE50EE926000EEA22BA
:1003A000EF1C8314836EE552E7CFD9FF1200D9CF3B
:1003B000E6FFE1CFD9FFFD0EDBCFE9FFFE0EDBCF7D
:1003C000EAFFED0EE926000EEA22EF0415E1FD0E2C
:1003D000DBCFE6FFFE0EDBCFE6FFC1DFE552E552E5
:1003E000FD0EDBCFE9FFFE0EDBCFEAFFED0EE926C7
:1003F000000EEA22EF6A15D0FD0EDBCFE6FFFE0EFF
:10040000DBCFE6FF84DFE552E552FD0EDBCFE9FFEF
:10041000FE0EDBCFEAFFED0EE926000EEA22010E0A
:10042000EF6EE552E7CFD9FF1200D9CFE6FFE1CF5B
:10043000D9FF020EE126DE6ADD6ADECF10F0DDCFE5
:1004400011F0113404E210500708000E115421E39A
:10045000DECFE6FFDDCFE6FF5ADFE552E552F40ED0
:10046000E66E010EE66E3FDEE552E552DECFE6FFB8
:10047000DDCFE6FF74DFE552E552F40EE66E010EC5
:10048000E66E31DEE552E552DF2A010ED6E3DB2AC5
:10049000D4D7020EE15C02E2E16AE552E16EE55278
:1004A000E7CFD9FF12000101010E001903E101514C
:1004B00001E1010C000C0101010E021903E10351DD
:1004C00001E1010C000C080E01012A1901E12B5178
:1004D0005AE0070E2A1901E12B514EE0060E2A19A7
:1004E00001E12B5145E0050E2A1901E12B513CE0B9
:1004F000040E2A1901E12B5125E0030E2A1901E10E
:100500002B511AE0020E2A1901E12B510FE0010EC6
:100510002A1901E12B5104E02A5142E12B5140D02C
:10052000E2EC1EF0520EE66E550E11D0E2EC1EF01B
:10053000420EE66E550E0BD0E2EC1EF0340EE66E67
:10054000550E05D0E2EC1EF0260EE66E550EE66E58
:10055000E66AE66A57EC21F0E552E552E552E552CB
:1005600001011E0E316F1CD0150EE66E550E07D020
:10057000040EE66E550E0AD0F30EE66E540EE66ECD
:10058000E66AE66A07D0E20EE66E540EE66EE66AAA
:10059000010EE66E57EC21F0E552E552E552E552C8
:1005A0000101010E461908E1475106E101012A6BDC
:1005B0002B6B01011E0E316F1200000EE66EE66A13
:1005C000A6DEE552E5520101010E4A6F1200000E4F
:1005D000E66EE66AC4DEE552E55201014A6B12009E
:1005E000040EE66EE66A93DEE552E5520101010E65
:1005F000496F1200040EE66EE66AB1DEE552E5527E
:100600000101496B1200060EE66EE66A80DEE552D5
:10061000E5520101010E486F1200060EE66EE66A11
:100620009EDEE552E5520101486B1200010EE66EB6
:10063000E66A6DDEE552E5520101010E4D6F1200D2
:10064000010EE66EE66A8BDEE552E55201014D6B66
:100650001200050EE66EE66A5ADEE552E552010129
:10066000010E4C6F1200050EE66EE66A78DEE5526A
:10067000E55201014C6B1200070EE66EE66A47DE9A
:10068000E552E5520101010E4B6F1200070EE66EB6
:10069000E66A65DEE552E55201014B6B120001018D
:1006A000010E001903E1015101E1010C000C0101EF
:1006B000010E021903E1035101E1010C000C0101DB
:1006C000010E061903E1075101E1010C000C0101C3
:1006D000010E041903E1055101E1010C000C0101B7
:1006E000010E021903E1035101E1010C000C0101AB
:1006F000140E025D000E035915E302C110F003C190
:1007000011F00A0E0D6E0E6A02C108F003C109F065
:1007100011EC2CF005C011F0010E041803E111508A
:1007200001E1010C000C0101010E041903E1055166
:1007300001E1010C000C0101010E061903E1075152
:1007400001E1010C000C0101010E081903E109513E
:1007500001E1010C000CE00EE66E540EE66E03ECB7
:1007600022F0E552E552D80EE66E540EE66E03EC2A
:1007700022F0E552E55228C110F029C111F0126AA9
:10078000136A28C1E6FF29C1E6FF12C0E6FF13C0C5
:10079000E6FFF6EC22F0E552E552E552E552D60EC0
:1007A000E66E540EE66E03EC22F0E552E5521200BE
:1007B000D9CFE6FFE1CFD9FFE00EE66E540EE66E2C
:1007C00003EC22F0E552E552CE0EE66E540EE66ED4
:1007D00003EC22F0E552E552D950FD0FE96EFF0E11
:1007E000DA20EA6EEE50ED1017E12CC110F02DC1A9
:1007F00011F0126A136A11AE02D01268136810C0A9
:10080000E6FF11C0E6FF12C0E6FF13C0E6FFF6ECFC
:1008100022F0E552E55206D0C80EE66E540EE66EA2
:1008200003EC22F0E552E552C60EE66E540EE66E7B
:1008300003EC22F0E552E55248C110F0116A126A49
:10084000136A10AE03D011681268136810C0E6FF77
:1008500011C0E6FF12C0E6FF13C0E6FFF6EC22F07F
:10086000E552E552E552E552C60EE66E540EE66ECE
:1008700003EC22F0E552E55249C110F0116A126A08
:10088000136A10AE03D011681268136810C0E6FF37
:1008900011C0E6FF12C0E6FF13C0E6FFF6EC22F03F
:1008A000E552E552E552E552C60EE66E540EE66E8E
:1008B00003EC22F0E552E5524AC110F0116A126AC7
:1008C000136A10AE03D011681268136810C0E6FFF7
:1008D00011C0E6FF12C0E6FF13C0E6FFF6EC22F0FF
:1008E000E552E552E552E552D60EE66E540EE66E3E
:1008F00003EC22F0E552E552E552E7CFD9FF1200B2
:10090000D9CFE6FFE1CFD9FFE00EE66E540EE66EDA
:1009100003EC22F0E552E552BE0EE66E540EE66E92
:1009200003EC22F0E552E552D950FD0FE96EFF0EBF
:10093000DA20EA6EEE50ED1017E12EC110F02FC153
:1009400011F0126A136A11AE02D01268136810C057
:10095000E6FF11C0E6FF12C0E6FF13C0E6FFF6ECAB
:1009600022F0E552E55206D0C80EE66E540EE66E51
:1009700003EC22F0E552E552C60EE66E540EE66E2A
:1009800003EC22F0E552E5524BC110F0116A126AF5
:10099000136A10AE03D011681268136810C0E6FF26
:1009A00011C0E6FF12C0E6FF13C0E6FFF6EC22F02E
:1009B000E552E552E552E552C60EE66E540EE66E7D
:1009C00003EC22F0E552E5524CC110F0116A126AB4
:1009D000136A10AE03D011681268136810C0E6FFE6
:1009E00011C0E6FF12C0E6FF13C0E6FFF6EC22F0EE
:1009F000E552E552E552E552C60EE66E540EE66E3D
:100A000003EC22F0E552E5524DC110F0116A126A72
:100A1000136A10AE03D011681268136810C0E6FFA5
:100A200011C0E6FF12C0E6FF13C0E6FFF6EC22F0AD
:100A3000E552E552E552E552D60EE66E540EE66EEC
:100A400003EC22F0E552E552E552E7CFD9FF120060
:100A5000E00EE66E540EE66E03EC22F0E552E5522F
:100A6000CE0EE66E540EE66E03EC22F0E552E55231
:100A700031C110F0116A126A136A31C1E6FF11C068
:100A8000E6FF12C0E6FF13C0E6FFF6EC22F0E552E7
:100A9000E552E552E552C60EE66E540EE66E03ECE4
:100AA00022F0E552E55248C110F0116A126A136A49
:100AB00010AE03D011681268136810C0E6FF11C0B1
:100AC000E6FF12C0E6FF13C0E6FFF6EC22F0E552A7
:100AD000E552E552E552C60EE66E540EE66E03ECA4
:100AE00022F0E552E55249C110F0116A126A136A08
:100AF00010AE03D011681268136810C0E6FF11C071
:100B0000E6FF12C0E6FF13C0E6FFF6EC22F0E55266
:100B1000E552E552E552C60EE66E540EE66E03EC63
:100B200022F0E552E5524AC110F0116A126A136AC6
:100B300010AE03D011681268136810C0E6FF11C030
:100B4000E6FF12C0E6FF13C0E6FFF6EC22F0E55226
:100B5000E552E552E552D60EE66E540EE66E03EC13
:100B600022F0E552E5521200E00EE66E540EE66EFB
:100B700003EC22F0E552E552BE0EE66E540EE66E30
:100B800003EC22F0E552E55231C110F0116A126A0D
:100B9000136A31C1E6FF11C0E6FF12C0E6FF13C0C1
:100BA000E6FFF6EC22F0E552E552E552E552C60EBC
:100BB000E66E540EE66E03EC22F0E552E5524BC1B0
:100BC00010F0116A126A136A10AE03D0116812682D
:100BD000136810C0E6FF11C0E6FF12C0E6FF13C0A5
:100BE000E6FFF6EC22F0E552E552E552E552C60E7C
:100BF000E66E540EE66E03EC22F0E552E5524CC16F
:100C000010F0116A126A136A10AE03D011681268EC
:100C1000136810C0E6FF11C0E6FF12C0E6FF13C064
:100C2000E6FFF6EC22F0E552E552E552E552C60E3B
:100C3000E66E540EE66E03EC22F0E552E5524DC12D
:100C400010F0116A126A136A10AE03D011681268AC
:100C5000136810C0E6FF11C0E6FF12C0E6FF13C024
:100C6000E6FFF6EC22F0E552E552E552E552D60EEB
:100C7000E66E540EE66E03EC22F0E552E5521200E9
:100C8000E00EE66E540EE66E03EC22F0E552E552FD
:100C9000B80EE66E540EE66E03EC22F0E552E55215
:100CA00001013E5101014025106E01013F5101013A
:100CB0004121116E126A136A10C0E6FFE66E12C07F
:100CC000E6FF13C0E6FFF6EC22F0E552E552E552EE
:100CD000E552C60EE66E540EE66E03EC22F0E552C7
:100CE000E55240C110F041C111F0126A136A40C1CF
:100CF000E6FF41C1E6FF12C0E6FF13C0E6FFF6ECD7
:100D000022F0E552E552E552E552C60EE66E540E6B
:100D1000E66E03EC22F0E552E5523EC110F03FC111
:100D200011F0126A136A3EC1E6FF3FC1E6FF12C02E
:100D3000E6FF13C0E6FFF6EC22F0E552E552E5527D
:100D4000E552D60EE66E540EE66E03EC22F0E55246
:100D5000E5521200E00EE66E540EE66E03EC22F051
:100D6000E552E552B20EE66E540EE66E03EC22F04A
:100D7000E552E5520101425101014425106E010185
:100D8000435101014521116E126A136A10C0E6FF3A
:100D9000E66E12C0E6FF13C0E6FFF6EC22F0E55265
:100DA000E552E552E552C60EE66E540EE66E03ECD1
:100DB00022F0E552E55244C110F045C111F0126A2B
:100DC000136A44C1E6FF45C1E6FF12C0E6FF13C047
:100DD000E6FFF6EC22F0E552E552E552E552C60E8A
:100DE000E66E540EE66E03EC22F0E552E55242C187
:100DF00010F043C111F0126A136A42C1E6FF43C109
:100E0000E6FF12C0E6FF13C0E6FFF6EC22F0E55263
:100E1000E552E552E552D60EE66E540EE66E03EC50
:100E200022F0E552E55212000101300525E10101F1
:100E30002D3507E32C51FF08FF0E2D5502E3010E5F
:100E400001D0000EE66EE66AB3DCE552E552010120
:100E50002F350CE32E51FF08FF0E2F5507E3010E2F
:100E6000E66EE66A4DDDE552E5521200000EE66ED2
:100E7000E66A46DDE552E55212000101300502E165
:100E8000E7DD72DE1200010E01014625466F000EFD
:100E90004721476F280E0D6E0E6A46C108F047C104
:100EA00009F011EC2CF004C046F105C047F1010136
:100EB0003029106E140E116E0E6E10C009F045EC44
:100EC0002CF005C030F1010105041AE101012C07E5
:100ED000000E2D5B01012E072F5B0101310701017F
:100EE000800E2D1502E02C692D690101800E2F1551
:100EF00002E02E692F69000E0101315D01E23169C6
:100F00001200320E0101281901E1295102E143EFDB
:100F10000CF06A0E281901E1295101E16ED3690E26
:100F2000281901E1295101E165D2060E281901E1D4
:100F3000295101E11ED1050E281901E1295113E0C3
:100F4000E868281901E1295101E01200050E286F17
:100F5000296B32C12CF133C12DF13CC12EF13DC1C1
:100F60002FF1ABEF03F0DDEC02F00DEC03F0FAEC47
:100F700002F03CEC03F020EC03F033EC03F0010151
:100F80002E1D06E12F1D04E1080E01012A6F2B6BB7
:100F90004BDFA60EE66E540EE66EE66AE66A57EC86
:100FA00021F0E552E552E552E5522CC110F02DC179
:100FB00011F0126A136A11AE02D01268136810C0E1
:100FC000E6FF11C0E6FF12C0E6FF13C0E6FF0D0EFC
:100FD000E66EE66A30EC20F0146E060EE15E145008
:100FE0009C0EE66E540EE66EE66A010EE66E57EC57
:100FF00021F0E552E552E552E5522EC110F02FC125
:1010000011F0126A136A11AE02D01268136810C090
:10101000E6FF11C0E6FF12C0E6FF13C0E6FF0D0EAB
:10102000E66E010EE66E30EC20F0146E060EE15E08
:10103000145001012A512B1114E101012E1D13E15D
:101040002F1D11E1C80EE66E540EE66E0B0EE66E15
:10105000010EE66E57EC21F0E552E552E552E552FD
:1010600002D063EC02F001012D3504E22C5100089E
:10107000000E2D550BE3060E0101286F296BABEC1A
:1010800003F034C12CF135C12DF153D04FEC03F0F6
:1010900000091BE10001F80524E1300EE66EE66A66
:1010A000E66EE66AE66EE66A3A0EE66EE66A540EAA
:1010B000E66EE66A420EE66EE66ADFEC00F0106E5F
:1010C0000C0EE15E105000090CE00001F86B0F0EF1
:1010D0000101286F296BABEC03F001011E0E316F8B
:1010E00028D057EC03F000091CE10001F80521E1CC
:1010F000300EE66EE66AE66EE66A310EE66EE66A87
:101100003A0EE66EE66A540EE66EE66A420EE66E49
:10111000E66ADFEC00F0106E0C0EE15E1050000984
:1011200008E00001F86B01012869010E296FABECA2
:1011300003F00001F80501E0A6D3450EE66EE66A6D
:101140004D0EE66EE66A490EE66EE66A540EE66EEF
:10115000E66A480EE66EE66A430EE66EE66ADFEC85
:1011600000F0106E0C0EE15E1050000901E18BD30F
:1011700083D3F0EC02F0E7EC02F00DEC03F03CEC72
:1011800003F020EC03F033EC03F001012C1D06E129
:101190002D1D04E1050E01012A6F2B6B01012E1D8F
:1011A00006E12F1D04E1080E01012A6F2B6B3CDEC6
:1011B0008F0EE66E540EE66EE66AE66A57EC21F094
:1011C000E552E552E552E5522CC110F02DC111F067
:1011D000126A136A11AE02D01268136810C0E6FFDB
:1011E00011C0E6FF12C0E6FF13C0E6FF0D0EE66E6B
:1011F000E66A30EC20F0146E060EE15E14509C0E90
:10120000E66E540EE66EE66A010EE66E57EC21F0CD
:10121000E552E552E552E5522EC110F02FC111F012
:10122000126A136A11AE02D01268136810C0E6FF8A
:1012300011C0E6FF12C0E6FF13C0E6FF0D0EE66E1A
:10124000010EE66E30EC20F0146E060EE15E1450D6
:1012500001012A512B1126E101012C1D0FE12D1D49
:101260000DE1C80EE66E540EE66E0B0EE66EE66AF3
:1012700057EC21F0E552E552E552E55201012E1DF1
:1012800013E12F1D11E1C80EE66E540EE66E0B0E33
:10129000E66E010EE66E57EC21F0E552E552E5529E
:1012A000E55202D063EC02F001012E512F1107E14B
:1012B00001012C512D1102E0000E01D0010E01019F
:1012C0002C512D1107E101012E512F1102E0000ECA
:1012D00001D0010E01012D3504E22C510008000E51
:1012E0002D5516E301012F3504E22E510008000EA2
:1012F0002F550EE3690E0101286F296BABEC03F04B
:1013000036C12CF137C12DF138C12EF139C12FF181
:101310004FEC03F000091BE10001F80523E1300E5A
:10132000E66EE66AE66EE66AE66EE66A3A0EE66E35
:10133000E66A540EE66EE66A420EE66EE66ADFEC98
:1013400000F0106E0C0EE15E105000090BE0000181
:10135000F86B100E0101286F296BABEC03F0010153
:101360001E0E316F57EC03F000091CE10001F80577
:1013700021E1300EE66EE66AE66EE66A310EE66E52
:10138000E66A3A0EE66EE66A540EE66EE66A420ECB
:10139000E66EE66ADFEC00F0106E0C0EE15E1050B7
:1013A000000908E00001F86B01012869010E296FAE
:1013B000ABEC03F00001F80501E065D2450EE66EE6
:1013C000E66A4D0EE66EE66A490EE66EE66A540E71
:1013D000E66EE66A480EE66EE66A430EE66EE66A7A
:1013E000DFEC00F0106E0C0EE15E1050000901E120
:1013F0004AD242D203EC03F0FAEC02F0E7EC02F03E
:1014000016EC03F046EC03F033EC03F001012C1D65
:1014100006E12D1D04E1070E01012A6F2B6B04DD8F
:10142000850EE66E540EE66EE66AE66A57EC21F02B
:10143000E552E552E552E5522CC110F02DC111F0F4
:10144000126A136A11AE02D01268136810C0E6FF68
:1014500011C0E6FF12C0E6FF13C0E6FF0D0EE66EF8
:10146000E66A30EC20F0146E060EE15E1450790E40
:10147000E66E540EE66EE66A010EE66E57EC21F05B
:10148000E552E552E552E5522EC110F02FC111F0A0
:10149000126A136A11AE02D01268136810C0E6FF18
:1014A00011C0E6FF12C0E6FF13C0E6FF0D0EE66EA8
:1014B000010EE66E30EC20F0146E060EE15E145064
:1014C00001012A512B1113E101012C1D12E12D1DE7
:1014D00010E1C80EE66E540EE66E0B0EE66EE66A7E
:1014E00057EC21F0E552E552E552E55202D063ECAB
:1014F00002F001012F3504E22E510008000E2F5595
:101500000AE36A0E0101286F296BABEC03F03AC1C4
:101510002EF13BC12FF14FEC03F000091BE100015C
:10152000F80523E1300EE66EE66AE66EE66AE66EE0
:10153000E66A3A0EE66EE66A540EE66EE66A420E19
:10154000E66EE66ADFEC00F0106E0C0EE15E105005
:1015500000090BE00001F86B730E0101286F296B85
:10156000ABEC03F001011E0E316F57EC03F00009E4
:101570001CE10001F80521E1300EE66EE66AE66E38
:10158000E66A310EE66EE66A3A0EE66EE66A540EDA
:10159000E66EE66A420EE66EE66ADFEC00F0106E7A
:1015A0000C0EE15E1050000908E00001F86B01012B
:1015B0002869010E296FABEC03F00001F80501E08A
:1015C00062D1450EE66EE66A4D0EE66EE66A490E9B
:1015D000E66EE66A540EE66EE66A480EE66EE66A67
:1015E000430EE66EE66ADFEC00F0106E0C0EE15E74
:1015F0001050000901E147D13FD103EC03F0FAECB0
:1016000002F0E7EC02F029EC03F046EC03F020ECEA
:1016100003F001012C1D06E12D1D04E1070E01015F
:101620002A6F2B6B01012E1D06E12F1D04E1060E12
:1016300001012A6F2B6B14EC07F0850EE66E540E39
:10164000E66EE66AE66A57EC21F0E552E552E552AD
:10165000E5522CC110F02DC111F0126A136A11AEBF
:1016600002D01268136810C0E6FF11C0E6FF12C076
:10167000E6FF13C0E6FF0D0EE66EE66A30EC20F0E2
:10168000146E060EE15E14506C0EE66E540EE66E9D
:10169000E66A010EE66E57EC21F0E552E552E5529E
:1016A000E5522EC110F02FC111F0126A136A11AE6B
:1016B00002D01268136810C0E6FF11C0E6FF12C026
:1016C000E6FF13C0E6FF0D0EE66E010EE66E30EC8F
:1016D00020F0146E060EE15E145001012A512B1108
:1016E00026E101012C1D0FE12D1D0DE1C80EE66E56
:1016F000540EE66E0B0EE66EE66A57EC21F0E552EC
:10170000E552E552E55201012E1D13E12F1D11E1B5
:10171000C80EE66E540EE66E0B0EE66E010EE66E19
:1017200057EC21F0E552E552E552E55202D063EC68
:1017300002F001012E512F1107E101012C512D1151
:1017400002E0000E01D0010E01012C512D1107E124
:1017500001012E512F1102E0000E01D0010E0101F6
:101760002F3504E22E510008000E2F5516E301011B
:101770002D3504E22C510008000E2D550EE3050E08
:101780000101286F296BABEC03F032C12CF133C19E
:101790002DF13CC12EF13DC12FF14FEC03F00009BA
:1017A0001BE10001F80523E1300EE66EE66AE66E05
:1017B000E66AE66EE66A3A0EE66EE66A540EE66E93
:1017C000E66A420EE66EE66ADFEC00F0106E0C0E82
:1017D000E15E105000090BE00001F86B740E01018E
:1017E000286F296BABEC03F001011E0E316F57EC33
:1017F00003F000091CE10001F80521E1300EE66E5E
:10180000E66AE66EE66A310EE66EE66A3A0EE66E65
:10181000E66A540EE66EE66A420EE66EE66ADFECB3
:1018200000F0106E0C0EE15E1050000908E000019F
:10183000F86B01012869010E296FABEC03F0000180
:10184000F80521E1450EE66EE66A4D0EE66EE66AA3
:10185000490EE66EE66A540EE66EE66A480EE66EDD
:10186000E66A430EE66EE66ADFEC00F0106E0C0EE0
:10187000E15E1050000907E001012869010E296F9F
:101880000001F86B12001200740E0101281901E129
:10189000295101E1ABD3730E281901E1295101E16E
:1018A00072D2100E281901E1295101E139D10F0E30
:1018B000281901E1295101E01200DDEC02F00DECE4
:1018C00003F0FAEC02F03CEC03F020EC03F033EC14
:1018D00003F03DEC07F0A60EE66E540EE66EE66AE7
:1018E000E66A57EC21F0E552E552E552E55231C186
:1018F00010F0116A126A136A31C1E6FF11C0E6FFE7
:1019000012C0E6FF13C0E6FF0D0EE66EE66A30EC8D
:1019100020F0146E060EE15E14509C0EE66E540E1E
:10192000E66EE66A010EE66E57EC21F0E552E552EE
:10193000E552E55231C110F0116A126A136A31C1E1
:10194000E6FF11C0E6FF12C0E6FF13C0E6FF0D0E72
:10195000E66E010EE66E30EC20F0146E060EE15ECF
:1019600014500101315100080EE3060E0101286FE9
:10197000296BABEC03F034C12CF135C12DF134C12E
:101980002EF135C12FF14FEC03F000091BE10001EE
:10199000F80523E1300EE66EE66AE66EE66AE66E6C
:1019A000E66A3A0EE66EE66A540EE66EE66A420EA5
:1019B000E66EE66ADFEC00F0106E0C0EE15E105091
:1019C00000090BE00001F86B100E0101286F296B74
:1019D000ABEC03F001011E0E316F57EC03F0000970
:1019E0001CE10001F80521E1300EE66EE66AE66EC4
:1019F000E66A310EE66EE66A3A0EE66EE66A540E66
:101A0000E66EE66A420EE66EE66ADFEC00F0106E05
:101A10000C0EE15E1050000908E00001F86B0101B6
:101A20002869010E296FABEC03F067EC03F00009A5
:101A30001CE10001F80529E1300EE66EE66AE66E6B
:101A4000E66A320EE66EE66A3A0EE66EE66A540E14
:101A5000E66EE66A420EE66EE66ADFEC00F0106EB5
:101A60000C0EE15E1050000910E00001F86B050E4D
:101A70000101286F296BABEC03F032C12CF133C1AB
:101A80002DF13CC12EF13DC12FF15FEC03F00009B7
:101A90001CE10001F80524E1300EE66EE66AE66E10
:101AA000E66A330EE66EE66A3A0EE66EE66A540EB3
:101AB000E66EE66A420EE66EE66ADFEC00F0106E55
:101AC0000C0EE15E105000090BE00001F86B740E83
:101AD0000101286F296BABEC03F001011E0E316F81
:101AE0000001F80501E0B8D3450EE66EE66A4D0E3A
:101AF000E66EE66A490EE66EE66A540EE66EE66A41
:101B0000480EE66EE66A430EE66EE66ADFEC00F02B
:101B1000106E0C0EE15E1050000901E19DD395D3CB
:101B2000F0EC02F0E7EC02F00DEC03F03CEC03F01B
:101B300020EC03F033EC03F03DEC07F08F0EE66E83
:101B4000540EE66EE66AE66A57EC21F0E552E5527D
:101B5000E552E55231C110F0116A126A136A31C1BF
:101B6000E6FF11C0E6FF12C0E6FF13C0E6FF0D0E50
:101B7000E66EE66A30EC20F0146E060EE15E14505C
:101B80009C0EE66E540EE66EE66A010EE66E57ECAB
:101B900021F0E552E552E552E55231C110F0116AEB
:101BA000126A136A31C1E6FF11C0E6FF12C0E6FFF8
:101BB00013C0E6FF0D0EE66E010EE66E30EC20F06F
:101BC000146E060EE15E14500101315100080EE35F
:101BD000690E0101286F296BABEC03F036C12CF1C3
:101BE00037C12DF138C12EF139C12FF14FEC03F07F
:101BF00000091BE10001F80523E1300EE66EE66AFC
:101C0000E66EE66AE66EE66A3A0EE66EE66A540E3E
:101C1000E66EE66A420EE66EE66ADFEC00F0106EF3
:101C20000C0EE15E105000090BE00001F86B730E22
:101C30000101286F296BABEC03F001011E0E316F1F
:101C400057EC03F000091CE10001F80521E1300E1A
:101C5000E66EE66AE66EE66A310EE66EE66A3A0E11
:101C6000E66EE66A540EE66EE66A420EE66EE66AD6
:101C7000DFEC00F0106E0C0EE15E1050000908E081
:101C80000001F86B01012869010E296FABEC03F02C
:101C900067EC03F000091CE10001F80529E1300EB2
:101CA000E66EE66AE66EE66A320EE66EE66A3A0EC0
:101CB000E66EE66A540EE66EE66A420EE66EE66A86
:101CC000DFEC00F0106E0C0EE15E1050000910E029
:101CD0000001F86B060E0101286F296BABEC03F0D5
:101CE00034C12CF135C12DF134C12EF135C12FF1A4
:101CF0005FEC03F000091CE10001F80524E1300E5F
:101D0000E66EE66AE66EE66A330EE66EE66A3A0E5E
:101D1000E66EE66A540EE66EE66A420EE66EE66A25
:101D2000DFEC00F0106E0C0EE15E105000090BE0CD
:101D30000001F86B0F0E0101286F296BABEC03F06B
:101D400001011E0E316F0001F80501E085D2450E3C
:101D5000E66EE66A4D0EE66EE66A490EE66EE66AE5
:101D6000540EE66EE66A480EE66EE66A430EE66ECE
:101D7000E66ADFEC00F0106E0C0EE15E1050000918
:101D800001E16AD262D216EC03F046EC03F033ECC8
:101D900003F003EC03F0E7EC02F0FAEC02F03DECA8
:101DA00007F0850EE66E540EE66EE66AE66A57ECBC
:101DB00021F0E552E552E552E55231C110F0116AC9
:101DC000126A136A31C1E6FF11C0E6FF12C0E6FFD6
:101DD00013C0E6FF0D0EE66EE66A30EC20F0146EDE
:101DE000060EE15E1450790EE66E540EE66EE66A5B
:101DF000010EE66E57EC21F0E552E552E552E55250
:101E000031C110F0116A126A136A31C1E6FF11C0C4
:101E1000E6FF12C0E6FF13C0E6FF0D0EE66E010EF0
:101E2000E66E30EC20F0146E060EE15E14500101F7
:101E3000315100080EE36A0E0101286F296BABECEB
:101E400003F03AC12CF13BC12DF13AC12EF13BC157
:101E50002FF14FEC03F000091BE10001F80523E12D
:101E6000300EE66EE66AE66EE66AE66EE66A3A0E00
:101E7000E66EE66A540EE66EE66A420EE66EE66AC4
:101E8000DFEC00F0106E0C0EE15E105000090BE06C
:101E90000001F86B740E0101286F296BABEC03F0A5
:101EA00001011E0E316F57EC03F000091CE1000127
:101EB000F80521E1300EE66EE66AE66EE66A310E5E
:101EC000E66EE66A3A0EE66EE66A540EE66EE66A7C
:101ED000420EE66EE66ADFEC00F0106E0C0EE15E7C
:101EE0001050000908E00001F86B01012869010E9B
:101EF000296FABEC03F067EC03F000091CE1000173
:101F0000F80529E1300EE66EE66AE66EE66A320E04
:101F1000E66EE66A3A0EE66EE66A540EE66EE66A2B
:101F2000420EE66EE66ADFEC00F0106E0C0EE15E2B
:101F30001050000910E00001F86B690E0101286FD4
:101F4000296BABEC03F036C12CF137C12DF138C150
:101F50002EF139C12FF15FEC03F000091CE1000103
:101F6000F80524E1300EE66EE66AE66EE66A330EA8
:101F7000E66EE66A3A0EE66EE66A540EE66EE66ACB
:101F8000420EE66EE66ADFEC00F0106E0C0EE15ECB
:101F9000105000090BE00001F86B100E0101286FD2
:101FA000296BABEC03F001011E0E316F0001F80547
:101FB00001E052D1450EE66EE66A4D0EE66EE66A27
:101FC000490EE66EE66A540EE66EE66A480EE66E66
:101FD000E66A430EE66EE66ADFEC00F0106E0C0E69
:101FE000E15E1050000901E137D12FD129EC03F057
:101FF00020EC03F046EC03F003EC03F0E7EC02F016
:10200000FAEC02F03DEC07F0850EE66E540EE66E3B
:10201000E66AE66A57EC21F0E552E552E552E552F0
:1020200031C110F0116A126A136A31C1E6FF11C0A2
:10203000E6FF12C0E6FF13C0E6FF0D0EE66EE66A8D
:1020400030EC20F0146E060EE15E14506C0EE66E5D
:10205000540EE66EE66A010EE66E57EC21F0E5528C
:10206000E552E552E55231C110F0116A126A136A65
:1020700031C1E6FF11C0E6FF12C0E6FF13C0E6FF64
:102080000D0EE66E010EE66E30EC20F0146E060EBC
:10209000E15E1450010131510EE1050E0101286F7E
:1020A000296BABEC03F032C12CF133C12DF136C1F9
:1020B0002EF137C12FF14FEC03F000091BE10001B5
:1020C000F80523E1300EE66EE66AE66EE66AE66E35
:1020D000E66A3A0EE66EE66A540EE66EE66A420E6E
:1020E000E66EE66ADFEC00F0106E0C0EE15E10505A
:1020F00000090BE00001F86B0F0E0101286F296B3E
:10210000ABEC03F001011E0E316F57EC03F0000938
:102110001CE10001F80521E1300EE66EE66AE66E8C
:10212000E66A310EE66EE66A3A0EE66EE66A540E2E
:10213000E66EE66A420EE66EE66ADFEC00F0106ECE
:102140000C0EE15E1050000908E00001F86B01017F
:102150002869010E296FABEC03F067EC03F000096E
:102160001CE10001F80529E1300EE66EE66AE66E34
:10217000E66A320EE66EE66A3A0EE66EE66A540EDD
:10218000E66EE66A420EE66EE66ADFEC00F0106E7E
:102190000C0EE15E1050000910E00001F86B6A0EB1
:1021A0000101286F296BABEC03F03AC12CF13BC164
:1021B0002DF13AC12EF13BC12FF15FEC03F0000984
:1021C0001CE10001F80524E1300EE66EE66AE66ED9
:1021D000E66A330EE66EE66A3A0EE66EE66A540E7C
:1021E000E66EE66A420EE66EE66ADFEC00F0106E1E
:1021F0000C0EE15E105000090BE00001F86B730E4D
:102200000101286F296BABEC03F001011E0E316F49
:102210000001F80521E1450EE66EE66A4D0EE66E18
:10222000E66A490EE66EE66A540EE66EE66A480E07
:10223000E66EE66A430EE66EE66ADFEC00F0106ECC
:102240000C0EE15E1050000907E001012869010E43
:10225000296F0001F86B120012001D0E01012819F0
:1022600001E1295102E123EF18F01C0E281901E1C8
:10227000295102E1D2EF15F01B0E281901E1295175
:1022800001E15BD21A0E281901E1295120E0E8682A
:10229000281902E1010E291901E012001A0E286F17
:1022A000296BABEC03F001011E0E316F32C13EF120
:1022B00033C13FF134C140F135C141F138C142F180
:1022C00039C143F13AC144F13BC145F1120001016A
:1022D00030050DE10DEC03F0E7EC02F0F0EC02F05C
:1022E00046EC03F020EC03F029EC03F00CD00DECED
:1022F00003F0E7EC02F0FAEC02F046EC03F020EC1D
:1023000003F033EC03F03DEC07F06FEC03F0000951
:102310001CE10001F80533E1300EE66EE66AE66E78
:10232000E66A340EE66EE66A3A0EE66EE66A540E29
:10233000E66EE66A420EE66EE66ADFEC00F0106ECC
:102340000C0EE15E105000091AE00001F86B01016B
:10235000E70E3E5D030E3F590AE201011E0E316F8A
:1023600001013E2B000E3F2340EC06F008D0010E89
:1023700001012A6F2B6B020E0101466F476B77EC50
:1023800003F000091CE10001F80534E1300EE66EAF
:10239000E66AE66EE66A350EE66EE66A3A0EE66EC6
:1023A000E66A540EE66EE66A420EE66EE66ADFEC18
:1023B00000F0106E0C0EE15E105000091BE00001F1
:1023C000F86B0101010ED8803E55000E3F550AE220
:1023D00001011E0E316F01013E07000E3F5B40EC14
:1023E00006F008D0010E01012A6F2B6B020E0101CD
:1023F000466F476B01012A512B1126E1A60EE66EAE
:10240000540EE66EE66A010EE66E57EC21F0E552D8
:10241000E552E552E5523EC110F03FC111F0126A9B
:10242000136A3EC1E6FF3FC1E6FF12C0E6FF13C0DC
:10243000E6FF0D0EE66E010EE66E30EC20F0146E37
:10244000060EE15E145002D063EC02F0010131513E
:1024500005E101012869296BABEC03F04FEC03F0B7
:1024600000091CE10001F80524E1300EE66EE66A81
:10247000E66EE66A310EE66EE66A3A0EE66EE66AE9
:10248000540EE66EE66A420EE66EE66ADFEC00F097
:10249000106E0C0EE15E105000090BE00001F86BAD
:1024A0001B0E0101286F296BABEC03F001011E0E1E
:1024B000316F5FEC03F000091CE10001F80524E135
:1024C000300EE66EE66AE66EE66A330EE66EE66AA1
:1024D0003A0EE66EE66A540EE66EE66A420EE66E66
:1024E000E66ADFEC00F0106E0C0EE15E10500009A1
:1024F0000BE00001F86B01011E0E316FABEC03F035
:102500001D0E0101286F296B93EC03F0000938E1DF
:102510000001F80519E1300EE66EE66AE66EE66A3D
:10252000320EE66EE66A3A0EE66EE66A540EE66E25
:10253000E66A420EE66EE66ADFEC00F0106E0C0E04
:10254000E15E105000091CE10001F8054CE1540E59
:10255000E66EE66A490EE66EE66A4D0EE66EE66ADD
:10256000E66EE66A4F0EE66EE66A430EE66EE66AD1
:10257000DFEC00F0116E0C0EE15E1150000933E04B
:102580000001F86B3EC132F13FC133F140C134F17B
:1025900041C135F142C138F143C139F144C13AF189
:1025A00045C13BF1010132510101342501013C6F6C
:1025B000010133510101352101013D6F0101385104
:1025C00001013A250101366F0101395101013B2119
:1025D0000101376F01012869296B40EC06F0AAEC74
:1025E00006F0ABEC03F0A3EC03F000091CE10001E2
:1025F000F8051CE14E0EE66EE66A550EE66EE66ADA
:10260000540EE66EE66AE66EE66A550EE66EE66A19
:102610004F0EE66EE66ADFEC00F0106E0C0EE15E27
:102620001050000903E001012869296B0001F80539
:1026300020E1470E0001815D1CE1310E825D19E150
:102640000001F86B300E0001865D116E300E855D65
:102650000A0DF3CF10F0300E845D640DF35010249A
:10266000112401013E6F3F6B01011E0E316F40ECE2
:1026700006F00001F80526E1470E0001815D22E128
:10268000320E825D1FE10001F86B300E0001865DA5
:10269000116E300E855D0A0DF3CF10F0300E845DA3
:1026A000640DF350102411240101426F436B0101AA
:1026B0001E0E316F1C0E0101286F296BAAEC06F06B
:1026C000ABEC03F00001F80526E1590E0001815D35
:1026D00022E1310E825D1FE10001F86B300E000136
:1026E000865D116E300E855D0A0DF3CF10F0300E51
:1026F000845D640DF350102411240101406F416B7F
:1027000001011E0E316F1B0E0101286F296B40EC79
:1027100006F0ABEC03F00001F80502E071EF1AF0EF
:10272000590E0001815D02E071EF1AF0320E825DF8
:1027300002E071EF1AF004EF18F0010130050DE12D
:102740000DEC03F0E7EC02F0F0EC02F046EC03F0E5
:1027500020EC03F029EC03F00CD00DEC03F0E7ECD7
:1027600002F0FAEC02F046EC03F020EC03F033EC5C
:1027700003F03DEC07F06FEC03F000091CE10001F1
:10278000F80533E1300EE66EE66AE66EE66A340E70
:10279000E66EE66A3A0EE66EE66A540EE66EE66AA3
:1027A000420EE66EE66ADFEC00F0106E0C0EE15EA3
:1027B000105000091AE00001F86B0101E70E405DBE
:1027C000030E41590AE201011E0E316F0101402B37
:1027D000000E412340EC06F008D0010E01012A6FE3
:1027E0002B6B020E0101466F476B77EC03F000097B
:1027F0001CE10001F80534E1300EE66EE66AE66E93
:10280000E66A350EE66EE66A3A0EE66EE66A540E43
:10281000E66EE66A420EE66EE66ADFEC00F0106EE7
:102820000C0EE15E105000091BE00001F86B010185
:10283000010ED8804055000E41550AE201011E0EDE
:10284000316F01014007000E415B40EC06F008D0FB
:10285000010E01012A6F2B6B020E0101466F476BBF
:1028600001012A512B1126E18F0EE66E540EE66E01
:10287000E66A010EE66E57EC21F0E552E552E552AC
:10288000E55240C110F041C111F0126A136A40C113
:10289000E6FF41C1E6FF12C0E6FF13C0E6FF0D0EE2
:1028A000E66E010EE66E30EC20F0146E060EE15E70
:1028B000145002D063EC02F00101315105E1010135
:1028C0002869296BABEC03F04FEC03F000091CE125
:1028D0000001F80524E1300EE66EE66AE66EE66A6F
:1028E000310EE66EE66A3A0EE66EE66A540EE66E63
:1028F000E66A420EE66EE66ADFEC00F0106E0C0E41
:10290000E15E105000090BE00001F86B1C0E0101A4
:10291000286F296B01011E0E316FABEC03F05FECE9
:1029200003F000091CE10001F80524E1300EE66E19
:10293000E66AE66EE66A330EE66EE66A3A0EE66E22
:10294000E66A540EE66EE66A420EE66EE66ADFEC72
:1029500000F0106E0C0EE15E105000090BE000015B
:10296000F86B1A0E0101286F296B01011E0E316FE1
:10297000ABEC03F093EC03F0000938E10001F8053B
:1029800019E1300EE66EE66AE66EE66A320EE66E33
:10299000E66A3A0EE66EE66A540EE66EE66A420EA5
:1029A000E66EE66ADFEC00F0106E0C0EE15E105091
:1029B00000091CE10001F8054CE1540EE66EE66AE0
:1029C000490EE66EE66A4D0EE66EE66AE66EE66A69
:1029D0004F0EE66EE66A430EE66EE66ADFEC00F046
:1029E000116E0C0EE15E1150000933E00001F86B2E
:1029F0003EC132F13FC133F140C134F141C135F143
:102A000042C138F143C139F144C13AF145C13BF10A
:102A1000010132510101342501013C6F01013351A3
:102A20000101352101013D6F0101385101013A25B4
:102A30000101366F0101395101013B210101376F5D
:102A400001012869296B40EC06F0AAEC06F0ABEC1A
:102A500003F0A3EC03F000091CE10001F8051CE100
:102A60004E0EE66EE66A550EE66EE66A540EE66EA9
:102A7000E66AE66EE66A550EE66EE66A4F0EE66EAA
:102A8000E66ADFEC00F0106E0C0EE15E10500009FB
:102A900003E001012869296B0001F80526E1470ED2
:102AA0000001815D22E1310E825D1FE10001F86BC2
:102AB000300E0001865D116E300E855D0A0DF3CF7C
:102AC00010F0300E845D640DF350102411240101C8
:102AD0003E6F3F6B01011E0E316F1A0E0101286F10
:102AE000296B40EC06F0ABEC03F00001F80526E1A1
:102AF000470E0001815D22E1320E825D1FE100017F
:102B0000F86B300E0001865D116E300E855D0A0D8A
:102B1000F3CF10F0300E845D640DF35010241124B7
:102B20000101426F436B01011E0E316F1C0E01014A
:102B3000286F296BAAEC06F0ABEC03F00001F80556
:102B400020E1590E0001815D1CE1310E825D19E129
:102B50000001F86B300E0001865D116E300E855D50
:102B60000A0DF3CF10F0300E845D640DF350102485
:102B700011240101406F416B01011E0E316F40ECC9
:102B800006F00001F80502E071EF1AF0590E00019D
:102B9000815D02E071EF1AF0320E825D02E071EFAA
:102BA0001AF032D2010130050DE10DEC03F0E7EC33
:102BB00002F0F0EC02F046EC03F020EC03F029EC1C
:102BC00003F00CD00DEC03F0E7EC02F0FAEC02F0AD
:102BD00046EC03F020EC03F033EC03F03DEC07F09F
:102BE0006FEC03F000091CE10001F80533E1300E41
:102BF000E66EE66AE66EE66A340EE66EE66A3A0E5F
:102C0000E66EE66A540EE66EE66A420EE66EE66A26
:102C1000DFEC00F0106E0C0EE15E105000091AE0BF
:102C20000001F86B0101E70E425D030E43590AE211
:102C300001011E0E316F0101422B000E4323AAEC4D
:102C400006F008D0010E01012A6F2B6B020E010164
:102C5000466F476B77EC03F000091CE10001F805B3
:102C600034E1300EE66EE66AE66EE66A350EE66E32
:102C7000E66A3A0EE66EE66A540EE66EE66A420EC2
:102C8000E66EE66ADFEC00F0106E0C0EE15E1050AE
:102C900000091BE00001F86B0101010ED8804255CC
:102CA000000E43550AE201011E0E316F0101420779
:102CB000000E435BAAEC06F008D0010E01012A6F5A
:102CC0002B6B020E0101466F476B01012A512B113C
:102CD00026E1790EE66E540EE66EE66A010EE66EA9
:102CE00057EC21F0E552E552E552E55242C110F0B1
:102CF00043C111F0126A136A42C1E6FF43C1E6FF05
:102D000012C0E6FF13C0E6FF0D0EE66E010EE66E82
:102D100030EC20F0146E060EE15E145002D063EC2D
:102D200002F001013151000805E301012869296B16
:102D3000ABEC03F04FEC03F000091CE10001F805D7
:102D400024E1300EE66EE66AE66EE66A310EE66E65
:102D5000E66A3A0EE66EE66A540EE66EE66A420EE1
:102D6000E66EE66ADFEC00F0106E0C0EE15E1050CD
:102D700000090BE00001F86B01011E0E316F1D0E02
:102D80000101286F296BABEC03F05FEC03F0000945
:102D90001CE10001F80524E1300EE66EE66AE66EFD
:102DA000E66A330EE66EE66A3A0EE66EE66A540EA0
:102DB000E66EE66A420EE66EE66ADFEC00F0106E42
:102DC0000C0EE15E105000090BE00001F86B0101F0
:102DD0001E0E316F1B0E0101286F296BABEC03F047
:102DE00093EC03F0000938E10001F80519E1300E19
:102DF000E66EE66AE66EE66A320EE66EE66A3A0E5F
:102E0000E66EE66A540EE66EE66A420EE66EE66A24
:102E1000DFEC00F0106E0C0EE15E105000091CE1BA
:102E20000001F8054CE1540EE66EE66A490EE66EC6
:102E3000E66A4D0EE66EE66AE66EE66A4F0EE66EEE
:102E4000E66A430EE66EE66ADFEC00F0116E0C0EE9
:102E5000E15E1150000933E00001F86B3EC132F130
:102E60003FC133F140C134F141C135F142C138F1C4
:102E700043C139F144C13AF145C13BF1010132513D
:102E80000101342501013C6F01013351010135215C
:102E900001013D6F0101385101013A250101366FF1
:102EA0000101395101013B210101376F01012869FD
:102EB000296B40EC06F0AAEC06F0ABEC03F0A3ECB7
:102EC00003F000091CE10001F8051CE14E0EE66E5E
:102ED000E66A550EE66EE66A540EE66EE66AE66E41
:102EE000E66A550EE66EE66A4F0EE66EE66ADFECBF
:102EF00000F0106E0C0EE15E1050000903E00101BD
:102F00002869296B0001F80526E1470E0001815D63
:102F100022E1310E825D1FE10001F86B300E0001ED
:102F2000865D116E300E855D0A0DF3CF10F0300E08
:102F3000845D640DF3501024112401013E6F3F6B3A
:102F400001011E0E316F1A0E0101286F296B40EC32
:102F500006F0ABEC03F00001F80520E1470E00019C
:102F6000815D1CE1320E825D19E10001F86B300ECB
:102F70000001865D116E300E855D0A0DF3CF10F0F5
:102F8000300E845D640DF350102411240101426F52
:102F9000436B01011E0E316FAAEC06F00001F8052B
:102FA00026E1590E0001815D22E1310E825D1FE1B3
:102FB0000001F86B300E0001865D116E300E855DEC
:102FC0000A0DF3CF10F0300E845D640DF350102421
:102FD00011240101406F416B01011E0E316F1B0E68
:102FE0000101286F296B40EC06F0ABEC03F0000107
:102FF000F80501E076D2590E0001815D01E071D241
:10300000320E825D01E06DD20001F86B300E0001DE
:10301000865D116E300E855D0A0DF3CF10F0300E17
:10302000845D640DF350102411240101446F456B3D
:1030300001011E0E316F1D0E0101286F296BAAECD4
:1030400006F0ABEF03F0010130050DE10DEC03F0EC
:10305000E7EC02F0F0EC02F046EC03F020EC03F0B9
:1030600029EC03F00CD00DEC03F0E7EC02F0FAECE5
:1030700002F046EC03F020EC03F033EC03F03DECFF
:1030800007F06FEC03F000091CE10001F80533E1E3
:10309000300EE66EE66AE66EE66A340EE66EE66AC4
:1030A0003A0EE66EE66A540EE66EE66A420EE66E8A
:1030B000E66ADFEC00F0106E0C0EE15E10500009C5
:1030C0001AE00001F86B0101E70E445D030E45595B
:1030D0000AE201011E0E316F0101442B000E45234F
:1030E000AAEC06F008D0010E01012A6F2B6B020E2C
:1030F0000101466F476B77EC03F000091CE100010A
:10310000F80534E1300EE66EE66AE66EE66A350EE4
:10311000E66EE66A3A0EE66EE66A540EE66EE66A19
:10312000420EE66EE66ADFEC00F0106E0C0EE15E19
:10313000105000091BE00001F86B0101010ED8805E
:103140004455000E45550AE201011E0E316F010182
:103150004407000E455BAAEC06F008D0010E010101
:103160002A6F2B6B020E0101466F476B01012A513A
:103170002B1126E16C0EE66E540EE66EE66A010E29
:10318000E66E57EC21F0E552E552E552E55244C1B6
:1031900010F045C111F0126A136A44C1E6FF45C13F
:1031A000E6FF12C0E6FF13C0E6FF0D0EE66E010E4D
:1031B000E66E30EC20F0146E060EE15E145002D084
:1031C00063EC02F001013151000805E301012869B7
:1031D000296BABEC03F04FEC03F000091CE100019C
:1031E000F80524E1300EE66EE66AE66EE66A310E18
:1031F000E66EE66A3A0EE66EE66A540EE66EE66A39
:10320000420EE66EE66ADFEC00F0106E0C0EE15E38
:10321000105000090BE00001F86B01011E0E316F28
:103220001A0E0101286F296BABEC03F05FEC03F081
:1032300000091CE10001F80524E1300EE66EE66AA3
:10324000E66EE66A330EE66EE66A3A0EE66EE66A09
:10325000540EE66EE66A420EE66EE66ADFEC00F0B9
:10326000106E0C0EE15E105000090BE00001F86BCF
:1032700001011E0E316F1C0E0101286F296BABEC92
:1032800003F093EC03F0000938E10001F80519E1BF
:10329000300EE66EE66AE66EE66A320EE66EE66AC4
:1032A0003A0EE66EE66A540EE66EE66A420EE66E88
:1032B000E66ADFEC00F0106E0C0EE15E10500009C3
:1032C0001CE10001F8054CE1540EE66EE66A490E79
:1032D000E66EE66A4D0EE66EE66AE66EE66A4F0E4A
:1032E000E66EE66A430EE66EE66ADFEC00F0116E0B
:1032F0000C0EE15E1150000933E00001F86B3EC195
:1033000032F13FC133F140C134F141C135F142C125
:1033100038F143C139F144C13AF145C13BF10101F2
:1033200032510101342501013C6F0101335101018A
:10333000352101013D6F0101385101013A2501019B
:10334000366F0101395101013B210101376F010144
:103350002869296B40EC06F0AAEC06F0ABEC03F010
:10336000A3EC03F000091CE10001F8051CE14E0E7E
:10337000E66EE66A550EE66EE66A540EE66EE66A9C
:10338000E66EE66A550EE66EE66A4F0EE66EE66A91
:10339000DFEC00F0106E0C0EE15E1050000903E04F
:1033A00001012869296B0001F80526E1470E00019B
:1033B000815D22E1310E825D1FE10001F86B300E6C
:1033C0000001865D116E300E855D0A0DF3CF10F0A1
:1033D000300E845D640DF3501024112401013E6F02
:1033E0003F6B01011E0E316F1A0E0101286F296B10
:1033F00040EC06F0ABEC03F00001F80526E1470EC7
:103400000001815D22E1320E825D1FE10001F86B57
:10341000300E0001865D116E300E855D0A0DF3CF12
:1034200010F0300E845D640DF3501024112401015E
:10343000426F436B01011E0E316F1C0E0101286F9C
:10344000296BAAEC06F0ABEC03F00001F80526E1CD
:10345000590E0001815D22E1310E825D1FE1000104
:10346000F86B300E0001865D116E300E855D0A0D21
:10347000F3CF10F0300E845D640DF350102411244E
:103480000101406F416B01011E0E316F1B0E0101E6
:10349000286F296B40EC06F0ABEC03F00001F80557
:1034A00020E1590E0001815D1CE1320E825D19E1BF
:1034B0000001F86B300E0001865D116E300E855DE7
:1034C0000A0DF3CF10F0300E845D640DF35010241C
:1034D00011240101446F456B01011E0E316FAAEFEB
:0434E00006F01200E0
:0C34E400D9CFE6FFE1CFD9FF040EE126AE
:1034F000DE6ADD6ADECF10F0DDCF11F0126A136AEA
:1035000011AE02D012681368D950FB0FE96EFF0E9E
:10351000DA20EA6EEE50105CEE501158EE50125860
:10352000EE5013581DE2020EDB6A030EDB6A020E38
:10353000DBCF10F0030EDBCF11F0D890115004E672
:10354000050E105C000E115806E2020EDB2A030E77
:10355000EEE3DB2AECD7DF2A010ECCE3DB2ACAD765
:10356000040EE15C02E2E16AE552E16EE552E7CF6A
:10357000D9FF1200D9CFE6FFE1CFD9FF040EE12633
:10358000DE6ADD6ADECF10F0DDCF11F0126A136A59
:1035900011AE02D012681368D950FB0FE96EFF0E0E
:1035A000DA20EA6EEE50105CEE501158EE501258D0
:1035B000EE5013581DE2020EDB6A030EDB6A020EA8
:1035C000DBCF10F0030EDBCF11F0D890115004E6E2
:1035D000EE0E105C000E115806E2020EDB2A030EFE
:1035E000EEE3DB2AECD7DF2A010ECCE3DB2ACAD7D5
:1035F000040EE15C02E2E16AE552E16EE552E7CFDA
:10360000D9FF1200D9CFE6FFE1CFD9FF0F0E811607
:10361000FE0EDB50F00B81128186010EE66EE66A2B
:10362000E66AE66AA7DFE552E552E552E552819681
:10363000010EE66EE66AE66AE66A9CDFE552E5524E
:10364000E552E5520F0E8116FE0EDB38F00B8112AB
:103650008186010EE66EE66AE66AE66A8BDFE5526F
:10366000E552E552E5528196010EE66EE66AE66A9B
:10367000E66A80DFE552E552E552E552E552E7CFD2
:10368000D9FF1200D9CFE6FFE1CFD9FFE652190EDC
:10369000E66EE66AE66AE66A6DDFE552E552E552F5
:1036A000E5520F0E8116F80E81160F0E8116300EA0
:1036B00081128186010EE66EE66AE66AE66A5ADFE4
:1036C000E552E552E552E5528196010EE66EE66A54
:1036D000E66AE66A4FDFE552E552E552E5520F0E23
:1036E0008116300E81128186010EE66EE66AE66A68
:1036F000E66A40DFE552E552E552E5528196010E59
:10370000E66EE66AE66AE66A35DFE552E552E552BC
:10371000E5520F0E8116300E81128186010EE66E83
:10372000E66AE66AE66A26DFE552E552E552E552C8
:103730008196010EE66EE66AE66AE66A1BDFE552EE
:10374000E552E552E5520F0E8116818A8186010EFF
:10375000E66EE66AE66AE66A0DDFE552E552E55294
:10376000E5528196010EE66EE66AE66AE66A02DFD7
:10377000E552E552E552E552280EE66E43DFE5528A
:103780000C0EE66E3FDFE552E552E552E7CFD9FF7A
:103790001200D9CFE6FFE1CFD9FF020EE126DF6AA2
:1037A000010EDB6A81940F0EE66EE66AE66AE66A4F
:1037B00099DEE552E552E552E5520F0E81128186FF
:1037C000E66EE66AE66AE66A8DDEE552E552E552A5
:1037D000E5520F0E8114E76E010EE7CFDBFF8196F5
:1037E0000F0EE66EE66AE66AE66A7CDEE552E552B0
:1037F000E552E5520F0E81128186E66EE66AE66AB0
:10380000E66A70DEE552E552E552E5520F0E81148C
:10381000DF6E010EDB50DF128196010EE66EE66A66
:10382000E66AE66A5FDEE552E552E552E552DF50B0
:10383000106E020EE15C02E2E16AE552E16E1050A8
:10384000E552E7CFD9FF1200D9CFE6FFE1CFD9FF8C
:10385000E652DF6A9EDFDF6EDFBEFCD7DF50E55247
:10386000E552E7CFD9FF1200D9CFE6FFE1CFD9FF6C
:103870000F0E8116FE0EDB5081128186050EE66E5C
:10388000E66AE66AE66A2EDEE552E552E552E55260
:103890008196050EE66EE66AE66AE66A23DEE55282
:1038A000E552E552E552E552E7CFD9FF1200D9CFF4
:1038B000E6FFE1CFD9FF8194050EE66EE66AE66A7F
:1038C000E66A10DEE552E552E552E552FE0EDBCF28
:1038D000E6FFCADFE552FE0EDB38F00BE66EC4DF12
:1038E000E552E552E7CFD9FF1200D9CFE6FFE1CF8D
:1038F000D9FF8184050EE66EE66AE66AE66AF2DDC5
:10390000E552E552E552E552FE0EDBCFE6FFACDFB5
:10391000E552FE0EDB38F00BE66EA6DFE552819431
:10392000E552E7CFD9FF1200D9CFE6FFE1CFD9FFAB
:10393000FE0EDBCFE6FFD9DFE552E552E7CFD9FF38
:103940001200D9CFE6FFE1CFD9FFFE0EDBCFE6FFB5
:10395000CCDFE552E552E7CFD9FF1200D9CFE6FF21
:10396000E1CFD9FFFD0EDBCFF6FFFE0EDBCFF7FF79
:103970000800F5500FE0FD0EDBCFF6FFDB2AFE0E50
:10398000DBCFF7FF01E3DB2A0800F550E66ED9DF55
:10399000E552E8D7E552E7CFD9FF1200D9CFE6FFCD
:1039A000E1CFD9FFE652FD0EDB500F0B106EFE0E7D
:1039B000DB50010B400DF3501024DF6E7F0EDF143F
:1039C000800FDF6EDFCFE6FF72DFE552E552E55292
:1039D000E7CFD9FF1200010EE66E69DFE552E66A15
:1039E000E66ADCDFE552E5521200D9CFE6FFE1CF0F
:1039F000D9FF050EE126010EF36EDB6E020EDB6AC7
:103A0000030EDB6A040EDB6ADF6ADFCF10F0116A97
:103A100010BE1168FB0EDBCF12F0FC0EDBCF13F0F3
:103A200011501318E8AE02D0133404D01250105CB9
:103A3000135011582DE2FD0EDBCF10F0FE0EDBCF40
:103A400011F0126A136A11AE02D012681368D950CD
:103A5000010FE96EDACFEAFF10C00BF011C00CF0D5
:103A600012C00DF013C00EF0EECF06F0EECF07F04F
:103A7000EECF08F0EFCF09F098EC2BF005C0EDFF8A
:103A800004C0EDFF03C0EDFF02C0EFFFDF2ABDD78A
:103A9000010EDBCF10F0020EDBCF11F0030EDBCFF7
:103AA00012F0040EDBCF13F010C006F011C007F0C7
:103AB00012C008F013C009F0050EE15C02E2E16AF1
:103AC000E552E16EE552E7CFD9FF1200D9CFE6FF0C
:103AD000E1CFD9FF020EE126DF6AFB0EDBCF10F04B
:103AE000FC0EDBCF11F0FD0EDBCF12F0FE0EDBCFB4
:103AF00013F0105011101210131005E1300EE66E85
:103B000020DFE552F4D0D950FB0FE96EFF0EDA202A
:103B1000EA6ED890030EEB50000A08E6000EEE5C49
:103B2000000EEE58000EEE58000EEE5815E22D0E67
:103B3000E66E07DFE552D950FB0FE96EFF0EDA2083
:103B4000EA6E000EEE6CEF1EEE22EF1EEE22EF1E6E
:103B5000EF22ED52ED52ED52DE52070EDD6E010EF8
:103B6000DBCF10F0000EE76E1018E8AE02D0103474
:103B700003D0E750D880105401E3B9D0010EDB0424
:103B8000146E156A14BE156814C0E6FF15C0E6FF72
:103B90000A0EE66EE66A29DFE552E552E552E55285
:103BA00006C010F007C011F008C012F009C013F0F1
:103BB00006C00BF007C00CF008C00DF009C00EF0F5
:103BC000FB0EDBCF06F0FC0EDBCF07F0FD0EDBCFEC
:103BD00008F0FE0EDBCF09F0D0EC2BF006500710FA
:103BE0000810091041E0010EDF6EDB04186E196A3F
:103BF00018BE196818C0E6FF19C0E6FF0A0EE66E87
:103C0000E66AF3DEE552E552E552E55206C014F0ED
:103C100007C015F008C016F009C017F006C00BF079
:103C200007C00CF008C00DF009C00EF0FB0EDBCF92
:103C300006F0FC0EDBCF07F0FD0EDBCF08F0FE0E2A
:103C4000DBCF09F0D0EC2BF006C010F007C011F06C
:103C500008C012F009C013F0300E1026000E112219
:103C600012221322105003D0DF5004E0300EE66E13
:103C700068DEE552010EDB04146E156A14BE156889
:103C800014C0E6FF15C0E6FF0A0EE66EE66AADDE7A
:103C9000E552E552E552E55206C010F007C011F0BA
:103CA00008C012F009C013F0D950FB0FE96EFF0EE7
:103CB000DA20EA6E06C00BF007C00CF008C00DF069
:103CC00009C00EF0EECF06F0EECF07F0EECF08F011
:103CD000EFCF09F0D0EC2BF005C0EDFF04C0EDFFF5
:103CE00003C0EDFF02C0EFFF010EDB0638D7020E66
:103CF000E15C02E2E16AE552E16EE552E7CFD9FF0D
:103D00001200D9CFE6FFE1CFD9FFFD0EDBCFE6FFF2
:103D1000FE0EDBCFE6FF42DEE552E552D950F90F49
:103D2000E96EFF0EDA20EA6EEECFE6FFEECFE6FF99
:103D3000EECFE6FFEFCFE6FFC9DEE552E552E552F2
:103D4000E552E552E7CFD9FF1200D9CFE6FFE1CF28
:103D5000D9FFFD0EDBCFE6FFFE0EDBCFE6FF1EDE5A
:103D6000E552E552FB0EDBCFE6FFFC0EDBCFE6FFB4
:103D7000F5DDE552E552E552E7CFD9FF1200D9CF84
:103D8000E6FFE1CFD9FF6BCF10F06CCF11F0040E3E
:103D9000D89010361136E806FBE1410E10260F0EC2
:103DA000112210500F016D25E96E11506E21EA6E3F
:103DB000FE0EDBCFEFFF6D2B000E6E23E552E7CF3B
:103DC000D9FF1200D9CFE6FFE1CFD9FFE652DF6A73
:103DD000DFCF10F0100EE76E1018E8AE02D0E73417
:103DE00002D0E750105C18E2DFCFE9FFEA6AE9BED3
:103DF000EA68410EE9260F0EEA22200EEF6EDFCFB1
:103E0000E9FFEA6AE9BEEA68510EE9260F0EEA22E6
:103E1000200EEF6EDF2ADCD7E552E552E7CFD9FF5F
:103E20001200D9CFE6FFE1CFD9FFE6520F01405192
:103E3000030A52E0010A36E0030A1AE0010A67E1C8
:103E4000E66AE66AABDDE552E552DF6A080EDF5C42
:103E50000CE2DF50EA6A410FE96E0F0EEA22EF50E2
:103E6000E66E6FDDE552DF2AF1D70F01010E32D089
:103E7000080EE66EE66A92DDE552E552DF6A080E4C
:103E8000DF5C0DE2080EDF24EA6A410FE96E0F0ED7
:103E9000EA22EF50E66E55DDE552DF2AF0D70F013A
:103EA000020E18D0E66A010EE66E78DDE552E552A4
:103EB000DF6A080EDF5C0CE2DF50EA6A510FE96E40
:103EC0000F0EEA22EF50E66E3CDDE552DF2AF1D715
:103ED0000F01030E406F1CD0080EE66E010EE66E59
:103EE0005DDDE552E552DF6A080EDF5C0DE2080E8B
:103EF000DF24EA6A510FE96E0F0EEA22EF50E66EF8
:103F000020DDE552DF2AF0D70F01406B01D0406B76
:103F1000E552E552E7CFD9FF1200D9CFE6FFE1CF56
:103F2000D9FFE6520F014051010A1BE0010A32E1BC
:103F3000E66AE66A33DDE552E552DF6A100EDF5CC1
:103F40000CE2DF50EA6A410FE96E0F0EEA22EF50F1
:103F5000E66EF7DCE552DF2AF1D70F01010E406F64
:103F60001AD0E66A010EE66E19DDE552E552DF6A07
:103F7000100EDF5C0CE2DF50EA6A510FE96E0F0EA3
:103F8000EA22EF50E66EDDDCE552DF2AF1D70F01C1
:103F9000406B01D0406BE552E552E7CFD9FF1200EC
:103FA000D9CFE6FFE1CFD9FFE652E66AE66AF6DC52
:103FB000E552E552DF6A100EDF5C0CE2DF50EA6A80
:103FC000410FE96E0F0EEA22EF50E66EBADCE552C1
:103FD000DF2AF1D7E66A010EE66EE0DCE552E55233
:103FE000DF6A100EDF5C0CE2DF50EA6A510FE96E07
:103FF0000F0EEA22EF50E66EA4DCE552DF2AF1D77D
:10400000E552E552E7CFD9FF1200D9CFE6FFE1CF65
:10401000D9FFFE0EDB50010B0F016B6F6C6BFD0EB9
:10402000DB500F0B6D6F6E6B6BCF10F06CCF11F020
:10403000040ED89010361136E806FBE1410E10262A
:104040000F0E112210500F016D25E96E11506E21D7
:10405000EA6EFC0EDBCFEFFFE552E7CFD9FF12008F
:10406000D9CFE6FFE1CFD9FF020EE126DF6AFE0ECF
:10407000DB50010B0F016B6F6C6BFD0EDB500F0BF8
:104080006D6F6E6BF90EDBCF10F0FA0EDBCF11F017
:10409000FB0EDBCF12F0FC0EDBCF13F01050111033
:1040A0001210131005E1300EE66E69DEE552F5D010
:1040B000D950F90FE96EFF0EDA20EA6ED890030EA0
:1040C000EB50000A08E6000EEE5C000EEE58000E03
:1040D000EE58000EEE5815E22D0EE66E50DEE5525B
:1040E000D950F90FE96EFF0EDA20EA6E000EEE6C81
:1040F000EF1EEE22EF1EEE22EF1EEF22ED52ED52EA
:10410000ED52DE52070EDD6E010EDBCF10F0000E19
:10411000E76E1018E8AE02D0103403D0E750D88014
:10412000105401E3BAD0010EDB04146E156A14BEFC
:10413000156814C0E6FF15C0E6FF0A0EE66EE66AD3
:1041400054DCE552E552E552E55206C010F007C0D6
:1041500011F008C012F009C013F006C00BF007C040
:104160000CF008C00DF009C00EF0F90EDBCF06F020
:10417000FA0EDBCF07F0FB0EDBCF08F0FC0EDBCF37
:1041800009F0D0EC2BF0065007100810091041E0A0
:10419000010EDF6EDB04186E196A18BE196818C0AC
:1041A000E6FF19C0E6FF0A0EE66EE66A1EDCE5527F
:1041B000E552E552E55206C014F007C015F008C0FC
:1041C00016F009C017F006C00BF007C00CF008C0CD
:1041D0000DF009C00EF0F90EDBCF06F0FA0EDBCFC2
:1041E00007F0FB0EDBCF08F0FC0EDBCF09F0D0ECC4
:1041F0002BF006C010F007C011F008C012F009C083
:1042000013F0300E1026000E11221222132210502D
:1042100003D0DF5004E0300EE66EB1DDE552010E52
:10422000DB04146E156A14BE156814C0E6FF15C0D1
:10423000E6FF0A0EE66EE66AF5EC1CF0E552E55282
:10424000E552E55206C010F007C011F008C012F0A8
:1042500009C013F0D950F90FE96EFF0EDA20EA6EAB
:1042600006C00BF007C00CF008C00DF009C00EF03E
:10427000EECF06F0EECF07F0EECF08F0EFCF09F06B
:10428000D0EC2BF005C0EDFF04C0EDFF03C0EDFF47
:1042900002C0EFFF010EDB0637D7020EE15C02E23F
:1042A000E16AE552E16EE552E7CFD9FF1200D9CFBE
:1042B000E6FFE1CFD9FFFE0EDB50010B0F016B6F64
:1042C0006C6BFD0EDB500F0B6D6F6E6BFB0EDBCF5F
:1042D000F6FFFC0EDBCFF7FF0800F5500FE0FB0EFA
:1042E000DBCFF6FFDB2AFC0EDBCFF7FF01E3DB2A97
:1042F0000800F550E66E43DDE552E8D7E552E7CF1A
:04430000D9FF1200CF
:0C430400B06A810EAF6EAC8AAC94B88633
:10431000AC98AB8EAB889E9A9D8A9F9A949C948E03
:104320001200D9CFE6FFE1CFD9FF040EE126DE6A05
:10433000DD6ADECF10F0DDCF11F0FD0EDBCF12F025
:10434000FE0EDBCF13F011501318E8AE02D0133479
:1043500004D01250105C135011581DE2020EDB6A9B
:10436000030EDB6A020EDBCF10F0030EDBCF11F081
:10437000D890115004E6EE0E105C000E115806E2C3
:10438000020EDB2A030EEEE3DB2AECD7DF2A010E56
:10439000D0E3DB2ACED7040EE15C02E2E16AE5520B
:1043A000E16EE552E7CFD9FF1200D9CFE6FFE1CFAA
:1043B000D9FF9EA8FED7FE0EDB50AD6E9E98E5524B
:1043C000E7CFD9FF1200D9CFE6FFE1CFD9FFFD0E2D
:1043D000DBCFE9FFFE0EDBCFEAFFEF5010E0FD0E72
:1043E000DBCFE9FFFE0EDBCFEAFFEF50E66EDDDF4D
:1043F000E552FD0EDB2AFE0EEAE3DB2AE8D7E552A2
:10440000E7CFD9FF1200D9CFE6FFE1CFD9FFFD0EEC
:10441000DBCFF6FFFE0EDBCFF7FF0800F55015E00F
:10442000FD0EDBCFF6FFFE0EDBCFF7FF0800F550E9
:10443000E66EBBDFE552FD0EDBCFF6FFDB2AFE0E9C
:10444000DBCFF7FFE4E3DB2AE2D7E552E7CFD9FF82
:104450001200D9CFE6FFE1CFD9FFE652AE50DF6EB2
:104460000001F751050A2AE0010A21E0070A11E0DC
:10447000010A0AE0020A02E0010A2AE1210EDF5CD9
:1044800028E1FA6B020E22D0210EDF5C15E1030E4B
:104490001DD0FA51EA6A810FE96E000EEA22DFCFE1
:1044A000EFFFFA2BFC51FA5D14E3040E0FD0230E3C
:1044B000DF5C02E1050E0AD0010E08D0230EDF5C9E
:1044C00004E1010EF86FF76B04D0010EF76F01D015
:1044D000F76BE552E552E7CFD9FF120029EF22F042
:1044E000D9CFE6FFE1CFD9FFE6685FDFE552E668A6
:1044F0005CDFE552FE0EDBCFE6FF57DFE552FD0E37
:10450000DBCF10F0FE0EDBCF11F00D6A010E0E6E48
:1045100010C008F011C009F0B0EC2AF004C010F08F
:1045200005C011F00450E66E40DFE552FC0EDBCF13
:10453000E6FF3BDFE552FB0EDBCF10F0FC0EDBCFDE
:1045400011F00D6A010E0E6E10C008F011C009F0D6
:10455000B0EC2AF004C010F005C011F00450E66E73
:1045600024DFE552FA0EDBCFE6FF1FDFE552F90E3E
:10457000DBCF10F0FA0EDBCF11F00D6A010E0E6EDC
:1045800010C008F011C009F0B0EC2AF004C010F01F
:1045900005C011F00450E66E08DFE552F80EDBCFDF
:1045A000E6FF03DFE552F70EDBCF10F0F80EDBCFAE
:1045B00011F00D6A010E0E6E10C008F011C009F066
:1045C000B0EC2AF004C010F005C011F00450E66E03
:1045D000ECDEE552FE0EE66EE8DEE552FE0EE66E1D
:1045E000E4DEE552E552E7CFD9FF1200D9CFE6FF6E
:1045F000E1CFD9FF020EE126DF6AFB0EDBCF10F020
:10460000FC0EDBCF11F0FD0EDBCF12F0FE0EDBCF88
:1046100013F0105011101210131005E1300EE66E59
:10462000C4DEE552F4D0D950FB0FE96EFF0EDA205C
:10463000EA6ED890030EEB50000A08E6000EEE5C1E
:10464000000EEE58000EEE58000EEE5815E22D0E3C
:10465000E66EABDEE552D950FB0FE96EFF0EDA20B5
:10466000EA6E000EEE6CEF1EEE22EF1EEE22EF1E43
:10467000EF22ED52ED52ED52DE520A0EDD6E010ECA
:10468000DBCF10F0000EE76E1018E8AE02D0103449
:1046900003D0E750D880105401E3B9D0010EDB04F9
:1046A000146E156A14BE156814C0E6FF15C0E6FF47
:1046B0000A0EE66EE66AB5D8E552E552E552E552D5
:1046C00006C010F007C011F008C012F009C013F0C6
:1046D00006C00BF007C00CF008C00DF009C00EF0CA
:1046E000FB0EDBCF06F0FC0EDBCF07F0FD0EDBCFC1
:1046F00008F0FE0EDBCF09F0D0EC2BF006500710CF
:104700000810091041E0010EDF6EDB04186E196A13
:1047100018BE196818C0E6FF19C0E6FF0A0EE66E5B
:10472000E66A7FD8E552E552E552E55206C014F03C
:1047300007C015F008C016F009C017F006C00BF04E
:1047400007C00CF008C00DF009C00EF0FB0EDBCF67
:1047500006F0FC0EDBCF07F0FD0EDBCF08F0FE0EFF
:10476000DBCF09F0D0EC2BF006C010F007C011F041
:1047700008C012F009C013F0300E1026000E1122EE
:1047800012221322105003D0DF5004E0300EE66EE8
:104790000CDEE552010EDB04146E156A14BE1568BA
:1047A00014C0E6FF15C0E6FF0A0EE66EE66A39D8C9
:1047B000E552E552E552E55206C010F007C011F08F
:1047C00008C012F009C013F0D950FB0FE96EFF0EBC
:1047D000DA20EA6E06C00BF007C00CF008C00DF03E
:1047E00009C00EF0EECF06F0EECF07F0EECF08F0E6
:1047F000EFCF09F0D0EC2BF005C0EDFF04C0EDFFCA
:1048000003C0EDFF02C0EFFF010EDB0638D7020E3A
:10481000E15C02E2E16AE552E16EE552E7CFD9FFE1
:104820001200D9CFE6FFE1CFD9FF050EE126010E38
:10483000F36EDB6E020EDB6A030EDB6A040EDB6ACC
:10484000DF6ADFCF10F0116A10BE1168FB0EDBCFFC
:1048500012F0FC0EDBCF13F011501318E8AE02D0AB
:10486000133404D01250105C135011582DE2FD0E79
:10487000DBCF10F0FE0EDBCF11F0126A136A11AE1F
:1048800002D012681368D950010FE96EDACFEAFF3F
:1048900010C00BF011C00CF012C00DF013C00EF0E0
:1048A000EECF06F0EECF07F0EECF08F0EFCF09F035
:1048B00098EC2BF005C0EDFF04C0EDFF03C0EDFF49
:1048C00002C0EFFFDF2ABDD7010EDBCF10F0020ED2
:1048D000DBCF11F0030EDBCF12F0040EDBCF13F0B1
:1048E00010C006F011C007F012C008F013C009F0A4
:1048F000050EE15C02E2E16AE552E16EE552E7CFC6
:04490000D9FF1200C9
:0C490400D9CFE6FFE1CFD9FFD59EFD0E14
:10491000DBCF4EF1FE0EDBCF4FF1D59C1368146850
:10492000156A4EC116F04FC117F0186A1650135C85
:10493000106E17501458116E18501558126E0C6ADC
:10494000010E0D6E0E6A10C007F011C008F012C003
:1049500009F0D6EC2AF00350D66E13681468156A75
:104960004EC116F04FC117F0186A1650135C106E46
:1049700017501458116E18501558126E0C6A010E0B
:104980000D6E0E6A10C007F011C008F012C009F0D9
:10499000D6EC2AF007C010F008C011F009C012F0E0
:1049A0000750D76ED59AD586F28AF294F184D58EC7
:1049B000E552E7CFD9FF1200D59E120013681468A4
:1049C000156A4EC116F04FC117F0186A1650135CE5
:1049D000106E17501458116E18501558126E0C6A3C
:1049E000010E0D6E0E6A10C007F011C008F012C063
:1049F00009F0D6EC2AF00350D66E13681468156AD5
:104A00004EC116F04FC117F0186A1650135C106EA5
:104A100017501458116E18501558126E0C6A010E6A
:104A20000D6E0E6A10C007F011C008F012C009F038
:104A3000D6EC2AF007C010F008C011F009C012F03F
:104A40000750D76ED58E1200D9CFE6FFE1CFD9FF40
:104A5000CD90FD0EDBCF50F1FE0EDBCF51F1136890
:104A60001468156A50C116F051C117F0186A165033
:104A7000135C106E17501458116E18501558126EA2
:104A80000C6A010E0D6E0E6A10C007F011C008F01E
:104A900012C009F0D6EC2AF00750CF6E13681468E4
:104AA000156A50C116F051C117F0186A1650135C00
:104AB000106E17501458116E18501558126E0C6A5B
:104AC000010E0D6E0E6A10C007F011C008F012C082
:104AD00009F0D6EC2AF003C010F004C011F005C0B4
:104AE00012F00350CE6E9D809E909F90CD8ECD8C07
:104AF000CD98CD9ACD96CD92CD80E552E7CFD9FF16
:104B0000120013681468156A50C116F051C117F0ED
:104B1000186A1650135C106E17501458116E185006
:104B20001558126E0C6A010E0D6E0E6A10C007F059
:104B300011C008F012C009F0D6EC2AF00750CF6E71
:104B400013681468156A50C116F051C117F0186A3D
:104B50001650135C106E17501458116E18501558DB
:104B6000126E0C6A010E0D6E0E6A10C007F011C0B5
:104B700008F012C009F0D6EC2AF003C010F004C00F
:104B800011F005C012F00350CE6ECD801200CD9012
:104B90001200D9CFE6FFE1CFD9FFCA94CC6AFE0E4E
:104BA000DB500101526F536BCB6E9D829E929F92A0
:104BB000CA90CA92CA84E552E7CFD9FF120052C107
:104BC000CBFFCA841200CA941200D9CFE6FFE1CF0E
:104BD000D9FFB190FD0EDBCF54F1FE0EDBCF55F1C6
:104BE00013681468156A54C116F055C117F0186A95
:104BF0001650135C106E17501458116E185015583B
:104C0000126E0C6A010E0D6E0E6A10C007F011C014
:104C100008F012C009F0D6EC2AF00750B36E136802
:104C20001468156A54C116F055C117F0186A165069
:104C3000135C106E17501458116E18501558126EE0
:104C40000C6A010E0D6E0E6A10C007F011C008F05C
:104C500012C009F0D6EC2AF003C010F004C011F025
:104C600005C012F00350B26EA082A192A292B18E42
:104C7000B198B19AB192B180E552E7CFD9FF120055
:104C800013681468156A54C116F055C117F0186AF4
:104C90001650135C106E17501458116E185015589A
:104CA000126E0C6A010E0D6E0E6A10C007F011C074
:104CB00008F012C009F0D6EC2AF00350B26E136867
:104CC0001468156A54C116F055C117F0186A1650C9
:104CD000135C106E17501458116E18501558126E40
:104CE0000C6A010E0D6E0E6A10C007F011C008F0BC
:104CF00012C009F0D6EC2AF007C010F008C011F07D
:104D000009C012F00750B36EB1801200B1901200CA
:104D100001015E2B000E5F2366515E5D67515F5996
:104D200004E35E6B5F6B010E566F12000101602B96
:104D3000000E61236851605D6951615904E3606B45
:104D4000616B010E576F12000101622B000E63238D
:104D50006A51625D6B51635904E3626B636B010ED0
:104D6000586F12000101642B000E65236C51645DC5
:104D70006D51655904E3646B656B010E596F120048
:104D8000D9CFE6FFE1CFD9FFFD0EDBCF66F1FE0EF6
:104D9000DBCF67F101015E6B5F6B566BE552E7CFCE
:104DA000D9FF1200D9CFE6FFE1CFD9FFFD0EDBCF4F
:104DB00068F1FE0EDBCF69F1050E0D6E0E6A68C15B
:104DC00008F069C109F0B0EC2AF008C068F109C028
:104DD00069F10101606B616B576BE552E7CFD9FF59
:104DE0001200D9CFE6FFE1CFD9FFFD0EDBCF6CF18A
:104DF000FE0EDBCF6DF10A0E0D6E0E6A6CC108F06F
:104E00006DC109F0B0EC2AF008C06CF109C06DF179
:104E10000101646B656B596BE552E7CFD9FF120056
:104E20000F0E946E82681200CF0E9414946E8268F6
:104E30001200D9CFE6FFE1CFD9FF040EE126DE6AEA
:104E4000DD6ADECF10F0DDCF11F0D890115004E60E
:104E5000040E105C000E115801E390D0DECFE9FF84
:104E6000DDCFEAFF200EE926010EEA22EF1C826E5A
:104E7000020EDB6A030EDB6A020EDBCF10F0030EBC
:104E8000DBCF11F0D890115004E6040E105C000E38
:104E900011586EE2020EDBCFE9FF030EDBCFEAFF13
:104EA000240EE926010EEA22EF5082143FE1DECF04
:104EB00014F0DDCF15F0D89014361536D89014368E
:104EC0001536020EDB501424E96E030EDB5015205C
:104ED000EA6ED890E936EA36000EE926010EEA229B
:104EE000EECF12F0EFCF13F0010E1226000E1322B8
:104EF000DECF10F0DDCF11F0D89010361136D890FB
:104F000010361136020EDB501024E96E030EDB5012
:104F10001120EA6ED890E936EA36000EE926010E35
:104F2000EA2212C0EEFF13C0EDFF1BD0DECF10F05F
:104F3000DDCF11F0D89010361136D89010361136DA
:104F4000020EDB501024E96E030EDB501120EA6ED6
:104F5000D890E936EA36000EE926010EEA22EE6A1A
:104F6000ED6A020EDB2A030E01E286D7DB2A84D724
:104F7000DF2A010E01E265D7DB2A63D7040EE15C6C
:104F800002E2E16AE552E16EE552E7CFD9FF120095
:104F9000D9CFE6FFE1CFD9FF040EE126DE6ADD6A54
:104FA000DECF10F0DDCF11F0D890115004E6020EE4
:104FB000105C000E115801E390D0DECFE9FFDDCF89
:104FC000EAFF200EE926010EEA22EF1C826E020E95
:104FD000DB6A030EDB6A020EDBCF10F0030EDBCFC1
:104FE00011F0D890115004E6040E105C000E115818
:104FF0006EE2020EDBCFE9FF030EDBCFEAFF240EE9
:10500000E926010EEA22EF5082143FE1DECF14F0D0
:10501000DDCF15F0D89014361536D89014361536E5
:10502000020EDB501424E96E030EDB501520EA6EED
:10503000D890E936EA36000EE926010EEA22EECFD4
:1050400012F0EFCF13F0010E1226000E1322DECF66
:1050500010F0DDCF11F0D89010361136D890103600
:105060001136020EDB501024E96E030EDB501120C6
:10507000EA6ED890E936EA36000EE926010EEA22F9
:1050800012C0EEFF13C0EDFF1BD0DECF10F0DDCF5E
:1050900011F0D89010361136D89010361136020E15
:1050A000DB501024E96E030EDB501120EA6ED8901D
:1050B000E936EA36000EE926010EEA22EE6AED6ACA
:1050C000020EDB2A030E01E286D7DB2A84D7DF2A11
:1050D000010E01E265D7DB2A63D7040EE15C02E230
:1050E000E16AE552E16EE552E7CFD9FF1200D9CF70
:1050F000E6FFE1CFD9FF040EE126DE6ADD6ADECFEE
:1051000010F0DDCF11F0FD0EDBCF12F0FE0EDBCF85
:1051100013F011501318E8AE02D0133404D012501B
:10512000105C135011581DE2020EDB6A030EDB6A9D
:10513000020EDBCF10F0030EDBCF11F0D890115030
:1051400004E6EE0E105C000E115806E2020EDB2A99
:10515000030EEEE3DB2AECD7DF2A010ED0E3DB2AD5
:10516000CED7040EE15C02E2E16AE552E16EE5525F
:10517000E7CFD9FF1200D9CFE6FFE1CFD9FF040E68
:10518000E126DE6ADD6ADECF10F0DDCF11F0D890C7
:10519000115004E6040E105C000E115875E2DECFCB
:1051A000E9FFDDCFEAFF200EE926010EEA22EF1C1F
:1051B000826E020EDB6A030EDB6A020EDBCF10F09A
:1051C000030EDBCF11F0D890115004E6040E105CF2
:1051D000000E11584AE2DECF10F0DDCF11F0D8906A
:1051E00010361136D89010361136020EDB501024CE
:1051F000E96E030EDB501120EA6ED890E936EA36EC
:10520000000EE926010EEA22EE6AED6A020EDBCFFD
:10521000E9FF030EDBCFEAFF240EE926010EEA22A6
:10522000EF5082141CE1DECF10F0DDCF11F0D890EA
:1052300010361136D89010361136020EDB5010247D
:10524000E96E030EDB501120EA6ED890E936EA369B
:10525000000EE926010EEA22010EEE6EED6A020E44
:10526000DB2A030EAAE3DB2AA8D78250816EE80E60
:10527000E66E030EE66E3BDFE552E552DF2A010ED5
:1052800001E281D7DB2A7FD7040EE15C02E2E16A0A
:0C529000E552E16EE552E7CFD9FF1200B5
:04529C00F28ED08E30
:1052A000F28C1200F19CF292F2881200D8CFE4FF47
:1052B000E0CFE4FFE46EDACFE4FFE2CFDAFFE9CF3C
:1052C000E4FFEACFE4FFF6CFE4FFF7CFE4FFF5CF4A
:1052D000E4FFF3CFE4FFF4CFE4FFFACFE4FF00EE06
:1052E00000F0100EE80403E3EECFE4FFFBD700EE7E
:1052F00010F00C0EE80403E3EECFE4FFFBD7E65218
:10530000F2A407D0DCEC24F0F294DEEC24F088EC7C
:1053100026F09EA007D0C7EC25F09E9081EC25F0EA
:1053200096EC26F0A1A207D086EC26F0A19240ECE4
:1053300026F0B2EC26F0F2B2F2929EAA03D09E9A28
:105340006EEC22F0E55200EE1BF00C0EE80403E3D5
:10535000E5CFEDFFFBD700EE0FF0100EE80403E3FE
:10536000E5CFEDFFFBD7E5CFFAFFE5CFF4FFE5CFC3
:10537000F3FFE5CFF5FFE5CFF7FFE5CFF6FFE5CF8C
:10538000EAFFE5CFE9FFE5CFDAFFE550E5CFE0FF43
:10539000E5CFD8FF1000DACFE4FFE2CFDAFFE9CFA4
:1053A000E4FFEACFE4FFF6CFE4FFF7CFE4FFF5CF69
:1053B000E4FFF3CFE4FFF4CFE4FFFACFE4FF00EE25
:1053C00000F0100EE80403E3EECFE4FFFBD700EE9D
:1053D00010F00C0EE80403E3EECFE4FFFBD7E65237
:1053E000F2A407D0DCEC24F0F294DEEC24F088EC9C
:1053F00026F09EA007D0C7EC25F09E9081EC25F00A
:1054000096EC26F0A1A207D086EC26F0A19240EC03
:1054100026F0B2EC26F0F2B2F2929EAA03D09E9A47
:105420006EEC22F0E55200EE1BF00C0EE80403E3F4
:10543000E5CFEDFFFBD700EE0FF0100EE80403E31D
:10544000E5CFEDFFFBD7E5CFFAFFE5CFF4FFE5CFE2
:10545000F3FFE5CFF5FFE5CFF7FFE5CFF6FFE5CFAB
:0C546000EAFFE5CFE9FFE5CFDAFF11001D
:04546C0059454C4C06
:105470004F5720323A20202000475245454E2032D7
:105480003A2020200052454420313A202020005963
:10549000454C4C4F5720313A2020200052454420A3
:1054A000323A20202000475245454E20313A2020F4
:1054B0002000534554323A00534554313A004C4988
:1054C000474854323A003A0044454C4159004C494F
:1054D000474854313A0023005354415455533A003D
:1054E000210044454C41592052454432202020207F
:1054F00020200044454C4159205245443120202071
:105500002020200044454C41592059454C4C4F57D0
:10551000312020200044454C41592059454C4C4FE6
:105520005732202020004348414E47494E472052E1
:10553000454432004348414E47494E472052454476
:1055400031004150504C5920494E2059454C4C4F48
:0F55500057004F5554204F462052414E474500BB
:10556000006A0EAEB9EF2AF00D6C0E1EE86A0E222C
:10557000001E09AEC1EF2AF0086C091EE86A092274
:10558000001E11EC2CF009BED1EF2AF000AE000C89
:10559000086C091EE86A0922046C051EE86A0522E7
:1055A000000C00BEC8EF2AF00188FF0C006A0EAEA6
:1055B000E1EF2AF00C6C0D1E0E1EE86A0D220E2281
:1055C000001E09AEEBEF2AF0076C081E091EE86A00
:1055D00008220922001EF4EC2BF009BEFEEF2AF08F
:1055E00000AE000C076C081E091EE86A082209229A
:1055F000036C041E051E04220522000C00BEF2EFFF
:065600002AF00188FF0CF6
:0A5606001E0EF66E000EF76E000E89
:10561000F86E0F010900F550666F0900F550676FCD
:1056200003E1666701D03DD00900F550616F0900C4
:10563000F550626F0900F550636F09000900F550DD
:10564000E96E0900F550EA6E090009000900F550FD
:10565000646F0900F550656F09000900F6CF68FF17
:10566000F7CF69FFF8CF6AFF61CFF6FF62CFF7FF90
:1056700063CFF8FF0F01645302E1655307E00900AF
:10568000F550EE6E6407F8E26507F9D768CFF6FFCC
:1056900069CFF7FF6ACFF8FF0F016607000E675B5F
:0456A000BFD712005E
:0C56A4000F0E926E0B0EC16E040EC06E55
:1056B0001200D9CFE6FFE1CFD9FF020EE126FE0EA0
:1056C000DB50040DF350C26EC280C282C2B2FED75C
:1056D000C450DE6EDD6ADECF12F0DDCF13F0D8905D
:1056E00012361336D89012361336060EC3CFE7FFA4
:1056F000070B04E0E742E79EE806FCE1E7501224CE
:10570000106E000E132010C0DEFFDD6EDECF10F035
:10571000DDCF11F010C0F3FF11C0F4FF020EE15C09
:1057200002E2E16AE552E16EE552E7CFD9FF1200ED
:1057300006500B02F3CF02F0F4CF03F00C02F3504B
:105740000326000EF420046E06500D02F3500426CA
:10575000000EF420056E06500E02F3500526075089
:105760000B02F3500326F4500422000E05220750CA
:105770000C02F3500426F450052207500D02F3509A
:10578000052608500B02F3500426F4500522085059
:105790000C02F350052609500B02F35005261200A7
:1057A000056A046A036A026A200EE76ED89006361C
:1057B00007360836093602360336043605360B50EE
:1057C000025C0C5003580D5004580E50055809E364
:1057D0000B50025E0C50035A0D50045A0E50055ADD
:0857E000062AE72EE4D71200AF
:0857E800056A046A036A180E49
:1057F000E76ED89007360836093603360436053684
:105800000C50035C0D5004580E50055807E30C5023
:10581000035E0D50045A0E50055A072AE72EEAD7A8
:02582000120074
:0E582200056A046A100EE76ED8900836093643
:10583000043605360D50045C0E50055805E30D5036
:0E584000045E0E50055A082AE72EF0D712001B
:02584E00800ECA
:10585000F36E00EE00F00F0E01D81200EA6002D0E5
:0E586000EE6AFCD7F350E9601200EE6AFCD746
:02586E001EEE2C
:1058700000F02EEE00F0F86A019C03EC2BF003EC34
:0A58800000F03AEC00F0FBD7120034
:06588A00056A080EE76E3E
:10589000D890093605360E50055C02E3056E092ADC
:0658A000E72EF7D712000D
:0A58A60000000000000000000000F8
:1058B00000000000000000000000000000000100E7
:0658C000010001000100DF
:0A58C60001020408102040800000D9
:0858D000000000000000FF00D1
:0858D8000000000000000000C8
:1058E0001010101010101010181818181818181878
:1058F0001C1C1C1C1C1C1C1C1E1E1E1E1E1E1E1ED8
:105900001F1F1F1F1F1F1F1F00000000000000009F
:105910000000000000000000000000000000000087
:105920000000000000000000000000000000000077
:095930000000000000000000006E
:04593900000000006A
:03593D00FF000068
:10594000000000000000000A0005000F000A00052A
:10595000000F000A0005000A00050000000000001A
:0359600000000044
:0D5963000000000000000000000000000037
:105970000000000000000000000000000000000027
:0B59800000000010204080010204081D
:020000040030CA
:0100010002FC
:0100020003FA
:010003001EDE
:010005008179
:010006008178
:010008000FE8
:01000900C036
:01000A000FE6
:01000B00E014
:01000C000FE4
:01000D0040B2
:00000001FF
