:020000040000FA
:06000000F4EF25F01200F0
:020006001200E6
:0600080069EF23F0120075
:02000E000000F0
:0100100000EF
:0400110000000000EB
:06001800F4EF22F01200DB
:02001E000700D9
:10002000F04C0000290F000028000000CA4C00001E
:10003000510F000026000000110000007B0F00009F
:1000400004000000694C0000800000006100000016
:10005000404C0000000F000029000000204C000070
:1000600000020000200000000E000000EB00000075
:040070000300000089
:0C007400D9CFE6FFE1CFD9FF020EE12654
:10008000DE6ADD6A63D8C2EC16F0B9EC18F0E80E4F
:10009000E66E030EE66E16D8E552E55202010B51EC
:1000A000FDE00B6B57D966EC21F0B9EC18F024ECAD
:1000B0000AF062EC0AF0D7EC0DF0BAEC10F0E8ECC4
:1000C00018F0ECD7D9CFE6FFE1CFD9FF040EE12637
:1000D000DE6ADD6ADECF10F0DDCF11F0FD0EDBCF82
:1000E00012F0FE0EDBCF13F011501318E8AE02D061
:1000F000133404D01250105C135011581DE2020E3C
:10010000DB6A030EDB6A020EDBCF10F0030EDBCFDF
:1001100011F0D890115004E6EE0E105C000E11584C
:1001200006E2020EDB2A030EEEE3DB2AECD7DF2A1F
:10013000010ED0E3DB2ACED7040EE15C02E2E16AD5
:10014000E552E16EE552E7CFD9FF1200936A956A56
:10015000926A19EC15F0836AECEC22F0E80EE66E78
:10016000030EE66EAFDFE552E552660EE66EB70EA1
:10017000E66E83EC1FF0E552E552320EE66EE66A5B
:100180008FEC20F0E552E552B2EC20F059EC1BF078
:100190000FEC25F0030E9310936E1200D9CFE6FFFB
:1001A000E1CFD9FFFE0EDBCF11F0800E11141AE162
:1001B000FD0EDBCF12F0FE0EDBCF13F0133404E2A2
:1001C00012500708000E13540DE3FD0EDBCFE9FFBC
:1001D000FE0EDBCFEAFF000EE9260F0EEA22EF50FB
:1001E0008310836EE552E7CFD9FF1200D9CFE6FF27
:1001F000E1CFD9FFFE0EDBCF11F0800E11141AE112
:10020000FD0EDBCF12F0FE0EDBCF13F0133404E251
:1002100012500708000E13540DE3FD0EDBCFE9FF6B
:10022000FE0EDBCFEAFF000EE9260F0EEA22EF1CDE
:100230008314836EE552E7CFD9FF1200D9CFE6FFD2
:10024000E1CFD9FFFD0EDBCFE9FFFE0EDBCFEAFFEA
:10025000080EE9260F0EEA22EF0415E1FD0EDBCFB2
:10026000E6FFFE0EDBCFE6FFC1DFE552E552FD0EF5
:10027000DBCFE9FFFE0EDBCFEAFF080EE9260F0E0B
:10028000EA22EF6A15D0FD0EDBCFE6FFFE0EDBCFD4
:10029000E6FF84DFE552E552FD0EDBCFE9FFFE0EFF
:1002A000DBCFEAFF080EE9260F0EEA22010EEF6E01
:1002B000E552E7CFD9FF1200D9CFE6FFE1CFD9FF52
:1002C000020EE126DE6ADD6ADECF10F0DDCF11F02E
:1002D000113404E210500708000E115421E3DECF60
:1002E000E6FFDDCFE6FF5ADFE552E552F40EE66E9B
:1002F000010EE66EE7DEE552E552DECFE6FFDDCF2A
:10030000E6FF74DFE552E552F40EE66E010EE66E8E
:10031000D9DEE552E552DF2A010ED6E3DB2AD4D737
:10032000020EE15C02E2E16AE552E16EE552E7CFDE
:10033000D9FF12000F01010E291903E12A5101E131
:10034000010C000C0F01010E2B1903E12C5101E1EE
:10035000010C000CA20EE66E480EE66EE66AE66A36
:100360002EEC1BF0E552E552E552E552F6C110F0D5
:10037000116A126A136AF6C1E6FF11C0E6FF12C0E5
:10038000E6FF13C0E6FFE66AE66A07EC1AF0146EB1
:10039000060EE15E14501200D9CFE6FFE1CFD9FF7F
:1003A0000A0EE126E66A16EC25F0E552F3CF10F0CE
:1003B000F4CF11F0126A136A11AE02D012681368FA
:1003C000060E10C0DBFF070E11C0DBFF080E12C0C7
:1003D000DBFF090E13C0DBFF060EDBCF06F0070EB6
:1003E000DBCF07F0080EDBCF08F0090EDBCF09F0FA
:1003F0008C0E0B6E0C6A0D6A0E6A55EC25F002C06D
:1004000006F003C007F004C008F005C009F00B684F
:10041000030E0C6E0D6A0E6A8DEC25F0020E06C0FE
:10042000DBFF030E07C0DBFF040E08C0DBFF050E79
:1004300009C0DBFF020EDBCFE6FFACEC1BF0E552A0
:10044000D950020FE96EDACFEAFF640EEE5C000EBF
:10045000EE58000EEE58000EEE586EE2020EDBCFA4
:1004600010F0030EDBCF11F0040EDBCF12F0050EFF
:10047000DBCF13F00A0E0B6E0C6A0D6A0E6A10C009
:1004800006F011C007F012C008F013C009F08DEC9F
:1004900025F006C010F007C011F008C012F009C026
:1004A00013F006C0E6FF07C0E6FF08C0E6FF09C07C
:1004B000E6FF0A0EE66EE66A07EC1AF0146E060E08
:1004C000E15E1450A00EE66E480EE66E0B0EE66E70
:1004D000E66A2EEC1BF0E552E552E552E552020EBB
:1004E000DBCF10F0030EDBCF11F0040EDBCF12F0E8
:1004F000050EDBCF13F00A0E0B6E0C6A0D6A0E6A46
:1005000010C006F011C007F012C008F013C009F0C7
:100510008DEC25F002C010F003C011F004C012F001
:1005200005C013F002C0E6FF03C0E6FF04C0E6FF0B
:1005300005C0E6FF0C0E6DD0020EDBCF10F0030EEF
:10054000DBCF11F0040EDBCF12F0050EDBCF13F082
:100550000A0E0B6E0C6A0D6A0E6A10C006F011C00E
:1005600007F012C008F013C009F08DEC25F006C0AA
:1005700010F007C011F008C012F009C013F006C057
:10058000E6FF07C0E6FF08C0E6FF09C0E6FF0A0E67
:10059000E66EE66A07EC1AF0146E060EE15E145081
:1005A000A00EE66E480EE66E0C0EE66EE66A2EECC7
:1005B0001BF0E552E552E552E552020EDBCF10F09A
:1005C000030EDBCF11F0040EDBCF12F0050EDBCFF4
:1005D00013F00A0E0B6E0C6A0D6A0E6A10C006F05C
:1005E00011C007F012C008F013C009F08DEC25F01F
:1005F00002C010F003C011F004C012F005C013F0E7
:1006000002C0E6FF03C0E6FF04C0E6FF05C0E6FF48
:100610000D0EE66EE66A07EC1AF0146E060EE15E49
:1006200014500A0EE15C02E2E16AE552E16EE55225
:10063000E7CFD9FF1200D9CFE6FFE1CFD9FFE652CD
:10064000DF6A0F012851010A53E0010A01E0D2D00C
:100650001C6B1D6B1E6B1F6BFCD981B210D00F0180
:100660001C2B000E1D231E231F23D880E80E1C55B3
:10067000030E1D55000E1E55000E1F55EEE20F0114
:100680001C6B1D6B1E6B1F6B81A206D01C2B000EFA
:100690001D231E231F23F8D71CCF24FF1DCF25FFAA
:1006A0001ECF26FF1FCF27FF1BCFE9FFEA6AE9BE57
:1006B000EA68D890E936EA36D890E936EA36A60EE6
:1006C000E926010EEA2224CFEEFF25CFEEFF26CF4A
:1006D000EEFF27CFEEFF1B29106E096E140E0E6E73
:1006E00053EC24F005C01BFF0F01010E286F83D0CF
:1006F000206B216B226B236BDF6ADFCF10F0140EAF
:10070000E76E1018E8AE02D0E73402D0E750105C74
:100710001DE2DFCFE9FFEA6AE9BEEA68D890E93670
:10072000EA36D890E936EA36A60EE926010EEA2224
:100730002051EE24206F2151EE20216F2251EE2016
:10074000226F2351EE20236FDF2AD7D7140E0B6EB2
:100750000C6A0D6A0E6A20CF06F021CF07F022CF77
:1007600008F023CF09F08DEC25F006C020FF07C06C
:1007700021FF08C022FF09C023FF000EE66EE66AD3
:1007800006C010F007C011F008C012F009C013F045
:10079000030E0B6E0C6A0D6A0E6A8DEC25F006C016
:1007A00010F007C011F008C012F009C013F006C025
:1007B000E6FF07C0E6FF20CF14F021CF15F022CFCF
:1007C00016F023CF17F0640E145E000E155A165A59
:1007D000175A14C0E6FF15C0E6FF24CFE6FF25CF69
:1007E000E6FF0EEC1CF0186E080EE15E18500F01CB
:1007F000286B01D0286BE552E552E7CFD9FF1200F4
:10080000D9CFE6FFE1CFD9FFE652DF6A0F011A51D7
:10081000010A54E0010A01E0F3D0E66A16EC25F083
:10082000E552F3CF16FFF4CF17FF0F01186B196BCA
:1008300017AF02D0186919699B0EE66E480EE66E76
:10084000E66A010EE66E2EEC1BF0E552E552E5522B
:10085000E55216CFE6FF17CFE6FF18CFE6FF19CF18
:10086000E6FFE66A010EE66E07EC1AF0106E060E61
:10087000E15E10501BCFE9FFEA6AE9BEEA68D89052
:10088000E936EA36D890E936EA36060EE926010E50
:10089000EA2216CFEEFF17CFEEFF18CFEEFF19CFEB
:1008A000EEFF0F011B29106E096E280E0E6E53EC21
:1008B00024F005C01BFF0F01010E1A6F126B136BA2
:1008C000146B156BDF6ADFCF10F0280EE76E10187F
:1008D000E8AE02D0E73402D0E750105C1DE2DFCF73
:1008E000E9FFEA6AE9BEEA68D890E936EA36D890C4
:1008F000E936EA36060EE926010EEA221251EE2406
:10090000126F1351EE20136F1451EE20146F155116
:10091000EE20156FDF2AD7D7280E0B6E0C6A0D6AF2
:100920000E6A12CF06F013CF07F014CF08F015CFE0
:1009300009F08DEC25F006C012FF07C013FF08C0B8
:1009400014FF09C015FF000EE66EE66A06C010F03F
:1009500007C011F008C012F009C013F0030E0B6EAF
:100960000C6A0D6A0E6A8DEC25F006C010F007C007
:1009700011F008C012F009C013F006C0E6FF07C06E
:10098000E6FF12CF14F013CF15F014CF16F015CFE9
:1009900017F0640E145E000E155A165A175A14C03A
:1009A000E6FF15C0E6FF16CFE6FF17CFE6FF0EEC19
:1009B0001CF0186E080EE15E18509B0EE66E480E95
:1009C000E66E080EE66E010EE66E2EEC1BF0E552AA
:1009D000E552E552E55212CFE6FF13CFE6FF14CF02
:1009E000E6FF15CFE6FF080EE66E010EE66E07EC99
:1009F0001AF0106E060EE15E10500F011A6B01D056
:100A00001A6BE552E552E7CFD9FF1200D9CFE6FFC6
:100A1000E1CFD9FF020EE126DE6ADD6ADECF10F0FB
:100A2000DDCF11F0D890115004E61E0E105C000EC0
:100A3000115805E2DF2A010EF1E3DB2AEFD7020E9F
:100A4000E15C02E2E16AE552E16EE552E7CFD9FFEF
:100A50001200010EE66EE66AF6EC00F0E552E55291
:100A6000010EE66EE66ACEEC00F0E552E552CEDF0E
:100A7000010EE66EE66AF6EC00F0E552E552120071
:100A8000080E0F01531901E154515AE0070E531992
:100A900001E154514EE0060E531901E1545145E075
:100AA000050E531901E154513CE0040E531901E1C4
:100AB000545125E0030E531901E154511AE0020E7E
:100AC000531901E154510FE0010E531901E1545142
:100AD00004E0535142E1545140D0B9EC18F08E0E6D
:100AE000E66E480E11D0B9EC18F07E0EE66E480E98
:100AF0000BD0B9EC18F0700EE66E480E05D0B9ECCC
:100B000018F0620EE66E480EE66EE66AE66A2EECB5
:100B10001BF0E552E552E552E5520F011E0E5A6FE9
:100B20001CD0510EE66E480E07D0400EE66E480E01
:100B30000AD02F0EE66E480EE66EE66AE66A07D029
:100B40001E0EE66E480EE66EE66A010EE66E2EECAE
:100B50001BF0E552E552E552E5520F01010E6F1907
:100B600008E1705106E10F01536B546B0F011E0E2B
:100B70005A6F1200000EE66EE66ACEEC00F0E55207
:100B8000E5520F01010E736F1200000EE66EE66A69
:100B9000F6EC00F0E552E5520F01736B1200040E03
:100BA000E66EE66ACEEC00F0E552E5520F01010E6A
:100BB000726F1200040EE66EE66AF6EC00F0E55283
:100BC000E5520F01726B1200060EE66EE66ACEEC7D
:100BD00000F0E552E5520F01010E716F1200060E92
:100BE000E66EE66AF6EC00F0E552E5520F01716B35
:100BF0001200010EE66EE66ACEEC00F0E552E55218
:100C00000F01010E766F1200010EE66EE66AF6EC39
:100C100000F0E552E5520F01766B1200050EE66E0C
:100C2000E66ACEEC00F0E552E5520F01010E756F59
:100C30001200050EE66EE66AF6EC00F0E552E552AB
:100C40000F01756B1200070EE66EE66ACEEC00F03F
:100C5000E552E5520F01010E746F1200070EE66EA9
:100C6000E66AF6EC00F0E552E5520F01746B1200F3
:100C70000F01010E291903E12A5101E1010C000CB9
:100C80000F01010E2B1903E12C5101E1010C000CA5
:100C90000F01010E2F1903E1305101E1010C000C8D
:100CA0000F01010E2D1903E12E5101E1010C000C81
:100CB0000F01010E2B1903E12C5101E1010C000C75
:100CC0000F01140E2B5D000E2C5915E32BCF10F0E5
:100CD0002CCF11F00A0E0D6E0E6A2BCF08F02CCF20
:100CE00009F0CEEC25F005C011F0010E041803E167
:100CF000115001E1010C000C0F01010E2D1903E14F
:100D00002E5101E1010C000C0F01010E2F1903E11E
:100D1000305101E1010C000C1C0EE66E480EE66E2F
:100D2000DAEC1BF0E552E552140EE66E480EE66E64
:100D3000DAEC1BF0E552E55251CF10F052CF11F032
:100D4000126A136A51CFE6FF52CFE6FF12C0E6FFE8
:100D500013C0E6FF94EC1CF0E552E552E552E55273
:100D6000120EE66E480EE66EDAEC1BF0E552E55226
:100D70001200D9CFE6FFE1CFD9FF1C0EE66E480E78
:100D8000E66EDAEC1BF0E552E5520A0EE66E480E0E
:100D9000E66EDAEC1BF0E552E552D950FD0FE96E34
:100DA000FF0EDA20EA6EEE50ED1017E155CF10F08D
:100DB00056CF11F0126A136A11AE02D0126813688E
:100DC00010C0E6FF11C0E6FF12C0E6FF13C0E6FF49
:100DD00094EC1CF0E552E55206D0040EE66E480E87
:100DE000E66EDAEC1BF0E552E552020EE66E480EB6
:100DF000E66EDAEC1BF0E552E55271CF10F0116AA5
:100E0000126A136A10AE03D011681268136810C01A
:100E1000E6FF11C0E6FF12C0E6FF13C0E6FF94EC48
:100E20001CF0E552E552E552E552020EE66E480E20
:100E3000E66EDAEC1BF0E552E55272CF10F0116A63
:100E4000126A136A10AE03D011681268136810C0DA
:100E5000E6FF11C0E6FF12C0E6FF13C0E6FF94EC08
:100E60001CF0E552E552E552E552020EE66E480EE0
:100E7000E66EDAEC1BF0E552E55273CF10F0116A22
:100E8000126A136A10AE03D011681268136810C09A
:100E9000E6FF11C0E6FF12C0E6FF13C0E6FF94ECC8
:100EA0001CF0E552E552E552E552120EE66E480E90
:100EB000E66EDAEC1BF0E552E552E552E7CFD9FFDA
:100EC0001200D9CFE6FFE1CFD9FF1C0EE66E480E27
:100ED000E66EDAEC1BF0E552E552FA0EE66E470ECE
:100EE000E66EDAEC1BF0E552E552D950FD0FE96EE3
:100EF000FF0EDA20EA6EEE50ED1017E157CF10F03A
:100F000058CF11F0126A136A11AE02D0126813683A
:100F100010C0E6FF11C0E6FF12C0E6FF13C0E6FFF7
:100F200094EC1CF0E552E55206D0040EE66E480E35
:100F3000E66EDAEC1BF0E552E552020EE66E480E64
:100F4000E66EDAEC1BF0E552E55274CF10F0116A50
:100F5000126A136A10AE03D011681268136810C0C9
:100F6000E6FF11C0E6FF12C0E6FF13C0E6FF94ECF7
:100F70001CF0E552E552E552E552020EE66E480ECF
:100F8000E66EDAEC1BF0E552E55275CF10F0116A0F
:100F9000126A136A10AE03D011681268136810C089
:100FA000E6FF11C0E6FF12C0E6FF13C0E6FF94ECB7
:100FB0001CF0E552E552E552E552020EE66E480E8F
:100FC000E66EDAEC1BF0E552E55276CF10F0116ACE
:100FD000126A136A10AE03D011681268136810C049
:100FE000E6FF11C0E6FF12C0E6FF13C0E6FF94EC77
:100FF0001CF0E552E552E552E552120EE66E480E3F
:10100000E66EDAEC1BF0E552E552E552E7CFD9FF88
:1010100012001C0EE66E480EE66EDAEC1BF0E5528E
:10102000E5520A0EE66E480EE66EDAEC1BF0E5526B
:10103000E5525ACF10F0116A126A136A5ACFE6FFCE
:1010400011C0E6FF12C0E6FF13C0E6FF94EC1CF0EF
:10105000E552E552E552E552020EE66E480EE66EA6
:10106000DAEC1BF0E552E55271CF10F0116A126A0A
:10107000136A10AE03D011681268136810C0E6FF3F
:1010800011C0E6FF12C0E6FF13C0E6FF94EC1CF0AF
:10109000E552E552E552E552020EE66E480EE66E66
:1010A000DAEC1BF0E552E55272CF10F0116A126AC9
:1010B000136A10AE03D011681268136810C0E6FFFF
:1010C00011C0E6FF12C0E6FF13C0E6FF94EC1CF06F
:1010D000E552E552E552E552020EE66E480EE66E26
:1010E000DAEC1BF0E552E55273CF10F0116A126A88
:1010F000136A10AE03D011681268136810C0E6FFBF
:1011000011C0E6FF12C0E6FF13C0E6FF94EC1CF02E
:10111000E552E552E552E552120EE66E480EE66ED5
:10112000DAEC1BF0E552E55212001C0EE66E480E9A
:10113000E66EDAEC1BF0E552E552FA0EE66E470E6B
:10114000E66EDAEC1BF0E552E5525ACF10F0116A68
:10115000126A136A5ACFE6FF11C0E6FF12C0E6FF1B
:1011600013C0E6FF94EC1CF0E552E552E552E5525F
:10117000020EE66E480EE66EDAEC1BF0E552E55222
:1011800074CF10F0116A126A136A10AE03D011689E
:101190001268136810C0E6FF11C0E6FF12C0E6FF38
:1011A00013C0E6FF94EC1CF0E552E552E552E5521F
:1011B000020EE66E480EE66EDAEC1BF0E552E552E2
:1011C00075CF10F0116A126A136A10AE03D011685D
:1011D0001268136810C0E6FF11C0E6FF12C0E6FFF8
:1011E00013C0E6FF94EC1CF0E552E552E552E552DF
:1011F000020EE66E480EE66EDAEC1BF0E552E552A2
:1012000076CF10F0116A126A136A10AE03D011681B
:101210001268136810C0E6FF11C0E6FF12C0E6FFB7
:1012200013C0E6FF94EC1CF0E552E552E552E5529E
:10123000120EE66E480EE66EDAEC1BF0E552E55251
:1012400012001C0EE66E480EE66EDAEC1BF0E5525C
:10125000E552F40EE66E470EE66EDAEC1BF0E55250
:10126000E5520F016B510F016D25106E0F016C518E
:101270000F016E21116E126A136A10C0E6FFE66E4E
:1012800012C0E6FF13C0E6FF94EC1CF0E552E552F5
:10129000E552E552020EE66E480EE66EDAEC1BF001
:1012A000E552E55269CF10F06ACF11F0126A136A65
:1012B00069CFE6FF6ACFE6FF12C0E6FF13C0E6FF84
:1012C00094EC1CF0E552E552E552E552020EE66E52
:1012D000480EE66EDAEC1BF0E552E55267CF10F0EF
:1012E00068CF11F0126A136A67CFE6FF68CFE6FF96
:1012F00012C0E6FF13C0E6FF94EC1CF0E552E55285
:10130000E552E552120EE66E480EE66EDAEC1BF080
:10131000E552E55212001C0EE66E480EE66EDAEC5F
:101320001BF0E552E552EE0EE66E470EE66EDAEC85
:101330001BF0E552E5520F0167510F016925106E50
:101340000F0168510F016A21116E126A136A10C0F1
:10135000E6FFE66E12C0E6FF13C0E6FF94EC1CF059
:10136000E552E552E552E552020EE66E480EE66E93
:10137000DAEC1BF0E552E5526DCF10F06ECF11F0B4
:10138000126A136A6DCFE6FF6ECFE6FF12C0E6FF6A
:1013900013C0E6FF94EC1CF0E552E552E552E5522D
:1013A000020EE66E480EE66EDAEC1BF0E552E552F0
:1013B0006BCF10F06CCF11F0126A136A6BCFE6FF9F
:1013C0006CCFE6FF12C0E6FF13C0E6FF94EC1CF002
:1013D000E552E552E552E552120EE66E480EE66E13
:1013E000DAEC1BF0E552E55212000F01590525E138
:1013F0000F01563507E35551FF08FF0E565502E31E
:10140000010E01D0000EE66EE66AB3DCE552E5524D
:101410000F0158350CE35751FF08FF0E585507E3ED
:10142000010EE66EE66A4DDDE552E5521200000E51
:10143000E66EE66A46DDE552E55212000F015905F7
:1014400002E1E7DD72DE1200010E0F016F256F6F02
:10145000000E7021706F280E0D6E0E6A6FCF08F0AF
:1014600070CF09F0CEEC25F004C06FFF05C070FF0F
:101470000F015929106E140E116E0E6E10C009F076
:1014800002EC26F005C059FF0F0105041AE10F0117
:101490005507000E565B0F015707585B0F015A079F
:1014A0000F01800E561502E0556956690F01800E36
:1014B000581502E057695869000E0F015A5D01E2A4
:1014C0005A691200320E0F01511901E1525101E126
:1014D0006DD36A0E511901E1525101E174D2690EC6
:1014E000511901E1525101E1BED1060E511901E13C
:1014F000525101E1CAD0050E511901E1525112E0D9
:10150000E868511901E1525101E01200050E516FD6
:10151000526B5BCF55FF5CCF56FF65CF57FF66CF51
:1015200058FF42D3BAEC05F0EFEC05F0DAEC05F029
:1015300023EC06F004EC06F019EC06F00F01571D41
:1015400006E1581D04E1080E0F01536F546B4DDF87
:10155000E20EE66E470EE66EE66AE66A2EEC1BF0D9
:10156000E552E552E552E55255CF10F056CF11F055
:10157000126A136A11AE02D01268136810C0E6FF37
:1015800011C0E6FF12C0E6FF13C0E6FF0D0EE66EC7
:10159000E66A07EC1AF0146E060EE15E1450D80EDF
:1015A000E66E470EE66EE66A010EE66E2EEC1BF066
:1015B000E552E552E552E55257CF10F058CF11F001
:1015C000126A136A11AE02D01268136810C0E6FFE7
:1015D00011C0E6FF12C0E6FF13C0E6FF0D0EE66E77
:1015E000010EE66E07EC1AF0146E060EE15E145062
:1015F0000F015351541114E10F01571D13E1581DF0
:1016000011E1040EE66E480EE66E0B0EE66E010E5C
:10161000E66E2EEC1BF0E552E552E552E55202D0A3
:1016200040EC05F00F01563504E255510008000E5C
:1016300056550BE3060E0F01516F526B8CEC06F002
:101640005DCF55FF5ECF56FF120038EC06F0000963
:1016500004E1300E0101F65D0CE10101F66B100EA4
:101660000F01516F526B8CEC06F00F011E0E5A6F7A
:10167000120040EC06F0000901E090D2300E0101AA
:10168000F65D010801E092D289D2CFEC05F0C5ECFD
:1016900005F0EFEC05F023EC06F004EC06F019EC95
:1016A00006F00F01551D06E1561D04E1050E0F0160
:1016B000536F546B0F01571D06E1581D04E1080ECE
:1016C0000F01536F546B91DECB0EE66E470EE66E44
:1016D000E66AE66A2EEC1BF0E552E552E552E55269
:1016E00055CF10F056CF11F0126A136A11AE02D026
:1016F0001268136810C0E6FF11C0E6FF12C0E6FFD3
:1017000013C0E6FF0D0EE66EE66A07EC1AF0146EE3
:10171000060EE15E1450D80EE66E470EE66EE66ADF
:10172000010EE66E2EEC1BF0E552E552E552E55255
:1017300057CF10F058CF11F0126A136A11AE02D0D1
:101740001268136810C0E6FF11C0E6FF12C0E6FF82
:1017500013C0E6FF0D0EE66E010EE66E07EC1AF002
:10176000146E060EE15E14500F015351541126E120
:101770000F01551D0FE1561D0DE1040EE66E480EDA
:10178000E66E0B0EE66EE66A2EEC1BF0E552E552B5
:10179000E552E5520F01571D13E1581D11E1040EEA
:1017A000E66E480EE66E0B0EE66E010EE66E2EEC51
:1017B0001BF0E552E552E552E55202D040EC05F04F
:1017C0000F015751581107E10F015551561102E011
:1017D000000E01D0010E0F015551561107E10F0106
:1017E0005751581102E0000E01D0010E0F0156357D
:1017F00004E255510008000E565516E30F01583506
:1018000004E257510008000E58550EE3690E0F010F
:10181000516F526B8CEC06F05FCF55FF60CF56FFD7
:1018200061CF57FF62CF58FF38EC06F0000904E1A2
:10183000300E0101F65D0BE10101F66B730E0F0135
:10184000516F526B8CEC06F00F011E0E5A6F40EC7C
:1018500006F0000901E0A2D1300E0101F65D010899
:1018600001E0A4D19BD1E4EC05F0DAEC05F0C5EC85
:1018700005F0F9EC05F02EEC06F019EC06F00F017E
:10188000551D06E1561D04E1070E0F01536F546B01
:10189000ACDDC10EE66E470EE66EE66AE66A2EEC39
:1018A0001BF0E552E552E552E55255CF10F056CF08
:1018B00011F0126A136A11AE02D01268136810C0D8
:1018C000E6FF11C0E6FF12C0E6FF13C0E6FF0D0EF3
:1018D000E66EE66A07EC1AF0146E060EE15E14502E
:1018E000B50EE66E470EE66EE66A010EE66E2EEC6B
:1018F0001BF0E552E552E552E55257CF10F058CFB4
:1019000011F0126A136A11AE02D01268136810C087
:10191000E6FF11C0E6FF12C0E6FF13C0E6FF0D0EA2
:10192000E66E010EE66E07EC1AF0146E060EE15E2E
:1019300014500F015351541113E10F01551D12E1C1
:10194000561D10E1040EE66E480EE66E0B0EE66EB6
:10195000E66A2EEC1BF0E552E552E552E55202D064
:1019600040EC05F00F01583504E257510008000E15
:1019700058550AE36A0E0F01516F526B8CEC06F05A
:1019800063CF57FF64CF58FF38EC06F0000904E13D
:10199000300E0101F65D0BE10101F66B740E0F01D3
:1019A000516F526B8CEC06F00F011E0E5A6F40EC1B
:1019B00006F0000901E0F2D0300E0101F65D0108E9
:1019C00001E0F4D0EBD0E4EC05F0DAEC05F0C5EC86
:1019D00005F00EEC06F02EEC06F004EC06F00F011C
:1019E000551D06E1561D04E1070E0F01536F546BA0
:1019F0000F01571D06E1581D04E1060E0F01536F3C
:101A0000546BF3DCC10EE66E470EE66EE66AE66ADC
:101A10002EEC1BF0E552E552E552E55255CF10F0A1
:101A200056CF11F0126A136A11AE02D01268136811
:101A300010C0E6FF11C0E6FF12C0E6FF13C0E6FFCC
:101A40000D0EE66EE66A07EC1AF0146E060EE15E05
:101A50001450A80EE66E470EE66EE66A010EE66EBC
:101A60002EEC1BF0E552E552E552E55257CF10F04F
:101A700058CF11F0126A136A11AE02D012681368BF
:101A800010C0E6FF11C0E6FF12C0E6FF13C0E6FF7C
:101A90000D0EE66E010EE66E07EC1AF0146E060EE1
:101AA000E15E14500F015351541126E10F01551DF1
:101AB0000FE1561D0DE1040EE66E480EE66E0B0EAC
:101AC000E66EE66A2EEC1BF0E552E552E552E55271
:101AD0000F01571D13E1581D11E1040EE66E480E6B
:101AE000E66E0B0EE66E010EE66E2EEC1BF0E55276
:101AF000E552E552E55202D040EC05F00F01575196
:101B0000581107E10F015551561102E0000E01D0A6
:101B1000010E0F015551561107E10F015751581190
:101B200002E0000E01D0010E0F01583504E25751BA
:101B30000008000E585516E30F01563504E25551C2
:101B40000008000E56550EE3050E0F01516F526B43
:101B50008CEC06F05BCF55FF5CCF56FF65CF57FF8F
:101B600066CF58FF38EC06F0000904E1300E0101A1
:101B7000F65D0BE10101F66B0F0E0F01516F526B19
:101B80008CEC06F00F011E0E5A6F40EC06F00009B7
:101B900005E1300E0101F65D010808E10101F66B77
:101BA0000F015169010E526F8CEF06F01200740E96
:101BB0000F01511901E1525101E124D2730E511963
:101BC00001E1525101E16DD1100E511901E1525163
:101BD00001E1B6D00F0E511901E1525101E012009E
:101BE000BAEC05F0EFEC05F0DAEC05F023EC06F0CA
:101BF00004EC06F019EC06F021DCE20EE66E470E6E
:101C0000E66EE66AE66A2EEC1BF0E552E552E55216
:101C1000E5525ACF10F0116A126A136A5ACFE6FFE2
:101C200011C0E6FF12C0E6FF13C0E6FF0D0EE66E20
:101C3000E66A07EC1AF0146E060EE15E1450D80E38
:101C4000E66E470EE66EE66A010EE66E2EEC1BF0BF
:101C5000E552E552E552E5525ACF10F0116A126A88
:101C6000136A5ACFE6FF11C0E6FF12C0E6FF13C0A9
:101C7000E6FF0D0EE66E010EE66E07EC1AF0146E2E
:101C8000060EE15E14500F015A5100080EE3060ED5
:101C90000F01516F526B8CEC06F05DCF55FF5ECF9C
:101CA00056FF5DCF57FF5ECF58FF38EC06F00009B6
:101CB00004E1300E0101F65D0BE10101F66B100E3F
:101CC0000F01516F526B8CEC06F00F011E0E5A6F14
:101CD00040EC06F0000905E1300E0101F65D010857
:101CE00008E10101F66B0F015169010E526F8CEC96
:101CF00006F050EC06F0000905E1300E0101F65D3A
:101D0000020810E10101F66B050E0F01516F526BD5
:101D10008CEC06F05BCF55FF5CCF56FF65CF57FFCD
:101D200066CF58FF48EC06F0000906E1300E0101CD
:101D3000F65D030801E01DD20101F66B740E10D2AE
:101D4000CFEC05F0C5EC05F0EFEC05F023EC06F068
:101D500004EC06F019EC06F01EEC0AF0CB0EE66E71
:101D6000470EE66EE66AE66A2EEC1BF0E552E55297
:101D7000E552E5525ACF10F0116A126A136A5ACF2F
:101D8000E6FF11C0E6FF12C0E6FF13C0E6FF0D0E2E
:101D9000E66EE66A07EC1AF0146E060EE15E145069
:101DA000D80EE66E470EE66EE66A010EE66E2EEC83
:101DB0001BF0E552E552E552E5525ACF10F0116A98
:101DC000126A136A5ACFE6FF11C0E6FF12C0E6FF9F
:101DD00013C0E6FF0D0EE66E010EE66E07EC1AF07C
:101DE000146E060EE15E14500F015A5100080EE306
:101DF000690E0F01516F526B8CEC06F05FCF55FFEF
:101E000060CF56FF61CF57FF62CF58FF38EC06F026
:101E1000000904E1300E0101F65D0BE10101F66BF2
:101E2000730E0F01516F526B8CEC06F00F011E0EFA
:101E30005A6F40EC06F0000905E1300E0101F65D35
:101E4000010808E10101F66B0F015169010E526FA3
:101E50008CEC06F050EC06F0000905E1300E0101B3
:101E6000F65D020810E10101F66B060E0F01516FDD
:101E7000526B8CEC06F05DCF55FF5ECF56FF5DCF09
:101E800057FF5ECF58FF48EC06F0000906E1300E20
:101E90000101F65D030801E06CD10101F66B0F0E44
:101EA0005FD1F9EC05F02EEC06F019EC06F0E4EC4D
:101EB00005F0C5EC05F0DAEC05F01EEC0AF0C10EF9
:101EC000E66E470EE66EE66AE66A2EEC1BF0E55219
:101ED000E552E552E5525ACF10F0116A126A136AC0
:101EE0005ACFE6FF11C0E6FF12C0E6FF13C0E6FFBF
:101EF0000D0EE66EE66A07EC1AF0146E060EE15E51
:101F00001450B50EE66E470EE66EE66A010EE66EFA
:101F10002EEC1BF0E552E552E552E5525ACF10F097
:101F2000116A126A136A5ACFE6FF11C0E6FF12C0A7
:101F3000E6FF13C0E6FF0D0EE66E010EE66E07EC3F
:101F40001AF0146E060EE15E14500F015A5100088B
:101F50000EE36A0E0F01516F526B8CEC06F063CFEB
:101F600055FF64CF56FF63CF57FF64CF58FF38EC5F
:101F700006F0000904E1300E0101F65D0BE10101FC
:101F8000F66B740E0F01516F526B8CEC06F00F0163
:101F90001E0E5A6F40EC06F0000905E1300E0101FB
:101FA000F65D010808E10101F66B0F015169010EB0
:101FB000526F8CEC06F050EC06F0000905E1300E93
:101FC0000101F65D020810E10101F66B690E0F01D7
:101FD000516F526B8CEC06F05FCF55FF60CF56FF10
:101FE00061CF57FF62CF58FF48EC06F0000906E1C9
:101FF000300E0101F65D030801E0BBD00101F66B74
:10200000100EAED00EEC06F004EC06F02EEC06F04E
:10201000E4EC05F0C5EC05F0DAEC05F01EEC0AF096
:10202000C10EE66E470EE66EE66AE66A2EEC1BF01F
:10203000E552E552E552E5525ACF10F0116A126AA4
:10204000136A5ACFE6FF11C0E6FF12C0E6FF13C0C5
:10205000E6FF0D0EE66EE66A07EC1AF0146E060E49
:10206000E15E1450A80EE66E470EE66EE66A010EBB
:10207000E66E2EEC1BF0E552E552E552E5525ACFE2
:1020800010F0116A126A136A5ACFE6FF11C0E6FF18
:1020900012C0E6FF13C0E6FF0D0EE66E010EE66EFF
:1020A00007EC1AF0146E060EE15E14500F015A513F
:1020B0000EE1050E0F01516F526B8CEC06F05BCFF9
:1020C00055FF5CCF56FF5FCF57FF60CF58FF38EC0E
:1020D00006F0000904E1300E0101F65D0BE101019B
:1020E000F66B0F0E0F01516F526B8CEC06F00F0167
:1020F0001E0E5A6F40EC06F0000905E1300E01019A
:10210000F65D010808E10101F66B0F015169010E4E
:10211000526F8CEC06F050EC06F0000905E1300E31
:102120000101F65D020810E10101F66B060E0F01D8
:10213000516F526B8CEC06F05DCF55FF5ECF56FFB2
:102140005DCF57FF5ECF58FF48EC06F0000905E170
:10215000300E0101F65D03080CE10101F66B730E10
:102160000F01516F526B8CEC06F00F011E0E5A6F6F
:10217000120012001D0E0F01511901E1525101E12F
:102180008DD21C0E511901E1525101E1BDD11B0E3E
:10219000511901E1525101E1EED01A0E511901E13C
:1021A000525120E0E868511902E1010E521901E094
:1021B00012001A0E516F526B8CEC06F00F011E0EBE
:1021C0005A6F5BCF67FF5CCF68FF5DCF69FF5ECF63
:1021D0006AFF61CF6BFF62CF6CFF63CF6DFF64CF8F
:1021E0006EFF12000F01590509E1E4EC05F0C5ECA2
:1021F00005F0DAEC05F023EC06F008D0EFEC05F082
:10220000C5EC05F0DAEC05F02EEC06F004EC06F077
:1022100019EC06F01EEC0AF058EC06F0000905E196
:10222000300E0101F65D04081AE10101F66B0F01A1
:10223000E70E675D030E68590AE20F011E0E5A6F22
:102240000F01672B000E682321EC09F008D0010E66
:102250000F01536F546B020E0F016F6F706B60ECC8
:1022600006F0000905E1300E0101F65D05081BE1ED
:102270000101F66B0F01010ED8806755000E6855FD
:102280000AE20F011E0E5A6F0F016707000E685B0E
:1022900021EC09F008D0010E0F01536F546B020EB0
:1022A0000F016F6F706B0F015351541126E1E20E55
:1022B000E66E470EE66EE66A010EE66E2EEC1BF049
:1022C000E552E552E552E55267CF10F068CF11F0C4
:1022D000126A136A67CFE6FF68CFE6FF12C0E6FF17
:1022E00013C0E6FF0D0EE66E010EE66E07EC1AF067
:1022F000146E060EE15E145002D040EC05F00F01A2
:102300005A5105E10F015169526B8CEC06F038EC23
:1023100006F0000905E1300E0101F65D01080BE150
:102320000101F66B1B0E0F01516F526B8CEC06F026
:102330000F011E0E5A6F48EC06F0000905E1300E41
:102340000101F65D03080BE10101F66B0F011E0EA2
:102350005A6F8CEC06F01D0E0F01516F526B7CEC26
:1023600006F0000901E061D2300E0101F65D0208BD
:1023700001E08ED25AD20F01590509E1E4EC05F0D3
:10238000C5EC05F0DAEC05F023EC06F008D0EFEC34
:1023900005F0C5EC05F0DAEC05F02EEC06F004ECE7
:1023A00006F019EC06F01EEC0AF058EC06F00009F5
:1023B00005E1300E0101F65D04081AE10101F66B3A
:1023C0000F01E70E695D030E6A590AE20F011E0E46
:1023D0005A6F0F01692B000E6A2321EC09F008D017
:1023E000010E0F01536F546B020E0F016F6F706B74
:1023F00060EC06F0000905E1300E0101F65D05080C
:102400001BE10101F66B0F01010ED8806955000E2A
:102410006A550AE20F011E0E5A6F0F016907000E7E
:102420006A5B21EC09F008D0010E0F01536F546B69
:10243000020E0F016F6F706B0F015351541126E1A3
:10244000CB0EE66E470EE66EE66A010EE66E2EECE9
:102450001BF0E552E552E552E55269CF10F06ACF24
:1024600011F0126A136A69CFE6FF6ACFE6FF12C065
:10247000E6FF13C0E6FF0D0EE66E010EE66E07ECFA
:102480001AF0146E060EE15E145002D040EC05F016
:102490000F015A5105E10F015169526B8CEC06F0A6
:1024A00038EC06F0000905E1300E0101F65D010887
:1024B0000BE10101F66B1C0E0F01516F526B0F0106
:1024C0001E0E5A6F8CEC06F048EC06F0000905E190
:1024D000300E0101F65D03080BE10101F66B1A0EE7
:1024E0000F01516F526B0F011E0E5A6F8CEC06F0EC
:1024F0007CEC06F0000901E098D1300E0101F65D98
:10250000020801E0C5D191D10F01590509E1E4ECC0
:1025100005F0C5EC05F0DAEC05F023EC06F008D088
:10252000EFEC05F0C5EC05F0DAEC05F02EEC06F06A
:1025300004EC06F019EC06F01EEC0AF058EC06F07C
:10254000000905E1300E0101F65D04081AE1010100
:10255000F66B0F01E70E6B5D030E6C590AE20F017B
:102560001E0E5A6F0F016B2B000E6C238BEC09F0C3
:1025700008D0010E0F01536F546B020E0F016F6FE5
:10258000706B60EC06F0000905E1300E0101F65DAC
:1025900005081BE10101F66B0F01010ED8806B5598
:1025A000000E6C550AE20F011E0E5A6F0F016B07E9
:1025B000000E6C5B8BEC09F008D0010E0F01536F1D
:1025C000546B020E0F016F6F706B0F01535154115A
:1025D00026E1B50EE66E470EE66EE66A010EE66E81
:1025E0002EEC1BF0E552E552E552E5526BCF10F0B0
:1025F0006CCF11F0126A136A6BCFE6FF6CCFE6FF67
:1026000012C0E6FF13C0E6FF0D0EE66E010EE66E89
:1026100007EC1AF0146E060EE15E145002D040EC86
:1026200005F00F015A51000805E30F015169526B83
:102630008CEC06F038EC06F0000905E1300E0101E3
:10264000F65D01080BE10101F66B0F011E0E5A6FDA
:102650001D0E0F01516F526B8CEC06F048EC06F02A
:10266000000905E1300E0101F65D03080BE10101EF
:10267000F66B0F011E0E5A6F1B0E0F01516F526B3E
:102680008CEC06F07CEC06F0000901E0CED0300EB8
:102690000101F65D020801E0FBD0C7D00F0159052A
:1026A00009E1E4EC05F0C5EC05F0DAEC05F023EC0B
:1026B00006F008D0EFEC05F0C5EC05F0DAEC05F01B
:1026C0002EEC06F004EC06F019EC06F01EEC0AF015
:1026D00058EC06F0000905E1300E0101F65D040832
:1026E0001AE10101F66B0F01E70E6D5D030E6E59E5
:1026F0000AE20F011E0E5A6F0F016D2B000E6E23A2
:102700008BEC09F008D0010E0F01536F546B020ED1
:102710000F016F6F706B60EC06F0000905E1300E81
:102720000101F65D05081BE10101F66B0F01010EC9
:10273000D8806D55000E6E550AE20F011E0E5A6FBD
:102740000F016D07000E6E5B8BEC09F008D0010ED7
:102750000F01536F546B020E0F016F6F706B0F01FF
:102760005351541126E1A80EE66E470EE66EE66A56
:10277000010EE66E2EEC1BF0E552E552E552E552F5
:102780006DCF10F06ECF11F0126A136A6DCFE6FFB5
:102790006ECFE6FF12C0E6FF13C0E6FF0D0EE66E39
:1027A000010EE66E07EC1AF0146E060EE15E145090
:1027B00002D040EC05F00F015A51000805E30F016B
:1027C0005169526B8CEC06F038EC06F0000905E11B
:1027D000300E0101F65D01080BE10101F66B0F01FE
:1027E0001E0E5A6F1A0E0F01516F526B8CEC06F0D1
:1027F00048EC06F0000905E1300E0101F65D030822
:102800000BE10101F66B0F011E0E5A6F1C0E0F013A
:10281000516F526B8CEC06F07CEC06F0000905E180
:10282000300E0101F65D020833E10101F66B67CF5E
:102830005BFF68CF5CFF69CF5DFF6ACF5EFF6BCF48
:1028400061FF6CCF62FF6DCF63FF6ECF64FF0F013E
:102850005B510F015D250F01656F0F015C510F0189
:102860005E210F01666F0F0161510F0163250F019A
:102870005F6F0F0162510F0164210F01606F0F0143
:102880005169526B21EC09F08BEC09F08CEF06F0EA
:02289000120034
:0E289200D9CFE6FFE1CFD9FF040EE126DE6AC2
:1028A000DD6ADECF10F0DDCF11F0126A136A11AECF
:1028B00002D012681368D950FB0FE96EFF0EDA20C0
:1028C000EA6EEE50105CEE501158EE501258EE5079
:1028D00013581DE2020EDB6A030EDB6A020EDBCF29
:1028E00010F0030EDBCF11F0D890115004E6050E66
:1028F000105C000E115806E2020EDB2A030EEEE316
:10290000DB2AECD7DF2A010ECCE3DB2ACAD7040E80
:10291000E15C02E2E16AE552E16EE552E7CFD9FF00
:102920001200D9CFE6FFE1CFD9FF040EE126DE6A1F
:10293000DD6ADECF10F0DDCF11F0126A136A11AE3E
:1029400002D012681368D950FB0FE96EFF0EDA202F
:10295000EA6EEE50105CEE501158EE501258EE50E8
:1029600013581DE2020EDB6A030EDB6A020EDBCF98
:1029700010F0030EDBCF11F0D890115004E6EE0EEC
:10298000105C000E115806E2020EDB2A030EEEE385
:10299000DB2AECD7DF2A010ECCE3DB2ACAD7040EF0
:1029A000E15C02E2E16AE552E16EE552E7CFD9FF70
:1029B0001200D9CFE6FFE1CFD9FF0F0E8116FE0E30
:1029C000DB50F00B81128186010EE66EE66AE66A44
:1029D000E66AA7DFE552E552E552E5528196010E1F
:1029E000E66EE66AE66AE66A9CDFE552E552E55283
:1029F000E5520F0E8116FE0EDB38F00B8112818638
:102A0000010EE66EE66AE66AE66A8BDFE552E5529B
:102A1000E552E5528196010EE66EE66AE66AE66ADE
:102A200080DFE552E552E552E552E552E7CFD9FFA6
:102A30001200D9CFE6FFE1CFD9FFE652190EE66EBC
:102A4000E66AE66AE66A6DDFE552E552E552E5526E
:102A50000F0E8116F80E81160F0E8116300E8112A0
:102A60008186010EE66EE66AE66AE66A5ADFE5529C
:102A7000E552E552E5528196010EE66EE66AE66A97
:102A8000E66A4FDFE552E552E552E5520F0E811638
:102A9000300E81128186010EE66EE66AE66AE66A0B
:102AA00040DFE552E552E552E5528196010EE66EB1
:102AB000E66AE66AE66A35DFE552E552E552E55236
:102AC0000F0E8116300E81128186010EE66EE66AC7
:102AD000E66AE66A26DFE552E552E552E55281965E
:102AE000010EE66EE66AE66AE66A1BDFE552E5522B
:102AF000E552E5520F0E8116818A8186010EE66E3F
:102B0000E66AE66AE66A0DDFE552E552E552E5520D
:102B10008196010EE66EE66AE66AE66A02DFE55233
:102B2000E552E552E552280EE66E43DFE5520C0E03
:102B3000E66E3FDFE552E552E552E7CFD9FF1200DE
:102B4000D9CFE6FFE1CFD9FF020EE126DF6A010E01
:102B5000DB6A81940F0EE66EE66AE66AE66A99DE43
:102B6000E552E552E552E5520F0E81128186E66E7E
:102B7000E66AE66AE66A8DDEE552E552E552E5521E
:102B80000F0E8114E76E010EE7CFDBFF81960F0E6B
:102B9000E66EE66AE66AE66A7CDEE552E552E552F2
:102BA000E5520F0E81128186E66EE66AE66AE66AF3
:102BB00070DEE552E552E552E5520F0E8114DF6EEC
:102BC000010EDB50DF128196010EE66EE66AE66AC0
:102BD000E66A5FDEE552E552E552E552DF50106EDF
:102BE000020EE15C02E2E16AE552E16E1050E5524C
:102BF000E7CFD9FF1200D9CFE6FFE1CFD9FFE652E8
:102C0000DF6A9EDFDF6EDFBEFCD7DF50E552E552A4
:102C1000E7CFD9FF1200D9CFE6FFE1CFD9FF0F0EE2
:102C20008116FE0EDB5081128186050EE66EE66A85
:102C3000E66AE66A2EDEE552E552E552E5528196F5
:102C4000050EE66EE66AE66AE66A23DEE552E552BE
:102C5000E552E552E552E7CFD9FF1200D9CFE6FFA2
:102C6000E1CFD9FF8194050EE66EE66AE66AE66A70
:102C700010DEE552E552E552E552FE0EDBCFE6FFEF
:102C8000CADFE552FE0EDB38F00BE66EC4DFE5521C
:102C9000E552E7CFD9FF1200D9CFE6FFE1CFD9FF48
:102CA0008184050EE66EE66AE66AE66AF2DDE552C2
:102CB000E552E552E552FE0EDBCFE6FFACDFE55212
:102CC000FE0EDB38F00BE66EA6DFE5528194E5528E
:102CD000E7CFD9FF1200D9CFE6FFE1CFD9FFFE0E33
:102CE000DBCFE6FFD9DFE552E552E7CFD9FF12008F
:102CF000D9CFE6FFE1CFD9FFFE0EDBCFE6FFCCDF79
:102D0000E552E552E7CFD9FF1200D9CFE6FFE1CF78
:102D1000D9FFFD0EDBCFF6FFFE0EDBCFF7FF08007D
:102D2000F5500FE0FD0EDBCFF6FFDB2AFE0EDBCF0A
:102D3000F7FF01E3DB2A0800F550E66ED9DFE55224
:102D4000E8D7E552E7CFD9FF1200D9CFE6FFE1CFB0
:102D5000D9FFE652FD0EDB500F0B106EFE0EDB505E
:102D6000010B400DF3501024DF6E7F0EDF14800F37
:102D7000DF6EDFCFE6FF72DFE552E552E552E7CFC7
:102D8000D9FF1200010EE66E69DFE552E66AE66AD7
:102D9000DCDFE552E5521200D9CFE6FFE1CFD9FFE3
:102DA000050EE126010EF36EDB6E020EDB6A030EEA
:102DB000DB6A040EDB6ADF6ADFCF10F0116A10BE37
:102DC0001168FB0EDBCF12F0FC0EDBCF13F01150BD
:102DD0001318E8AE02D0133404D01250105C135014
:102DE00011582DE2FD0EDBCF10F0FE0EDBCF11F0FF
:102DF000126A136A11AE02D012681368D950010F1B
:102E0000E96EDACFEAFF10C00BF011C00CF012C06F
:102E10000DF013C00EF0EECF06F0EECF07F0EECFC0
:102E200008F0EFCF09F055EC25F005C0EDFF04C028
:102E3000EDFF03C0EDFF02C0EFFFDF2ABDD7010E9B
:102E4000DBCF10F0020EDBCF11F0030EDBCF12F060
:102E5000040EDBCF13F010C006F011C007F012C053
:102E600008F013C009F0050EE15C02E2E16AE552E8
:102E7000E16EE552E7CFD9FF1200D9CFE6FFE1CFEF
:102E8000D9FF020EE126DF6AFB0EDBCF10F0FC0E4D
:102E9000DBCF11F0FD0EDBCF12F0FE0EDBCF13F017
:102EA000105011101210131005E1300EE66E20DFE5
:102EB000E552F4D0D950FB0FE96EFF0EDA20EA6E2E
:102EC000D890030EEB50000A08E6000EEE5C000EF0
:102ED000EE58000EEE58000EEE5815E22D0EE66E7E
:102EE00007DFE552D950FB0FE96EFF0EDA20EA6EDC
:102EF000000EEE6CEF1EEE22EF1EEE22EF1EEF2212
:102F0000ED52ED52ED52DE52070EDD6E010EDBCFBB
:102F100010F0000EE76E1018E8AE02D0103403D0A7
:102F2000E750D880105401E3B9D0010EDB04146ED1
:102F3000156A14BE156814C0E6FF15C0E6FF0A0E38
:102F4000E66EE66A29DFE552E552E552E55206C033
:102F500010F007C011F008C012F009C013F006C04D
:102F60000BF007C00CF008C00DF009C00EF0FB0E0E
:102F7000DBCF06F0FC0EDBCF07F0FD0EDBCF08F059
:102F8000FE0EDBCF09F08DEC25F00650071008107F
:102F9000091041E0010EDF6EDB04186E196A18BEDD
:102FA000196818C0E6FF19C0E6FF0A0EE66EE66A69
:102FB000F3DEE552E552E552E55206C014F007C0D3
:102FC00015F008C016F009C017F006C00BF007C0D6
:102FD0000CF008C00DF009C00EF0FB0EDBCF06F0C0
:102FE000FC0EDBCF07F0FD0EDBCF08F0FE0EDBCFD3
:102FF00009F08DEC25F006C010F007C011F008C0F4
:1030000012F009C013F0300E1026000E1122122209
:103010001322105003D0DF5004E0300EE66E68DE5D
:10302000E552010EDB04146E156A14BE156814C057
:10303000E6FF15C0E6FF0A0EE66EE66AADDEE55273
:10304000E552E552E55206C010F007C011F008C085
:1030500012F009C013F0D950FB0FE96EFF0EDA2011
:10306000EA6E06C00BF007C00CF008C00DF009C0F6
:103070000EF0EECF06F0EECF07F0EECF08F0EFCF78
:1030800009F08DEC25F005C0EDFF04C0EDFF03C095
:10309000EDFF02C0EFFF010EDB0638D7020EE15C48
:1030A00002E2E16AE552E16EE552E7CFD9FF120094
:1030B000D9CFE6FFE1CFD9FFFD0EDBCFE6FFFE0E55
:1030C000DBCFE6FF42DEE552E552D950F90FE96E5B
:1030D000FF0EDA20EA6EEECFE6FFEECFE6FFEECF90
:1030E000E6FFEFCFE6FFC9DEE552E552E552E552D5
:1030F000E552E7CFD9FF1200D9CFE6FFE1CFD9FFE4
:10310000FD0EDBCFE6FFFE0EDBCFE6FF1EDEE55257
:10311000E552FB0EDBCFE6FFFC0EDBCFE6FFF5DD75
:10312000E552E552E552E7CFD9FF1200D9CFE6FFCD
:10313000E1CFD9FF77CF10F078CF11F0040ED890FF
:1031400010361136E806FBE1C10E1026000E1122E2
:1031500010500F017925E96E11507A21EA6EFE0EAA
:10316000DBCFEFFF792B000E7A23E552E7CFD9FFB3
:103170001200D9CFE6FFE1CFD9FFE652DF6ADFCFF9
:1031800010F0100EE76E1018E8AE02D0E73402D04F
:10319000E750105C18E2DFCFE9FFEA6AE9BEEA68AF
:1031A000C10EE926000EEA22200EEF6EDFCFE9FF06
:1031B000EA6AE9BEEA68D10EE926000EEA22200E8C
:1031C000EF6EDF2ADCD7E552E552E7CFD9FF1200D8
:1031D000D9CFE6FFE1CFD9FFE6520001C051030A83
:1031E00052E0010A36E0030A1AE0010A67E1E66AE2
:1031F000E66AABDDE552E552DF6A080EDF5C0CE201
:10320000DF50EA6AC10FE96E000EEA22EF50E66E67
:103210006FDDE552DF2AF1D70001010E32D0080E32
:10322000E66EE66A92DDE552E552DF6A080EDF5C83
:103230000DE2080EDF24EA6AC10FE96E000EEA22F1
:10324000EF50E66E55DDE552DF2AF0D70001020EA1
:1032500018D0E66A010EE66E78DDE552E552DF6AC7
:10326000080EDF5C0CE2DF50EA6AD10FE96E000E57
:10327000EA22EF50E66E3CDDE552DF2AF1D700018D
:10328000030EC06F1CD0080EE66E010EE66E5DDD0B
:10329000E552E552DF6A080EDF5C0DE2080EDF241E
:1032A000EA6AD10FE96E000EEA22EF50E66E20DDE9
:1032B000E552DF2AF0D70001C06B01D0C06BE552A8
:1032C000E552E7CFD9FF1200D9CFE6FFE1CFD9FF12
:1032D000E6520001C051010A1BE0010A32E1E66A30
:1032E000E66A33DDE552E552DF6A100EDF5C0CE280
:1032F000DF50EA6AC10FE96E000EEA22EF50E66E77
:10330000F7DCE552DF2AF1D70001010EC06F1AD0B9
:10331000E66A010EE66E19DDE552E552DF6A100E2F
:10332000DF5C0CE2DF50EA6AD10FE96E000EEA22A0
:10333000EF50E66EDDDCE552DF2AF1D70001C06B0D
:1033400001D0C06BE552E552E7CFD9FF1200D9CFCB
:10335000E6FFE1CFD9FFE652E66AE66AF6DCE5521F
:10336000E552DF6A100EDF5C0CE2DF50EA6AC10F43
:10337000E96E000EEA22EF50E66EBADCE552DF2A73
:10338000F1D7E66A010EE66EE0DCE552E552DF6A4F
:10339000100EDF5C0CE2DF50EA6AD10FE96E000E1E
:1033A000EA22EF50E66EA4DCE552DF2AF1D7E552BF
:1033B000E552E7CFD9FF1200D9CFE6FFE1CFD9FF21
:1033C000FE0EDB50010B0F01776F786BFD0EDB50AB
:1033D0000F0B796F7A6B77CF10F078CF11F0040E66
:1033E000D89010361136E806FBE1C10E1026000E0B
:1033F000112210500F017925E96E11507A21EA6EE1
:10340000FC0EDBCFEFFFE552E7CFD9FF1200D9CF9B
:10341000E6FFE1CFD9FF020EE126DF6AFE0EDB50A8
:10342000010B0F01776F786BFD0EDB500F0B796F7F
:103430007A6BF90EDBCF10F0FA0EDBCF11F0FB0E3A
:10344000DBCF12F0FC0EDBCF13F010501110121076
:10345000131005E1300EE66E69DEE552F5D0D95065
:10346000F90FE96EFF0EDA20EA6ED890030EEB50EA
:10347000000A08E6000EEE5C000EEE58000EEE5854
:10348000000EEE5815E22D0EE66E50DEE552D950D4
:10349000F90FE96EFF0EDA20EA6E000EEE6CEF1EF9
:1034A000EE22EF1EEE22EF1EEF22ED52ED52ED5214
:1034B000DE52070EDD6E010EDBCF10F0000EE76E60
:1034C0001018E8AE02D0103403D0E750D880105462
:1034D00001E3BAD0010EDB04146E156A14BE156840
:1034E00014C0E6FF15C0E6FF0A0EE66EE66A54DC7D
:1034F000E552E552E552E55206C010F007C011F062
:1035000008C012F009C013F006C00BF007C00CF0A1
:1035100008C00DF009C00EF0F90EDBCF06F0FA0E70
:10352000DBCF07F0FB0EDBCF08F0FC0EDBCF09F0A2
:103530008DEC25F0065007100810091041E0010E2F
:10354000DF6EDB04186E196A18BE196818C0E6FF32
:1035500019C0E6FF0A0EE66EE66A1EDCE552E55289
:10356000E552E55206C014F007C015F008C016F089
:1035700009C017F006C00BF007C00CF008C00DF032
:1035800009C00EF0F90EDBCF06F0FA0EDBCF07F024
:10359000FB0EDBCF08F0FC0EDBCF09F08DEC25F045
:1035A00006C010F007C011F008C012F009C013F0F7
:1035B000300E1026000E112212221322105003D0BA
:1035C000DF5004E0300EE66EB1DDE552010EDB04A3
:1035D000146E156A14BE156814C0E6FF15C0E6FF28
:1035E0000A0EE66EE66ACCEC16F0E552E552E552BC
:1035F000E55206C010F007C011F008C012F009C073
:1036000013F0D950F90FE96EFF0EDA20EA6E06C00A
:103610000BF007C00CF008C00DF009C00EF0EECFA3
:1036200006F0EECF07F0EECF08F0EFCF09F08DEC0B
:1036300025F005C0EDFF04C0EDFF03C0EDFF02C0A3
:10364000EFFF010EDB0637D7020EE15C02E2E16A12
:10365000E552E16EE552E7CFD9FF1200D9CFE6FF80
:10366000E1CFD9FFFE0EDB50010B0F01776F786BB6
:10367000FD0EDB500F0B796F7A6BFB0EDBCFF6FF85
:10368000FC0EDBCFF7FF0800F5500FE0FB0EDBCFA1
:10369000F6FFDB2AFC0EDBCFF7FF01E3DB2A080095
:1036A000F550E66E43DDE552E8D7E552E7CFD9FFA6
:0236B000120006
:0E36B200B06A810EAF6EAC8AAC94B886AC984C
:1036C000AB8EAB889E9A9D8A9F9A949C948E120092
:1036D000D9CFE6FFE1CFD9FF040EE126DE6ADD6A2D
:1036E000DECF10F0DDCF11F0FD0EDBCF12F0FE0EBD
:1036F000DBCF13F011501318E8AE02D0133404D00E
:103700001250105C135011581DE2020EDB6A030EBA
:10371000DB6A020EDBCF10F0030EDBCF11F0D89086
:10372000115004E6EE0E105C000E115806E2020E77
:10373000DB2A030EEEE3DB2AECD7DF2A010ED0E30F
:10374000DB2ACED7040EE15C02E2E16AE552E16ECB
:10375000E552E7CFD9FF1200D9CFE6FFE1CFD9FF7D
:103760009EA8FED7FE0EDB50AD6E9E98E552E7CFC9
:10377000D9FF1200D9CFE6FFE1CFD9FFFD0EDBCF95
:10378000E9FFFE0EDBCFEAFFEF5010E0FD0EDBCFCE
:10379000E9FFFE0EDBCFEAFFEF50E66EDDDFE5521C
:1037A000FD0EDB2AFE0EEAE3DB2AE8D7E552E7CF7F
:1037B000D9FF1200D9CFE6FFE1CFD9FFFD0EDBCF55
:1037C000F6FFFE0EDBCFF7FF0800F55015E0FD0E0B
:1037D000DBCFF6FFFE0EDBCFF7FF0800F550E66EFD
:1037E000BBDFE552FD0EDBCFF6FFDB2AFE0EDBCFA3
:1037F000F7FFE4E3DB2AE2D7E552E7CFD9FF120077
:10380000D9CFE6FFE1CFD9FFE652AE50DF6EDFCF72
:10381000F6F1E552E552E7CFD9FF1200D9CFE6FF26
:10382000E1CFD9FFE66898DFE552E66895DFE5521B
:10383000FE0EDBCFE6FF90DFE552FD0EDBCF10F092
:10384000FE0EDBCF11F00D6A010E0E6E10C008F0F7
:1038500011C009F06DEC24F004C010F005C011F0A7
:103860000450E66E79DFE552FC0EDBCFE6FF74DF35
:10387000E552FB0EDBCF10F0FC0EDBCF11F00D6A32
:10388000010E0E6E10C008F011C009F06DEC24F0AE
:1038900004C010F005C011F00450E66E5DDFE55283
:1038A000FA0EDBCFE6FF58DFE552F90EDBCF10F062
:1038B000FA0EDBCF11F00D6A010E0E6E10C008F08B
:1038C00011C009F06DEC24F004C010F005C011F037
:1038D0000450E66E41DFE552F80EDBCFE6FF3CDF39
:1038E000E552F70EDBCF10F0F80EDBCF11F00D6ACA
:1038F000010E0E6E10C008F011C009F06DEC24F03E
:1039000004C010F005C011F00450E66E25DFE5524A
:10391000FE0EE66E21DFE552FE0EE66E1DDFE5527D
:10392000E552E7CFD9FF1200D9CFE6FFE1CFD9FFAB
:10393000020EE126DF6AFB0EDBCF10F0FC0EDBCFC0
:1039400011F0FD0EDBCF12F0FE0EDBCF13F01050A6
:1039500011101210131005E1300EE66EFDDEE55277
:10396000F4D0D950FB0FE96EFF0EDA20EA6ED89042
:10397000030EEB50000A08E6000EEE5C000EEE5857
:10398000000EEE58000EEE5815E22D0EE66EE4DE47
:10399000E552D950FB0FE96EFF0EDA20EA6E000EF9
:1039A000EE6CEF1EEE22EF1EEE22EF1EEF22ED5226
:1039B000ED52ED52DE520A0EDD6E010EDBCF10F03D
:1039C000000EE76E1018E8AE02D0103403D0E750B6
:1039D000D880105401E3B9D0010EDB04146E156ACF
:1039E00014BE156814C0E6FF15C0E6FF0A0EE66EA9
:1039F000E66AB5D8E552E552E552E55206C010F048
:103A000007C011F008C012F009C013F006C00BF097
:103A100007C00CF008C00DF009C00EF0FB0EDBCFA4
:103A200006F0FC0EDBCF07F0FD0EDBCF08F0FE0E3C
:103A3000DBCF09F08DEC25F00650071008100910B7
:103A400041E0010EDF6EDB04186E196A18BE1968BA
:103A500018C0E6FF19C0E6FF0A0EE66EE66A7FD8D8
:103A6000E552E552E552E55206C014F007C015F0E4
:103A700008C016F009C017F006C00BF007C00CF024
:103A800008C00DF009C00EF0FB0EDBCF06F0FC0EF7
:103A9000DBCF07F0FD0EDBCF08F0FE0EDBCF09F029
:103AA0008DEC25F006C010F007C011F008C012F030
:103AB00009C013F0300E1026000E1122122213221C
:103AC000105003D0DF5004E0300EE66E45DEE552C4
:103AD000010EDB04146E156A14BE156814C0E6FFEF
:103AE00015C0E6FF0A0EE66EE66A39D8E552E552E1
:103AF000E552E55206C010F007C011F008C012F000
:103B000009C013F0D950FB0FE96EFF0EDA20EA6E00
:103B100006C00BF007C00CF008C00DF009C00EF095
:103B2000EECF06F0EECF07F0EECF08F0EFCF09F0C2
:103B30008DEC25F005C0EDFF04C0EDFF03C0EDFFE7
:103B400002C0EFFF010EDB0638D7020EE15C02E295
:103B5000E16AE552E16EE552E7CFD9FF1200D9CF15
:103B6000E6FFE1CFD9FF050EE126010EF36EDB6E15
:103B7000020EDB6A030EDB6A040EDB6ADF6ADFCF4C
:103B800010F0116A10BE1168FB0EDBCF12F0FC0EB4
:103B9000DBCF13F011501318E8AE02D0133404D069
:103BA0001250105C135011582DE2FD0EDBCF10F0B7
:103BB000FE0EDBCF11F0126A136A11AE02D012684A
:103BC0001368D950010FE96EDACFEAFF10C00BF08D
:103BD00011C00CF012C00DF013C00EF0EECF06F0C5
:103BE000EECF07F0EECF08F0EFCF09F055EC25F05F
:103BF00005C0EDFF04C0EDFF03C0EDFF02C0EFFF05
:103C0000DF2ABDD7010EDBCF10F0020EDBCF11F0A3
:103C1000030EDBCF12F0040EDBCF13F010C006F062
:103C200011C007F012C008F013C009F0050EE15CE6
:103C300002E2E16AE552E16EE552E7CFD9FF1200F8
:103C4000D9CFE6FFE1CFD9FFD59EFD0EDBCF00F245
:103C5000FE0EDBCF01F2D59C13681468156A00C212
:103C600016F001C217F0186A1650135C106E175048
:103C70001458116E18501558126E0C6A010E0D6E04
:103C80000E6A10C007F011C008F012C009F093ECE2
:103C900024F00350D66E13681468156A00C216F03B
:103CA00001C217F0186A1650135C106E17501458A2
:103CB000116E18501558126E0C6A010E0D6E0E6AB8
:103CC00010C007F011C008F012C009F093EC24F006
:103CD00007C010F008C011F009C012F00750D76EED
:103CE000D59AD586F28AF294F184D58EE552E7CF43
:103CF000D9FF1200D59E120013681468156A00C21D
:103D000016F001C217F0186A1650135C106E1750A7
:103D10001458116E18501558126E0C6A010E0D6E63
:103D20000E6A10C007F011C008F012C009F093EC41
:103D300024F00350D66E13681468156A00C216F09A
:103D400001C217F0186A1650135C106E1750145801
:103D5000116E18501558126E0C6A010E0D6E0E6A17
:103D600010C007F011C008F012C009F093EC24F065
:103D700007C010F008C011F009C012F00750D76E4C
:103D8000D58E1200D9CFE6FFE1CFD9FFCD90FD0E41
:103D9000DBCF02F2FE0EDBCF03F213681468156A64
:103DA00002C216F003C217F0186A1650135C106EA8
:103DB00017501458116E18501558126E0C6A010ED7
:103DC0000D6E0E6A10C007F011C008F012C009F0A5
:103DD00093EC24F00750CF6E13681468156A02C282
:103DE00016F003C217F0186A1650135C106E1750C5
:103DF0001458116E18501558126E0C6A010E0D6E83
:103E00000E6A10C007F011C008F012C009F093EC60
:103E100024F003C010F004C011F005C012F00350EC
:103E2000CE6E9D809E909F90CD8ECD8CCD98CD9A5C
:103E3000CD96CD92CD80E552E7CFD9FF1200136821
:103E40001468156A02C216F003C217F0186A1650F9
:103E5000135C106E17501458116E18501558126ECE
:103E60000C6A010E0D6E0E6A10C007F011C008F04A
:103E700012C009F093EC24F00750CF6E1368146859
:103E8000156A02C216F003C217F0186A1650135CC6
:103E9000106E17501458116E18501558126E0C6A87
:103EA000010E0D6E0E6A10C007F011C008F012C0AE
:103EB00009F093EC24F003C010F004C011F005C029
:103EC00012F00350CE6ECD801200CD901200D9CFEB
:103ED000E6FFE1CFD9FFCA94CC6AFE0EDB500201A7
:103EE000046F056BCB6E9D829E929F92CA90CA9280
:103EF000CA84E552E7CFD9FF120004C2CBFFCA84BF
:103F00001200CA941200D9CFE6FFE1CFD9FFB190D9
:103F1000FD0EDBCF06F2FE0EDBCF07F2136814684E
:103F2000156A06C216F007C217F0186A1650135C1D
:103F3000106E17501458116E18501558126E0C6AE6
:103F4000010E0D6E0E6A10C007F011C008F012C00D
:103F500009F093EC24F00750B36E13681468156AE7
:103F600006C216F007C217F0186A1650135C106EDE
:103F700017501458116E18501558126E0C6A010E15
:103F80000D6E0E6A10C007F011C008F012C009F0E3
:103F900093EC24F003C010F004C011F005C012F03F
:103FA0000350B26EA082A192A292B18EB198B19A42
:103FB000B192B180E552E7CFD9FF120013681468BF
:103FC000156A06C216F007C217F0186A1650135C7D
:103FD000106E17501458116E18501558126E0C6A46
:103FE000010E0D6E0E6A10C007F011C008F012C06D
:103FF00009F093EC24F00350B26E13681468156A4C
:1040000006C216F007C217F0186A1650135C106E3D
:1040100017501458116E18501558126E0C6A010E74
:104020000D6E0E6A10C007F011C008F012C009F042
:1040300093EC24F007C010F008C011F009C012F092
:104040000750B36EB1801200B19012000201102B24
:10405000000E11231851105D1951115904E3106B12
:10406000116B010E086F12000201122B000E1323B8
:104070001A51125D1B51135904E3126B136B010E9D
:10408000096F12000201142B000E15231C51145D40
:104090001D51155904E3146B156B010E0A6F1200C4
:1040A0000201162B000E17231E51165D1F511759C2
:1040B00004E3166B176B010E0B6F1200D9CFE6FFEE
:1040C000E1CFD9FFFD0EDBCF18F2FE0EDBCF19F2E8
:1040D0000201106B116B086BE552E7CFD9FF12009C
:1040E000D9CFE6FFE1CFD9FFFD0EDBCF1AF2FE0EEE
:1040F000DBCF1BF2050E0D6E0E6A1AC208F01BC252
:1041000009F06DEC24F008C01AF209C01BF202019C
:10411000126B136B096BE552E7CFD9FF1200D9CFB1
:10412000E6FFE1CFD9FFFD0EDBCF1EF2FE0EDBCFA7
:104130001FF20A0E0D6E0E6A1EC208F01FC209F0B1
:104140006DEC24F008C01EF209C01FF20201166BCC
:0C415000176B0B6BE552E7CFD9FF120094
:04415C000F0E946E40
:1041600082681200CF0E9414946E82681200D9CF28
:10417000E6FFE1CFD9FF040EE126DE6ADD6ADECF7D
:1041800010F0DDCF11F0D890115004E6040E105C51
:10419000000E115801E390D0DECFE9FFDDCFEAFF3A
:1041A000490EE9260F0EEA22EF1C826E020EDB6A30
:1041B000030EDB6A020EDBCF10F0030EDBCF11F033
:1041C000D890115004E6040E105C000E11586EE2F7
:1041D000020EDBCFE9FF030EDBCFEAFF4D0EE9262F
:1041E0000F0EEA22EF5082143FE1DECF14F0DDCF54
:1041F00015F0D89014361536D89014361536020EB0
:10420000DB501424E96E030EDB501520EA6ED890C3
:10421000E936EA36290EE9260F0EEA22EECF12F031
:10422000EFCF13F0010E1226000E1322DECF10F096
:10423000DDCF11F0D89010361136D89010361136E7
:10424000020EDB501024E96E030EDB501120EA6EE3
:10425000D890E936EA36290EE9260F0EEA2212C076
:10426000EEFF13C0EDFF1BD0DECF10F0DDCF11F05D
:10427000D89010361136D89010361136020EDB5019
:104280001024E96E030EDB501120EA6ED890E93657
:10429000EA36290EE9260F0EEA22EE6AED6A020ED0
:1042A000DB2A030E01E286D7DB2A84D7DF2A010E40
:1042B00001E265D7DB2A63D7040EE15C02E2E16A22
:1042C000E552E16EE552E7CFD9FF1200D9CFE6FF04
:1042D000E1CFD9FF040EE126DE6ADD6ADECF10F001
:1042E000DDCF11F0D890115004E6020E105C000EE4
:1042F000115801E390D0DECFE9FFDDCFEAFF490E90
:10430000E9260F0EEA22EF1C826E020EDB6A030E14
:10431000DB6A020EDBCF10F0030EDBCF11F0D8907A
:10432000115004E6040E105C000E11586EE2020EED
:10433000DBCFE9FF030EDBCFEAFF4D0EE9260F0EC0
:10434000EA22EF5082143FE1DECF14F0DDCF15F00A
:10435000D89014361536D89014361536020EDB5028
:104360001424E96E030EDB501520EA6ED890E9366E
:10437000EA36290EE9260F0EEA22EECF12F0EFCF31
:1043800013F0010E1226000E1322DECF10F0DDCF47
:1043900011F0D89010361136D89010361136020E22
:1043A000DB501024E96E030EDB501120EA6ED8902A
:1043B000E936EA36290EE9260F0EEA2212C0EEFF90
:1043C00013C0EDFF1BD0DECF10F0DDCF11F0D89081
:1043D00010361136D89010361136020EDB501024EC
:1043E000E96E030EDB501120EA6ED890E936EA360A
:1043F000290EE9260F0EEA22EE6AED6A020EDB2A8A
:10440000030E01E286D7DB2A84D7DF2A010E01E200
:1044100065D7DB2A63D7040EE15C02E2E16AE5526C
:10442000E16EE552E7CFD9FF1200D9CFE6FFE1CF29
:10443000D9FF040EE126DE6ADD6ADECF10F0DDCFA3
:1044400011F0FD0EDBCF12F0FE0EDBCF13F011509A
:104450001318E8AE02D0133404D01250105C13507D
:1044600011581DE2020EDB6A030EDB6A020EDBCF7F
:1044700010F0030EDBCF11F0D890115004E6EE0ED1
:10448000105C000E115806E2020EDB2A030EEEE36A
:10449000DB2AECD7DF2A010ED0E3DB2ACED7040ECD
:1044A000E15C02E2E16AE552E16EE552E7CFD9FF55
:1044B0001200D9CFE6FFE1CFD9FF040EE126DE6A74
:1044C000DD6ADECF10F0DDCF11F0D890115004E698
:1044D000040E105C000E115875E2DECFE9FFDDCF4F
:1044E000EAFF490EE9260F0EEA22EF1C826E020E49
:1044F000DB6A030EDB6A020EDBCF10F0030EDBCFAC
:1045000011F0D890115004E6040E105C000E115802
:104510004AE2DECF10F0DDCF11F0D8901036113620
:10452000D89010361136020EDB501024E96E030EBF
:10453000DB501120EA6ED890E936EA36290EE926DA
:104540000F0EEA22EE6AED6A020EDBCFE9FF030EE0
:10455000DBCFEAFF4D0EE9260F0EEA22EF50821460
:104560001CE1DECF10F0DDCF11F0D89010361136FF
:10457000D89010361136020EDB501024E96E030E6F
:10458000DB501120EA6ED890E936EA36290EE9268A
:104590000F0EEA22010EEE6EED6A020EDB2A030E0A
:1045A000AAE3DB2AA8D78250816EE80EE66E030EDE
:1045B000E66E3BDFE552E552DF2A010E01E281D7CC
:1045C000DB2A7FD7040EE15C02E2E16AE552E16E8C
:0845D000E552E7CFD9FF12000C
:0845D800F28ED08EF28C12006D
:1045E000F19CF292F2881200D8CFE4FFE0CFE4FF12
:1045F000E46EDACFE4FFE2CFDAFFE9CFE4FFEACFFF
:10460000E4FFF6CFE4FFF7CFE4FFF5CFE4FFF3CF0D
:10461000E4FFF4CFE4FFFACFE4FF00EE00F0100E69
:10462000E80403E3EECFE4FFFBD700EE10F00A0E40
:10463000E80403E3EECFE4FFFBD7E652F2A407D091
:104640007AEC1EF0F2947CEC1EF026EC20F09EA09A
:1046500007D065EC1FF09E901FEC1FF034EC20F0AB
:10466000A1A207D024EC20F0A192DEEC1FF050ECC8
:1046700020F0F2B2F2929EAA03D09E9A00EC1CF0B7
:10468000E55200EE19F00A0EE80403E3E5CFEDFF72
:10469000FBD700EE0FF0100EE80403E3E5CFEDFFCB
:1046A000FBD7E5CFFAFFE5CFF4FFE5CFF3FFE5CF8A
:1046B000F5FFE5CFF7FFE5CFF6FFE5CFEAFFE5CF62
:1046C000E9FFE5CFDAFFE550E5CFE0FFE5CFD8FF22
:1046D0001000DACFE4FFE2CFDAFFE9CFE4FFEACF60
:1046E000E4FFF6CFE4FFF7CFE4FFF5CFE4FFF3CF2D
:1046F000E4FFF4CFE4FFFACFE4FF00EE00F0100E89
:10470000E80403E3EECFE4FFFBD700EE10F00A0E5F
:10471000E80403E3EECFE4FFFBD7E652F2A407D0B0
:104720007AEC1EF0F2947CEC1EF026EC20F09EA0B9
:1047300007D065EC1FF09E901FEC1FF034EC20F0CA
:10474000A1A207D024EC20F0A192DEEC1FF050ECE7
:1047500020F0F2B2F2929EAA03D09E9A00EC1CF0D6
:10476000E55200EE19F00A0EE80403E3E5CFEDFF91
:10477000FBD700EE0FF0100EE80403E3E5CFEDFFEA
:10478000FBD7E5CFFAFFE5CFF4FFE5CFF3FFE5CFA9
:10479000F5FFE5CFF7FFE5CFF6FFE5CFEAFFE5CF81
:0847A000E9FFE5CFDAFF11008B
:0847A80059454C4C4F572032DB
:1047B0003A20202000475245454E20323A20202002
:1047C0000052454420313A2020200059454C4C4F9E
:1047D0005720313A2020200052454420323A2020F0
:1047E0002000475245454E20313A202020005345B5
:1047F00054323A00534554313A004C4947485432F8
:104800003A003A0044454C4159004C49474854311C
:104810003A0023005354415455533A002100444573
:104820004C41592052454432202020202020004471
:10483000454C415920524544312020202020200061
:1048400044454C41592059454C4C4F57312020206C
:104850000044454C41592059454C4C4F573220207B
:1048600020004348414E47494E47205245443200BC
:104870004348414E47494E4720524544310041503C
:10488000504C5920494E2059454C4C4F57004F55DC
:1048900054204F462052414E474500202020200002
:0648A0002E002020200084
:0A48A600006A0EAE59EF24F00E6C0C
:1048B000001E09AE5EEF24F0096C001E02EC26F02B
:1048C00009BE68EF24F000AE000C096C056C000C0A
:1048D00000BE65EF24F00188FF0C006A0EAE76EF93
:1048E00024F00D6C0E1EE86A0E22001E09AE7EEF4B
:1048F00024F0086C091EE86A0922001ECEEC25F09F
:1049000009BE8EEF24F000AE000C086C091EE86AA8
:104910000922046C051EE86A0522000C00BE85EF22
:1049200024F00188FF0C006A0EAE9EEF24F00C6CA0
:104930000D1E0E1EE86A0D220E22001E09AEA8EF03
:1049400024F0076C081E091EE86A08220922001ECE
:10495000B1EC25F009BEBBEF24F000AE000C076CF3
:10496000081E091EE86A08220922036C041E051E9F
:1049700004220522000C00BEAFEF24F00188FF0CDA
:104980001E0EF66E000EF76E000EF86E00010900A6
:10499000F550E66F0900F550E76F03E1E66701D0D7
:1049A0003DD00900F550E16F0900F550E26F0900B4
:1049B000F550E36F09000900F550E96E0900F55064
:1049C000EA6E090009000900F550E46F0900F5508E
:1049D000E56F09000900F6CFE8F0F7CFE9F0F8CF6E
:1049E000EAF0E1C0F6FFE2C0F7FFE3C0F8FF000124
:1049F000E45302E1E55307E00900F550EE6EE407E9
:104A0000F8E2E507F9D7E8C0F6FFE9C0F7FFEAC02A
:0E4A1000F8FF0001E607000EE75BBFD71200BB
:024A1E000F0E79
:104A2000926E0B0EC16E040EC06E1200D9CFE6FF5F
:104A3000E1CFD9FF020EE126FE0EDB50040DF3504C
:104A4000C26EC280C282C2B2FED7C450DE6EDD6AC0
:104A5000DECF12F0DDCF13F0D89012361336D89097
:104A600012361336060EC3CFE7FF070B04E0E7420A
:104A7000E79EE806FCE1E7501224106E000E1320BA
:104A800010C0DEFFDD6EDECF10F0DDCF11F010C004
:104A9000F3FF11C0F4FF020EE15C02E2E16AE552AD
:0A4AA000E16EE552E7CFD9FF1200E6
:064AAA0006500B02F3CFE1
:104AB00002F0F4CF03F00C02F3500326000EF420B2
:104AC000046E06500D02F3500426000EF420056E0D
:104AD00006500E02F350052607500B02F350032632
:104AE000F4500422000E052207500C02F350042655
:104AF000F450052207500D02F350052608500B0212
:104B0000F3500426F450052208500C02F3500526F9
:0A4B100009500B02F35005261200B5
:064B1A00056A046A036A4B
:104B2000026A200EE76ED890063607360836093638
:104B300002360336043605360B50025C0C5003581F
:104B40000D5004580E50055809E30B50025E0C50EE
:104B5000035A0D50045A0E50055A062AE72EE4D780
:024B6000120041
:0E4B6200056A046A036A180EE76ED8900736DB
:104B7000083609360336043605360C50035C0D50F2
:104B800004580E50055807E30C50035E0D50045AAC
:0C4B90000E50055A072AE72EEAD7120043
:044B9C00056A046A38
:104BA000100EE76ED89008360936043605360D50DB
:104BB000045C0E50055805E30D50045E0E50055A76
:084BC000082AE72EF0D71200CD
:084BC800800EF36E00EE00F018
:104BD0000F0E01D81200EA6002D0EE6AFCD7F35043
:084BE000E9601200EE6AFCD747
:084BE8001EEE00F02EEE00F0BD
:104BF000F86A019CC0EC24F003EC00F03AEC00F001
:044C0000FBD71200CC
:0C4C0400056A080EE76ED89009360536E8
:104C10000E50055C02E3056E092AE72EF7D7120055
:104C20000000000000000000000000000000000084
:104C30000000000000000000010001000100010070
:104C40000102040810204080000000000000000065
:104C5000FF00000000000000000000000000000055
:094C60000000000000000000004B
:074C69000000000000000044
:104C7000001010101010101010181818181818180C
:104C8000181C1C1C1C1C1C1C1C1E1E1E1E1E1E1E5A
:104C90001E1F1F1F1F1F1F1F1F00000000000000FE
:104CA0000000000000000000000000000000000004
:104CB00000000000000000000000000000000000F4
:0A4CC00000000000000000000000EA
:064CCA00FF0000000000E5
:104CD000000000000A0005000F000A0005000F0098
:104CE00000000000000000000000000000000000C4
:104CF00000000000000000000000000000000000B4
:104D000000000000000000000000000000000000A3
:084D100010204080010204089C
:020000040030CA
:0100010002FC
:0100020003FA
:010003001EDE
:010005008179
:010006008178
:010008000FE8
:01000900C036
:01000A000FE6
:01000B00E014
:01000C000FE4
:01000D0040B2
:00000001FF
