:020000040000FA
:06000000B4EF21F0120034
:020006001200E6
:060008003EEF1FF01200A4
:02000E000000F0
:0100100000EF
:0400110000000000EB
:06001800C9EF1EF012000A
:02001E000700D9
:100020006A440000290F0000280000004A44000034
:10003000000200002000000011000000E1000000AC
:1000400004000000E943000080000000610000009F
:10005000C0430000000F000029000000A043000082
:10006000510F0000200000000E000000E50000001D
:040070000300000089
:0C007400D9CFE6FFE1CFD9FF020EE12654
:10008000DE6ADD6A62D897EC12F08EEC14F0E80EAE
:10009000E66E030EE66E15D8E552E5520F015C518F
:1000A000FDE05C6B3BEC1DF08EEC14F06DEC06F0AB
:1000B000ABEC06F0CEEC09F065EC0DF0BDEC14F005
:1000C000EDD7D9CFE6FFE1CFD9FF040EE126DE6AF6
:1000D000DD6ADECF10F0DDCF11F0FD0EDBCF12F0C8
:1000E000FE0EDBCF13F011501318E8AE02D013341C
:1000F00004D01250105C135011581DE2020EDB6A3E
:10010000030EDB6A020EDBCF10F0030EDBCF11F023
:10011000D890115004E6EE0E105C000E115806E265
:10012000020EDB2A030EEEE3DB2AECD7DF2A010EF8
:10013000D0E3DB2ACED7040EE15C02E2E16AE552AD
:10014000E16EE552E7CFD9FF1200936A956A926A91
:10015000EEEC10F0836AC1EC1EF0E80EE66E030EC2
:10016000E66EAFDFE552E552570EE66E120EE66E12
:1001700058EC1BF0E552E552320EE66EE66A64EC8E
:100180001CF0E552E55287EC1CF02EEC17F0CFEC9A
:1001900020F0030E9310936E1200D9CFE6FFE1CF4B
:1001A000D9FFFE0EDBCF11F0800E11141AE1FD0E07
:1001B000DBCF12F0FE0EDBCF13F0133404E212504B
:1001C0000708000E13540DE3FD0EDBCFE9FFFE0E12
:1001D000DBCFEAFF000EE9260F0EEA22EF50831074
:1001E000836EE552E7CFD9FF1200D9CFE6FFE1CF0A
:1001F000D9FFFE0EDBCF11F0800E11141AE1FD0EB7
:10020000DBCF12F0FE0EDBCF13F0133404E21250FA
:100210000708000E13540DE3FD0EDBCFE9FFFE0EC1
:10022000DBCFEAFF000EE9260F0EEA22EF1C831453
:10023000836EE552E7CFD9FF1200D9CFE6FFE1CFB9
:10024000D9FFFD0EDBCFE9FFFE0EDBCFEAFF080E84
:10025000E9260F0EEA22EF0415E1FD0EDBCFE6FFE3
:10026000FE0EDBCFE6FFC1DFE552E552FD0EDBCF30
:10027000E9FFFE0EDBCFEAFF080EE9260F0EEA22A9
:10028000EF6A15D0FD0EDBCFE6FFFE0EDBCFE6FFFB
:1002900084DFE552E552FD0EDBCFE9FFFE0EDBCF3A
:1002A000EAFF080EE9260F0EEA22010EEF6EE55274
:1002B000E7CFD9FF1200D9CFE6FFE1CFD9FF020E79
:1002C000E126DE6ADD6ADECF10F0DDCF11F01134F9
:1002D00004E210500708000E115421E3DECFE6FFC0
:1002E000DDCFE6FF5ADFE552E552F40EE66E010E71
:1002F000E66EE7DEE552E552DECFE6FFDDCFE6FF54
:1003000074DFE552E552F40EE66E010EE66ED9DEBC
:10031000E552E552DF2A010ED6E3DB2AD4D7020EDE
:10032000E15C02E2E16AE552E16EE552E7CFD9FF16
:1003300012000F01010E291903E12A5101E1010CFC
:10034000000C0F01010E2B1903E12C5101E1010CEE
:10035000000CFC0EE66E400EE66EE66AE66A03EC02
:1003600017F0E552E552E552E552F6C110F0116A78
:10037000126A136AF6C1E6FF11C0E6FF12C0E6FF7B
:1003800013C0E6FFE66AE66ADCEC15F0146E060EB2
:10039000E15E14501200D9CFE6FFE1CFD9FF0A0E7B
:1003A000E126E66AD6EC20F0E552F3CF10F0F4CF68
:1003B00011F0126A136A11AE02D012681368060EA9
:1003C00010C0DBFF070E11C0DBFF080E12C0DBFF01
:1003D000090E13C0DBFF060EDBCF06F0070EDBCFE6
:1003E00007F0080EDBCF08F0090EDBCF09F08C0E0A
:1003F0000B6E0C6A0D6A0E6A15EC21F002C006F055
:1004000003C007F004C008F005C009F00B68030E34
:100410000C6E0D6A0E6A4DEC21F0020E06C0DBFF79
:10042000030E07C0DBFF040E08C0DBFF050E09C08A
:10043000DBFF020EDBCFE6FF81EC17F0E552D9506F
:10044000020FE96EDACFEAFF640EEE5C000EEE58A2
:10045000000EEE58000EEE586EE2020EDBCF10F0EA
:10046000030EDBCF11F0040EDBCF12F0050EDBCF55
:1004700013F00A0E0B6E0C6A0D6A0E6A10C006F0BD
:1004800011C007F012C008F013C009F04DEC21F0C4
:1004900006C010F007C011F008C012F009C013F038
:1004A00006C0E6FF07C0E6FF08C0E6FF09C0E6FF9A
:1004B0000A0EE66EE66ADCEC15F0146E060EE15EDE
:1004C0001450FA0EE66E400EE66E0B0EE66EE66A0D
:1004D00003EC17F0E552E552E552E552020EDBCF90
:1004E00010F0030EDBCF11F0040EDBCF12F0050E7F
:1004F000DBCF13F00A0E0B6E0C6A0D6A0E6A10C089
:1005000006F011C007F012C008F013C009F04DEC5E
:1005100021F002C010F003C011F004C012F005C0B9
:1005200013F002C0E6FF03C0E6FF04C0E6FF05C00B
:10053000E6FF0C0E6DD0020EDBCF10F0030EDBCF0A
:1005400011F0040EDBCF12F0050EDBCF13F00A0E14
:100550000B6E0C6A0D6A0E6A10C006F011C007F02F
:1005600012C008F013C009F04DEC21F006C010F0E5
:1005700007C011F008C012F009C013F006C0E6FF72
:1005800007C0E6FF08C0E6FF09C0E6FF0A0EE66EF8
:10059000E66ADCEC15F0146E060EE15E1450FA0EFD
:1005A000E66E400EE66E0C0EE66EE66A03EC17F0A1
:1005B000E552E552E552E552020EDBCF10F0030E94
:1005C000DBCF11F0040EDBCF12F0050EDBCF13F002
:1005D0000A0E0B6E0C6A0D6A0E6A10C006F011C08E
:1005E00007F012C008F013C009F04DEC21F002C072
:1005F00010F003C011F004C012F005C013F002C0E7
:10060000E6FF03C0E6FF04C0E6FF05C0E6FF0D0EEF
:10061000E66EE66ADCEC15F0146E060EE15E145030
:100620000A0EE15C02E2E16AE552E16EE552E7CFD3
:10063000D9FF1200D9CFE6FFE1CFD9FFE652DF6A3A
:100640000F012851010A53E0010A01E0D2D01C6BCE
:100650001D6B1E6B1F6BFCD981B210D00F011C2BC0
:10066000000E1D231E231F23D880E80E1C55030EE9
:100670001D55000E1E55000E1F55EEE20F011C6B9E
:100680001D6B1E6B1F6B81A206D01C2B000E1D2341
:100690001E231F23F8D71CCF24FF1DCF25FF1ECFFD
:1006A00026FF1FCF27FF1BCFE9FFEA6AE9BEEA68F2
:1006B000D890E936EA36D890E936EA36A60EE92629
:1006C000010EEA2224CFEEFF25CFEEFF26CFEEFF6C
:1006D00027CFEEFF1B29106E096E140E0E6EA9ECCB
:1006E0001FF005C01BFF0F01010E286F83D0206B88
:1006F000216B226B236BDF6ADFCF10F0140EE76EE5
:100700001018E8AE02D0E73402D0E750105C1DE2CA
:10071000DFCFE9FFEA6AE9BEEA68D890E936EA364F
:10072000D890E936EA36A60EE926010EEA222051D3
:10073000EE24206F2151EE20216F2251EE20226FF6
:100740002351EE20236FDF2AD7D7140E0B6E0C6ACD
:100750000D6A0E6A20CF06F021CF07F022CF08F0F5
:1007600023CF09F04DEC21F006C020FF07C021FF88
:1007700008C022FF09C023FF000EE66EE66A06C02D
:1007800010F007C011F008C012F009C013F0030EFA
:100790000B6E0C6A0D6A0E6A4DEC21F006C010F06B
:1007A00007C011F008C012F009C013F006C0E6FF40
:1007B00007C0E6FF20CF14F021CF15F022CF16F0AE
:1007C00023CF17F0640E145E000E155A165A175AEE
:1007D00014C0E6FF15C0E6FF24CFE6FF25CFE6FFF5
:1007E000E3EC17F0186E080EE15E18500F01286B4D
:1007F00001D0286BE552E552E7CFD9FF1200D9CFDF
:10080000E6FFE1CFD9FFE652DF6A0F011A51010A74
:1008100054E0010A01E0F3D0E66AD6EC20F0E5529C
:10082000F3CF16FFF4CF17FF0F01186B196B17AF3B
:1008300002D018691969F50EE66E400EE66EE66A9A
:10084000010EE66E03EC17F0E552E552E552E55273
:1008500016CFE6FF17CFE6FF18CFE6FF19CFE6FF6A
:10086000E66A010EE66EDCEC15F0106E060EE15E37
:1008700010501BCFE9FFEA6AE9BEEA68D890E93672
:10088000EA36D890E936EA36060EE926010EEA2263
:1008900016CFEEFF17CFEEFF18CFEEFF19CFEEFF0A
:1008A0000F011B29106E096E280E0E6EA9EC1FF0A9
:1008B00005C01BFF0F01010E1A6F126B136B146B37
:1008C000156BDF6ADFCF10F0280EE76E1018E8AE68
:1008D00002D0E73402D0E750105C1DE2DFCFE9FF21
:1008E000EA6AE9BEEA68D890E936EA36D890E9368D
:1008F000EA36060EE926010EEA221251EE24126FA4
:100900001351EE20136F1451EE20146F1551EE2089
:10091000156FDF2AD7D7280E0B6E0C6A0D6A0E6A88
:1009200012CF06F013CF07F014CF08F015CF09F05F
:100930004DEC21F006C012FF07C013FF08C014FFE2
:1009400009C015FF000EE66EE66A06C010F007C08B
:1009500011F008C012F009C013F0030E0B6E0C6A00
:100960000D6A0E6A4DEC21F006C010F007C011F0C0
:1009700008C012F009C013F006C0E6FF07C0E6FF8A
:1009800012CF14F013CF15F014CF16F015CF17F0C7
:10099000640E145E000E155A165A175A14C0E6FF5C
:1009A00015C0E6FF16CFE6FF17CFE6FFE3EC17F022
:1009B000186E080EE15E1850F50EE66E400EE66EFB
:1009C000080EE66E010EE66E03EC17F0E552E552F6
:1009D000E552E55212CFE6FF13CFE6FF14CFE6FF54
:1009E00015CFE6FF080EE66E010EE66EDCEC15F0A4
:1009F000106E060EE15E10500F011A6B01D01A6BDB
:100A0000E552E552E7CFD9FF1200D9CFE6FFE1CF9B
:100A1000D9FF020EE126DE6ADD6ADECF10F0DDCFFF
:100A200011F0D890115004E61E0E105C000E115803
:100A300005E2DF2A010EF1E3DB2AEFD7020EE15CCB
:100A400002E2E16AE552E16EE552E7CFD9FF12001A
:100A5000010EE66EE66AF5EC00F0E552E552010E95
:100A6000E66EE66ACDEC00F0E552E552CEDF010E0F
:100A7000E66EE66AF5EC00F0E552E5521200080E6B
:100A80000201021901E103515AE0070E021901E1C6
:100A900003514EE0060E021901E1035145E0050E37
:100AA000021901E103513CE0040E021901E1035176
:100AB00025E0030E021901E103511AE0020E0219AA
:100AC00001E103510FE0010E021901E1035104E0BD
:100AD000025142E1035140D08EEC14F0E80EE66E74
:100AE000400E11D08EEC14F0D80EE66E400E0BD0F6
:100AF0008EEC14F0CA0EE66E400E05D08EEC14F0AB
:100B0000BC0EE66E400EE66EE66AE66A03EC17F08F
:100B1000E552E552E552E55202011E0E096F1CD066
:100B2000AB0EE66E400E07D09A0EE66E400E0AD06F
:100B3000890EE66E400EE66EE66AE66A07D0780E2B
:100B4000E66E400EE66EE66A010EE66E03EC17F006
:100B5000E552E552E552E5520201010E1E1908E187
:100B60001F5106E10201026B036B02011E0E096FA9
:100B70001200000EE66EE66ACDEC00F0E552E5529A
:100B80001200000EE66EE66AF5EC00F0E552E55262
:100B90001200040EE66EE66ACDEC00F0E552E55276
:100BA0001200040EE66EE66AF5EC00F0E552E5523E
:100BB0001200060EE66EE66ACDEC00F0E552E55254
:100BC0001200060EE66EE66AF5EC00F0E552E5521C
:100BD0001200010EE66EE66ACDEC00F0E552E55239
:100BE0001200010EE66EE66AF5EC00F0E552E55201
:100BF0001200050EE66EE66ACDEC00F0E552E55215
:100C00001200050EE66EE66AF5EC00F0E552E552DC
:100C10001200070EE66EE66ACDEC00F0E552E552F2
:100C20001200070EE66EE66AF5EC00F0E552E552BA
:100C300012000F01010E291903E12A5101E1010CF3
:100C4000000C0F01010E2B1903E12C5101E1010CE5
:100C5000000C0F01010E2F1903E1305101E1010CCD
:100C6000000C0F01010E2D1903E12E5101E1010CC1
:100C7000000C0F01010E2B1903E12C5101E1010CB5
:100C8000000C0F01140E2B5D000E2C5915E32BCF19
:100C900010F02CCF11F00A0E0D6E0E6A2BCF08F05B
:100CA0002CCF09F08EEC21F005C011F0010E0418D4
:100CB00003E1115001E1010C000C0F01010E2D198F
:100CC00003E12E5101E1010C000C0F01010E2F195F
:100CD00003E1305101E1010C000C010E02011E255F
:100CE0001E6F000E1F211F6F280E0D6E0E6A1EC292
:100CF00008F01FC209F08EEC21F004C01EF205C0FE
:100D00001FF202010829106E140E116E0E6E10C033
:100D100009F0C2EC21F005C008F2020105041AE155
:100D200002010407000E055B02010607075B0201D2
:100D300009070201800E051502E004690569020138
:100D4000800E071502E006690769000E0201095DC1
:100D500001E209691200320E0201001901E101519C
:100D600001E11BD36A0E001901E1015101E133D207
:100D7000690E001901E1015101E18ED1060E001941
:100D800001E1015101E1B4D0050E001901E1015169
:100D900012E0E868001901E1015101E01200050EBE
:100DA000006F016B0AC204F20BC205F214C206F214
:100DB00015C207F21200DDDE04DFF3DE2ADF11DFE9
:100DC00020DF0201061D06E1071D04E1080E0201F5
:100DD000026F036B6C0EE66E400EE66EE66AE66A24
:100DE00003EC17F0E552E552E552E55204C210F06B
:100DF00005C211F0126A136A11AE02D012681368AC
:100E000010C0E6FF11C0E6FF12C0E6FF13C0E6FF08
:100E10000D0EE66EE66ADCEC15F0146E060EE15E71
:100E20001450620EE66E400EE66EE66A010EE66E45
:100E300003EC17F0E552E552E552E55206C210F018
:100E400007C211F0126A136A11AE02D01268136859
:100E500010C0E6FF11C0E6FF12C0E6FF13C0E6FFB8
:100E60000D0EE66E010EE66EDCEC15F0146E060E4D
:100E7000E15E145002010251031114E10201061D4A
:100E800012E1071D10E15C0EE66E400EE66E0B0EE1
:100E9000E66E010EE66E03EC17F0E552E552E55200
:100EA000E55201D0ECDD0201053504E204510008F1
:100EB000000E055509E3060E0201006F016B0CC21E
:100EC00004F20DC205F21200B4DE000907E0100EB4
:100ED0000201006F016B02011E0E5DD2B2DE00093D
:100EE00001E06ED1F2DE000901E157D2300E4ED2A0
:100EF00050DE47DE66DE8DDE74DE83DE0201041D19
:100F000006E1051D04E1050E0201026F036B0201FB
:100F1000061D06E1071D04E1080E0201026F036BC6
:100F20004F0EE66E400EE66EE66AE66A03EC17F0D8
:100F3000E552E552E552E55204C210F005C211F047
:100F4000126A136A11AE02D01268136810C0E6FF6D
:100F500011C0E6FF12C0E6FF13C0E6FF0D0EE66EFD
:100F6000E66ADCEC15F0146E060EE15E1450620EBB
:100F7000E66E400EE66EE66A010EE66E03EC17F0D2
:100F8000E552E552E552E55206C210F007C211F0F3
:100F9000126A136A11AE02D01268136810C0E6FF1D
:100FA00011C0E6FF12C0E6FF13C0E6FF0D0EE66EAD
:100FB000010EE66EDCEC15F0146E060EE15E1450C8
:100FC00002010251031126E10201041D0FE1051D7A
:100FD0000DE15C0EE66E400EE66E0B0EE66EE66A06
:100FE00003EC17F0E552E552E552E5520201061D09
:100FF00012E1071D10E15C0EE66E400EE66E0B0E70
:10100000E66E010EE66E03EC17F0E552E552E5528E
:10101000E55201D034DD02010651071107E102015A
:101020000451051102E0000E01D0010E020104512D
:10103000051107E102010651071102E0000E01D07F
:10104000010E0201053504E204510008000E0555A9
:1010500014E30201073504E206510008000E0755AB
:101060000CE3690E0201006F016B0EC204F20FC2A5
:1010700005F210C206F211C207F2DBDD000907E03B
:10108000730E0201006F016B02011E0E096FD9DDA4
:10109000000901E182D194D08CDD83DD72DD99DD20
:1010A000C0DDAFDD0201041D06E1051D04E1070EF0
:1010B0000201026F036B450EE66E400EE66EE66AB5
:1010C000E66A03EC17F0E552E552E552E55204C238
:1010D00010F005C211F0126A136A11AE02D0126844
:1010E000136810C0E6FF11C0E6FF12C0E6FF13C090
:1010F000E6FF0D0EE66EE66ADCEC15F0146E060EE9
:10110000E15E1450390EE66E400EE66EE66A010EA0
:10111000E66E03EC17F0E552E552E552E55206C2E1
:1011200010F007C211F0126A136A11AE02D01268F1
:10113000136810C0E6FF11C0E6FF12C0E6FF13C03F
:10114000E6FF0D0EE66E010EE66EDCEC15F0146E99
:10115000060EE15E145002010251031113E1020177
:10116000041D11E1051D0FE15C0EE66E400EE66EFA
:101170000B0EE66EE66A03EC17F0E552E552E55217
:10118000E55201D07CDC0201073504E2065100087B
:10119000000E075508E36A0E0201006F016B12C2D0
:1011A00006F213C207F245DD000907E0740E0201E2
:1011B000006F016B02011E0E096F43DD000905E09F
:1011C00002010069010E016F12007FDD000901E1DB
:1011D000E4D0310EDBD0EDDCE4DCD3DC0ADD21DD54
:1011E00000DD0201041D06E1051D04E1070E0201F8
:1011F000026F036B0201061D06E1071D04E1060EE6
:101200000201026F036B450EE66E400EE66EE66A63
:10121000E66A03EC17F0E552E552E552E55204C2E6
:1012200010F005C211F0126A136A11AE02D01268F2
:10123000136810C0E6FF11C0E6FF12C0E6FF13C03E
:10124000E6FF0D0EE66EE66ADCEC15F0146E060E97
:10125000E15E14502C0EE66E400EE66EE66A010E5C
:10126000E66E03EC17F0E552E552E552E55206C290
:1012700010F007C211F0126A136A11AE02D01268A0
:10128000136810C0E6FF11C0E6FF12C0E6FF13C0EE
:10129000E6FF0D0EE66E010EE66EDCEC15F0146E48
:1012A000060EE15E145002010251031126E1020113
:1012B000041D0FE1051D0DE15C0EE66E400EE66EAD
:1012C0000B0EE66EE66A03EC17F0E552E552E552C6
:1012D000E5520201061D13E1071D11E15C0EE66EE9
:1012E000400EE66E0B0EE66E010EE66E03EC17F096
:1012F000E552E552E552E55202D03FEC05F002011D
:101300000651071107E102010451051102E0000E28
:1013100001D0010E02010451051107E1020106513D
:10132000071102E0000E01D0010E0201073504E2B0
:1013300006510008000E075514E30201053504E2CA
:1013400004510008000E05550CE3050E0201006F64
:10135000016B0AC204F20BC205F214C206F215C2F6
:1013600007F267DC000907E00F0E0201006F016B56
:1013700002011E0E096F65DC000904E0020100692C
:10138000010E016FA2DC000908E0310E0201006FBE
:10139000016B0201050E096F12001200320E0201EC
:1013A000001901E1015101E136D3310E001901E1CB
:1013B000015101E1BCD2300E001901E1015101E1FE
:1013C00047D2740E001901E1015101E1B1D1730E50
:1013D000001901E1015101E11FD1100E001901E1D5
:1013E000015101E18DD00F0E001901E1015101E021
:1013F0001200B9EC05F0E1EC05F0D1EC05F009ECD8
:1014000006F0F1EC05F001EC06F06C0EE66E400E15
:10141000E66EE66AE66A03EC17F0E552E552E5523D
:10142000E55209C210F0116A126A136A09C2E6FF96
:1014300011C0E6FF12C0E6FF13C0E6FF0D0EE66E18
:10144000E66ADCEC15F0146E060EE15E1450620ED6
:10145000E66E400EE66EE66A010EE66E03EC17F0ED
:10146000E552E552E552E55209C210F0116A126ADE
:10147000136A09C2E6FF11C0E6FF12C0E6FF13C0FF
:10148000E6FF0D0EE66E010EE66EDCEC15F0146E56
:10149000060EE15E14500201095100080CE3060E2D
:1014A0000201006F016B0CC204F20DC205F20CC206
:1014B00006F20DC207F219EC06F0000907E0100E63
:1014C0000201006F016B02011E0E096F21EC06F094
:1014D000000904E002010069010E016F31EC06F021
:1014E000000901E1F1D2050E0201006F016B0AC291
:1014F00004F20BC205F214C206F215C207F2120082
:10150000C9EC05F0C1EC05F0E1EC05F009EC06F0E2
:10151000F1EC05F001EC06F04F0EE66E400EE66EC3
:10152000E66AE66A03EC17F0E552E552E552E55249
:1015300009C210F0116A126A136A09C2E6FF11C0EB
:10154000E6FF12C0E6FF13C0E6FF0D0EE66EE66A88
:10155000DCEC15F0146E060EE15E1450620EE66EC1
:10156000400EE66EE66A010EE66E03EC17F0E552F9
:10157000E552E552E55209C210F0116A126A136A87
:1015800009C2E6FF11C0E6FF12C0E6FF13C0E6FF86
:101590000D0EE66E010EE66EDCEC15F0146E060E16
:1015A000E15E14500201095100080CE3690E0201CA
:1015B000006F016B0EC204F20FC205F210C206F2F8
:1015C00011C207F219EC06F0000907E0730E0201E0
:1015D000006F016B02011E0E096F21EC06F000097D
:1015E00004E002010069010E016F31EC06F0000910
:1015F0000CE0060E0201006F016B0CC204F20DC27A
:1016000005F20CC206F20DC207F229EC06F0000941
:1016100001E15AD20F0E16D1E9EC05F011EC06F0FB
:1016200001EC06F0D9EC05F0C1EC05F0D1EC05F0C9
:10163000450EE66E400EE66EE66AE66A03EC17F0CB
:10164000E552E552E552E55209C210F0116A126AFC
:10165000136A09C2E6FF11C0E6FF12C0E6FF13C01D
:10166000E6FF0D0EE66EE66ADCEC15F0146E060E73
:10167000E15E1450390EE66E400EE66EE66A010E2B
:10168000E66E03EC17F0E552E552E552E55209C269
:1016900010F0116A126A136A09C2E6FF11C0E6FF70
:1016A00012C0E6FF13C0E6FF0D0EE66E010EE66EF9
:1016B000DCEC15F0146E060EE15E145002010951C7
:1016C00000080CE36A0E0201006F016B12C204F203
:1016D00013C205F212C206F213C207F219EC06F0A9
:1016E000000907E0740E0201006F016B02011E0E7B
:1016F000096F21EC06F0000904E002010069010E07
:10170000016F31EC06F000090CE0690E0201006F78
:10171000016B0EC204F20FC205F210C206F211C232
:1017200007F229EC06F0000901E1CED1100E8AD0B3
:10173000F9EC05F0F1EC05F011EC06F0D9EC05F050
:10174000C1EC05F0D1EC05F0450EE66E400EE66EFC
:10175000E66AE66A03EC17F0E552E552E552E55217
:1017600009C210F0116A126A136A09C2E6FF11C0B9
:10177000E6FF12C0E6FF13C0E6FF0D0EE66EE66A56
:10178000DCEC15F0146E060EE15E14502C0EE66EC5
:10179000400EE66EE66A010EE66E03EC17F0E552C7
:1017A000E552E552E55209C210F0116A126A136A55
:1017B00009C2E6FF11C0E6FF12C0E6FF13C0E6FF54
:1017C0000D0EE66E010EE66EDCEC15F0146E060EE4
:1017D000E15E1450020109510CE1050E0201006F97
:1017E000016B0AC204F20BC205F20EC206F20FC26E
:1017F00007F219EC06F0000907E00F0E0201006F76
:10180000016B02011E0E096F21EC06F0000904E0D5
:1018100002010069010E016F31EC06F000090CE0D5
:10182000060E0201006F016B0CC204F20DC205F23C
:101830000CC206F20DC207F229EC06F0000901E124
:1018400043D1730E0201006F016B02011E0EE1D045
:10185000C9EC05F0C1EC05F0E1EC05F009EC06F08F
:10186000F1EC05F001EC06F04F0EE66E400EE66E70
:10187000E66AE66A03EC17F0E552E552E552E552F6
:1018800009C210F0116A126A136A09C2E6FF11C098
:10189000E6FF12C0E6FF13C0E6FF0D0EE66EE66A35
:1018A000DCEC15F0146E060EE15E1450620EE66E6E
:1018B000400EE66EE66A010EE66E03EC17F0E552A6
:1018C000E552E552E55206C210F007C211F0126A65
:1018D000136A11AE02D01268136810C0E6FF11C07F
:1018E000E6FF12C0E6FF13C0E6FF0D0EE66E010E26
:1018F000E66EDCEC15F0146E060EE15E145002018B
:10190000061D10E1071D0EE15C0EE66E400EE66E50
:101910000B0EE66E010EE66E03EC17F0E552E55293
:10192000E552E5520201095101E0CED06CD0F9EC4C
:1019300005F0F1EC05F011EC06F0D9EC05F0C1EC86
:1019400005F0D1EC05F0450EE66E400EE66EE66A57
:10195000E66A03EC17F0E552E552E552E55204C29F
:1019600010F005C211F0126A136A11AE02D01268AB
:10197000136810C0E6FF11C0E6FF12C0E6FF13C0F7
:10198000E6FF0D0EE66EE66ADCEC15F0146E060E50
:10199000E15E14502C0EE66E400EE66EE66A010E15
:1019A000E66E03EC17F0E552E552E552E55209C246
:1019B00010F0116A126A136A09C2E6FF11C0E6FF4D
:1019C00012C0E6FF13C0E6FF0D0EE66E010EE66ED6
:1019D000DCEC15F0146E060EE15E14500201041DDD
:1019E0000FE1051D0DE15C0EE66E400EE66E0B0E7E
:1019F000E66EE66A03EC17F0E552E552E552E55271
:101A00000201095161E1320E0201006F016B020116
:101A1000140E096F120001EC06F0F1EC05F009EC70
:101A200006F0D9EC05F0C1EC05F0D1EC05F0450E5F
:101A3000E66E400EE66EE66AE66A03EC17F0E552E3
:101A4000E552E552E55209C210F0116A126A136AB2
:101A500009C2E6FF11C0E6FF12C0E6FF13C0E6FFB1
:101A60000D0EE66EE66ADCEC15F0146E060EE15E15
:101A70001450620EE66E400EE66EE66A010EE66EE9
:101A800003EC17F0E552E552E552E55209C210F0B9
:101A9000116A126A136A09C2E6FF11C0E6FF12C09A
:101AA000E6FF13C0E6FF0D0EE66E010EE66EDCECFF
:101AB00015F0146E060EE15E14500201095104E1A6
:101AC00002010069016B12001200230E02010019CD
:101AD00001E1015101E1F6D11F0E001901E10151AF
:101AE00001E154D11B0E001901E1015101E1B3D014
:101AF0001A0E001901E101511EE0E868001902E127
:101B0000010E011901E012001A0E006F016B0201B3
:101B10001E0E096F0AC216F20BC217F20CC218F29F
:101B20000DC219F210C21AF211C21BF212C21CF23B
:101B300013C21DF212000201080509E1D9EC05F0FB
:101B4000C1EC05F0D1EC05F009EC06F008D0E1ECB1
:101B500005F0C1EC05F0D1EC05F011EC06F0F1EC6C
:101B600005F001EC06F039EC06F0000916E0020180
:101B7000E70E165D030E175908E202011E0E096FEB
:101B80000201162B000E172308D0010E0201026F6E
:101B9000036B020E02011E6F1F6B41EC06F0000981
:101BA00017E00201010ED8801655000E175508E205
:101BB00002011E0E096F02011607000E175B08D006
:101BC000010E0201026F036B020E02011E6F1F6BFA
:101BD00002010251031126E16C0EE66E400EE66E24
:101BE000E66A010EE66E03EC17F0E552E552E552A7
:101BF000E55216C210F017C211F0126A136A16C22B
:101C0000E6FF17C2E6FF12C0E6FF13C0E6FF0D0EA7
:101C1000E66E010EE66EDCEC15F0146E060EE15E6B
:101C2000145002D03FEC05F00201095103E102011A
:101C30000069016B19EC06F0000907E01B0E0201B8
:101C4000006F016B02011E0E096F5DEC06F00009CA
:101C500001E1F3D1C6D10201080509E1D9EC05F093
:101C6000C1EC05F0D1EC05F009EC06F008D0E1EC90
:101C700005F0C1EC05F0D1EC05F011EC06F0F1EC4B
:101C800005F001EC06F039EC06F0000916E002015F
:101C9000E70E185D030E195908E202011E0E096FC6
:101CA0000201182B000E192308D0010E0201026F49
:101CB000036B020E02011E6F1F6B41EC06F0000960
:101CC00017E00201010ED8801855000E195508E2E0
:101CD00002011E0E096F02011807000E195B08D0E1
:101CE000010E0201026F036B020E02011E6F1F6BD9
:101CF00002010251031126E14F0EE66E400EE66E20
:101D0000E66A010EE66E03EC17F0E552E552E55285
:101D1000E55218C210F019C211F0126A136A18C203
:101D2000E6FF19C2E6FF12C0E6FF13C0E6FF0D0E84
:101D3000E66E010EE66EDCEC15F0146E060EE15E4A
:101D4000145002D03FEC05F00201095103E10201F9
:101D50000069016B19EC06F0000907E01F0E020193
:101D6000006F016B02011E0E096F29EC06F00009DD
:101D700007E01A0E0201006F016B02011E0E096FCF
:101D80005DEC06F0000901E158D12BD102010805F4
:101D900009E1D9EC05F0C1EC05F0D1EC05F009EC56
:101DA00006F008D0E1EC05F0C1EC05F0D1EC05F04F
:101DB00011EC06F0F1EC05F001EC06F039EC06F060
:101DC000000916E00201E70E1A5D030E1B5908E236
:101DD00002011E0E096F02011A2B000E1B2308D0F0
:101DE000010E0201026F036B020E02011E6F1F6BD8
:101DF00041EC06F0000917E00201010ED8801A55E7
:101E0000000E1B5508E202011E0E096F02011A079F
:101E1000000E1B5B08D0010E0201026F036B020E65
:101E200002011E6F1F6B02010251031126E1390EE0
:101E3000E66E400EE66EE66A010EE66E03EC17F003
:101E4000E552E552E552E5521AC210F01BC211F0FC
:101E5000126A136A1AC2E6FF1BC2E6FF12C0E6FF4F
:101E600013C0E6FF0D0EE66E010EE66EDCEC15F01B
:101E7000146E060EE15E145002D03FEC05F0020134
:101E80000951000803E302010069016B19EC06F037
:101E9000000907E002011E0E096F230E0201006F08
:101EA000016B29EC06F0000907E002011E0E096F24
:101EB0001B0E0201006F016B5DEC06F0000901E1F1
:101EC000BCD08FD00201080509E1D9EC05F0C1ECC6
:101ED00005F0D1EC05F009EC06F008D0E1EC05F0D6
:101EE000C1EC05F0D1EC05F011EC06F0F1EC05F0D9
:101EF00001EC06F039EC06F0000916E00201E70EED
:101F00001C5D030E1D5908E202011E0E096F02013D
:101F10001C2B000E1D2308D0010E0201026F036B63
:101F2000020E02011E6F1F6B41EC06F0000917E064
:101F30000201010ED8801C55000E1D5508E2020159
:101F40001E0E096F02011C07000E1D5B08D0010E5A
:101F50000201026F036B020E02011E6F1F6B020172
:101F60000251031126E12C0EE66E400EE66EE66A83
:101F7000010EE66E03EC17F0E552E552E552E5522C
:101F80001CC210F01DC211F0126A136A1CC2E6FFD7
:101F90001DC2E6FF12C0E6FF13C0E6FF0D0EE66E9F
:101FA000010EE66EDCEC15F0146E060EE15E1450C8
:101FB00002D03FEC05F002010951000803E30201E1
:101FC0000069016B29EC06F0000907E002011E0E12
:101FD000096F1F0E0201006F016B5DEC06F0000936
:101FE0002CE016C20AF217C20BF218C20CF219C288
:101FF0000DF21AC210F21BC211F21CC212F21DC263
:1020000013F202010A5102010C250201146F0201B0
:102010000B5102010D210201156F02011051020145
:10202000122502010E6F020111510201132102015A
:0C2030000F6F02010069016B120012002A
:04203C00D9CFE6FF13
:10204000E1CFD9FF040EE126DE6ADD6ADECF10F0B3
:10205000DDCF11F0126A136A11AE02D01268136854
:10206000D950FB0FE96EFF0EDA20EA6EEE50105CDD
:10207000EE501158EE501258EE5013581DE2020E59
:10208000DB6A030EDB6A020EDBCF10F0030EDBCF40
:1020900011F0D890115004E6050E105C000E115896
:1020A00006E2020EDB2A030EEEE3DB2AECD7DF2A80
:1020B000010ECCE3DB2ACAD7040EE15C02E2E16A3E
:1020C000E552E16EE552E7CFD9FF1200D9CFE6FF26
:1020D000E1CFD9FF040EE126DE6ADD6ADECF10F023
:1020E000DDCF11F0126A136A11AE02D012681368C4
:1020F000D950FB0FE96EFF0EDA20EA6EEE50105C4D
:10210000EE501158EE501258EE5013581DE2020EC8
:10211000DB6A030EDB6A020EDBCF10F0030EDBCFAF
:1021200011F0D890115004E6EE0E105C000E11581C
:1021300006E2020EDB2A030EEEE3DB2AECD7DF2AEF
:10214000010ECCE3DB2ACAD7040EE15C02E2E16AAD
:10215000E552E16EE552E7CFD9FF1200D9CFE6FF95
:10216000E1CFD9FF0F0E8116FE0EDB50F00B81126E
:102170008186010EE66EE66AE66AE66AA7DFE55248
:10218000E552E552E5528196010EE66EE66AE66A90
:10219000E66A9CDFE552E552E552E5520F0E8116E4
:1021A000FE0EDB38F00B81128186010EE66EE66AC8
:1021B000E66AE66A8BDFE552E552E552E552819622
:1021C000010EE66EE66AE66AE66A80DFE552E552EF
:1021D000E552E552E552E7CFD9FF1200D9CFE6FF2D
:1021E000E1CFD9FFE652190EE66EE66AE66AE66AC4
:1021F0006DDFE552E552E552E5520F0E8116F80EFD
:1022000081160F0E8116300E81128186010EE66E48
:10221000E66AE66AE66A5ADFE552E552E552E552B9
:102220008196010EE66EE66AE66AE66A4FDFE552DF
:10223000E552E552E5520F0E8116300E811281866D
:10224000010EE66EE66AE66AE66A40DFE552E552AE
:10225000E552E5528196010EE66EE66AE66AE66AA6
:1022600035DFE552E552E552E5520F0E8116300E8C
:1022700081128186010EE66EE66AE66AE66A26DF6C
:10228000E552E552E552E5528196010EE66EE66AA8
:10229000E66AE66A1BDFE552E552E552E5520F0EAB
:1022A0008116818A8186010EE66EE66AE66AE66A32
:1022B0000DDFE552E552E552E5528196010EE66EDC
:1022C000E66AE66AE66A02DFE552E552E552E55261
:1022D000280EE66E43DFE5520C0EE66E3FDFE55258
:1022E000E552E552E7CFD9FF1200D9CFE6FFE1CFA3
:1022F000D9FF020EE126DF6A010EDB6A81940F0E20
:10230000E66EE66AE66AE66A99DEE552E552E5526D
:10231000E5520F0E81128186E66EE66AE66AE66A8B
:102320008DDEE552E552E552E5520F0E8114E76E5F
:10233000010EE7CFDBFF81960F0EE66EE66AE66AD6
:10234000E66A7CDEE552E552E552E5520F0E811257
:102350008186E66EE66AE66AE66A70DEE552E55276
:10236000E552E5520F0E8114DF6E010EDB50DF12D5
:102370008196010EE66EE66AE66AE66A5FDEE5527F
:10238000E552E552E552DF50106E020EE15C02E2CA
:10239000E16AE552E16E1050E552E7CFD9FF120035
:1023A000D9CFE6FFE1CFD9FFE652DF6A9EDFDF6ECD
:1023B000DFBEFCD7DF50E552E552E7CFD9FF120070
:1023C000D9CFE6FFE1CFD9FF0F0E8116FE0EDB500D
:1023D00081128186050EE66EE66AE66AE66A2EDE00
:1023E000E552E552E552E5528196050EE66EE66A43
:1023F000E66AE66A23DEE552E552E552E552E55229
:10240000E7CFD9FF1200D9CFE6FFE1CFD9FF819402
:10241000050EE66EE66AE66AE66A10DEE552E55209
:10242000E552E552FE0EDBCFE6FFCADFE552FE0EB7
:10243000DB38F00BE66EC4DFE552E552E7CFD9FF9B
:102440001200D9CFE6FFE1CFD9FF8184050EE66EF9
:10245000E66AE66AE66AF2DDE552E552E552E552E1
:10246000FE0EDBCFE6FFACDFE552FE0EDB38F00BF5
:10247000E66EA6DFE5528194E552E7CFD9FF120060
:10248000D9CFE6FFE1CFD9FFFE0EDBCFE6FFD9DFE4
:10249000E552E552E7CFD9FF1200D9CFE6FFE1CFF1
:1024A000D9FFFE0EDBCFE6FFCCDFE552E552E7CFEA
:1024B000D9FF1200D9CFE6FFE1CFD9FFFD0EDBCF68
:1024C000F6FFFE0EDBCFF7FF0800F5500FE0FD0E24
:1024D000DBCFF6FFDB2AFE0EDBCFF7FF01E3DB2AC3
:1024E0000800F550E66ED9DFE552E8D7E552E7CFB0
:1024F000D9FF1200D9CFE6FFE1CFD9FFE652FD0E9A
:10250000DB500F0B106EFE0EDB50010B400DF35035
:102510001024DF6E7F0EDF14800FDF6EDFCFE6FF4B
:1025200072DFE552E552E552E7CFD9FF1200010E06
:10253000E66E69DFE552E66AE66ADCDFE552E552FF
:102540001200D9CFE6FFE1CFD9FF050EE126010E3B
:10255000F36EDB6E020EDB6A030EDB6A040EDB6ACF
:10256000DF6ADFCF10F0116A10BE1168FB0EDBCFFF
:1025700012F0FC0EDBCF13F011501318E8AE02D0AE
:10258000133404D01250105C135011582DE2FD0E7C
:10259000DBCF10F0FE0EDBCF11F0126A136A11AE22
:1025A00002D012681368D950010FE96EDACFEAFF42
:1025B00010C00BF011C00CF012C00DF013C00EF0E3
:1025C000EECF06F0EECF07F0EECF08F0EFCF09F038
:1025D00015EC21F005C0EDFF04C0EDFF03C0EDFFD9
:1025E00002C0EFFFDF2ABDD7010EDBCF10F0020ED5
:1025F000DBCF11F0030EDBCF12F0040EDBCF13F0B4
:1026000010C006F011C007F012C008F013C009F0A6
:10261000050EE15C02E2E16AE552E16EE552E7CFC8
:10262000D9FF1200D9CFE6FFE1CFD9FF020EE12694
:10263000DF6AFB0EDBCF10F0FC0EDBCF11F0FD0EDE
:10264000DBCF12F0FE0EDBCF13F010501110121082
:10265000131005E1300EE66E20DFE552F4D0D950BC
:10266000FB0FE96EFF0EDA20EA6ED890030EEB50F6
:10267000000A08E6000EEE5C000EEE58000EEE5862
:10268000000EEE5815E22D0EE66E07DFE552D9502A
:10269000FB0FE96EFF0EDA20EA6E000EEE6CEF1E05
:1026A000EE22EF1EEE22EF1EEF22ED52ED52ED5222
:1026B000DE52070EDD6E010EDBCF10F0000EE76E6E
:1026C0001018E8AE02D0103403D0E750D880105470
:1026D00001E3B9D0010EDB04146E156A14BE15684F
:1026E00014C0E6FF15C0E6FF0A0EE66EE66A29DFB3
:1026F000E552E552E552E55206C010F007C011F070
:1027000008C012F009C013F006C00BF007C00CF0AF
:1027100008C00DF009C00EF0FB0EDBCF06F0FC0E7A
:10272000DBCF07F0FD0EDBCF08F0FE0EDBCF09F0AC
:102730004DEC21F0065007100810091041E0010E81
:10274000DF6EDB04186E196A18BE196818C0E6FF40
:1027500019C0E6FF0A0EE66EE66AF3DEE552E552C0
:10276000E552E55206C014F007C015F008C016F097
:1027700009C017F006C00BF007C00CF008C00DF040
:1027800009C00EF0FB0EDBCF06F0FC0EDBCF07F02E
:10279000FD0EDBCF08F0FE0EDBCF09F04DEC21F093
:1027A00006C010F007C011F008C012F009C013F005
:1027B000300E1026000E112212221322105003D0C8
:1027C000DF5004E0300EE66E68DEE552010EDB04F9
:1027D000146E156A14BE156814C0E6FF15C0E6FF36
:1027E0000A0EE66EE66AADDEE552E552E552E552C6
:1027F00006C010F007C011F008C012F009C013F0B5
:10280000D950FB0FE96EFF0EDA20EA6E06C00BF01E
:1028100007C00CF008C00DF009C00EF0EECF06F0B6
:10282000EECF07F0EECF08F0EFCF09F04DEC21F03E
:1028300005C0EDFF04C0EDFF03C0EDFF02C0EFFFD8
:10284000010EDB0638D7020EE15C02E2E16AE552D6
:10285000E16EE552E7CFD9FF1200D9CFE6FFE1CF15
:10286000D9FFFD0EDBCFE6FFFE0EDBCFE6FF42DE3B
:10287000E552E552D950F90FE96EFF0EDA20EA6E03
:10288000EECFE6FFEECFE6FFEECFE6FFEFCFE6FFBF
:10289000C9DEE552E552E552E552E552E7CFD9FFF0
:1028A0001200D9CFE6FFE1CFD9FFFD0EDBCFE6FF67
:1028B000FE0EDBCFE6FF1EDEE552E552FB0EDBCF60
:1028C000E6FFFC0EDBCFE6FFF5DDE552E552E55213
:1028D000E7CFD9FF1200D9CFE6FFE1CFD9FF7BCFF9
:1028E00010F07CCF11F0040ED89010361136E806A7
:1028F000FBE1C10E1026000E112210500F017D25A4
:10290000E96E11507E21EA6EFE0EDBCFEFFF7D2BCC
:10291000000E7E23E552E7CFD9FF1200D9CFE6FFA4
:10292000E1CFD9FFE652DF6ADFCF10F0100EE76E7D
:102930001018E8AE02D0E73402D0E750105C18E27D
:10294000DFCFE9FFEA6AE9BEEA68C10EE926000EB8
:10295000EA22200EEF6EDFCFE9FFEA6AE9BEEA68FD
:10296000D10EE926000EEA22200EEF6EDF2ADCD718
:10297000E552E552E7CFD9FF1200D9CFE6FFE1CF0C
:10298000D9FFE6520001C051030A52E0010A36E0C5
:10299000030A1AE0010A67E1E66AE66AABDDE5527E
:1029A000E552DF6A080EDF5C0CE2DF50EA6AC10F15
:1029B000E96E000EEA22EF50E66E6FDDE552DF2A87
:1029C000F1D70001010E32D0080EE66EE66A92DD04
:1029D000E552E552DF6A080EDF5C0DE2080EDF24E7
:1029E000EA6AC10FE96E000EEA22EF50E66E55DD8D
:1029F000E552DF2AF0D70001020E18D0E66A010E78
:102A0000E66E78DDE552E552DF6A080EDF5C0CE227
:102A1000DF50EA6AD10FE96E000EEA22EF50E66E4F
:102A20003CDDE552DF2AF1D70001030EC06F1CD058
:102A3000080EE66E010EE66E5DDDE552E552DF6AD8
:102A4000080EDF5C0DE2080EDF24EA6AD10FE96EA2
:102A5000000EEA22EF50E66E20DDE552DF2AF0D7C5
:102A60000001C06B01D0C06BE552E552E7CFD9FF42
:102A70001200D9CFE6FFE1CFD9FFE6520001C051E5
:102A8000010A1BE0010A32E1E66AE66A33DDE5523B
:102A9000E552DF6A100EDF5C0CE2DF50EA6AC10F1C
:102AA000E96E000EEA22EF50E66EF7DCE552DF2A0F
:102AB000F1D70001010EC06F1AD0E66A010EE66E72
:102AC00019DDE552E552DF6A100EDF5C0CE2DF50E3
:102AD000EA6AD10FE96E000EEA22EF50E66EDDDC05
:102AE000E552DF2AF1D70001C06B01D0C06BE5527F
:102AF000E552E7CFD9FF1200D9CFE6FFE1CFD9FFEA
:102B0000E652E66AE66AF6DCE552E552DF6A100E46
:102B1000DF5C0CE2DF50EA6AC10FE96E000EEA22C8
:102B2000EF50E66EBADCE552DF2AF1D7E66A010E15
:102B3000E66EE0DCE552E552DF6A100EDF5C0CE287
:102B4000DF50EA6AD10FE96E000EEA22EF50E66E1E
:102B5000A4DCE552DF2AF1D7E552E552E7CFD9FFF1
:102B60001200D9CFE6FFE1CFD9FFFE0EDB50010BFB
:102B70000F017B6F7C6BFD0EDB500F0B7D6F7E6B4F
:102B80007BCF10F07CCF11F0040ED89010361136A8
:102B9000E806FBE1C10E1026000E112210500F01B5
:102BA0007D25E96E11507E21EA6EFC0EDBCFEFFF32
:102BB000E552E7CFD9FF1200D9CFE6FFE1CFD9FF29
:102BC000020EE126DF6AFE0EDB50010B0F017B6F68
:102BD0007C6BFD0EDB500F0B7D6F7E6BF90EDBCF38
:102BE00010F0FA0EDBCF11F0FB0EDBCF12F0FC0E73
:102BF000DBCF13F0105011101210131005E1300E3E
:102C0000E66E69DEE552F5D0D950F90FE96EFF0E98
:102C1000DA20EA6ED890030EEB50000A08E6000EA8
:102C2000EE5C000EEE58000EEE58000EEE5815E267
:102C30002D0EE66E50DEE552D950F90FE96EFF0E0B
:102C4000DA20EA6E000EEE6CEF1EEE22EF1EEE2290
:102C5000EF1EEF22ED52ED52ED52DE52070EDD6E09
:102C6000010EDBCF10F0000EE76E1018E8AE02D0B8
:102C7000103403D0E750D880105401E3BAD0010ECD
:102C8000DB04146E156A14BE156814C0E6FF15C087
:102C9000E6FF0A0EE66EE66A54DCE552E552E552BE
:102CA000E55206C010F007C011F008C012F009C0CC
:102CB00013F006C00BF007C00CF008C00DF009C0FF
:102CC0000EF0F90EDBCF06F0FA0EDBCF07F0FB0EAD
:102CD000DBCF08F0FC0EDBCF09F04DEC21F0065005
:102CE00007100810091041E0010EDF6EDB04186EBA
:102CF000196A18BE196818C0E6FF19C0E6FF0A0E67
:102D0000E66EE66A1EDCE552E552E552E55206C083
:102D100014F007C015F008C016F009C017F006C07F
:102D20000BF007C00CF008C00DF009C00EF0F90E52
:102D3000DBCF06F0FA0EDBCF07F0FB0EDBCF08F09F
:102D4000FC0EDBCF09F04DEC21F006C010F007C0FF
:102D500011F008C012F009C013F0300E1026000E5A
:102D6000112212221322105003D0DF5004E0300E43
:102D7000E66EB1DDE552010EDB04146E156A14BE79
:102D8000156814C0E6FF15C0E6FF0A0EE66EE66A97
:102D9000A1EC12F0E552E552E552E55206C010F002
:102DA00007C011F008C012F009C013F0D950F90F94
:102DB000E96EFF0EDA20EA6E06C00BF007C00CF0D9
:102DC00008C00DF009C00EF0EECF06F0EECF07F010
:102DD000EECF08F0EFCF09F04DEC21F005C0EDFF8C
:102DE00004C0EDFF03C0EDFF02C0EFFF010EDB06E4
:102DF00037D7020EE15C02E2E16AE552E16EE5528C
:102E0000E7CFD9FF1200D9CFE6FFE1CFD9FFFE0E01
:102E1000DB50010B0F017B6F7C6BFD0EDB500F0B4A
:102E20007D6F7E6BFB0EDBCFF6FFFC0EDBCFF7FF7B
:102E30000800F5500FE0FB0EDBCFF6FFDB2AFC0E9F
:102E4000DBCFF7FF01E3DB2A0800F550E66E43DD38
:0C2E5000E552E8D7E552E7CFD9FF1200A9
:042E5C00B06A810EC9
:102E6000AF6EAC8AAC94B886AC98AB8EAB889E9AA9
:102E70009D8A9F9A949C948E1200D9CFE6FFE1CF51
:102E8000D9FF040EE126DE6ADD6ADECF10F0DDCF69
:102E900011F0FD0EDBCF12F0FE0EDBCF13F0115060
:102EA0001318E8AE02D0133404D01250105C135043
:102EB00011581DE2020EDB6A030EDB6A020EDBCF45
:102EC00010F0030EDBCF11F0D890115004E6EE0E97
:102ED000105C000E115806E2020EDB2A030EEEE330
:102EE000DB2AECD7DF2A010ED0E3DB2ACED7040E93
:102EF000E15C02E2E16AE552E16EE552E7CFD9FF1B
:102F00001200D9CFE6FFE1CFD9FF9EA8FED7FE0E73
:102F1000DB50AD6E9E98E552E7CFD9FF1200D9CFB6
:102F2000E6FFE1CFD9FFFD0EDBCFE9FFFE0EDBCFE1
:102F3000EAFFEF5010E0FD0EDBCFE9FFFE0EDBCF26
:102F4000EAFFEF50E66EDDDFE552FD0EDB2AFE0EF6
:102F5000EAE3DB2AE8D7E552E7CFD9FF1200D9CF61
:102F6000E6FFE1CFD9FFFD0EDBCFF6FFFE0EDBCF94
:102F7000F7FF0800F55015E0FD0EDBCFF6FFFE0E63
:102F8000DBCFF7FF0800F550E66EBBDFE552FD0E24
:102F9000DBCFF6FFDB2AFE0EDBCFF7FFE4E3DB2A15
:102FA000E2D7E552E7CFD9FF1200D9CFE6FFE1CF54
:102FB000D9FFE652AE50DF6EDFCFF6F1E552E552B3
:102FC000E7CFD9FF1200D9CFE6FFE1CFD9FFE668FE
:102FD00098DFE552E66895DFE552FE0EDBCFE6FFAF
:102FE00090DFE552FD0EDBCF10F0FE0EDBCF11F0CF
:102FF0000D6A010E0E6E10C008F011C009F0C3EC8E
:103000001FF004C010F005C011F00450E66E79DF27
:10301000E552FC0EDBCFE6FF74DFE552FB0EDBCFA3
:1030200010F0FC0EDBCF11F00D6A010E0E6E10C019
:1030300008F011C009F0C3EC1FF004C010F005C087
:1030400011F00450E66E5DDFE552FA0EDBCFE6FFCD
:1030500058DFE552F90EDBCF10F0FA0EDBCF11F09E
:103060000D6A010E0E6E10C008F011C009F0C3EC1D
:103070001FF004C010F005C011F00450E66E41DFEF
:10308000E552F80EDBCFE6FF3CDFE552F70EDBCF73
:1030900010F0F80EDBCF11F00D6A010E0E6E10C0AD
:1030A00008F011C009F0C3EC1FF004C010F005C017
:1030B00011F00450E66E25DFE552FE0EE66E21DFCC
:1030C000E552FE0EE66E1DDFE552E552E7CFD9FF71
:1030D0001200D9CFE6FFE1CFD9FF020EE126DF6A69
:1030E000FB0EDBCF10F0FC0EDBCF11F0FD0EDBCFC3
:1030F00012F0FE0EDBCF13F010501110121013104F
:1031000005E1300EE66EFDDEE552F4D0D950FB0F3E
:10311000E96EFF0EDA20EA6ED890030EEB50000A3B
:1031200008E6000EEE5C000EEE58000EEE58000EA3
:10313000EE5815E22D0EE66EE4DEE552D950FB0F97
:10314000E96EFF0EDA20EA6E000EEE6CEF1EEE2244
:10315000EF1EEE22EF1EEF22ED52ED52ED52DE5247
:103160000A0EDD6E010EDBCF10F0000EE76E1018B8
:10317000E8AE02D0103403D0E750D880105401E3F9
:10318000B9D0010EDB04146E156A14BE156814C0A4
:10319000E6FF15C0E6FF0A0EE66EE66AB5D8E55210
:1031A000E552E552E55206C010F007C011F008C024
:1031B00012F009C013F006C00BF007C00CF008C0F5
:1031C0000DF009C00EF0FB0EDBCF06F0FC0EDBCFDE
:1031D00007F0FD0EDBCF08F0FE0EDBCF09F04DEC63
:1031E00021F0065007100810091041E0010EDF6EB3
:1031F000DB04186E196A18BE196818C0E6FF19C0FA
:10320000E6FF0A0EE66EE66A7FD8E552E552E55221
:10321000E55206C014F007C015F008C016F009C04A
:1032200017F006C00BF007C00CF008C00DF009C085
:103230000EF0FB0EDBCF06F0FC0EDBCF07F0FD0E31
:10324000DBCF08F0FE0EDBCF09F04DEC21F006C01D
:1032500010F007C011F008C012F009C013F0300ED2
:103260001026000E112212221322105003D0DF501C
:1032700004E0300EE66E45DEE552010EDB04146E0E
:10328000156A14BE156814C0E6FF15C0E6FF0A0EE5
:10329000E66EE66A39D8E552E552E552E55206C0D7
:1032A00010F007C011F008C012F009C013F0D95097
:1032B000FB0FE96EFF0EDA20EA6E06C00BF007C0C6
:1032C0000CF008C00DF009C00EF0EECF06F0EECF06
:1032D00007F0EECF08F0EFCF09F04DEC21F005C07C
:1032E000EDFF04C0EDFF03C0EDFF02C0EFFF010ED4
:1032F000DB0638D7020EE15C02E2E16AE552E16EDC
:10330000E552E7CFD9FF1200D9CFE6FFE1CFD9FFD1
:10331000050EE126010EF36EDB6E020EDB6A030E74
:10332000DB6A040EDB6ADF6ADFCF10F0116A10BEC1
:103330001168FB0EDBCF12F0FC0EDBCF13F0115047
:103340001318E8AE02D0133404D01250105C13509E
:1033500011582DE2FD0EDBCF10F0FE0EDBCF11F089
:10336000126A136A11AE02D012681368D950010FA5
:10337000E96EDACFEAFF10C00BF011C00CF012C0FA
:103380000DF013C00EF0EECF06F0EECF07F0EECF4B
:1033900008F0EFCF09F015EC21F005C0EDFF04C0F7
:1033A000EDFF03C0EDFF02C0EFFFDF2ABDD7010E26
:1033B000DBCF10F0020EDBCF11F0030EDBCF12F0EB
:1033C000040EDBCF13F010C006F011C007F012C0DE
:1033D00008F013C009F0050EE15C02E2E16AE55273
:0A33E000E16EE552E7CFD9FF1200BD
:0633EA00D9CFE6FFE1CFA0
:1033F000D9FFD59EFD0EDBCF51FFFE0EDBCF52FF76
:10340000D59C13681468156A51CF16F052CF17F087
:10341000186A1650135C106E17501458116E18501D
:103420001558126E0C6A010E0D6E0E6A10C007F070
:1034300011C008F012C009F0E9EC1FF00350D66E7D
:1034400013681468156A51CF16F052CF17F0186A36
:103450001650135C106E17501458116E18501558F2
:10346000126E0C6A010E0D6E0E6A10C007F011C0CC
:1034700008F012C009F0E9EC1FF007C010F008C016
:1034800011F009C012F00750D76ED59AD586F28A8E
:10349000F294F184D58EE552E7CFD9FF1200D59E84
:1034A000120013681468156A51CF16F052CF17F046
:1034B000186A1650135C106E17501458116E18507D
:1034C0001558126E0C6A010E0D6E0E6A10C007F0D0
:1034D00011C008F012C009F0E9EC1FF00350D66EDD
:1034E00013681468156A51CF16F052CF17F0186A96
:1034F0001650135C106E17501458116E1850155852
:10350000126E0C6A010E0D6E0E6A10C007F011C02B
:1035100008F012C009F0E9EC1FF007C010F008C075
:1035200011F009C012F00750D76ED58E1200D9CF16
:10353000E6FFE1CFD9FFCD90FD0EDBCF53FFFE0EAE
:10354000DBCF54FF13681468156A53CF16F054CFBD
:1035500017F0186A1650135C106E17501458116E3D
:1035600018501558126E0C6A010E0D6E0E6A10C0BE
:1035700007F011C008F012C009F0E9EC1FF0075085
:10358000CF6E13681468156A53CF16F054CF17F036
:10359000186A1650135C106E17501458116E18509C
:1035A0001558126E0C6A010E0D6E0E6A10C007F0EF
:1035B00011C008F012C009F0E9EC1FF003C010F0D0
:1035C00004C011F005C012F00350CE6E9D809E9095
:1035D0009F90CD8ECD8CCD98CD9ACD96CD92CD802D
:1035E000E552E7CFD9FF120013681468156A53CF6C
:1035F00016F054CF17F0186A1650135C106E17505F
:103600001458116E18501558126E0C6A010E0D6E7A
:103610000E6A10C007F011C008F012C009F0E9EC02
:103620001FF00750CF6E13681468156A53CF16F059
:1036300054CF17F0186A1650135C106E17501458B8
:10364000116E18501558126E0C6A010E0D6E0E6A2E
:1036500010C007F011C008F012C009F0E9EC1FF02B
:1036600003C010F004C011F005C012F00350CE6E7C
:10367000CD801200CD901200D9CFE6FFE1CFD9FF67
:10368000CA94CC6AFE0EDB500F01556F566BCB6EA1
:103690009D829E929F92CA90CA92CA84E552E7CFB9
:1036A000D9FF120055CFCBFFCA841200CA94120072
:1036B000D9CFE6FFE1CFD9FFB190FD0EDBCF57FFA9
:1036C000FE0EDBCF58FF13681468156A57CF16F04B
:1036D00058CF17F0186A1650135C106E1750145814
:1036E000116E18501558126E0C6A010E0D6E0E6A8E
:1036F00010C007F011C008F012C009F0E9EC1FF08B
:103700000750B36E13681468156A57CF16F058CF78
:1037100017F0186A1650135C106E17501458116E7B
:1037200018501558126E0C6A010E0D6E0E6A10C0FC
:1037300007F011C008F012C009F0E9EC1FF003C057
:1037400010F004C011F005C012F00350B26EA08258
:10375000A192A292B18EB198B19AB192B180E55284
:10376000E7CFD9FF120013681468156A57CF16F017
:1037700058CF17F0186A1650135C106E1750145873
:10378000116E18501558126E0C6A010E0D6E0E6AED
:1037900010C007F011C008F012C009F0E9EC1FF0EA
:1037A0000350B26E13681468156A57CF16F058CFDD
:1037B00017F0186A1650135C106E17501458116EDB
:1037C00018501558126E0C6A010E0D6E0E6A10C05C
:1037D00007F011C008F012C009F0E9EC1FF007C0B3
:1037E00010F008C011F009C012F00750B36EB1809C
:1037F0001200B19012000F01612B000E622369517B
:10380000615D6A51625904E3616B626B010E596F2D
:1038100012000F01632B000E64236B51635D6C512A
:10382000645904E3636B646B010E5A6F12000F015D
:10383000652B000E66236D51655D6E51665904E37C
:10384000656B666B010E5B6F12000F01672B000E3C
:1038500068236F51675D7051685904E3676B686B4B
:10386000010E5C6F1200D9CFE6FFE1CFD9FFFD0E4C
:10387000DBCF69FFFE0EDBCF6AFF0F01616B626B6E
:10388000596BE552E7CFD9FF1200D9CFE6FFE1CF60
:10389000D9FFFD0EDBCF6BFFFE0EDBCF6CFF050EFD
:1038A0000D6E0E6A6BCF08F06CCF09F0C3EC1FF001
:1038B00008C06BFF09C06CFF0F01636B646B5A6B30
:1038C000E552E7CFD9FF1200D9CFE6FFE1CFD9FF0C
:1038D000FD0EDBCF6FFFFE0EDBCF70FF0A0E0D6E0D
:1038E0000E6A6FCF08F070CF09F0C3EC1FF008C06C
:1038F0006FFF09C070FF0F01676B686B5C6BE5526F
:06390000E7CFD9FF120021
:0A3906000F0E946E82681200CF0EBF
:103910009414946E82681200D9CFE6FFE1CFD9FFEC
:10392000040EE126DE6ADD6ADECF10F0DDCF11F095
:10393000D890115004E6040E105C000E115801E3FB
:1039400090D0DECFE9FFDDCFEAFF490EE9260F0E6A
:10395000EA22EF1C826E020EDB6A030EDB6A020EA5
:10396000DBCF10F0030EDBCF11F0D890115004E63E
:10397000040E105C000E11586EE2020EDBCFE9FF60
:10398000030EDBCFEAFF4D0EE9260F0EEA22EF50C1
:1039900082143FE1DECF14F0DDCF15F0D89014365D
:1039A0001536D89014361536020EDB501424E96E05
:1039B000030EDB501520EA6ED890E936EA36290E60
:1039C000E9260F0EEA22EECF12F0EFCF13F0010E30
:1039D0001226000E1322DECF10F0DDCF11F0D890AA
:1039E00010361136D89010361136020EDB501024E6
:1039F000E96E030EDB501120EA6ED890E936EA3604
:103A0000290EE9260F0EEA2212C0EEFF13C0EDFFC9
:103A10001BD0DECF10F0DDCF11F0D890103611366C
:103A2000D89010361136020EDB501024E96E030ECA
:103A3000DB501120EA6ED890E936EA36290EE926E5
:103A40000F0EEA22EE6AED6A020EDB2A030E01E295
:103A500086D7DB2A84D7DF2A010E01E265D7DB2A6D
:103A600063D7040EE15C02E2E16AE552E16EE552E1
:103A7000E7CFD9FF1200D9CFE6FFE1CFD9FF040E7F
:103A8000E126DE6ADD6ADECF10F0DDCF11F0D890DE
:103A9000115004E6020E105C000E115801E390D0A4
:103AA000DECFE9FFDDCFEAFF490EE9260F0EEA225D
:103AB000EF1C826E020EDB6A030EDB6A020EDBCFA6
:103AC00010F0030EDBCF11F0D890115004E6040E75
:103AD000105C000E11586EE2020EDBCFE9FF030E00
:103AE000DBCFEAFF4D0EE9260F0EEA22EF508214DB
:103AF0003FE1DECF14F0DDCF15F0D8901436153647
:103B0000D89014361536020EDB501424E96E030EDD
:103B1000DB501520EA6ED890E936EA36290EE92600
:103B20000F0EEA22EECF12F0EFCF13F0010E1226A5
:103B3000000E1322DECF10F0DDCF11F0D89010363A
:103B40001136D89010361136020EDB501024E96E73
:103B5000030EDB501120EA6ED890E936EA36290EC2
:103B6000E9260F0EEA2212C0EEFF13C0EDFF1BD0B4
:103B7000DECF10F0DDCF11F0D89010361136D8908E
:103B800010361136020EDB501024E96E030EDB50A6
:103B90001120EA6ED890E936EA36290EE9260F0E92
:103BA000EA22EE6AED6A020EDB2A030E01E286D7F4
:103BB000DB2A84D7DF2A010E01E265D7DB2A63D72F
:103BC000040EE15C02E2E16AE552E16EE552E7CF04
:103BD000D9FF1200D9CFE6FFE1CFD9FF040EE126CD
:103BE000DE6ADD6ADECF10F0DDCF11F0FD0EDBCF37
:103BF00012F0FE0EDBCF13F011501318E8AE02D016
:103C0000133404D01250105C135011581DE2020EF0
:103C1000DB6A030EDB6A020EDBCF10F0030EDBCF94
:103C200011F0D890115004E6EE0E105C000E115801
:103C300006E2020EDB2A030EEEE3DB2AECD7DF2AD4
:103C4000010ED0E3DB2ACED7040EE15C02E2E16A8A
:103C5000E552E16EE552E7CFD9FF1200D9CFE6FF7A
:103C6000E1CFD9FF040EE126DE6ADD6ADECF10F077
:103C7000DDCF11F0D890115004E6040E105C000E58
:103C8000115875E2DECFE9FFDDCFEAFF490EE926E4
:103C90000F0EEA22EF1C826E020EDB6A030EDB6A55
:103CA000020EDBCF10F0030EDBCF11F0D8901150D5
:103CB00004E6040E105C000E11584AE2DECF10F04C
:103CC000DDCF11F0D89010361136D890103611365D
:103CD000020EDB501024E96E030EDB501120EA6E59
:103CE000D890E936EA36290EE9260F0EEA22EE6A66
:103CF000ED6A020EDBCFE9FF030EDBCFEAFF4D0ECC
:103D0000E9260F0EEA22EF5082141CE1DECF10F0FC
:103D1000DDCF11F0D89010361136D890103611360C
:103D2000020EDB501024E96E030EDB501120EA6E08
:103D3000D890E936EA36290EE9260F0EEA22010E5E
:103D4000EE6EED6A020EDB2A030EAAE3DB2AA8D789
:103D50008250816EE80EE66E030EE66E3BDFE552A2
:103D6000E552DF2A010E01E281D7DB2A7FD7040E5C
:103D7000E15C02E2E16AE552E16EE552E7CFD9FF8C
:023D800012002F
:0E3D8200F28ED08EF28C1200F19CF292F2883A
:103D90001200D8CFE4FFE0CFE4FFE46EDACFE4FF17
:103DA000E2CFDAFFE9CFE4FFEACFE4FFF6CFE4FFAA
:103DB000F7CFE4FFF5CFE4FFF3CFE4FFF4CFE4FF68
:103DC000FACFE4FF00EE00F0100EE80403E3EECFBC
:103DD000E4FFFBD700EE10F00A0EE80403E3EECF99
:103DE000E4FFFBD7E652F2A407D04FEC1AF0F294AE
:103DF00051EC1AF0FBEC1BF09EA007D03AEC1BF044
:103E00009E90F4EC1AF009EC1CF0A1A207D0F9EC9A
:103E10001BF0A192B3EC1BF025EC1CF0F2B2F29275
:103E20009EAA03D09E9AD5EC17F0E55200EE19F049
:103E30000A0EE80403E3E5CFEDFFFBD700EE0FF039
:103E4000100EE80403E3E5CFEDFFFBD7E5CFFAFF63
:103E5000E5CFF4FFE5CFF3FFE5CFF5FFE5CFF7FFC3
:103E6000E5CFF6FFE5CFEAFFE5CFE9FFE5CFDAFFE3
:103E7000E550E5CFE0FFE5CFD8FF1000DACFE4FF53
:103E8000E2CFDAFFE9CFE4FFEACFE4FFF6CFE4FFC9
:103E9000F7CFE4FFF5CFE4FFF3CFE4FFF4CFE4FF87
:103EA000FACFE4FF00EE00F0100EE80403E3EECFDB
:103EB000E4FFFBD700EE10F00A0EE80403E3EECFB8
:103EC000E4FFFBD7E652F2A407D04FEC1AF0F294CD
:103ED00051EC1AF0FBEC1BF09EA007D03AEC1BF063
:103EE0009E90F4EC1AF009EC1CF0A1A207D0F9ECBA
:103EF0001BF0A192B3EC1BF025EC1CF0F2B2F29295
:103F00009EAA03D09E9AD5EC17F0E55200EE19F068
:103F10000A0EE80403E3E5CFEDFFFBD700EE0FF058
:103F2000100EE80403E3E5CFEDFFFBD7E5CFFAFF82
:103F3000E5CFF4FFE5CFF3FFE5CFF5FFE5CFF7FFE2
:103F4000E5CFF6FFE5CFEAFFE5CFE9FFE5CFDAFF02
:023F500011005E
:0E3F5200006A0EAEAFEF1FF00E6C001E09AE3F
:103F6000B4EF1FF0096C001EC2EC21F009BEBEEFD9
:103F70001FF000AE000C096C056C000C00BEBBEF1E
:103F80001FF00188FF0C006A0EAECCEF1FF00D6C25
:103F90000E1EE86A0E22001E09AED4EF1FF0086C58
:103FA000091EE86A0922001E8EEC21F009BEE4EF2A
:103FB0001FF000AE000C086C091EE86A0922046CB0
:103FC000051EE86A0522000C00BEDBEF1FF0018829
:103FD000FF0C006A0EAEF4EF1FF00C6C0D1E0E1EEF
:103FE000E86A0D220E22001E09AEFEEF1FF0076CDC
:103FF000081E091EE86A08220922001E71EC21F041
:1040000009BE11EF20F000AE000C076C081E091E5F
:10401000E86A08220922036C041E051E04220522F8
:0C402000000C00BE05EF20F00188FF0C32
:04402C0059454C4C5A
:104030004F5720323A20202000475245454E20322B
:104040003A2020200052454420313A2020200059B7
:10405000454C4C4F5720313A2020200044454C41DC
:10406000590052454420323A20202000475245450D
:104070004E20313A2020200044454C4159205245E1
:1040800044322020202020200044454C4159205219
:104090004544312020202020200044454C41592017
:1040A00059454C4C4F57312020200044454C415934
:1040B0002059454C4C4F5732202020004348414E58
:1040C00047494E472052454432004348414E4749F4
:1040D0004E472052454431004150504C5920494EE2
:1040E0002059454C4C4F57004F5554204F462052B5
:1040F000414E47450020202020002E002020200097
:104100001E0EF66E000EF76E000EF86E0F0109001F
:10411000F550766F0900F550776F03E1766701D0AF
:104120003DD00900F550716F0900F550726F09001C
:10413000F550736F09000900F550E96E0900F5505C
:10414000EA6E090009000900F550746F0900F55086
:10415000756F09000900F6CF78FFF7CF79FFF8CF28
:104160007AFF71CFF6FF72CFF7FF73CFF8FF0F0121
:10417000745302E1755307E00900F550EE6E7407C1
:10418000F8E27507F9D778CFF6FF79CFF7FF7ACF46
:0E419000F8FF0F017607000E775BBFD7120015
:02419E000F0E02
:1041A000926E0B0EC16E040EC06E1200D9CFE6FFE8
:1041B000E1CFD9FF020EE126FE0EDB50040DF350D5
:1041C000C26EC280C282C2B2FED7C450DE6EDD6A49
:1041D000DECF12F0DDCF13F0D89012361336D89020
:1041E00012361336060EC3CFE7FF070B04E0E74293
:1041F000E79EE806FCE1E7501224106E000E132043
:1042000010C0DEFFDD6EDECF10F0DDCF11F010C08C
:10421000F3FF11C0F4FF020EE15C02E2E16AE55235
:0A422000E16EE552E7CFD9FF12006E
:06422A0006500B02F3CF69
:1042300002F0F4CF03F00C02F3500326000EF4203A
:10424000046E06500D02F3500426000EF420056E95
:1042500006500E02F350052607500B02F3500326BA
:10426000F4500422000E052207500C02F3500426DD
:10427000F450052207500D02F350052608500B029A
:10428000F3500426F450052208500C02F350052682
:0A42900009500B02F350052612003E
:06429A00056A046A036AD4
:1042A000026A200EE76ED8900636073608360936C1
:1042B00002360336043605360B50025C0C500358A8
:1042C0000D5004580E50055809E30B50025E0C5077
:1042D000035A0D50045A0E50055A062AE72EE4D709
:0242E0001200CA
:0E42E200056A046A036A180EE76ED890073664
:1042F000083609360336043605360C50035C0D507B
:1043000004580E50055807E30C50035E0D50045A34
:0C4310000E50055A072AE72EEAD71200CB
:04431C00056A046AC0
:10432000100EE76ED89008360936043605360D5063
:10433000045C0E50055805E30D50045E0E50055AFE
:08434000082AE72EF0D7120055
:08434800800EF36E00EE00F0A0
:104350000F0E01D81200EA6002D0EE6AFCD7F350CB
:08436000E9601200EE6AFCD7CF
:084368001EEE00F02EEE00F045
:10437000F86A019C80EC20F003EC00F03AEC00F0CD
:04438000FBD7120055
:0C438400056A080EE76ED8900936053671
:104390000E50055C02E3056E092AE72EF7D71200DE
:1043A000000000000000000000000000000000000D
:1043B00000000000000000000100010001000100F9
:1043C00001020408102040800000000000000000EE
:1043D000FF000000000000000000000000000000DE
:0943E000000000000000000000D4
:0743E90000000000000000CD
:1043F0000010101010101010101818181818181895
:10440000181C1C1C1C1C1C1C1C1E1E1E1E1E1E1EE2
:104410001E1F1F1F1F1F1F1F1F0000000000000086
:10442000000000000000000000000000000000008C
:10443000000000000000000000000000000000007C
:0A4440000000000000000000000072
:06444A00FF00000000006D
:10445000000000000A0005000F000A0005000F0020
:0A4460000000000000000000000052
:06446A000000000000004C
:10447000000000000000000000000000000000003C
:104480000000000000000000000010204080010239
:0244900004081E
:020000040030CA
:0100010002FC
:0100020003FA
:010003001EDE
:010005008179
:010006008178
:010008000FE8
:01000900C036
:01000A000FE6
:01000B00E014
:01000C000FE4
:01000D0040B2
:00000001FF
