:020000040000FA
:0600000021EF1DF01200CB
:020006001200E6
:06000800D7EF1AF0120010
:02000E000000F0
:0100100000EF
:0400110000000000EB
:0600180062EF1AF0120075
:02001E000700D9
:100020003A3B0000290F000028000000243B00009C
:10003000E10000001600000011000000F7000000C1
:1000400004000000C33A00008000000061000000CE
:100050009A3A0000000F0000290000007A3A0000E0
:10006000510F0000200000000E000000FB00000007
:040070000300000089
:0C007400D9CFE6FFE1CFD9FF020EE12654
:10008000DE6ADD6A62D830EC0EF027EC10F0E80E84
:10009000E66E030EE66E15D8E552E5520F015C518F
:1000A000FDE05C6BD4EC18F027EC10F012EC06F0DD
:1000B0003CEC06F0FFEC07F0ECEC09F056EC10F02D
:1000C000EDD7D9CFE6FFE1CFD9FF040EE126DE6AF6
:1000D000DD6ADECF10F0DDCF11F0FD0EDBCF12F0C8
:1000E000FE0EDBCF13F011501318E8AE02D013341C
:1000F00004D01250105C135011581DE2020EDB6A3E
:10010000030EDB6A020EDBCF10F0030EDBCF11F023
:10011000D890115004E6EE0E105C000E115806E265
:10012000020EDB2A030EEEE3DB2AECD7DF2A010EF8
:10013000D0E3DB2ACED7040EE15C02E2E16AE552AD
:10014000E16EE552E7CFD9FF1200936A956A926A91
:1001500087EC0CF0836A5AEC1AF0E80EE66E030E98
:10016000E66EAFDFE552E552570EE66E120EE66E12
:10017000F1EC16F0E552E552320EE66EE66AFDEC61
:1001800017F0E552E55220EC18F0C7EC12F0FEEC47
:100190001BF0030E9310936E1200D9CFE6FFE1CF50
:1001A000D9FFFE0EDBCF11F0800E11141AE1FD0E07
:1001B000DBCF12F0FE0EDBCF13F0133404E212504B
:1001C0000708000E13540DE3FD0EDBCFE9FFFE0E12
:1001D000DBCFEAFF000EE9260F0EEA22EF50831074
:1001E000836EE552E7CFD9FF1200D9CFE6FFE1CF0A
:1001F000D9FFFE0EDBCF11F0800E11141AE1FD0EB7
:10020000DBCF12F0FE0EDBCF13F0133404E21250FA
:100210000708000E13540DE3FD0EDBCFE9FFFE0EC1
:10022000DBCFEAFF000EE9260F0EEA22EF1C831453
:10023000836EE552E7CFD9FF1200D9CFE6FFE1CFB9
:10024000D9FFFD0EDBCFE9FFFE0EDBCFEAFF080E84
:10025000E9260F0EEA22EF0415E1FD0EDBCFE6FFE3
:10026000FE0EDBCFE6FFC1DFE552E552FD0EDBCF30
:10027000E9FFFE0EDBCFEAFF080EE9260F0EEA22A9
:10028000EF6A15D0FD0EDBCFE6FFFE0EDBCFE6FFFB
:1002900084DFE552E552FD0EDBCFE9FFFE0EDBCF3A
:1002A000EAFF080EE9260F0EEA22010EEF6EE55274
:1002B000E7CFD9FF1200D9CFE6FFE1CFD9FF020E79
:1002C000E126DE6ADD6ADECF10F0DDCF11F01134F9
:1002D00004E210500708000E115421E3DECFE6FFC0
:1002E000DDCFE6FF5ADFE552E552F40EE66E010E71
:1002F000E66EE7DEE552E552DECFE6FFDDCFE6FF54
:1003000074DFE552E552F40EE66E010EE66ED9DEBC
:10031000E552E552DF2A010ED6E3DB2AD4D7020EDE
:10032000E15C02E2E16AE552E16EE552E7CFD9FF16
:1003300012000F01010E291903E12A5101E1010CFC
:10034000000C0F01010E2B1903E12C5101E1010CEE
:10035000000CFF0EE66E380EE66EE66AE66A9CEC6E
:1003600012F0E552E552E552E552F6C110F0116A7D
:10037000126A136AF6C1E6FF11C0E6FF12C0E6FF7B
:1003800013C0E6FFE66AE66A75EC11F0146E060E1D
:10039000E15E14501200D9CFE6FFE1CFD9FF0A0E7B
:1003A000E126E66A05EC1CF0E552F3CF10F0F4CF3D
:1003B00011F0126A136A11AE02D012681368060EA9
:1003C00010C0DBFF070E11C0DBFF080E12C0DBFF01
:1003D000090E13C0DBFF060EDBCF06F0070EDBCFE6
:1003E00007F0080EDBCF08F0090EDBCF09F08C0E0A
:1003F0000B6E0C6A0D6A0E6A82EC1CF002C006F0ED
:1004000003C007F004C008F005C009F00B68030E34
:100410000C6E0D6A0E6ABAEC1CF0020E06C0DBFF11
:10042000030E07C0DBFF040E08C0DBFF050E09C08A
:10043000DBFF020EDBCFE6FF1AEC13F0E552D950DA
:10044000020FE96EDACFEAFF640EEE5C000EEE58A2
:10045000000EEE58000EEE586EE2020EDBCF10F0EA
:10046000030EDBCF11F0040EDBCF12F0050EDBCF55
:1004700013F00A0E0B6E0C6A0D6A0E6A10C006F0BD
:1004800011C007F012C008F013C009F0BAEC1CF05C
:1004900006C010F007C011F008C012F009C013F038
:1004A00006C0E6FF07C0E6FF08C0E6FF09C0E6FF9A
:1004B0000A0EE66EE66A75EC11F0146E060EE15E49
:1004C0001450FD0EE66E380EE66E0B0EE66EE66A12
:1004D0009CEC12F0E552E552E552E552020EDBCFFC
:1004E00010F0030EDBCF11F0040EDBCF12F0050E7F
:1004F000DBCF13F00A0E0B6E0C6A0D6A0E6A10C089
:1005000006F011C007F012C008F013C009F0BAECF1
:100510001CF002C010F003C011F004C012F005C0BE
:1005200013F002C0E6FF03C0E6FF04C0E6FF05C00B
:10053000E6FF0C0E6DD0020EDBCF10F0030EDBCF0A
:1005400011F0040EDBCF12F0050EDBCF13F00A0E14
:100550000B6E0C6A0D6A0E6A10C006F011C007F02F
:1005600012C008F013C009F0BAEC1CF006C010F07D
:1005700007C011F008C012F009C013F006C0E6FF72
:1005800007C0E6FF08C0E6FF09C0E6FF0A0EE66EF8
:10059000E66A75EC11F0146E060EE15E1450FD0E65
:1005A000E66E380EE66E0C0EE66EE66A9CEC12F015
:1005B000E552E552E552E552020EDBCF10F0030E94
:1005C000DBCF11F0040EDBCF12F0050EDBCF13F002
:1005D0000A0E0B6E0C6A0D6A0E6A10C006F011C08E
:1005E00007F012C008F013C009F0BAEC1CF002C00A
:1005F00010F003C011F004C012F005C013F002C0E7
:10060000E6FF03C0E6FF04C0E6FF05C0E6FF0D0EEF
:10061000E66EE66A75EC11F0146E060EE15E14509B
:100620000A0EE15C02E2E16AE552E16EE552E7CFD3
:10063000D9FF1200D9CFE6FFE1CFD9FFE652DF6A3A
:100640000F012851010A53E0010A01E0D2D01C6BCE
:100650001D6B1E6B1F6BFCD981B210D00F011C2BC0
:10066000000E1D231E231F23D880E80E1C55030EE9
:100670001D55000E1E55000E1F55EEE20F011C6B9E
:100680001D6B1E6B1F6B81A206D01C2B000E1D2341
:100690001E231F23F8D71CCF24FF1DCF25FF1ECFFD
:1006A00026FF1FCF27FF1BCFE9FFEA6AE9BEEA68F2
:1006B000D890E936EA36D890E936EA36A60EE92629
:1006C000010EEA2224CFEEFF25CFEEFF26CFEEFF6C
:1006D00027CFEEFF1B29106E096E140E0E6E42EC32
:1006E0001BF005C01BFF0F01010E286F83D0206B8C
:1006F000216B226B236BDF6ADFCF10F0140EE76EE5
:100700001018E8AE02D0E73402D0E750105C1DE2CA
:10071000DFCFE9FFEA6AE9BEEA68D890E936EA364F
:10072000D890E936EA36A60EE926010EEA222051D3
:10073000EE24206F2151EE20216F2251EE20226FF6
:100740002351EE20236FDF2AD7D7140E0B6E0C6ACD
:100750000D6A0E6A20CF06F021CF07F022CF08F0F5
:1007600023CF09F0BAEC1CF006C020FF07C021FF20
:1007700008C022FF09C023FF000EE66EE66A06C02D
:1007800010F007C011F008C012F009C013F0030EFA
:100790000B6E0C6A0D6A0E6ABAEC1CF006C010F003
:1007A00007C011F008C012F009C013F006C0E6FF40
:1007B00007C0E6FF20CF14F021CF15F022CF16F0AE
:1007C00023CF17F0640E145E000E155A165A175AEE
:1007D00014C0E6FF15C0E6FF24CFE6FF25CFE6FFF5
:1007E0007CEC13F0186E080EE15E18500F01286BB8
:1007F00001D0286BE552E552E7CFD9FF1200D9CFDF
:10080000E6FFE1CFD9FFE652DF6A0F011A51010A74
:1008100054E0010A01E0F3D0E66A05EC1CF0E55271
:10082000F3CF16FFF4CF17FF0F01186B196B17AF3B
:1008300002D018691969F80EE66E380EE66EE66A9F
:10084000010EE66E9CEC12F0E552E552E552E552DF
:1008500016CFE6FF17CFE6FF18CFE6FF19CFE6FF6A
:10086000E66A010EE66E75EC11F0106E060EE15EA2
:1008700010501BCFE9FFEA6AE9BEEA68D890E93672
:10088000EA36D890E936EA36060EE926010EEA2263
:1008900016CFEEFF17CFEEFF18CFEEFF19CFEEFF0A
:1008A0000F011B29106E096E280E0E6E42EC1BF014
:1008B00005C01BFF0F01010E1A6F126B136B146B37
:1008C000156BDF6ADFCF10F0280EE76E1018E8AE68
:1008D00002D0E73402D0E750105C1DE2DFCFE9FF21
:1008E000EA6AE9BEEA68D890E936EA36D890E9368D
:1008F000EA36060EE926010EEA221251EE24126FA4
:100900001351EE20136F1451EE20146F1551EE2089
:10091000156FDF2AD7D7280E0B6E0C6A0D6A0E6A88
:1009200012CF06F013CF07F014CF08F015CF09F05F
:10093000BAEC1CF006C012FF07C013FF08C014FF7A
:1009400009C015FF000EE66EE66A06C010F007C08B
:1009500011F008C012F009C013F0030E0B6E0C6A00
:100960000D6A0E6ABAEC1CF006C010F007C011F058
:1009700008C012F009C013F006C0E6FF07C0E6FF8A
:1009800012CF14F013CF15F014CF16F015CF17F0C7
:10099000640E145E000E155A165A175A14C0E6FF5C
:1009A00015C0E6FF16CFE6FF17CFE6FF7CEC13F08D
:1009B000186E080EE15E1850F80EE66E380EE66E00
:1009C000080EE66E010EE66E9CEC12F0E552E55262
:1009D000E552E55212CFE6FF13CFE6FF14CFE6FF54
:1009E00015CFE6FF080EE66E010EE66E75EC11F00F
:1009F000106E060EE15E10500F011A6B01D01A6BDB
:100A0000E552E552E7CFD9FF1200D9CFE6FFE1CF9B
:100A1000D9FF020EE126DE6ADD6ADECF10F0DDCFFF
:100A200011F0D890115004E61E0E105C000E115803
:100A300005E2DF2A010EF1E3DB2AEFD7020EE15CCB
:100A400002E2E16AE552E16EE552E7CFD9FF12001A
:100A5000010EE66EE66AF5EC00F0E552E552010E95
:100A6000E66EE66ACDEC00F0E552E552CEDF010E0F
:100A7000E66EE66AF5EC00F0E552E5521200010E72
:100A80000001E31901E1E45102E0E351120027EC17
:100A900010F0EB0EE66E380EE66EE66AE66A9CEC47
:100AA00012F0E552E552E552E55200011E0EE86FE4
:100AB0000001010EF51908E1F65107E10001E36BB1
:100AC000E46B00011E0EE86F12001200000EE66ECD
:100AD000E66ACDEC00F0E552E5521200000EE66E3B
:100AE000E66AF5EC00F0E552E5521200040EE66EFF
:100AF000E66ACDEC00F0E552E5521200040EE66E17
:100B0000E66AF5EC00F0E552E5521200060EE66EDC
:100B1000E66ACDEC00F0E552E5521200060EE66EF4
:100B2000E66AF5EC00F0E552E5521200010EE66EC1
:100B3000E66ACDEC00F0E552E5521200010EE66ED9
:100B4000E66AF5EC00F0E552E5521200050EE66E9D
:100B5000E66ACDEC00F0E552E5521200050EE66EB5
:100B6000E66AF5EC00F0E552E5521200070EE66E7B
:100B7000E66ACDEC00F0E552E5521200070EE66E93
:100B8000E66AF5EC00F0E552E55212000F01010EA5
:100B9000291903E12A5101E1010C000C0F01010E9A
:100BA0002B1903E12C5101E1010C000C0F01010E86
:100BB0002F1903E1305101E1010C000C0F01010E6E
:100BC0002D1903E12E5101E1010C000C0F01010E62
:100BD0002B1903E12C5101E1010C000C0F01140E43
:100BE0002B5D000E2C5915E32BCF10F02CCF11F0FC
:100BF0000A0E0D6E0E6A2BCF08F02CCF09F0FBEC1D
:100C00001CF005C011F0010E041803E1115001E1C0
:100C1000010C000C0F01010E2D1903E12E5101E111
:100C2000010C000C010E0001F525F56F000EF621F8
:100C3000F66F500E0D6E0E6AF5C008F0F6C009F0A2
:100C4000FBEC1CF004C0F5F005C0F6F00001E7294C
:100C5000106E140E116E0E6E10C009F02FEC1DF008
:100C600005C0E7F00001050406E10001E507000109
:100C7000E6070001E80712006A0E0001E11901E130
:100C8000E25101E151D1690EE11901E1E25101E1C5
:100C9000E7D0060EE11901E1E25101E17AD0050E3B
:100CA000E11901E1E2510EE0E868E11901E1E251E8
:100CB00001E01200050EE16FE26BE9C0E5F0F3C060
:100CC000E6F0120003DF2ADF19DF50DF37DF46DFEF
:100CD000DF0EE66E380EE66EE66AE66A9CEC12F00F
:100CE000E552E552E552E552E5C010F0116A126A8C
:100CF000136AE5C0E6FF11C0E6FF12C0E6FF13C0AD
:100D0000E6FF0D0EE66EE66A75EC11F0146E060E47
:100D1000E15E1450D50EE66E380EE66EE66A010E00
:100D2000E66E9CEC12F0E552E552E552E552E6C063
:100D300010F0116A126A136AE6C0E6FF11C0E6FFFE
:100D400012C0E6FF13C0E6FF0D0EE66E010EE66E62
:100D500075EC11F0146E060EE15E14500001E551C1
:100D6000000807E3060E0001E16FE26BEBC0E5F05F
:100D700012000CDF000908E0100E0001E16FE26BC9
:100D800000011E0EE86F120009DF000901E136D1F3
:100D900030D1ACDEA3DEC2DEE9DED0DEDFDEC80E9F
:100DA000E66E380EE66EE66AE66A9CEC12F0E552F4
:100DB000E552E552E552E5C010F0116A126A136A75
:100DC000E5C0E6FF11C0E6FF12C0E6FF13C0E6FF74
:100DD0000D0EE66EE66A75EC11F0146E060EE15E1D
:100DE0001450D50EE66E380EE66EE66A010EE66E1B
:100DF0009CEC12F0E552E552E552E552E6C010F0E7
:100E0000116A126A136AE6C0E6FF11C0E6FF12C05B
:100E1000E6FF13C0E6FF0D0EE66E010EE66E75EC02
:100E200011F0146E060EE15E14500001E551000849
:100E300008E3690E0001E16FE26BEDC0E5F0EFC081
:100E4000E6F0A4DE000907E0730E0001E16FE26B3B
:100E500000011E0EE86FA2DE000901E1CFD0C9D06B
:100E600055DE4CDE3BDE62DE89DE78DEBE0EE66EEF
:100E7000380EE66EE66AE66A9CEC12F0E552E55240
:100E8000E552E552E5C010F0116A126A136AE5C036
:100E9000E6FF11C0E6FF12C0E6FF13C0E6FF0D0E2D
:100EA000E66EE66A75EC11F0146E060EE15E145003
:100EB000B20EE66E380EE66EE66A010EE66E9CEC49
:100EC00012F0E552E552E552E552E6C010F0116A23
:100ED000126A136AE6C0E6FF11C0E6FF12C0E6FF21
:100EE00013C0E6FF0D0EE66E010EE66E75EC11F016
:100EF000146E060EE15E14500001E651000806E390
:100F00006A0E0001E16FE26BF1C0E6F03FDE00091E
:100F100007E0740E0001E16FE26B00011E0EE86F46
:100F20003DDE00096BE065D0F1DDE8DDD7DD0EDEEA
:100F300025DE04DEBE0EE66E380EE66EE66AE66A72
:100F40009CEC12F0E552E552E552E552E5C010F096
:100F5000116A126A136AE5C0E6FF11C0E6FF12C00B
:100F6000E6FF13C0E6FF0D0EE66EE66A75EC11F0C3
:100F7000146E060EE15E1450A50EE66E380EE66E97
:100F8000E66A010EE66E9CEC12F0E552E552E5527F
:100F9000E552E6C010F0116A126A136AE6C0E6FF75
:100FA00011C0E6FF12C0E6FF13C0E6FF0D0EE66EAD
:100FB000010EE66E75EC11F0146E060EE15E145033
:100FC0000001E651000808E3050E0001E16FE26B45
:100FD000E9C0E5F0F3C0E6F0D9DD000907E00F0E47
:100FE0000001E16FE26B00011E0EE86FD7DD000922
:100FF00005E00001E169010EE26F12001200740EBB
:101000000001E11901E1E25101E16CD1730EE11936
:1010100001E1E25101E1F0D0100EE11901E1E251EC
:1010200001E17CD00F0EE11901E1E25101E0120073
:101030004DDD74DD63DD9ADD81DD90DDDF0EE66E72
:10104000380EE66EE66AE66A9CEC12F0E552E5526E
:10105000E552E552E8C010F0116A126A136AE8C05E
:10106000E6FF11C0E6FF12C0E6FF13C0E6FF0D0E5B
:10107000E66EE66A75EC11F0146E060EE15E145031
:10108000D50EE66E380EE66EE66A010EE66E9CEC54
:1010900012F0E552E552E552E552E8C010F0116A4F
:1010A000126A136AE8C0E6FF11C0E6FF12C0E6FF4D
:1010B00013C0E6FF0D0EE66E010EE66E75EC11F044
:1010C000146E060EE15E14500001E851000808E3BA
:1010D000060E0001E16FE26BEBC0E5F0EBC0E6F05D
:1010E00055DD000907E0100E0001E16FE26B000121
:1010F0001E0EE86F53DD000904E00001E169010EF6
:10110000E26F5CDD000901E166D1050E0001E16FCF
:10111000E26BE9C0E5F0F3C0E6F01200E7DCDEDCEC
:10112000FDDC24DD0BDD1ADDC80EE66E380EE66E42
:10113000E66AE66A9CEC12F0E552E552E552E552A9
:10114000E8C010F0116A126A136AE8C0E6FF11C025
:10115000E6FF12C0E6FF13C0E6FF0D0EE66EE66A7C
:1011600075EC11F0146E060EE15E1450D50EE66EAD
:10117000380EE66EE66A010EE66E9CEC12F0E55261
:10118000E552E552E552E8C010F0116A126A136A9E
:10119000E8C0E6FF11C0E6FF12C0E6FF13C0E6FF9D
:1011A0000D0EE66E010EE66E75EC11F0146E060E75
:1011B000E15E14500001E851000808E3690E0001E7
:1011C000E16FE26BEDC0E5F0EFC0E6F0DFDC0009B7
:1011D00007E0730E0001E16FE26B00011E0EE86F85
:1011E000DDDC000904E00001E169010EE26FE6DCEC
:1011F000000901E1F0D0E6D099DCC0DCAFDC86DC90
:101200006DDC7CDCBE0EE66E380EE66EE66AE66AE3
:101210009CEC12F0E552E552E552E552E8C010F0C0
:10122000116A126A136AE8C0E6FF11C0E6FF12C035
:10123000E6FF13C0E6FF0D0EE66EE66A75EC11F0F0
:10124000146E060EE15E1450B20EE66E380EE66EB7
:10125000E66A010EE66E9CEC12F0E552E552E552AC
:10126000E552E8C010F0116A126A136AE8C0E6FF9E
:1012700011C0E6FF12C0E6FF13C0E6FF0D0EE66EDA
:10128000010EE66E75EC11F0146E060EE15E145060
:101290000001E851000808E36A0E0001E16FE26B0B
:1012A000F1C0E5F0F1C0E6F071DC000907E0740E72
:1012B0000001E16FE26B00011E0EE86F6FDC0009B8
:1012C00004E00001E169010EE26F78DC000901E150
:1012D00082D0690E0001E16FE26BEDC0E5F0EFC076
:1012E000E6F0120033DC2ADC49DC10DC6EEC05F0A1
:1012F0007EEC05F0BE0EE66E380EE66EE66AE66A35
:101300009CEC12F0E552E552E552E552E8C010F0CF
:10131000116A126A136AE8C0E6FF11C0E6FF12C044
:10132000E6FF13C0E6FF0D0EE66EE66A75EC11F0FF
:10133000146E060EE15E1450A50EE66E380EE66ED3
:10134000E66A010EE66E9CEC12F0E552E552E552BB
:10135000E552E8C010F0116A126A136AE8C0E6FFAD
:1013600011C0E6FF12C0E6FF13C0E6FF0D0EE66EE9
:10137000010EE66E75EC11F0146E060EE15E14506F
:101380000001E85108E1050E0001E16FE26BE9C0E0
:10139000E5F0EDC0E6F0C6EC05F0000907E00F0E41
:1013A0000001E16FE26B00011E0EE86FCEEC05F06C
:1013B000000904E00001E169010EE26FDEEC05F0D6
:1013C000000909E0060E0001E16FE26BEBC0E5F0F9
:1013D000EBC0E6F0120012001B0E0001E11901E162
:1013E000E25101E133D11A0EE11901E1E25101E1CB
:1013F0009CD0190EE11901E1E25109E0E868E11918
:1014000002E1010EE21901E01200190E88D000017C
:10141000E70509E186EC05F06EEC05F07EEC05F0E1
:10142000B6EC05F008D08EEC05F06EEC05F07EEC25
:1014300005F0BEEC05F09EEC05F0AEEC05F0E6EC38
:1014400005F0000907E000011E0EE86F0001ED2B1A
:10145000000EEE23EEEC05F0000907E000011E0E81
:10146000E86F0001ED07000EEE5B0001000ED88072
:10147000ED55000EEE5506E2E70ED880ED55030E51
:10148000EE5504E2010E0001E36FE46B0001E3514D
:10149000E4112AE1EDC0F3F0EEC0F4F09D0EE66E2B
:1014A000380EE66EE66A010EE66E9CEC12F0E5522E
:1014B000E552E552E552EDC010F0EEC011F0126AAF
:1014C000136AEDC0E6FFEEC0E6FF12C0E6FF13C0F0
:1014D000E6FF0D0EE66E010EE66E75EC11F0146E71
:1014E000060EE15E14500ED03FEC05F00001E9510C
:1014F0000001EB250001ED6F0001EA510001EC2134
:101500000001EE6F0001E85103E10001E169E26BC7
:10151000C6EC05F0000901E129D11A0E0001E16FC6
:10152000E26B00011E0EE86F12000001E70509E101
:1015300086EC05F06EEC05F07EEC05F0B6EC05F0FF
:1015400008D08EEC05F06EEC05F07EEC05F0BEECFC
:1015500005F09EEC05F0AEEC05F0E6EC05F00009B8
:1015600007E000011E0EE86F0001E92B000EEA23E0
:10157000EEEC05F0000907E000011E0EE86F000127
:10158000E907000EEA5B0001000ED880E955000E65
:10159000EA5506E2E70ED880E955030EEA5504E263
:1015A000010E0001E36FE46B0001E351E4112AE155
:1015B000E9C0EFF0EAC0F0F0930EE66E380EE66E8A
:1015C000E66A010EE66E9CEC12F0E552E552E55239
:1015D000E552E9C010F0EAC011F0126A136AE9C0DE
:1015E000E6FFEAC0E6FF12C0E6FF13C0E6FF0D0EFD
:1015F000E66E010EE66E75EC11F0146E060EE15EFD
:10160000145006D03FEC05F00A0E0001E96FEA6BBA
:101610000001E851000803E30001E169E26BC6EC58
:1016200005F0000907E000011E0EE86F1B0E000127
:10163000E16FE26BD6EC05F0000901E197D0000103
:101640001E0EE86F190E0001E16F8ED00001E70554
:1016500009E186EC05F06EEC05F07EEC05F0B6ECE9
:1016600005F008D08EEC05F06EEC05F07EEC05F090
:10167000BEEC05F09EEC05F0AEEC05F00001E95182
:101680000001ED5D0001EB6F0001EA510001EE5930
:101690000001EC6F000ED880EB55000EEC5506E211
:1016A000E70ED880EB55030EEC5504E2010E000165
:1016B000E36FE46B0001E351E4112AE1EBC0F1F0C8
:1016C000ECC0F2F0880EE66E380EE66EE66A010EA9
:1016D000E66E9CEC12F0E552E552E552E552EBC0A5
:1016E00010F0ECC011F0126A136AEBC0E6FFECC018
:1016F000E6FF12C0E6FF13C0E6FF0D0EE66E010E18
:10170000E66E75EC11F0146E060EE15E145015D005
:101710003FEC05F0050E0001EB6FEC6BE8500001AB
:10172000E9250001ED6F0001EC510001EA21000103
:10173000EE6FEDC0F3F0E8CFF4F00001E85103E103
:101740000001E169E26BD6EC05F0000907E0000159
:101750001E0EE86F1A0E0001E16FE26B0AEC06F054
:0E176000000904E00001E169E26B12001200D2
:02176E00D9CFD1
:10177000E6FFE1CFD9FF040EE126DE6ADD6ADECFA7
:1017800010F0DDCF11F0126A136A11AE02D01268A8
:101790001368D950FB0FE96EFF0EDA20EA6EEE50A7
:1017A000105CEE501158EE501258EE5013581DE2D6
:1017B000020EDB6A030EDB6A020EDBCF10F0030EB3
:1017C000DBCF11F0D890115004E6050E105C000E2E
:1017D000115806E2020EDB2A030EEEE3DB2AECD7F9
:1017E000DF2A010ECCE3DB2ACAD7040EE15C02E259
:1017F000E16AE552E16EE552E7CFD9FF1200D9CF99
:10180000E6FFE1CFD9FF040EE126DE6ADD6ADECF16
:1018100010F0DDCF11F0126A136A11AE02D0126817
:101820001368D950FB0FE96EFF0EDA20EA6EEE5016
:10183000105CEE501158EE501258EE5013581DE245
:10184000020EDB6A030EDB6A020EDBCF10F0030E22
:10185000DBCF11F0D890115004E6EE0E105C000EB4
:10186000115806E2020EDB2A030EEEE3DB2AECD768
:10187000DF2A010ECCE3DB2ACAD7040EE15C02E2C8
:10188000E16AE552E16EE552E7CFD9FF1200D9CF08
:10189000E6FFE1CFD9FF0F0E8116FE0EDB50F00BF5
:1018A00081128186010EE66EE66AE66AE66AA7DFC5
:1018B000E552E552E552E5528196010EE66EE66A82
:1018C000E66AE66A9CDFE552E552E552E5520F0E04
:1018D0008116FE0EDB38F00B81128186010EE66E5A
:1018E000E66AE66AE66A8BDFE552E552E552E552C2
:1018F0008196010EE66EE66AE66AE66A80DFE552E8
:10190000E552E552E552E552E7CFD9FF1200D9CFB3
:10191000E6FFE1CFD9FFE652190EE66EE66AE66A07
:10192000E66A6DDFE552E552E552E5520F0E81168B
:10193000F80E81160F0E8116300E81128186010E6F
:10194000E66EE66AE66AE66A5ADFE552E552E55275
:10195000E5528196010EE66EE66AE66AE66A4FDFB8
:10196000E552E552E552E5520F0E8116300E811216
:101970008186010EE66EE66AE66AE66A40DFE552B7
:10198000E552E552E5528196010EE66EE66AE66A98
:10199000E66A35DFE552E552E552E5520F0E811653
:1019A000300E81128186010EE66EE66AE66AE66A0C
:1019B00026DFE552E552E552E5528196010EE66ECC
:1019C000E66AE66AE66A1BDFE552E552E552E55251
:1019D0000F0E8116818A8186010EE66EE66AE66A3E
:1019E000E66A0DDFE552E552E552E5528196010EB9
:1019F000E66EE66AE66AE66A02DFE552E552E5521D
:101A0000E552280EE66E43DFE5520C0EE66E3FDF30
:101A1000E552E552E552E7CFD9FF1200D9CFE6FFF4
:101A2000E1CFD9FF020EE126DF6A010EDB6A819465
:101A30000F0EE66EE66AE66AE66A99DEE552E55260
:101A4000E552E5520F0E81128186E66EE66AE66A7D
:101A5000E66A8DDEE552E552E552E5520F0E81143D
:101A6000E76E010EE7CFDBFF81960F0EE66EE66AAA
:101A7000E66AE66A7CDEE552E552E552E5520F0E73
:101A800081128186E66EE66AE66AE66A70DEE552F3
:101A9000E552E552E5520F0E8114DF6E010EDB5068
:101AA000DF128196010EE66EE66AE66AE66A5FDE9E
:101AB000E552E552E552E552DF50106E020EE15C50
:101AC00002E2E16AE552E16E1050E552E7CFD9FF3C
:101AD0001200D9CFE6FFE1CFD9FFE652DF6A9EDFE1
:101AE000DF6EDFBEFCD7DF50E552E552E7CFD9FF0E
:101AF0001200D9CFE6FFE1CFD9FF0F0E8116FE0EFF
:101B0000DB5081128186050EE66EE66AE66AE66AB9
:101B10002EDEE552E552E552E5528196050EE66E5F
:101B2000E66AE66AE66A23DEE552E552E552E552E8
:101B3000E552E7CFD9FF1200D9CFE6FFE1CFD9FFB9
:101B40008194050EE66EE66AE66AE66A10DEE55204
:101B5000E552E552E552FE0EDBCFE6FFCADFE55265
:101B6000FE0EDB38F00BE66EC4DFE552E552E7CF40
:101B7000D9FF1200D9CFE6FFE1CFD9FF8184050E4E
:101B8000E66EE66AE66AE66AF2DDE552E552E5529D
:101B9000E552FE0EDBCFE6FFACDFE552FE0EDB3892
:101BA000F00BE66EA6DFE5528194E552E7CFD9FF50
:101BB0001200D9CFE6FFE1CFD9FFFE0EDBCFE6FF63
:101BC000D9DFE552E552E7CFD9FF1200D9CFE6FFC2
:101BD000E1CFD9FFFE0EDBCFE6FFCCDFE552E552C9
:101BE000E7CFD9FF1200D9CFE6FFE1CFD9FFFD0E35
:101BF000DBCFF6FFFE0EDBCFF7FF0800F5500FE05E
:101C0000FD0EDBCFF6FFDB2AFE0EDBCFF7FF01E395
:101C1000DB2A0800F550E66ED9DFE552E8D7E55239
:101C2000E7CFD9FF1200D9CFE6FFE1CFD9FFE652C7
:101C3000FD0EDB500F0B106EFE0EDB50010B400D46
:101C4000F3501024DF6E7F0EDF14800FDF6EDFCFC6
:101C5000E6FF72DFE552E552E552E7CFD9FF120009
:101C6000010EE66E69DFE552E66AE66ADCDFE55200
:101C7000E5521200D9CFE6FFE1CFD9FF050EE126EC
:101C8000010EF36EDB6E020EDB6A030EDB6A040EDE
:101C9000DB6ADF6ADFCF10F0116A10BE1168FB0E3D
:101CA000DBCF12F0FC0EDBCF13F011501318E8AEAF
:101CB00002D0133404D01250105C135011582DE28E
:101CC000FD0EDBCF10F0FE0EDBCF11F0126A136AAF
:101CD00011AE02D012681368D950010FE96EDACF45
:101CE000EAFF10C00BF011C00CF012C00DF013C0D1
:101CF0000EF0EECF06F0EECF07F0EECF08F0EFCF0C
:101D000009F082EC1CF005C0EDFF04C0EDFF03C03C
:101D1000EDFF02C0EFFFDF2ABDD7010EDBCF10F0D1
:101D2000020EDBCF11F0030EDBCF12F0040EDBCF7F
:101D300013F010C006F011C007F012C008F013C075
:101D400009F0050EE15C02E2E16AE552E16EE5525E
:101D5000E7CFD9FF1200D9CFE6FFE1CFD9FF020EBE
:101D6000E126DF6AFB0EDBCF10F0FC0EDBCF11F0BB
:101D7000FD0EDBCF12F0FE0EDBCF13F01050111072
:101D80001210131005E1300EE66E20DFE552F4D09C
:101D9000D950FB0FE96EFF0EDA20EA6ED890030EE1
:101DA000EB50000A08E6000EEE5C000EEE58000E46
:101DB000EE58000EEE5815E22D0EE66E07DFE552E6
:101DC000D950FB0FE96EFF0EDA20EA6E000EEE6CC2
:101DD000EF1EEE22EF1EEE22EF1EEF22ED52ED522D
:101DE000ED52DE52070EDD6E010EDBCF10F0000E5D
:101DF000E76E1018E8AE02D0103403D0E750D88058
:101E0000105401E3B9D0010EDB04146E156A14BE40
:101E1000156814C0E6FF15C0E6FF0A0EE66EE66A16
:101E200029DFE552E552E552E55206C010F007C041
:101E300011F008C012F009C013F006C00BF007C083
:101E40000CF008C00DF009C00EF0FB0EDBCF06F061
:101E5000FC0EDBCF07F0FD0EDBCF08F0FE0EDBCF74
:101E600009F0BAEC1CF0065007100810091041E008
:101E7000010EDF6EDB04186E196A18BE196818C0EF
:101E8000E6FF19C0E6FF0A0EE66EE66AF3DEE552EB
:101E9000E552E552E55206C014F007C015F008C03F
:101EA00016F009C017F006C00BF007C00CF008C010
:101EB0000DF009C00EF0FB0EDBCF06F0FC0EDBCF01
:101EC00007F0FD0EDBCF08F0FE0EDBCF09F0BAEC19
:101ED0001CF006C010F007C011F008C012F009C0D5
:101EE00013F0300E1026000E112212221322105071
:101EF00003D0DF5004E0300EE66E68DEE552010EDE
:101F0000DB04146E156A14BE156814C0E6FF15C014
:101F1000E6FF0A0EE66EE66AADDEE552E552E552F0
:101F2000E55206C010F007C011F008C012F009C059
:101F300013F0D950FB0FE96EFF0EDA20EA6E06C0EF
:101F40000BF007C00CF008C00DF009C00EF0EECF8A
:101F500006F0EECF07F0EECF08F0EFCF09F0BAECC5
:101F60001CF005C0EDFF04C0EDFF03C0EDFF02C093
:101F7000EFFF010EDB0638D7020EE15C02E2E16AF8
:101F8000E552E16EE552E7CFD9FF1200D9CFE6FF67
:101F9000E1CFD9FFFD0EDBCFE6FFFE0EDBCFE6FF84
:101FA00042DEE552E552D950F90FE96EFF0EDA2014
:101FB000EA6EEECFE6FFEECFE6FFEECFE6FFEFCF25
:101FC000E6FFC9DEE552E552E552E552E552E7CFBC
:101FD000D9FF1200D9CFE6FFE1CFD9FFFD0EDBCF4D
:101FE000E6FFFE0EDBCFE6FF1EDEE552E552FB0EFE
:101FF000DBCFE6FFFC0EDBCFE6FFF5DDE552E55279
:10200000E552E7CFD9FF1200D9CFE6FFE1CFD9FFE4
:102010007BCF10F07CCF11F0040ED8901036113623
:10202000E806FBE1C10E1026000E112210500F0130
:102030007D25E96E11507E21EA6EFE0EDBCFEFFFAB
:102040007D2B000E7E23E552E7CFD9FF1200D9CFBA
:10205000E6FFE1CFD9FFE652DF6ADFCF10F0100EC6
:10206000E76E1018E8AE02D0E73402D0E750105CFB
:1020700018E2DFCFE9FFEA6AE9BEEA68C10EE926A5
:10208000000EEA22200EEF6EDFCFE9FFEA6AE9BE1A
:10209000EA68D10EE926000EEA22200EEF6EDF2A52
:1020A000DCD7E552E552E7CFD9FF1200D9CFE6FFE2
:1020B000E1CFD9FFE6520001C051030A52E0010A04
:1020C00036E0030A1AE0010A67E1E66AE66AABDD78
:1020D000E552E552DF6A080EDF5C0CE2DF50EA6A87
:1020E000C10FE96E000EEA22EF50E66E6FDDE55299
:1020F000DF2AF1D70001010E32D0080EE66EE66A43
:1021000092DDE552E552DF6A080EDF5C0DE2080E53
:10211000DF24EA6AC10FE96E000EEA22EF50E66E94
:1021200055DDE552DF2AF0D70001020E18D0E66A2D
:10213000010EE66E78DDE552E552DF6A080EDF5CDF
:102140000CE2DF50EA6AD10FE96E000EEA22EF508E
:10215000E66E3CDDE552DF2AF1D70001030EC06FC9
:102160001CD0080EE66E010EE66E5DDDE552E5520E
:10217000DF6A080EDF5C0DE2080EDF24EA6AD10F89
:10218000E96E000EEA22EF50E66E20DDE552DF2A0E
:10219000F0D70001C06B01D0C06BE552E552E7CF2C
:1021A000D9FF1200D9CFE6FFE1CFD9FFE6520001F7
:1021B000C051010A1BE0010A32E1E66AE66A33DD3A
:1021C000E552E552DF6A100EDF5C0CE2DF50EA6A8E
:1021D000C10FE96E000EEA22EF50E66EF7DCE55221
:1021E000DF2AF1D70001010EC06F1AD0E66A010E96
:1021F000E66E19DDE552E552DF6A100EDF5C0CE297
:10220000DF50EA6AD10FE96E000EEA22EF50E66E67
:10221000DDDCE552DF2AF1D70001C06B01D0C06BD5
:10222000E552E552E7CFD9FF1200D9CFE6FFE1CF63
:10223000D9FFE652E66AE66AF6DCE552E552DF6A65
:10224000100EDF5C0CE2DF50EA6AC10FE96E000E8F
:10225000EA22EF50E66EBADCE552DF2AF1D7E66AF1
:10226000010EE66EE0DCE552E552DF6A100EDF5C3F
:102270000CE2DF50EA6AD10FE96E000EEA22EF505D
:10228000E66EA4DCE552DF2AF1D7E552E552E7CF4E
:10229000D9FF1200D9CFE6FFE1CFD9FFFE0EDB5008
:1022A000010B0F017B6F7C6BFD0EDB500F0B7D6F05
:1022B0007E6B7BCF10F07CCF11F0040ED8901036DF
:1022C0001136E806FBE1C10E1026000E1122105057
:1022D0000F017D25E96E11507E21EA6EFC0EDBCFE9
:1022E000EFFFE552E7CFD9FF1200D9CFE6FFE1CFEC
:1022F000D9FF020EE126DF6AFE0EDB50010B0F0153
:102300007B6F7C6BFD0EDB500F0B7D6F7E6BF90ED0
:10231000DBCF10F0FA0EDBCF11F0FB0EDBCF12F0AB
:10232000FC0EDBCF13F0105011101210131005E14A
:10233000300EE66E69DEE552F5D0D950F90FE96E40
:10234000FF0EDA20EA6ED890030EEB50000A08E682
:10235000000EEE5C000EEE58000EEE58000EEE5829
:1023600015E22D0EE66E50DEE552D950F90FE96EFA
:10237000FF0EDA20EA6E000EEE6CEF1EEE22EF1E6C
:10238000EE22EF1EEF22ED52ED52ED52DE52070E1D
:10239000DD6E010EDBCF10F0000EE76E1018E8AE18
:1023A00002D0103403D0E750D880105401E3BAD0E3
:1023B000010EDB04146E156A14BE156814C0E6FF26
:1023C00015C0E6FF0A0EE66EE66A54DCE552E552F9
:1023D000E552E55206C010F007C011F008C012F037
:1023E00009C013F006C00BF007C00CF008C00DF0D8
:1023F00009C00EF0F90EDBCF06F0FA0EDBCF07F0C6
:10240000FB0EDBCF08F0FC0EDBCF09F0BAEC1CF0C2
:10241000065007100810091041E0010EDF6EDB04C2
:10242000186E196A18BE196818C0E6FF19C0E6FFD1
:102430000A0EE66EE66A1EDCE552E552E552E5520A
:1024400006C014F007C015F008C016F009C017F058
:1024500006C00BF007C00CF008C00DF009C00EF06C
:10246000F90EDBCF06F0FA0EDBCF07F0FB0EDBCF69
:1024700008F0FC0EDBCF09F0BAEC1CF006C010F03F
:1024800007C011F008C012F009C013F0300E10267A
:10249000000E112212221322105003D0DF5004E04C
:1024A000300EE66EB1DDE552010EDB04146E156AE6
:1024B00014BE156814C0E6FF15C0E6FF0A0EE66EEE
:1024C000E66A3AEC0EF0E552E552E552E55206C0F6
:1024D00010F007C011F008C012F009C013F0D95075
:1024E000F90FE96EFF0EDA20EA6E06C00BF007C0A6
:1024F0000CF008C00DF009C00EF0EECF06F0EECFE4
:1025000007F0EECF08F0EFCF09F0BAEC1CF005C0F1
:10251000EDFF04C0EDFF03C0EDFF02C0EFFF010EB1
:10252000DB0637D7020EE15C02E2E16AE552E16EBA
:10253000E552E7CFD9FF1200D9CFE6FFE1CFD9FFAF
:10254000FE0EDB50010B0F017B6F7C6BFD0EDB5031
:102550000F0B7D6F7E6BFB0EDBCFF6FFFC0EDBCF30
:10256000F7FF0800F5500FE0FB0EDBCFF6FFDB2A8C
:10257000FC0EDBCFF7FF01E3DB2A0800F550E66E27
:0E25800043DDE552E8D7E552E7CFD9FF120060
:02258E00B06A31
:10259000810EAF6EAC8AAC94B886AC98AB8EAB882B
:1025A0009E9A9D8A9F9A949C948E1200D9CFE6FFA2
:1025B000E1CFD9FF040EE126DE6ADD6ADECF10F03E
:1025C000DDCF11F0FD0EDBCF12F0FE0EDBCF13F0EE
:1025D00011501318E8AE02D0133404D01250105C1E
:1025E000135011581DE2020EDB6A030EDB6A020E65
:1025F000DBCF10F0030EDBCF11F0D890115004E6C2
:10260000EE0E105C000E115806E2020EDB2A030EDD
:10261000EEE3DB2AECD7DF2A010ED0E3DB2ACED7AC
:10262000040EE15C02E2E16AE552E16EE552E7CFB9
:10263000D9FF1200D9CFE6FFE1CFD9FF9EA8FED780
:10264000FE0EDB50AD6E9E98E552E7CFD9FF12002B
:10265000D9CFE6FFE1CFD9FFFD0EDBCFE9FFFE0EBC
:10266000DBCFEAFFEF5010E0FD0EDBCFE9FFFE0EFF
:10267000DBCFEAFFEF50E66EDDDFE552FD0EDB2A31
:10268000FE0EEAE3DB2AE8D7E552E7CFD9FF1200D6
:10269000D9CFE6FFE1CFD9FFFD0EDBCFF6FFFE0E6F
:1026A000DBCFF7FF0800F55015E0FD0EDBCFF6FF9E
:1026B000FE0EDBCFF7FF0800F550E66EBBDFE552FC
:1026C000FD0EDBCFF6FFDB2AFE0EDBCFF7FFE4E3E8
:1026D000DB2AE2D7E552E7CFD9FF1200D9CFE6FFD8
:1026E000E1CFD9FFE652AE50DF6EDFCFF6F1E55213
:1026F000E552E7CFD9FF1200D9CFE6FFE1CFD9FFEE
:10270000E66898DFE552E66895DFE552FE0EDBCF1E
:10271000E6FF90DFE552FD0EDBCF10F0FE0EDBCFC3
:1027200011F00D6A010E0E6E10C008F011C009F014
:102730005CEC1BF004C010F005C011F00450E66E14
:1027400079DFE552FC0EDBCFE6FF74DFE552FB0ECE
:10275000DBCF10F0FC0EDBCF11F00D6A010E0E6E18
:1027600010C008F011C009F05CEC1BF004C010F0C0
:1027700005C011F00450E66E5DDFE552FA0EDBCFC6
:10278000E6FF58DFE552F90EDBCF10F0FA0EDBCF93
:1027900011F00D6A010E0E6E10C008F011C009F0A4
:1027A0005CEC1BF004C010F005C011F00450E66EA4
:1027B00041DFE552F80EDBCFE6FF3CDFE552F70ED6
:1027C000DBCF10F0F80EDBCF11F00D6A010E0E6EAC
:1027D00010C008F011C009F05CEC1BF004C010F050
:1027E00005C011F00450E66E25DFE552FE0EE66EE0
:1027F00021DFE552FE0EE66E1DDFE552E552E7CF22
:10280000D9FF1200D9CFE6FFE1CFD9FF020EE126B2
:10281000DF6AFB0EDBCF10F0FC0EDBCF11F0FD0EFC
:10282000DBCF12F0FE0EDBCF13F0105011101210A0
:10283000131005E1300EE66EFDDEE552F4D0D950FE
:10284000FB0FE96EFF0EDA20EA6ED890030EEB5014
:10285000000A08E6000EEE5C000EEE58000EEE5880
:10286000000EEE5815E22D0EE66EE4DEE552D9506C
:10287000FB0FE96EFF0EDA20EA6E000EEE6CEF1E23
:10288000EE22EF1EEE22EF1EEF22ED52ED52ED5240
:10289000DE520A0EDD6E010EDBCF10F0000EE76E89
:1028A0001018E8AE02D0103403D0E750D88010548E
:1028B00001E3B9D0010EDB04146E156A14BE15686D
:1028C00014C0E6FF15C0E6FF0A0EE66EE66AB5D84C
:1028D000E552E552E552E55206C010F007C011F08E
:1028E00008C012F009C013F006C00BF007C00CF0CE
:1028F00008C00DF009C00EF0FB0EDBCF06F0FC0E99
:10290000DBCF07F0FD0EDBCF08F0FE0EDBCF09F0CA
:10291000BAEC1CF0065007100810091041E0010E37
:10292000DF6EDB04186E196A18BE196818C0E6FF5E
:1029300019C0E6FF0A0EE66EE66A7FD8E552E55258
:10294000E552E55206C014F007C015F008C016F0B5
:1029500009C017F006C00BF007C00CF008C00DF05E
:1029600009C00EF0FB0EDBCF06F0FC0EDBCF07F04C
:10297000FD0EDBCF08F0FE0EDBCF09F0BAEC1CF049
:1029800006C010F007C011F008C012F009C013F023
:10299000300E1026000E112212221322105003D0E6
:1029A000DF5004E0300EE66E45DEE552010EDB043A
:1029B000146E156A14BE156814C0E6FF15C0E6FF54
:1029C0000A0EE66EE66A39D8E552E552E552E5525E
:1029D00006C010F007C011F008C012F009C013F0D3
:1029E000D950FB0FE96EFF0EDA20EA6E06C00BF03D
:1029F00007C00CF008C00DF009C00EF0EECF06F0D5
:102A0000EECF07F0EECF08F0EFCF09F0BAEC1CF0F4
:102A100005C0EDFF04C0EDFF03C0EDFF02C0EFFFF6
:102A2000010EDB0638D7020EE15C02E2E16AE552F4
:102A3000E16EE552E7CFD9FF1200D9CFE6FFE1CF33
:102A4000D9FF050EE126010EF36EDB6E020EDB6A86
:102A5000030EDB6A040EDB6ADF6ADFCF10F0116A57
:102A600010BE1168FB0EDBCF12F0FC0EDBCF13F0B3
:102A700011501318E8AE02D0133404D01250105C79
:102A8000135011582DE2FD0EDBCF10F0FE0EDBCF00
:102A900011F0126A136A11AE02D012681368D9508D
:102AA000010FE96EDACFEAFF10C00BF011C00CF095
:102AB00012C00DF013C00EF0EECF06F0EECF07F00F
:102AC000EECF08F0EFCF09F082EC1CF005C0EDFF6F
:102AD00004C0EDFF03C0EDFF02C0EFFFDF2ABDD74A
:102AE000010EDBCF10F0020EDBCF11F0030EDBCFB7
:102AF00012F0040EDBCF13F010C006F011C007F087
:102B000012C008F013C009F0050EE15C02E2E16AB0
:0C2B1000E552E16EE552E7CFD9FF12005C
:042B1C00D9CFE6FF28
:102B2000E1CFD9FFD59EFD0EDBCF51FFFE0EDBCFEF
:102B300052FFD59C13681468156A51CF16F052CF16
:102B400017F0186A1650135C106E17501458116E57
:102B500018501558126E0C6A010E0D6E0E6A10C0D8
:102B600007F011C008F012C009F082EC1BF003500E
:102B7000D66E13681468156A51CF16F052CF17F04D
:102B8000186A1650135C106E17501458116E1850B6
:102B90001558126E0C6A010E0D6E0E6A10C007F009
:102BA00011C008F012C009F082EC1BF007C010F051
:102BB00008C011F009C012F00750D76ED59AD5861B
:102BC000F28AF294F184D58EE552E7CFD9FF120054
:102BD000D59E120013681468156A51CF16F052CFB3
:102BE00017F0186A1650135C106E17501458116EB7
:102BF00018501558126E0C6A010E0D6E0E6A10C038
:102C000007F011C008F012C009F082EC1BF003506D
:102C1000D66E13681468156A51CF16F052CF17F0AC
:102C2000186A1650135C106E17501458116E185015
:102C30001558126E0C6A010E0D6E0E6A10C007F068
:102C400011C008F012C009F082EC1BF007C010F0B0
:102C500008C011F009C012F00750D76ED58E1200CF
:102C6000D9CFE6FFE1CFD9FFCD90FD0EDBCF53FFEB
:102C7000FE0EDBCF54FF13681468156A53CF16F0AD
:102C800054CF17F0186A1650135C106E1750145872
:102C9000116E18501558126E0C6A010E0D6E0E6AE8
:102CA00010C007F011C008F012C009F082EC1BF050
:102CB0000750CF6E13681468156A53CF16F054CFBF
:102CC00017F0186A1650135C106E17501458116ED6
:102CD00018501558126E0C6A010E0D6E0E6A10C057
:102CE00007F011C008F012C009F082EC1BF003C01D
:102CF00010F004C011F005C012F00350CE6E9D809C
:102D00009E909F90CD8ECD8CCD98CD9ACD96CD9224
:102D1000CD80E552E7CFD9FF120013681468156A19
:102D200053CF16F054CF17F0186A1650135C106E7C
:102D300017501458116E18501558126E0C6A010E67
:102D40000D6E0E6A10C007F011C008F012C009F035
:102D500082EC1BF00750CF6E13681468156A53CFCE
:102D600016F054CF17F0186A1650135C106E1750F7
:102D70001458116E18501558126E0C6A010E0D6E13
:102D80000E6A10C007F011C008F012C009F082EC02
:102D90001BF003C010F004C011F005C012F0035086
:102DA000CE6ECD801200CD901200D9CFE6FFE1CFDC
:102DB000D9FFCA94CC6AFE0EDB500F01556F566BDB
:102DC000CB6E9D829E929F92CA90CA92CA84E5520F
:102DD000E7CFD9FF120055CFCBFFCA841200CA94A7
:102DE0001200D9CFE6FFE1CFD9FFB190FD0EDBCFC6
:102DF00057FFFE0EDBCF58FF13681468156A57CFD4
:102E000016F058CF17F0186A1650135C106E175052
:102E10001458116E18501558126E0C6A010E0D6E72
:102E20000E6A10C007F011C008F012C009F082EC61
:102E30001BF00750B36E13681468156A57CF16F06D
:102E400058CF17F0186A1650135C106E17501458AC
:102E5000116E18501558126E0C6A010E0D6E0E6A26
:102E600010C007F011C008F012C009F082EC1BF08E
:102E700003C010F004C011F005C012F00350B26E90
:102E8000A082A192A292B18EB198B19AB192B18072
:102E9000E552E7CFD9FF120013681468156A57CFBF
:102EA00016F058CF17F0186A1650135C106E1750B2
:102EB0001458116E18501558126E0C6A010E0D6ED2
:102EC0000E6A10C007F011C008F012C009F082ECC1
:102ED0001BF00350B26E13681468156A57CF16F0D2
:102EE00058CF17F0186A1650135C106E175014580C
:102EF000116E18501558126E0C6A010E0D6E0E6A86
:102F000010C007F011C008F012C009F082EC1BF0ED
:102F100007C010F008C011F009C012F00750B36EDE
:102F2000B1801200B19012000F01612B000E6223DC
:102F30006951615D6A51625904E3616B626B010E14
:102F4000596F12000F01632B000E64236B51635DF8
:102F50006C51645904E3636B646B010E5A6F120089
:102F60000F01652B000E66236D51655D6E5166592C
:102F700004E3656B666B010E5B6F12000F01672B3C
:102F8000000E68236F51675D7051685904E3676BE9
:102F9000686B010E5C6F1200D9CFE6FFE1CFD9FF5D
:102FA000FD0EDBCF69FFFE0EDBCF6AFF0F01616B09
:102FB000626B596BE552E7CFD9FF1200D9CFE6FF1C
:102FC000E1CFD9FFFD0EDBCF6BFFFE0EDBCF6CFF39
:102FD000050E0D6E0E6A6BCF08F06CCF09F05CEC3D
:102FE0001BF008C06BFF09C06CFF0F01636B646BC3
:102FF0005A6BE552E7CFD9FF1200D9CFE6FFE1CFF8
:10300000D9FFFD0EDBCF6FFFFE0EDBCF70FF0A0E88
:103010000D6E0E6A6FCF08F070CF09F05CEC1BF0FC
:1030200008C06FFF09C070FF0F01676B686B5C6BB6
:08303000E552E7CFD9FF1200C1
:083038000F0E946E8268120075
:10304000CF0E9414946E82681200D9CFE6FFE1CFC0
:10305000D9FF040EE126DE6ADD6ADECF10F0DDCF97
:1030600011F0D890115004E6040E105C000E1158B7
:1030700001E390D0DECFE9FFDDCFEAFF490EE9267C
:103080000F0EEA22EF1C826E020EDB6A030EDB6A71
:10309000020EDBCF10F0030EDBCF11F0D8901150F1
:1030A00004E6040E105C000E11586EE2020EDBCF37
:1030B000E9FF030EDBCFEAFF4D0EE9260F0EEA22F1
:1030C000EF5082143FE1DECF14F0DDCF15F0D89041
:1030D00014361536D89014361536020EDB501424EB
:1030E000E96E030EDB501520EA6ED890E936EA3619
:1030F000290EE9260F0EEA22EECF12F0EFCF13F0E1
:10310000010E1226000E1322DECF10F0DDCF11F0DB
:10311000D89010361136D89010361136020EDB508A
:103120001024E96E030EDB501120EA6ED890E936C8
:10313000EA36290EE9260F0EEA2212C0EEFF13C06E
:10314000EDFF1BD0DECF10F0DDCF11F0D8901036A0
:103150001136D89010361136020EDB501024E96E6D
:10316000030EDB501120EA6ED890E936EA36290EBC
:10317000E9260F0EEA22EE6AED6A020EDB2A030E42
:1031800001E286D7DB2A84D7DF2A010E01E265D768
:10319000DB2A63D7040EE15C02E2E16AE552E16EEC
:1031A000E552E7CFD9FF1200D9CFE6FFE1CFD9FF33
:1031B000040EE126DE6ADD6ADECF10F0DDCF11F00D
:1031C000D890115004E6020E105C000E115801E375
:1031D00090D0DECFE9FFDDCFEAFF490EE9260F0EE2
:1031E000EA22EF1C826E020EDB6A030EDB6A020E1D
:1031F000DBCF10F0030EDBCF11F0D890115004E6B6
:10320000040E105C000E11586EE2020EDBCFE9FFD7
:10321000030EDBCFEAFF4D0EE9260F0EEA22EF5038
:1032200082143FE1DECF14F0DDCF15F0D8901436D4
:103230001536D89014361536020EDB501424E96E7C
:10324000030EDB501520EA6ED890E936EA36290ED7
:10325000E9260F0EEA22EECF12F0EFCF13F0010EA7
:103260001226000E1322DECF10F0DDCF11F0D89021
:1032700010361136D89010361136020EDB5010245D
:10328000E96E030EDB501120EA6ED890E936EA367B
:10329000290EE9260F0EEA2212C0EEFF13C0EDFF41
:1032A0001BD0DECF10F0DDCF11F0D89010361136E4
:1032B000D89010361136020EDB501024E96E030E42
:1032C000DB501120EA6ED890E936EA36290EE9265D
:1032D0000F0EEA22EE6AED6A020EDB2A030E01E20D
:1032E00086D7DB2A84D7DF2A010E01E265D7DB2AE5
:1032F00063D7040EE15C02E2E16AE552E16EE55259
:10330000E7CFD9FF1200D9CFE6FFE1CFD9FF040EF6
:10331000E126DE6ADD6ADECF10F0DDCF11F0FD0EB2
:10332000DBCF12F0FE0EDBCF13F011501318E8AE16
:1033300002D0133404D01250105C135011581DE207
:10334000020EDB6A030EDB6A020EDBCF10F0030E07
:10335000DBCF11F0D890115004E6EE0E105C000E99
:10336000115806E2020EDB2A030EEEE3DB2AECD74D
:10337000DF2A010ED0E3DB2ACED7040EE15C02E2A5
:10338000E16AE552E16EE552E7CFD9FF1200D9CFED
:10339000E6FFE1CFD9FF040EE126DE6ADD6ADECF6B
:1033A00010F0DDCF11F0D890115004E6040E105C3F
:1033B000000E115875E2DECFE9FFDDCFEAFF490EBE
:1033C000E9260F0EEA22EF1C826E020EDB6A030E64
:1033D000DB6A020EDBCF10F0030EDBCF11F0D890CA
:1033E000115004E6040E105C000E11584AE2DECFC4
:1033F00010F0DDCF11F0D89010361136D89010367D
:103400001136020EDB501024E96E030EDB50112042
:10341000EA6ED890E936EA36290EE9260F0EEA223E
:10342000EE6AED6A020EDBCFE9FF030EDBCFEAFFA7
:103430004D0EE9260F0EEA22EF5082141CE1DECF7A
:1034400010F0DDCF11F0D89010361136D89010362C
:103450001136020EDB501024E96E030EDB501120F2
:10346000EA6ED890E936EA36290EE9260F0EEA22EE
:10347000010EEE6EED6A020EDB2A030EAAE3DB2AD2
:10348000A8D78250816EE80EE66E030EE66E3BDF33
:10349000E552E552DF2A010E01E281D7DB2A7FD710
:1034A000040EE15C02E2E16AE552E16EE552E7CF2B
:0434B000D9FF12002E
:0C34B400F28ED08EF28C1200F19CF2928D
:1034C000F2881200D8CFE4FFE0CFE4FFE46EDACF59
:1034D000E4FFE2CFDAFFE9CFE4FFEACFE4FFF6CF83
:1034E000E4FFF7CFE4FFF5CFE4FFF3CFE4FFF4CF41
:1034F000E4FFFACFE4FF00EE00F0100EE80403E36F
:10350000EECFE4FFFBD700EE10F00A0EE80403E371
:10351000EECFE4FFFBD7E652F2A407D0E8EC15F0BB
:10352000F294EAEC15F094EC17F09EA007D0D3ECDF
:1035300016F09E908DEC16F0A2EC17F0A1A207D029
:1035400092EC17F0A1924CEC17F0BEEC17F0F2B22F
:10355000F2929EAA03D09E9A6EEC13F0E55200EE12
:1035600019F00A0EE80403E3E5CFEDFFFBD700EE08
:103570000FF0100EE80403E3E5CFEDFFFBD7E5CF36
:10358000FAFFE5CFF4FFE5CFF3FFE5CFF5FFE5CF99
:10359000F7FFE5CFF6FFE5CFEAFFE5CFE9FFE5CF9F
:1035A000DAFFE550E5CFE0FFE5CFD8FF1000DACF36
:1035B000E4FFE2CFDAFFE9CFE4FFEACFE4FFF6CFA2
:1035C000E4FFF7CFE4FFF5CFE4FFF3CFE4FFF4CF60
:1035D000E4FFFACFE4FF00EE00F0100EE80403E38E
:1035E000EECFE4FFFBD700EE10F00A0EE80403E391
:1035F000EECFE4FFFBD7E652F2A407D0E8EC15F0DB
:10360000F294EAEC15F094EC17F09EA007D0D3ECFE
:1036100016F09E908DEC16F0A2EC17F0A1A207D048
:1036200092EC17F0A1924CEC17F0BEEC17F0F2B24E
:10363000F2929EAA03D09E9A6EEC13F0E55200EE31
:1036400019F00A0EE80403E3E5CFEDFFFBD700EE27
:103650000FF0100EE80403E3E5CFEDFFFBD7E5CF55
:10366000FAFFE5CFF4FFE5CFF3FFE5CFF5FFE5CFB8
:10367000F7FFE5CFF6FFE5CFEAFFE5CFE9FFE5CFBE
:04368000DAFF11005C
:0C368400006A0EAE48EF1BF00E6C001E3A
:1036900009AE4DEF1BF0096C001E2FEC1DF009BEAA
:1036A00057EF1BF000AE000C096C056C000C00BE5F
:1036B00054EF1BF00188FF0C006A0EAE65EF1BF0A3
:1036C0000D6C0E1EE86A0E22001E09AE6DEF1BF097
:1036D000086C091EE86A0922001EFBEC1CF009BEFA
:1036E0007DEF1BF000AE000C086C091EE86A092291
:1036F000046C051EE86A0522000C00BE74EF1BF086
:103700000188FF0C006A0EAE8DEF1BF00C6C0D1ED5
:103710000E1EE86A0D220E22001E09AE97EF1BF066
:10372000076C081E091EE86A08220922001EDEEC4A
:103730001CF009BEAAEF1BF000AE000C076C081EBF
:10374000091EE86A08220922036C041E051E0422D1
:0E3750000522000C00BE9EEF1BF00188FF0C4E
:02375E001E0E3D
:10376000F66E000EF76E000EF86E0F010900F550B0
:10377000766F0900F550776F03E1766701D03DD091
:103780000900F550716F0900F550726F0900F5508E
:10379000736F09000900F550E96E0900F550EA6EF3
:1037A000090009000900F550746F0900F550756FA4
:1037B00009000900F6CF78FFF7CF79FFF8CF7AFF3D
:1037C00071CFF6FF72CFF7FF73CFF8FF0F0174537D
:1037D00002E1755307E00900F550EE6E7407F8E258
:1037E0007507F9D778CFF6FF79CFF7FF7ACFF8FFD3
:0C37F0000F017607000E775BBFD71200B8
:0437FC000F0E926EAC
:103800000B0EC16E040EC06E1200D9CFE6FFE1CFE1
:10381000D9FF020EE126FE0EDB50040DF350C26EFE
:10382000C280C282C2B2FED7C450DE6EDD6ADECF75
:1038300012F0DDCF13F0D89012361336D89012362E
:103840001336060EC3CFE7FF070B04E0E742E79EFF
:10385000E806FCE1E7501224106E000E132010C0A1
:10386000DEFFDD6EDECF10F0DDCF11F010C0F3FF14
:1038700011C0F4FF020EE15C02E2E16AE552E16E82
:08388000E552E7CFD9FF120069
:0838880059454C4C4F573A2002
:10389000202000475245454E3A2020200052454402
:1038A0003A2020200059454C4C4F5720323A2020D6
:1038B0002000475245454E20323A202020005245F4
:1038C0004420313A2020200059454C4C4F5720319C
:1038D0003A2020200052454420323A202020004740
:1038E0005245454E20313A202020004F5554204F5C
:1038F000462052414E47450020202020002E002027
:0339000020200084
:0C39040006500B02F3CF02F0F4CF03F0EA
:103910000C02F3500326000EF420046E06500D0234
:10392000F3500426000EF420056E06500E02F350EC
:10393000052607500B02F3500326F4500422000E14
:10394000052207500C02F3500426F45005220750BC
:103950000D02F350052608500B02F3500426F450D4
:10396000052208500C02F350052609500B02F350B3
:043970000526120016
:0C397400056A046A036A026A200EE76E0E
:10398000D89006360736083609360236033604362E
:1039900005360B50025C0C5003580D5004580E5065
:1039A000055809E30B50025E0C50035A0D50045A9F
:0C39B0000E50055A062AE72EE4D712003C
:0439BC00056A046A2A
:1039C000036A180EE76ED8900736083609360336B4
:1039D000043605360C50035C0D5004580E50055843
:1039E00007E30C50035E0D50045A0E50055A072A87
:0639F000E72EEAD71200E9
:0A39F600056A046A100EE76ED8900F
:103A000008360936043605360D50045C0E5005584C
:103A100005E30D50045E0E50055A082AE72EF0D734
:023A2000120092
:0E3A2200800EF36E00EE00F00F0E01D81200C1
:103A3000EA6002D0EE6AFCD7F350E9601200EE6A49
:023A4000FCD7B1
:0E3A42001EEE00F02EEE00F0F86A019CAFECD4
:0E3A50001BF003EC00F03AEC00F0FBD7120084
:023A5E00056AF7
:103A6000080EE76ED890093605360E50055C02E365
:0A3A7000056E092AE72EF7D71200B1
:063A7A0000000000000046
:103A80000000000000000000000000000000000036
:0A3A90000000010001000100010028
:063A9A00010204081020E7
:103AA00040800000000000000000FF000000000057
:103AB0000000000000000000000000000000000006
:033AC00000000003
:0D3AC30000000000000000001010101010A6
:103AD00010101018181818181818181C1C1C1C1C6A
:103AE0001C1C1C1E1E1E1E1E1E1E1E1F1F1F1F1FF7
:103AF0001F1F1F0000000000000000000000000069
:103B000000000000000000000000000000000000B5
:103B100000000000000000000000000000000000A5
:043B200000000000A1
:0C3B2400FF000000000000000A00050087
:0A3B30000F000A0005000F0000005E
:063B3A0000000000000085
:103B40000000000000000000000000000000000075
:103B50000000000000000000000010204080010272
:023B6000040857
:020000040030CA
:0100010002FC
:0100020003FA
:010003001EDE
:010005008179
:010006008178
:010008000FE8
:01000900C036
:01000A000FE6
:01000B00E014
:01000C000FE4
:01000D0040B2
:00000001FF
