:020000040000FA
:06000000D5EF22F0120012
:020006001200E6
:060008004CEF20F0120095
:02000E000000F0
:0100100000EF
:0400110000000000EB
:06001800D7EF1FF01200FB
:02001E000700D9
:10002000A4460000290F0000280000008C460000B4
:10003000E10000001800000011000000F9000000BD
:10004000040000002B46000080000000610000005A
:1000500002460000000F000029000000E2450000F9
:10006000510F0000200000000E000000FD00000005
:040070000300000089
:0C007400D9CFE6FFE1CFD9FF020EE12654
:10008000DE6ADD6A62D8A5EC13F09CEC15F0E80E90
:10009000E66E030EE66E15D8E552E5520F015C518F
:1000A000FDE05C6B49EC1EF09CEC15F06DEC06F08D
:1000B000ABEC06F0CEEC09F065EC0DF0CBEC15F0F6
:1000C000EDD7D9CFE6FFE1CFD9FF040EE126DE6AF6
:1000D000DD6ADECF10F0DDCF11F0FD0EDBCF12F0C8
:1000E000FE0EDBCF13F011501318E8AE02D013341C
:1000F00004D01250105C135011581DE2020EDB6A3E
:10010000030EDB6A020EDBCF10F0030EDBCF11F023
:10011000D890115004E6EE0E105C000E115806E265
:10012000020EDB2A030EEEE3DB2AECD7DF2A010EF8
:10013000D0E3DB2ACED7040EE15C02E2E16AE552AD
:10014000E16EE552E7CFD9FF1200936A956A926A91
:10015000FCEC11F0836ACFEC1FF0E80EE66E030EA4
:10016000E66EAFDFE552E552570EE66E120EE66E12
:1001700066EC1CF0E552E552320EE66EE66A72EC71
:100180001DF0E552E55295EC1DF03CEC18F0F0EC5A
:1001900021F0030E9310936E1200D9CFE6FFE1CF4A
:1001A000D9FFFE0EDBCF11F0800E11141AE1FD0E07
:1001B000DBCF12F0FE0EDBCF13F0133404E212504B
:1001C0000708000E13540DE3FD0EDBCFE9FFFE0E12
:1001D000DBCFEAFF000EE9260F0EEA22EF50831074
:1001E000836EE552E7CFD9FF1200D9CFE6FFE1CF0A
:1001F000D9FFFE0EDBCF11F0800E11141AE1FD0EB7
:10020000DBCF12F0FE0EDBCF13F0133404E21250FA
:100210000708000E13540DE3FD0EDBCFE9FFFE0EC1
:10022000DBCFEAFF000EE9260F0EEA22EF1C831453
:10023000836EE552E7CFD9FF1200D9CFE6FFE1CFB9
:10024000D9FFFD0EDBCFE9FFFE0EDBCFEAFF080E84
:10025000E9260F0EEA22EF0415E1FD0EDBCFE6FFE3
:10026000FE0EDBCFE6FFC1DFE552E552FD0EDBCF30
:10027000E9FFFE0EDBCFEAFF080EE9260F0EEA22A9
:10028000EF6A15D0FD0EDBCFE6FFFE0EDBCFE6FFFB
:1002900084DFE552E552FD0EDBCFE9FFFE0EDBCF3A
:1002A000EAFF080EE9260F0EEA22010EEF6EE55274
:1002B000E7CFD9FF1200D9CFE6FFE1CFD9FF020E79
:1002C000E126DE6ADD6ADECF10F0DDCF11F01134F9
:1002D00004E210500708000E115421E3DECFE6FFC0
:1002E000DDCFE6FF5ADFE552E552F40EE66E010E71
:1002F000E66EE7DEE552E552DECFE6FFDDCFE6FF54
:1003000074DFE552E552F40EE66E010EE66ED9DEBC
:10031000E552E552DF2A010ED6E3DB2AD4D7020EDE
:10032000E15C02E2E16AE552E16EE552E7CFD9FF16
:1003300012000F01010E291903E12A5101E1010CFC
:10034000000C0F01010E2B1903E12C5101E1010CEE
:10035000000C630EE66E420EE66EE66AE66A11EC8B
:1003600018F0E552E552E552E552F6C110F0116A77
:10037000126A136AF6C1E6FF11C0E6FF12C0E6FF7B
:1003800013C0E6FFE66AE66AEAEC16F0146E060EA3
:10039000E15E14501200D9CFE6FFE1CFD9FF0A0E7B
:1003A000E126E66AF7EC21F0E552F3CF10F0F4CF46
:1003B00011F0126A136A11AE02D012681368060EA9
:1003C00010C0DBFF070E11C0DBFF080E12C0DBFF01
:1003D000090E13C0DBFF060EDBCF06F0070EDBCFE6
:1003E00007F0080EDBCF08F0090EDBCF09F08C0E0A
:1003F0000B6E0C6A0D6A0E6A36EC22F002C006F033
:1004000003C007F004C008F005C009F00B68030E34
:100410000C6E0D6A0E6A6EEC22F0020E06C0DBFF57
:10042000030E07C0DBFF040E08C0DBFF050E09C08A
:10043000DBFF020EDBCFE6FF8FEC18F0E552D95060
:10044000020FE96EDACFEAFF640EEE5C000EEE58A2
:10045000000EEE58000EEE586EE2020EDBCF10F0EA
:10046000030EDBCF11F0040EDBCF12F0050EDBCF55
:1004700013F00A0E0B6E0C6A0D6A0E6A10C006F0BD
:1004800011C007F012C008F013C009F06EEC22F0A2
:1004900006C010F007C011F008C012F009C013F038
:1004A00006C0E6FF07C0E6FF08C0E6FF09C0E6FF9A
:1004B0000A0EE66EE66AEAEC16F0146E060EE15ECF
:1004C0001450610EE66E420EE66E0B0EE66EE66AA4
:1004D00011EC18F0E552E552E552E552020EDBCF81
:1004E00010F0030EDBCF11F0040EDBCF12F0050E7F
:1004F000DBCF13F00A0E0B6E0C6A0D6A0E6A10C089
:1005000006F011C007F012C008F013C009F06EEC3D
:1005100022F002C010F003C011F004C012F005C0B8
:1005200013F002C0E6FF03C0E6FF04C0E6FF05C00B
:10053000E6FF0C0E6DD0020EDBCF10F0030EDBCF0A
:1005400011F0040EDBCF12F0050EDBCF13F00A0E14
:100550000B6E0C6A0D6A0E6A10C006F011C007F02F
:1005600012C008F013C009F06EEC22F006C010F0C3
:1005700007C011F008C012F009C013F006C0E6FF72
:1005800007C0E6FF08C0E6FF09C0E6FF0A0EE66EF8
:10059000E66AEAEC16F0146E060EE15E1450610E87
:1005A000E66E420EE66E0C0EE66EE66A11EC18F090
:1005B000E552E552E552E552020EDBCF10F0030E94
:1005C000DBCF11F0040EDBCF12F0050EDBCF13F002
:1005D0000A0E0B6E0C6A0D6A0E6A10C006F011C08E
:1005E00007F012C008F013C009F06EEC22F002C050
:1005F00010F003C011F004C012F005C013F002C0E7
:10060000E6FF03C0E6FF04C0E6FF05C0E6FF0D0EEF
:10061000E66EE66AEAEC16F0146E060EE15E145021
:100620000A0EE15C02E2E16AE552E16EE552E7CFD3
:10063000D9FF1200D9CFE6FFE1CFD9FFE652DF6A3A
:100640000F012851010A53E0010A01E0D2D01C6BCE
:100650001D6B1E6B1F6BFCD981B210D00F011C2BC0
:10066000000E1D231E231F23D880E80E1C55030EE9
:100670001D55000E1E55000E1F55EEE20F011C6B9E
:100680001D6B1E6B1F6B81A206D01C2B000E1D2341
:100690001E231F23F8D71CCF24FF1DCF25FF1ECFFD
:1006A00026FF1FCF27FF1BCFE9FFEA6AE9BEEA68F2
:1006B000D890E936EA36D890E936EA36A60EE92629
:1006C000010EEA2224CFEEFF25CFEEFF26CFEEFF6C
:1006D00027CFEEFF1B29106E096E140E0E6E34EC40
:1006E00021F005C01BFF0F01010E286F83D0206B86
:1006F000216B226B236BDF6ADFCF10F0140EE76EE5
:100700001018E8AE02D0E73402D0E750105C1DE2CA
:10071000DFCFE9FFEA6AE9BEEA68D890E936EA364F
:10072000D890E936EA36A60EE926010EEA222051D3
:10073000EE24206F2151EE20216F2251EE20226FF6
:100740002351EE20236FDF2AD7D7140E0B6E0C6ACD
:100750000D6A0E6A20CF06F021CF07F022CF08F0F5
:1007600023CF09F06EEC22F006C020FF07C021FF66
:1007700008C022FF09C023FF000EE66EE66A06C02D
:1007800010F007C011F008C012F009C013F0030EFA
:100790000B6E0C6A0D6A0E6A6EEC22F006C010F049
:1007A00007C011F008C012F009C013F006C0E6FF40
:1007B00007C0E6FF20CF14F021CF15F022CF16F0AE
:1007C00023CF17F0640E145E000E155A165A175AEE
:1007D00014C0E6FF15C0E6FF24CFE6FF25CFE6FFF5
:1007E000F1EC18F0186E080EE15E18500F01286B3E
:1007F00001D0286BE552E552E7CFD9FF1200D9CFDF
:10080000E6FFE1CFD9FFE652DF6A0F011A51010A74
:1008100054E0010A01E0F3D0E66AF7EC21F0E5527A
:10082000F3CF16FFF4CF17FF0F01186B196B17AF3B
:1008300002D0186919695C0EE66E420EE66EE66A31
:10084000010EE66E11EC18F0E552E552E552E55264
:1008500016CFE6FF17CFE6FF18CFE6FF19CFE6FF6A
:10086000E66A010EE66EEAEC16F0106E060EE15E28
:1008700010501BCFE9FFEA6AE9BEEA68D890E93672
:10088000EA36D890E936EA36060EE926010EEA2263
:1008900016CFEEFF17CFEEFF18CFEEFF19CFEEFF0A
:1008A0000F011B29106E096E280E0E6E34EC21F01C
:1008B00005C01BFF0F01010E1A6F126B136B146B37
:1008C000156BDF6ADFCF10F0280EE76E1018E8AE68
:1008D00002D0E73402D0E750105C1DE2DFCFE9FF21
:1008E000EA6AE9BEEA68D890E936EA36D890E9368D
:1008F000EA36060EE926010EEA221251EE24126FA4
:100900001351EE20136F1451EE20146F1551EE2089
:10091000156FDF2AD7D7280E0B6E0C6A0D6A0E6A88
:1009200012CF06F013CF07F014CF08F015CF09F05F
:100930006EEC22F006C012FF07C013FF08C014FFC0
:1009400009C015FF000EE66EE66A06C010F007C08B
:1009500011F008C012F009C013F0030E0B6E0C6A00
:100960000D6A0E6A6EEC22F006C010F007C011F09E
:1009700008C012F009C013F006C0E6FF07C0E6FF8A
:1009800012CF14F013CF15F014CF16F015CF17F0C7
:10099000640E145E000E155A165A175A14C0E6FF5C
:1009A00015C0E6FF16CFE6FF17CFE6FFF1EC18F013
:1009B000186E080EE15E18505C0EE66E420EE66E92
:1009C000080EE66E010EE66E11EC18F0E552E552E7
:1009D000E552E55212CFE6FF13CFE6FF14CFE6FF54
:1009E00015CFE6FF080EE66E010EE66EEAEC16F095
:1009F000106E060EE15E10500F011A6B01D01A6BDB
:100A0000E552E552E7CFD9FF1200D9CFE6FFE1CF9B
:100A1000D9FF020EE126DE6ADD6ADECF10F0DDCFFF
:100A200011F0D890115004E61E0E105C000E115803
:100A300005E2DF2A010EF1E3DB2AEFD7020EE15CCB
:100A400002E2E16AE552E16EE552E7CFD9FF12001A
:100A5000010EE66EE66AF5EC00F0E552E552010E95
:100A6000E66EE66ACDEC00F0E552E552CEDF010E0F
:100A7000E66EE66AF5EC00F0E552E5521200080E6B
:100A80000001E31901E1E4515AE0070EE31901E125
:100A9000E4514EE0060EE31901E1E45145E0050E94
:100AA000E31901E1E4513CE0040EE31901E1E451F2
:100AB00025E0030EE31901E1E4511AE0020EE31907
:100AC00001E1E4510FE0010EE31901E1E45104E01A
:100AD000E35142E1E45140D09CEC15F04F0EE66E3C
:100AE000420E11D09CEC15F03F0EE66E420E0BD07C
:100AF0009CEC15F0310EE66E420E05D09CEC15F024
:100B0000230EE66E420EE66EE66AE66A11EC18F017
:100B1000E552E552E552E55200011E0EEA6F1CD087
:100B2000120EE66E420E07D0010EE66E420E0AD09D
:100B3000F00EE66E410EE66EE66AE66A07D0DF0E5C
:100B4000E66E410EE66EE66A010EE66E11EC18F0F6
:100B5000E552E552E552E5520001010EF71908E1B0
:100B6000F85106E10001E36BE46B00011E0EEA6F31
:100B70001200000EE66EE66ACDEC00F0E552E5529A
:100B80001200000EE66EE66AF5EC00F0E552E55262
:100B90001200040EE66EE66ACDEC00F0E552E55276
:100BA0001200040EE66EE66AF5EC00F0E552E5523E
:100BB0001200060EE66EE66ACDEC00F0E552E55254
:100BC0001200060EE66EE66AF5EC00F0E552E5521C
:100BD0001200010EE66EE66ACDEC00F0E552E55239
:100BE0001200010EE66EE66AF5EC00F0E552E55201
:100BF0001200050EE66EE66ACDEC00F0E552E55215
:100C00001200050EE66EE66AF5EC00F0E552E552DC
:100C10001200070EE66EE66ACDEC00F0E552E552F2
:100C20001200070EE66EE66AF5EC00F0E552E552BA
:100C300012000F01010E291903E12A5101E1010CF3
:100C4000000C0F01010E2B1903E12C5101E1010CE5
:100C5000000C0F01010E2F1903E1305101E1010CCD
:100C6000000C0F01010E2D1903E12E5101E1010CC1
:100C7000000C0F01010E2B1903E12C5101E1010CB5
:100C8000000C0F01140E2B5D000E2C5915E32BCF19
:100C900010F02CCF11F00A0E0D6E0E6A2BCF08F05B
:100CA0002CCF09F0AFEC22F005C011F0010E0418B2
:100CB00003E1115001E1010C000C0F01010E2D198F
:100CC00003E12E5101E1010C000C0F01010E2F195F
:100CD00003E1305101E1010C000C010E0001F72588
:100CE000F76F000EF821F86F280E0D6E0E6AF7C030
:100CF00008F0F8C009F0AFEC22F004C0F7F005C02E
:100D0000F8F00001E929106E140E116E0E6E10C07D
:100D100009F0E3EC22F005C0E9F0000105041AE156
:100D20000001E507000EE65B0001E707E85B000154
:100D3000EA070001800EE61502E0E569E6690001B8
:100D4000800EE81502E0E769E869000E0001EA5D3F
:100D500001E2EA691200320E0001E11901E1E251FB
:100D600001E11BD36A0EE11901E1E25101E133D245
:100D7000690EE11901E1E25101E18ED1060EE1199E
:100D800001E1E25101E1B4D0050EE11901E1E251C6
:100D900012E0E868E11901E1E25101E01200050EFC
:100DA000E16FE26BEBC0E5F0ECC0E6F0F5C0E7F018
:100DB000F6C0E8F01200DDDE04DFF3DE2ADF11DF2B
:100DC00020DF0001E71D06E1E81D04E1080E000137
:100DD000E36FE46BD30EE66E410EE66EE66AE66AFA
:100DE00011EC18F0E552E552E552E552E5C010F07D
:100DF000E6C011F0126A136A11AE02D012681368CD
:100E000010C0E6FF11C0E6FF12C0E6FF13C0E6FF08
:100E10000D0EE66EE66AEAEC16F0146E060EE15E62
:100E20001450C90EE66E410EE66EE66A010EE66EDD
:100E300011EC18F0E552E552E552E552E7C010F02A
:100E4000E8C011F0126A136A11AE02D0126813687A
:100E500010C0E6FF11C0E6FF12C0E6FF13C0E6FFB8
:100E60000D0EE66E010EE66EEAEC16F0146E060E3E
:100E7000E15E14500001E351E41114E10001E71DAB
:100E800012E1E81D10E1C30EE66E410EE66E0B0E98
:100E9000E66E010EE66E11EC18F0E552E552E552F1
:100EA000E55201D0ECDD0001E63504E2E551000831
:100EB000000EE65509E3060E0001E16FE26BEDC09E
:100EC000E5F0EEC0E6F01200B4DE000907E0100E17
:100ED0000001E16FE26B00011E0E5DD2B2DE00097F
:100EE00001E06ED1F2DE000901E157D2300E4ED2A0
:100EF00050DE47DE66DE8DDE74DE83DE0001E51D3A
:100F000006E1E61D04E1050E0001E36FE46B00015C
:100F1000E71D06E1E81D04E1080E0001E36FE46B44
:100F2000B60EE66E410EE66EE66AE66A11EC18F061
:100F3000E552E552E552E552E5C010F0E6C011F089
:100F4000126A136A11AE02D01268136810C0E6FF6D
:100F500011C0E6FF12C0E6FF13C0E6FF0D0EE66EFD
:100F6000E66AEAEC16F0146E060EE15E1450C90E45
:100F7000E66E410EE66EE66A010EE66E11EC18F0C2
:100F8000E552E552E552E552E7C010F0E8C011F035
:100F9000126A136A11AE02D01268136810C0E6FF1D
:100FA00011C0E6FF12C0E6FF13C0E6FF0D0EE66EAD
:100FB000010EE66EEAEC16F0146E060EE15E1450B9
:100FC0000001E351E41126E10001E51D0FE1E61DFA
:100FD0000DE1C30EE66E410EE66E0B0EE66EE66A9E
:100FE00011EC18F0E552E552E552E5520001E71D1B
:100FF00012E1E81D10E1C30EE66E410EE66E0B0E27
:10100000E66E010EE66E11EC18F0E552E552E5527F
:10101000E55201D034DD0001E751E81107E100019C
:10102000E551E61102E0000E01D0010E0001E5518C
:10103000E61107E10001E751E81102E0000E01D0DE
:10104000010E0001E63504E2E5510008000EE65508
:1010500014E30001E83504E2E7510008000EE8550A
:101060000CE3690E0001E16FE26BEFC0E5F0F0C048
:10107000E6F0F1C0E7F0F2C0E8F0DBDD000907E0E0
:10108000730E0001E16FE26B00011E0EEA6FD9DD05
:10109000000901E182D194D08CDD83DD72DD99DD20
:1010A000C0DDAFDD0001E51D06E1E61D04E1070E30
:1010B0000001E36FE46BAC0EE66E410EE66EE66A8D
:1010C000E66A11EC18F0E552E552E552E552E5C04A
:1010D00010F0E6C011F0126A136A11AE02D0126865
:1010E000136810C0E6FF11C0E6FF12C0E6FF13C090
:1010F000E6FF0D0EE66EE66AEAEC16F0146E060EDA
:10110000E15E1450A00EE66E410EE66EE66A010E38
:10111000E66E11EC18F0E552E552E552E552E7C0F3
:1011200010F0E8C011F0126A136A11AE02D0126812
:10113000136810C0E6FF11C0E6FF12C0E6FF13C03F
:10114000E6FF0D0EE66E010EE66EEAEC16F0146E8A
:10115000060EE15E14500001E351E41113E10001B9
:10116000E51D11E1E61D0FE1C30EE66E410EE66ED0
:101170000B0EE66EE66A11EC18F0E552E552E55208
:10118000E55201D07CDC0001E83504E2E7510008BB
:10119000000EE85508E36A0E0001E16FE26BF3C050
:1011A000E7F0F4C0E8F045DD000907E0740E000147
:1011B000E16FE26B00011E0EEA6F43DD000905E0FE
:1011C0000001E169010EE26F12007FDD000901E11B
:1011D000E4D0310EDBD0EDDCE4DCD3DC0ADD21DD54
:1011E00000DD0001E51D06E1E61D04E1070E00013A
:1011F000E36FE46B0001E71D06E1E81D04E1060E64
:101200000001E36FE46BAC0EE66E410EE66EE66A3B
:10121000E66A11EC18F0E552E552E552E552E5C0F8
:1012200010F0E6C011F0126A136A11AE02D0126813
:10123000136810C0E6FF11C0E6FF12C0E6FF13C03E
:10124000E6FF0D0EE66EE66AEAEC16F0146E060E88
:10125000E15E1450930EE66E410EE66EE66A010EF4
:10126000E66E11EC18F0E552E552E552E552E7C0A2
:1012700010F0E8C011F0126A136A11AE02D01268C1
:10128000136810C0E6FF11C0E6FF12C0E6FF13C0EE
:10129000E6FF0D0EE66E010EE66EEAEC16F0146E39
:1012A000060EE15E14500001E351E41126E1000155
:1012B000E51D0FE1E61D0DE1C30EE66E410EE66E83
:1012C0000B0EE66EE66A11EC18F0E552E552E552B7
:1012D000E5520001E71D13E1E81D11E1C30EE66EC2
:1012E000410EE66E0B0EE66E010EE66E11EC18F086
:1012F000E552E552E552E55202D03FEC05F000011F
:10130000E751E81107E10001E551E61102E0000EA6
:1013100001D0010E0001E551E61107E10001E7519E
:10132000E81102E0000E01D0010E0001E83504E2F0
:10133000E7510008000EE85514E30001E63504E229
:10134000E5510008000EE6550CE3050E0001E16FC3
:10135000E26BEBC0E5F0ECC0E6F0F5C0E7F0F6C0FC
:10136000E8F067DC000907E00F0E0001E16FE26BB7
:1013700000011E0EEA6F65DC000904E00001E1696E
:10138000010EE26FA2DC000908E0310E0001E16FFE
:10139000E26B0001050EEA6F12001200320E00012E
:1013A000E11901E1E25101E136D3310EE11901E128
:1013B000E25101E1BCD2300EE11901E1E25101E15B
:1013C00047D2740EE11901E1E25101E1B1D1730E8E
:1013D000E11901E1E25101E11FD1100EE11901E132
:1013E000E25101E18DD00F0EE11901E1E25101E07E
:1013F0001200B9EC05F0E1EC05F0D1EC05F009ECD8
:1014000006F0F1EC05F001EC06F0D30EE66E410EAD
:10141000E66EE66AE66A11EC18F0E552E552E5522E
:10142000E552EAC010F0116A126A136AEAC0E6FFD8
:1014300011C0E6FF12C0E6FF13C0E6FF0D0EE66E18
:10144000E66AEAEC16F0146E060EE15E1450C90E60
:10145000E66E410EE66EE66A010EE66E11EC18F0DD
:10146000E552E552E552E552EAC010F0116A126AFF
:10147000136AEAC0E6FF11C0E6FF12C0E6FF13C020
:10148000E6FF0D0EE66E010EE66EEAEC16F0146E47
:10149000060EE15E14500001EA5100080CE3060E4E
:1014A0000001E16FE26BEDC0E5F0EEC0E6F0EDC0EB
:1014B000E7F0EEC0E8F019EC06F0000907E0100EC6
:1014C0000001E16FE26B00011E0EEA6F21EC06F0F5
:1014D000000904E00001E169010EE26F31EC06F061
:1014E000000901E1F1D2050E0001E16FE26BEBC0F2
:1014F000E5F0ECC0E6F0F5C0E7F0F6C0E8F0120069
:10150000C9EC05F0C1EC05F0E1EC05F009EC06F0E2
:10151000F1EC05F001EC06F0B60EE66E410EE66E5B
:10152000E66AE66A11EC18F0E552E552E552E5523A
:10153000EAC010F0116A126A136AEAC0E6FF11C02D
:10154000E6FF12C0E6FF13C0E6FF0D0EE66EE66A88
:10155000EAEC16F0146E060EE15E1450C90EE66E4B
:10156000410EE66EE66A010EE66E11EC18F0E552E9
:10157000E552E552E552EAC010F0116A126A136AA8
:10158000EAC0E6FF11C0E6FF12C0E6FF13C0E6FFA7
:101590000D0EE66E010EE66EEAEC16F0146E060E07
:1015A000E15E14500001EA5100080CE3690E0001ED
:1015B000E16FE26BEFC0E5F0F0C0E6F0F1C0E7F0FC
:1015C000F2C0E8F019EC06F0000907E0730E000124
:1015D000E16FE26B00011E0EEA6F21EC06F00009DC
:1015E00004E00001E169010EE26F31EC06F0000950
:1015F0000CE0060E0001E16FE26BEDC0E5F0EEC01D
:10160000E6F0EDC0E7F0EEC0E8F029EC06F00009E6
:1016100001E15AD20F0E16D1E9EC05F011EC06F0FB
:1016200001EC06F0D9EC05F0C1EC05F0D1EC05F0C9
:10163000AC0EE66E410EE66EE66AE66A11EC18F054
:10164000E552E552E552E552EAC010F0116A126A1D
:10165000136AEAC0E6FF11C0E6FF12C0E6FF13C03E
:10166000E6FF0D0EE66EE66AEAEC16F0146E060E64
:10167000E15E1450A00EE66E410EE66EE66A010EC3
:10168000E66E11EC18F0E552E552E552E552EAC07B
:1016900010F0116A126A136AEAC0E6FF11C0E6FF91
:1016A00012C0E6FF13C0E6FF0D0EE66E010EE66EF9
:1016B000EAEC16F0146E060EE15E14500001EA51D9
:1016C00000080CE36A0E0001E16FE26BF3C0E5F085
:1016D000F4C0E6F0F3C0E7F0F4C0E8F019EC06F06F
:1016E000000907E0740E0001E16FE26B00011E0EBD
:1016F000EA6F21EC06F0000904E00001E169010E47
:10170000E26F31EC06F000090CE0690E0001E16FB8
:10171000E26BEFC0E5F0F0C0E6F0F1C0E7F0F2C038
:10172000E8F029EC06F0000901E1CED1100E8AD0D4
:10173000F9EC05F0F1EC05F011EC06F0D9EC05F050
:10174000C1EC05F0D1EC05F0AC0EE66E410EE66E94
:10175000E66AE66A11EC18F0E552E552E552E55208
:10176000EAC010F0116A126A136AEAC0E6FF11C0FB
:10177000E6FF12C0E6FF13C0E6FF0D0EE66EE66A56
:10178000EAEC16F0146E060EE15E1450930EE66E4F
:10179000410EE66EE66A010EE66E11EC18F0E552B7
:1017A000E552E552E552EAC010F0116A126A136A76
:1017B000EAC0E6FF11C0E6FF12C0E6FF13C0E6FF75
:1017C0000D0EE66E010EE66EEAEC16F0146E060ED5
:1017D000E15E14500001EA510CE1050E0001E16FD9
:1017E000E26BEBC0E5F0ECC0E6F0EFC0E7F0F0C074
:1017F000E8F019EC06F0000907E00F0E0001E16FB8
:10180000E26B00011E0EEA6F21EC06F0000904E015
:101810000001E169010EE26F31EC06F000090CE015
:10182000060E0001E16FE26BEDC0E5F0EEC0E6F000
:10183000EDC0E7F0EEC0E8F029EC06F0000901E1A8
:1018400043D1730E0001E16FE26B00011E0EE1D087
:10185000C9EC05F0C1EC05F0E1EC05F009EC06F08F
:10186000F1EC05F001EC06F0B60EE66E410EE66E08
:10187000E66AE66A11EC18F0E552E552E552E552E7
:10188000EAC010F0116A126A136AEAC0E6FF11C0DA
:10189000E6FF12C0E6FF13C0E6FF0D0EE66EE66A35
:1018A000EAEC16F0146E060EE15E1450C90EE66EF8
:1018B000410EE66EE66A010EE66E11EC18F0E55296
:1018C000E552E552E552E7C010F0E8C011F0126AA7
:1018D000136A11AE02D01268136810C0E6FF11C07F
:1018E000E6FF12C0E6FF13C0E6FF0D0EE66E010E26
:1018F000E66EEAEC16F0146E060EE15E145000017E
:10190000E71D10E1E81D0EE1C30EE66E410EE66E26
:101910000B0EE66E010EE66E11EC18F0E552E55284
:10192000E552E5520001EA5101E0CED06CD0F9EC6D
:1019300005F0F1EC05F011EC06F0D9EC05F0C1EC86
:1019400005F0D1EC05F0AC0EE66E410EE66EE66AEF
:10195000E66A11EC18F0E552E552E552E552E5C0B1
:1019600010F0E6C011F0126A136A11AE02D01268CC
:10197000136810C0E6FF11C0E6FF12C0E6FF13C0F7
:10198000E6FF0D0EE66EE66AEAEC16F0146E060E41
:10199000E15E1450930EE66E410EE66EE66A010EAD
:1019A000E66E11EC18F0E552E552E552E552EAC058
:1019B00010F0116A126A136AEAC0E6FF11C0E6FF6E
:1019C00012C0E6FF13C0E6FF0D0EE66E010EE66ED6
:1019D000EAEC16F0146E060EE15E14500001E51DEF
:1019E0000FE1E61D0DE1C30EE66E410EE66E0B0E35
:1019F000E66EE66A11EC18F0E552E552E552E55262
:101A00000001EA5161E1320E0001E16FE26B000179
:101A1000140EEA6F120001EC06F0F1EC05F009EC8F
:101A200006F0D9EC05F0C1EC05F0D1EC05F0AC0EF8
:101A3000E66E410EE66EE66AE66A11EC18F0E552D3
:101A4000E552E552E552EAC010F0116A126A136AD3
:101A5000EAC0E6FF11C0E6FF12C0E6FF13C0E6FFD2
:101A60000D0EE66EE66AEAEC16F0146E060EE15E06
:101A70001450C90EE66E410EE66EE66A010EE66E81
:101A800011EC18F0E552E552E552E552EAC010F0CB
:101A9000116A126A136AEAC0E6FF11C0E6FF12C0BB
:101AA000E6FF13C0E6FF0D0EE66E010EE66EEAECF1
:101AB00016F0146E060EE15E14500001EA5104E1C6
:101AC0000001E169E26B12001200230E0001E1192E
:101AD00001E1E25101E12AD31B0EE11901E1E251DA
:101AE00001E183D21F0EE11901E1E25101E1E2D1EE
:101AF0001A0EE11901E1E25101E147D11E0EE1198F
:101B000001E1E25101E1A4D0190EE11901E1E25134
:101B10000EE0E868E11902E1010EE21901E01200AD
:101B2000190EE16FE26B00011E0EEA6F1200000158
:101B3000E90509E1D9EC05F0C1EC05F0D1EC05F0BF
:101B400009EC06F008D0E1EC05F0C1EC05F0D1ECB1
:101B500005F011EC06F0F1EC05F001EC06F039ECC3
:101B600006F0000907E000011E0EEA6F0001EF2BEE
:101B7000000EF02341EC06F0000907E000011E0E04
:101B8000EA6F0001EF07000EF05B0001000ED88045
:101B9000EF55000EF05506E2E70ED880EF55030E24
:101BA000F05508E2010E0001E36FE46B020E000144
:101BB000F76FF86B0001E351E41126E1AC0EE66E1D
:101BC000410EE66EE66A010EE66E11EC18F0E55283
:101BD000E552E552E552EFC010F0F0C011F0126A84
:101BE000136AEFC0E6FFF0C0E6FF12C0E6FF13C0C5
:101BF000E6FF0D0EE66E010EE66EEAEC16F0146ED0
:101C0000060EE15E14500ED00001EB510001ED25EF
:101C10000001EF6F0001EC510001EE210001F06FB7
:101C20003FEC05F00001EA5103E10001E169E26BDC
:101C300019EC06F0000906E01E0E0001E16FE26BF0
:101C40000001EA6F5DEC06F0000901E104D3C7D1A1
:101C50000001E90509E1D9EC05F0C1EC05F0D1EC92
:101C600005F009EC06F008D0E1EC05F0C1EC05F058
:101C7000D1EC05F011EC06F0F1EC05F001EC06F00A
:101C800039EC06F0000907E000011E0EEA6F0001C2
:101C9000F52B000EF62341EC06F0000907E00001E9
:101CA0001E0EEA6F0001F507000EF65B0001000E44
:101CB000D880F555000EF65506E2E70ED880F555AA
:101CC000030EF65508E2010E0001E36FE46B020E0D
:101CD0000001F76FF86B0001E351E41126E1C90E32
:101CE000E66E410EE66EE66A010EE66E11EC18F045
:101CF000E552E552E552E552F5C010F0F6C011F09C
:101D0000126A136AF5C0E6FFF6C0E6FF12C0E6FFEE
:101D100013C0E6FF0D0EE66E010EE66EEAEC16F05D
:101D2000146E060EE15E14500ED00001F151000158
:101D3000F3250001F56F0001F2510001F4210001CB
:101D4000F66F3FEC05F00001EA5103E10001E169A3
:101D5000E26B19EC06F0000907E01A0E0001E16FD2
:101D6000E26B00011E0EEA6F29EC06F0000907E0A5
:101D7000190E0001E16FE26B00011E0EEA6F5DECCF
:101D800006F0000901E167D22AD10001E90509E165
:101D9000D9EC05F0C1EC05F0D1EC05F009EC06F04A
:101DA00008D0E1EC05F0C1EC05F0D1EC05F011EC48
:101DB00006F0F1EC05F001EC06F039EC06F0000954
:101DC00007E000011E0EEA6F0001EB2B000EEC2372
:101DD00041EC06F0000907E000011E0EEA6F000169
:101DE000EB07000EEC5B0001000ED880EB55000EF7
:101DF000EC5506E2E70ED880EB55030EEC5508E2F1
:101E0000010E0001E36FE46B020E0001F76FF86B47
:101E10000001E351E41126E1D30EE66E410EE66EB9
:101E2000E66A010EE66E11EC18F0E552E552E55255
:101E3000E552EBC010F0ECC011F0126A136AEBC06F
:101E4000E6FFECC0E6FF12C0E6FF13C0E6FF0D0E92
:101E5000E66E010EE66EEAEC16F0146E060EE15E1A
:101E6000145006D00A0E0001EB6FEC6B3FEC05F04E
:101E70000001EA51000803E30001E169E26B19EC9B
:101E800006F0000907E000011E0EEA6F1F0E0001B8
:101E9000E16FE26B29EC06F0000906E000011E0E7E
:101EA000EA6F0001E16FE26B5DEC06F0000901E111
:101EB000D2D195D00001E90509E1D9EC05F0C1ECDA
:101EC00005F0D1EC05F009EC06F008D0E1EC05F0E6
:101ED000C1EC05F0D1EC05F011EC06F0F1EC05F0E9
:101EE00001EC06F039EC06F0000907E000011E0ED7
:101EF000EA6F0001F12B000EF22341EC06F000091D
:101F000007E000011E0EEA6F0001F107000EF25B10
:101F10000001000ED880F155000EF25506E2E70EE2
:101F2000D880F155030EF25508E2010E0001E36F6F
:101F3000E46B020E0001F76FF86B0001E351E4114E
:101F400026E1A00EE66E410EE66EE66A010EE66E32
:101F500011EC18F0E552E552E552E552F1C010F0EF
:101F6000F2C011F0126A136AF1C0E6FFF2C0E6FF98
:101F700012C0E6FF13C0E6FF0D0EE66E010EE66E20
:101F8000EAEC16F0146E060EE15E145006D00A0E4E
:101F90000001F16FF26B3FEC05F00001EA5100081F
:101FA00003E30001E169E26B19EC06F0000907E0C8
:101FB00000011E0EEA6F1B0E0001E16FE26B29ECBF
:101FC00006F0000907E000011E0EEA6F1A0E00017C
:101FD000E16FE26B5DEC06F0000901E13CD1020E1D
:101FE0000001E36FE46B3FEF05F00001E90509E153
:101FF000D9EC05F0C1EC05F0D1EC05F009EC06F0E8
:1020000008D0E1EC05F0C1EC05F0D1EC05F011ECE5
:1020100006F0F1EC05F001EC06F00001EB510001D7
:10202000EF5D0001ED6F0001EC510001F05900017E
:10203000EE6F000ED880ED55000EEE5506E2E70E6D
:10204000D880ED55030EEE5508E2030E0001E36F54
:10205000E46B020E0001F76FF86B0001E351E4112D
:1020600032E1820EE66E410EE66EE66AE66A11EC39
:1020700018F0E552E552E552E552780EE66E410E53
:10208000E66EE66A010EE66E11EC18F0E552E552D6
:10209000E552E552EDC010F0EEC011F0126A136A7D
:1020A000EDC0E6FFEEC0E6FF12C0E6FF13C0E6FF9C
:1020B0000D0EE66E010EE66EEAEC16F0146E060EDC
:1020C000E15E145011D0050E0001ED6FEE6BE8508B
:1020D0000001EB250001EF6F0001EE510001EC2142
:1020E0000001F06F3FEC05F00001EA5103E100014F
:1020F000E169E26B19EC06F0000907E000011E0E31
:10210000EA6F230E0001E16FE26B29EC06F0000993
:1021100007E000011E0EEA6F1F0E0001E16FE26B87
:102120005DEC06F0000901E196D091D00001E905CF
:1021300009E1D9EC05F0C1EC05F0D1EC05F009ECB2
:1021400006F008D0E1EC05F0C1EC05F0D1EC05F0AB
:1021500011EC06F0F1EC05F001EC06F00001F15194
:102160000001F55D0001F36F0001F2510001F65925
:102170000001F46F000ED880F355000EF45506E20E
:10218000E70ED880F355030EF45504E2040E000167
:10219000E36FE46B0001E351E41132E1820EE66E7D
:1021A000410EE66EE66AE66A11EC18F0E552E55279
:1021B000E552E5526E0EE66E410EE66EE66A010EDF
:1021C000E66E11EC18F0E552E552E552E552F3C027
:1021D00010F0F4C011F0126A136AF3C0E6FFF4C005
:1021E000E6FF12C0E6FF13C0E6FF0D0EE66E010E1D
:1021F000E66EEAEC16F0146E060EE15E145012D094
:102200003FEC05F0050E0001ED6FEE6B0001F351A0
:102210000001F1250001F56F0001F4510001F221E8
:102220000001F66F0001EA5103E10001E169E26B90
:1022300029EC06F0000907E000011E0EEA6F1B0EF4
:102240000001E16FE26B5DEC06F0000904E00001C3
:08225000E169E26B12001200CB
:08225800D9CFE6FFE1CFD9FF69
:10226000040EE126DE6ADD6ADECF10F0DDCF11F06C
:10227000126A136A11AE02D012681368D950FB0FAC
:10228000E96EFF0EDA20EA6EEE50105CEE50115847
:10229000EE501258EE5013581DE2020EDB6A030E88
:1022A000DB6A020EDBCF10F0030EDBCF11F0D8900B
:1022B000115004E6050E105C000E115806E2020EE5
:1022C000DB2A030EEEE3DB2AECD7DF2A010ECCE398
:1022D000DB2ACAD7040EE15C02E2E16AE552E16E54
:1022E000E552E7CFD9FF1200D9CFE6FFE1CFD9FF02
:1022F000040EE126DE6ADD6ADECF10F0DDCF11F0DC
:10230000126A136A11AE02D012681368D950FB0F1B
:10231000E96EFF0EDA20EA6EEE50105CEE501158B6
:10232000EE501258EE5013581DE2020EDB6A030EF7
:10233000DB6A020EDBCF10F0030EDBCF11F0D8907A
:10234000115004E6EE0E105C000E115806E2020E6B
:10235000DB2A030EEEE3DB2AECD7DF2A010ECCE307
:10236000DB2ACAD7040EE15C02E2E16AE552E16EC3
:10237000E552E7CFD9FF1200D9CFE6FFE1CFD9FF71
:102380000F0E8116FE0EDB50F00B81128186010EBE
:10239000E66EE66AE66AE66AA7DFE552E552E552CE
:1023A000E5528196010EE66EE66AE66AE66A9CDF11
:1023B000E552E552E552E5520F0E8116FE0EDB386E
:1023C000F00B81128186010EE66EE66AE66AE66A25
:1023D0008BDFE552E552E552E5528196010EE66E3D
:1023E000E66AE66AE66A80DFE552E552E552E552C2
:1023F000E552E7CFD9FF1200D9CFE6FFE1CFD9FFF1
:10240000E652190EE66EE66AE66AE66A6DDFE552A6
:10241000E552E552E5520F0E8116F80E81160F0EA9
:102420008116300E81128186010EE66EE66AE66A3A
:10243000E66A5ADFE552E552E552E5528196010E11
:10244000E66EE66AE66AE66A4FDFE552E552E55275
:10245000E5520F0E8116300E81128186010EE66E56
:10246000E66AE66AE66A40DFE552E552E552E55281
:102470008196010EE66EE66AE66AE66A35DFE552A7
:10248000E552E552E5520F0E8116300E811281861B
:10249000010EE66EE66AE66AE66A26DFE552E55276
:1024A000E552E5528196010EE66EE66AE66AE66A54
:1024B0001BDFE552E552E552E5520F0E8116818A87
:1024C0008186010EE66EE66AE66AE66A0DDFE5528F
:1024D000E552E552E5528196010EE66EE66AE66A3D
:1024E000E66A02DFE552E552E552E552280EE66E55
:1024F00043DFE5520C0EE66E3FDFE552E552E55252
:10250000E7CFD9FF1200D9CFE6FFE1CFD9FF020E06
:10251000E126DF6A010EDB6A81940F0EE66EE66A41
:10252000E66AE66A99DEE552E552E552E5520F0E9B
:1025300081128186E66EE66AE66AE66A8DDEE5521B
:10254000E552E552E5520F0E8114E76E010EE7CF1A
:10255000DBFF81960F0EE66EE66AE66AE66A7CDECF
:10256000E552E552E552E5520F0E81128186E66E84
:10257000E66AE66AE66A70DEE552E552E552E55241
:102580000F0E8114DF6E010EDB50DF128196010EFB
:10259000E66EE66AE66AE66A5FDEE552E552E55215
:1025A000E552DF50106E020EE15C02E2E16AE55294
:1025B000E16E1050E552E7CFD9FF1200D9CFE6FF08
:1025C000E1CFD9FFE652DF6A9EDFDF6EDFBEFCD7C8
:1025D000DF50E552E552E7CFD9FF1200D9CFE6FF31
:1025E000E1CFD9FF0F0E8116FE0EDB5081128186DE
:1025F000050EE66EE66AE66AE66A2EDEE552E5520A
:10260000E552E5528196050EE66EE66AE66AE66AEE
:1026100023DEE552E552E552E552E552E7CFD9FF18
:102620001200D9CFE6FFE1CFD9FF8194050EE66E07
:10263000E66AE66AE66A10DEE552E552E552E552E0
:10264000FE0EDBCFE6FFCADFE552FE0EDB38F00BF5
:10265000E66EC4DFE552E552E7CFD9FF1200D9CFCD
:10266000E6FFE1CFD9FF8184050EE66EE66AE66AF1
:10267000E66AF2DDE552E552E552E552FE0EDBCFA9
:10268000E6FFACDFE552FE0EDB38F00BE66EA6DFB0
:10269000E5528194E552E7CFD9FF1200D9CFE6FF8A
:1026A000E1CFD9FFFE0EDBCFE6FFD9DFE552E552E1
:1026B000E7CFD9FF1200D9CFE6FFE1CFD9FFFE0E59
:1026C000DBCFE6FFCCDFE552E552E7CFD9FF1200C2
:1026D000D9CFE6FFE1CFD9FFFD0EDBCFF6FFFE0E2F
:1026E000DBCFF7FF0800F5500FE0FD0EDBCFF6FF64
:1026F000DB2AFE0EDBCFF7FF01E3DB2A0800F550F3
:10270000E66ED9DFE552E8D7E552E7CFD9FF1200F0
:10271000D9CFE6FFE1CFD9FFE652FD0EDB500F0B1C
:10272000106EFE0EDB50010B400DF3501024DF6ED7
:102730007F0EDF14800FDF6EDFCFE6FF72DFE55222
:10274000E552E552E7CFD9FF1200010EE66E69DFD0
:10275000E552E66AE66ADCDFE552E5521200D9CFBF
:10276000E6FFE1CFD9FF050EE126010EF36EDB6E29
:10277000020EDB6A030EDB6A040EDB6ADF6ADFCF60
:1027800010F0116A10BE1168FB0EDBCF12F0FC0EC8
:10279000DBCF13F011501318E8AE02D0133404D07D
:1027A0001250105C135011582DE2FD0EDBCF10F0CB
:1027B000FE0EDBCF11F0126A136A11AE02D012685E
:1027C0001368D950010FE96EDACFEAFF10C00BF0A1
:1027D00011C00CF012C00DF013C00EF0EECF06F0D9
:1027E000EECF07F0EECF08F0EFCF09F036EC22F095
:1027F00005C0EDFF04C0EDFF03C0EDFF02C0EFFF19
:10280000DF2ABDD7010EDBCF10F0020EDBCF11F0B7
:10281000030EDBCF12F0040EDBCF13F010C006F076
:1028200011C007F012C008F013C009F0050EE15CFA
:1028300002E2E16AE552E16EE552E7CFD9FF12000C
:10284000D9CFE6FFE1CFD9FF020EE126DF6AFB0E0A
:10285000DBCF10F0FC0EDBCF11F0FD0EDBCF12F062
:10286000FE0EDBCF13F0105011101210131005E103
:10287000300EE66E20DFE552F4D0D950FB0FE96E42
:10288000FF0EDA20EA6ED890030EEB50000A08E63D
:10289000000EEE5C000EEE58000EEE58000EEE58E4
:1028A00015E22D0EE66E07DFE552D950FB0FE96EFB
:1028B000FF0EDA20EA6E000EEE6CEF1EEE22EF1E27
:1028C000EE22EF1EEF22ED52ED52ED52DE52070ED8
:1028D000DD6E010EDBCF10F0000EE76E1018E8AED3
:1028E00002D0103403D0E750D880105401E3B9D09F
:1028F000010EDB04146E156A14BE156814C0E6FFE1
:1029000015C0E6FF0A0EE66EE66A29DFE552E552DB
:10291000E552E55206C010F007C011F008C012F0F1
:1029200009C013F006C00BF007C00CF008C00DF092
:1029300009C00EF0FB0EDBCF06F0FC0EDBCF07F07C
:10294000FD0EDBCF08F0FE0EDBCF09F06EEC22F0BF
:10295000065007100810091041E0010EDF6EDB047D
:10296000186E196A18BE196818C0E6FF19C0E6FF8C
:102970000A0EE66EE66AF3DEE552E552E552E552EE
:1029800006C014F007C015F008C016F009C017F013
:1029900006C00BF007C00CF008C00DF009C00EF027
:1029A000FB0EDBCF06F0FC0EDBCF07F0FD0EDBCF1E
:1029B00008F0FE0EDBCF09F06EEC22F006C010F03E
:1029C00007C011F008C012F009C013F0300E102635
:1029D000000E112212221322105003D0DF5004E007
:1029E000300EE66E68DEE552010EDB04146E156AE9
:1029F00014BE156814C0E6FF15C0E6FF0A0EE66EA9
:102A0000E66AADDEE552E552E552E55206C010F049
:102A100007C011F008C012F009C013F0D950FB0F25
:102A2000E96EFF0EDA20EA6E06C00BF007C00CF06C
:102A300008C00DF009C00EF0EECF06F0EECF07F0A3
:102A4000EECF08F0EFCF09F06EEC22F005C0EDFFFD
:102A500004C0EDFF03C0EDFF02C0EFFF010EDB0677
:102A600038D7020EE15C02E2E16AE552E16EE5521E
:102A7000E7CFD9FF1200D9CFE6FFE1CFD9FFFD0E96
:102A8000DBCFE6FFFE0EDBCFE6FF42DEE552E5528E
:102A9000D950F90FE96EFF0EDA20EA6EEECFE6FFAD
:102AA000EECFE6FFEECFE6FFEFCFE6FFC9DEE55261
:102AB000E552E552E552E552E7CFD9FF1200D9CFF2
:102AC000E6FFE1CFD9FFFD0EDBCFE6FFFE0EDBCF49
:102AD000E6FF1EDEE552E552FB0EDBCFE6FFFC0E05
:102AE000DBCFE6FFF5DDE552E552E552E7CFD9FF52
:102AF0001200D9CFE6FFE1CFD9FF7BCF10F07CCF1A
:102B000011F0040ED89010361136E806FBE1C10E24
:102B10001026000E112210500F017D25E96E115074
:102B20007E21EA6EFE0EDBCFEFFF7D2B000E7E23B3
:102B3000E552E7CFD9FF1200D9CFE6FFE1CFD9FFA9
:102B4000E652DF6ADFCF10F0100EE76E1018E8AE25
:102B500002D0E73402D0E750105C18E2DFCFE9FF83
:102B6000EA6AE9BEEA68C10EE926000EEA22200EF2
:102B7000EF6EDFCFE9FFEA6AE9BEEA68D10EE92627
:102B8000000EEA22200EEF6EDF2ADCD7E552E55276
:102B9000E7CFD9FF1200D9CFE6FFE1CFD9FFE65248
:102BA0000001C051030A52E0010A36E0030A1AE0AC
:102BB000010A67E1E66AE66AABDDE552E552DF6AE3
:102BC000080EDF5C0CE2DF50EA6AC10FE96E000E0E
:102BD000EA22EF50E66E6FDDE552DF2AF1D7000101
:102BE000010E32D0080EE66EE66A92DDE552E5523D
:102BF000DF6A080EDF5C0DE2080EDF24EA6AC10F0F
:102C0000E96E000EEA22EF50E66E55DDE552DF2A4E
:102C1000F0D70001020E18D0E66A010EE66E78DDEC
:102C2000E552E552DF6A080EDF5C0CE2DF50EA6A2B
:102C3000D10FE96E000EEA22EF50E66E3CDDE55260
:102C4000DF2AF1D70001030EC06F1CD0080EE66E1C
:102C5000010EE66E5DDDE552E552DF6A080EDF5CCF
:102C60000DE2080EDF24EA6AD10FE96E000EEA22B7
:102C7000EF50E66E20DDE552DF2AF0D70001C06B91
:102C800001D0C06BE552E552E7CFD9FF1200D9CF92
:102C9000E6FFE1CFD9FFE6520001C051010A1BE077
:102CA000010A32E1E66AE66A33DDE552E552DF6A9F
:102CB000100EDF5C0CE2DF50EA6AC10FE96E000E15
:102CC000EA22EF50E66EF7DCE552DF2AF1D7000189
:102CD000010EC06F1AD0E66A010EE66E19DDE552EC
:102CE000E552DF6A100EDF5C0CE2DF50EA6AD10FBA
:102CF000E96E000EEA22EF50E66EDDDCE552DF2AD7
:102D0000F1D70001C06B01D0C06BE552E552E7CFAF
:102D1000D9FF1200D9CFE6FFE1CFD9FFE652E66A2C
:102D2000E66AF6DCE552E552DF6A100EDF5C0CE283
:102D3000DF50EA6AC10FE96E000EEA22EF50E66E3C
:102D4000BADCE552DF2AF1D7E66A010EE66EE0DC76
:102D5000E552E552DF6A100EDF5C0CE2DF50EA6AF2
:102D6000D10FE96E000EEA22EF50E66EA4DCE552C8
:102D7000DF2AF1D7E552E552E7CFD9FF1200D9CFCC
:102D8000E6FFE1CFD9FFFE0EDB50010B0F017B6F99
:102D90007C6BFD0EDB500F0B7D6F7E6B7BCF10F0DD
:102DA0007CCF11F0040ED89010361136E806FBE106
:102DB000C10E1026000E112210500F017D25E96E64
:102DC00011507E21EA6EFC0EDBCFEFFFE552E7CF1C
:102DD000D9FF1200D9CFE6FFE1CFD9FF020EE126DD
:102DE000DF6AFE0EDB50010B0F017B6F7C6BFD0E6B
:102DF000DB500F0B7D6F7E6BF90EDBCF10F0FA0E00
:102E0000DBCF11F0FB0EDBCF12F0FC0EDBCF13F0AB
:102E1000105011101210131005E1300EE66E69DE2D
:102E2000E552F5D0D950F90FE96EFF0EDA20EA6EBF
:102E3000D890030EEB50000A08E6000EEE5C000E80
:102E4000EE58000EEE58000EEE5815E22D0EE66E0E
:102E500050DEE552D950F90FE96EFF0EDA20EA6E26
:102E6000000EEE6CEF1EEE22EF1EEE22EF1EEF22A2
:102E7000ED52ED52ED52DE52070EDD6E010EDBCF4C
:102E800010F0000EE76E1018E8AE02D0103403D038
:102E9000E750D880105401E3BAD0010EDB04146E61
:102EA000156A14BE156814C0E6FF15C0E6FF0A0EC9
:102EB000E66EE66A54DCE552E552E552E55206C09C
:102EC00010F007C011F008C012F009C013F006C0DE
:102ED0000BF007C00CF008C00DF009C00EF0F90EA1
:102EE000DBCF06F0FA0EDBCF07F0FB0EDBCF08F0EE
:102EF000FC0EDBCF09F06EEC22F006500710081034
:102F0000091041E0010EDF6EDB04186E196A18BE6D
:102F1000196818C0E6FF19C0E6FF0A0EE66EE66AF9
:102F20001EDCE552E552E552E55206C014F007C03A
:102F300015F008C016F009C017F006C00BF007C066
:102F40000CF008C00DF009C00EF0F90EDBCF06F052
:102F5000FA0EDBCF07F0FB0EDBCF08F0FC0EDBCF69
:102F600009F06EEC22F006C010F007C011F008C0A6
:102F700012F009C013F0300E1026000E112212229A
:102F80001322105003D0DF5004E0300EE66EB1DDA6
:102F9000E552010EDB04146E156A14BE156814C0E8
:102FA000E6FF15C0E6FF0A0EE66EE66AAFEC13F028
:102FB000E552E552E552E55206C010F007C011F0A7
:102FC00008C012F009C013F0D950F90FE96EFF0ED6
:102FD000DA20EA6E06C00BF007C00CF008C00DF056
:102FE00009C00EF0EECF06F0EECF07F0EECF08F0FE
:102FF000EFCF09F06EEC22F005C0EDFF04C0EDFF4D
:1030000003C0EDFF02C0EFFF010EDB0637D7020E53
:10301000E15C02E2E16AE552E16EE552E7CFD9FFF9
:103020001200D9CFE6FFE1CFD9FFFE0EDB50010B36
:103030000F017B6F7C6BFD0EDB500F0B7D6F7E6B8A
:10304000FB0EDBCFF6FFFC0EDBCFF7FF0800F550E1
:103050000FE0FB0EDBCFF6FFDB2AFC0EDBCFF7FF2A
:1030600001E3DB2A0800F550E66E43DDE552E8D7C0
:08307000E552E7CFD9FF120081
:08307800B06A810EAF6EAC8A54
:10308000AC94B886AC98AB8EAB889E9A9D8A9F9A7A
:10309000949C948E1200D9CFE6FFE1CFD9FF040EA5
:1030A000E126DE6ADD6ADECF10F0DDCF11F0FD0E25
:1030B000DBCF12F0FE0EDBCF13F011501318E8AE89
:1030C00002D0133404D01250105C135011581DE27A
:1030D000020EDB6A030EDB6A020EDBCF10F0030E7A
:1030E000DBCF11F0D890115004E6EE0E105C000E0C
:1030F000115806E2020EDB2A030EEEE3DB2AECD7C0
:10310000DF2A010ED0E3DB2ACED7040EE15C02E217
:10311000E16AE552E16EE552E7CFD9FF1200D9CF5F
:10312000E6FFE1CFD9FF9EA8FED7FE0EDB50AD6EC5
:103130009E98E552E7CFD9FF1200D9CFE6FFE1CF45
:10314000D9FFFD0EDBCFE9FFFE0EDBCFEAFFEF502C
:1031500010E0FD0EDBCFE9FFFE0EDBCFEAFFEF5004
:10316000E66EDDDFE552FD0EDB2AFE0EEAE3DB2A2A
:10317000E8D7E552E7CFD9FF1200D9CFE6FFE1CF7C
:10318000D9FFFD0EDBCFF6FFFE0EDBCFF7FF080009
:10319000F55015E0FD0EDBCFF6FFFE0EDBCFF7FF9F
:1031A0000800F550E66EBBDFE552FD0EDBCFF6FF03
:1031B000DB2AFE0EDBCFF7FFE4E3DB2AE2D7E552A2
:1031C000E7CFD9FF1200D9CFE6FFE1CFD9FFE65212
:1031D000AE50DF6EDFCFF6F1E552E552E7CFD9FF13
:1031E0001200D9CFE6FFE1CFD9FFE66898DFE552BC
:1031F000E66895DFE552FE0EDBCFE6FF90DFE55295
:10320000FD0EDBCF10F0FE0EDBCF11F00D6A010ECC
:103210000E6E10C008F011C009F04EEC21F004C091
:1032200010F005C011F00450E66E79DFE552FC0E97
:10323000DBCFE6FF74DFE552FB0EDBCF10F0FC0EB8
:10324000DBCF11F00D6A010E0E6E10C008F011C038
:1032500009F04EEC21F004C010F005C011F004504C
:10326000E66E5DDFE552FA0EDBCFE6FF58DFE55292
:10327000F90EDBCF10F0FA0EDBCF11F00D6A010E64
:103280000E6E10C008F011C009F04EEC21F004C021
:1032900010F005C011F00450E66E41DFE552F80E63
:1032A000DBCFE6FF3CDFE552F70EDBCF10F0F80E88
:1032B000DBCF11F00D6A010E0E6E10C008F011C0C8
:1032C00009F04EEC21F004C010F005C011F00450DC
:1032D000E66E25DFE552FE0EE66E21DFE552FE0EBC
:1032E000E66E1DDFE552E552E7CFD9FF1200D9CFD8
:1032F000E6FFE1CFD9FF020EE126DF6AFB0EDBCF4E
:1033000010F0FC0EDBCF11F0FD0EDBCF12F0FE0E45
:10331000DBCF13F0105011101210131005E1300E16
:10332000E66EFDDEE552F4D0D950FB0FE96EFF0EDC
:10333000DA20EA6ED890030EEB50000A08E6000E81
:10334000EE5C000EEE58000EEE58000EEE5815E240
:103350002D0EE66EE4DEE552D950FB0FE96EFF0E4E
:10336000DA20EA6E000EEE6CEF1EEE22EF1EEE2269
:10337000EF1EEF22ED52ED52ED52DE520A0EDD6EDF
:10338000010EDBCF10F0000EE76E1018E8AE02D091
:10339000103403D0E750D880105401E3B9D0010EA7
:1033A000DB04146E156A14BE156814C0E6FF15C060
:1033B000E6FF0A0EE66EE66AB5D8E552E552E5523A
:1033C000E55206C010F007C011F008C012F009C0A5
:1033D00013F006C00BF007C00CF008C00DF009C0D8
:1033E0000EF0FB0EDBCF06F0FC0EDBCF07F0FD0E80
:1033F000DBCF08F0FE0EDBCF09F06EEC22F00650BA
:1034000007100810091041E0010EDF6EDB04186E92
:10341000196A18BE196818C0E6FF19C0E6FF0A0E3F
:10342000E66EE66A7FD8E552E552E552E55206C0FF
:1034300014F007C015F008C016F009C017F006C058
:103440000BF007C00CF008C00DF009C00EF0FB0E29
:10345000DBCF06F0FC0EDBCF07F0FD0EDBCF08F074
:10346000FE0EDBCF09F06EEC22F006C010F007C0B4
:1034700011F008C012F009C013F0300E1026000E33
:10348000112212221322105003D0DF5004E0300E1C
:10349000E66E45DEE552010EDB04146E156A14BEBD
:1034A000156814C0E6FF15C0E6FF0A0EE66EE66A70
:1034B00039D8E552E552E552E55206C010F007C092
:1034C00011F008C012F009C013F0D950FB0FE96EDB
:1034D000FF0EDA20EA6E06C00BF007C00CF008C041
:1034E0000DF009C00EF0EECF06F0EECF07F0EECFF4
:1034F00008F0EFCF09F06EEC22F005C0EDFF04C03C
:10350000EDFF03C0EDFF02C0EFFF010EDB0638D771
:10351000020EE15C02E2E16AE552E16EE552E7CFBC
:10352000D9FF1200D9CFE6FFE1CFD9FF050EE12682
:10353000010EF36EDB6E020EDB6A030EDB6A040E15
:10354000DB6ADF6ADFCF10F0116A10BE1168FB0E74
:10355000DBCF12F0FC0EDBCF13F011501318E8AEE6
:1035600002D0133404D01250105C135011582DE2C5
:10357000FD0EDBCF10F0FE0EDBCF11F0126A136AE6
:1035800011AE02D012681368D950010FE96EDACF7C
:10359000EAFF10C00BF011C00CF012C00DF013C008
:1035A0000EF0EECF06F0EECF07F0EECF08F0EFCF43
:1035B00009F036EC22F005C0EDFF04C0EDFF03C0BA
:1035C000EDFF02C0EFFFDF2ABDD7010EDBCF10F009
:1035D000020EDBCF11F0030EDBCF12F0040EDBCFB7
:1035E00013F010C006F011C007F012C008F013C0AD
:1035F00009F0050EE15C02E2E16AE552E16EE55296
:06360000E7CFD9FF120024
:0A360600D9CFE6FFE1CFD9FFD59E32
:10361000FD0EDBCF51FFFE0EDBCF52FFD59C1368B2
:103620001468156A51CF16F052CF17F0186A165069
:10363000135C106E17501458116E18501558126EF6
:103640000C6A010E0D6E0E6A10C007F011C008F072
:1036500012C009F074EC21F00350D66E13681468A0
:10366000156A51CF16F052CF17F0186A1650135C36
:10367000106E17501458116E18501558126E0C6AAF
:10368000010E0D6E0E6A10C007F011C008F012C0D6
:1036900009F074EC21F007C010F008C011F009C067
:1036A00012F00750D76ED59AD586F28AF294F1843B
:1036B000D58EE552E7CFD9FF1200D59E12001368D0
:1036C0001468156A51CF16F052CF17F0186A1650C9
:1036D000135C106E17501458116E18501558126E56
:1036E0000C6A010E0D6E0E6A10C007F011C008F0D2
:1036F00012C009F074EC21F00350D66E1368146800
:10370000156A51CF16F052CF17F0186A1650135C95
:10371000106E17501458116E18501558126E0C6A0E
:10372000010E0D6E0E6A10C007F011C008F012C035
:1037300009F074EC21F007C010F008C011F009C0C6
:1037400012F00750D76ED58E1200D9CFE6FFE1CF29
:10375000D9FFCD90FD0EDBCF53FFFE0EDBCF54FF24
:1037600013681468156A53CF16F054CF17F0186A0F
:103770001650135C106E17501458116E18501558CF
:10378000126E0C6A010E0D6E0E6A10C007F011C0A9
:1037900008F012C009F074EC21F00750CF6E1368E6
:1037A0001468156A53CF16F054CF17F0186A1650E4
:1037B000135C106E17501458116E18501558126E75
:1037C0000C6A010E0D6E0E6A10C007F011C008F0F1
:1037D00012C009F074EC21F003C010F004C011F025
:1037E00005C012F00350CE6E9D809E909F90CD8EAE
:1037F000CD8CCD98CD9ACD96CD92CD80E552E7CFA8
:10380000D9FF120013681468156A53CF16F054CF0D
:1038100017F0186A1650135C106E17501458116E7A
:1038200018501558126E0C6A010E0D6E0E6A10C0FB
:1038300007F011C008F012C009F074EC21F0075035
:10384000CF6E13681468156A53CF16F054CF17F073
:10385000186A1650135C106E17501458116E1850D9
:103860001558126E0C6A010E0D6E0E6A10C007F02C
:1038700011C008F012C009F074EC21F003C010F080
:1038800004C011F005C012F00350CE6ECD801200BE
:10389000CD901200D9CFE6FFE1CFD9FFCA94CC6A10
:1038A000FE0EDB500F01556F566BCB6E9D829E92C4
:1038B0009F92CA90CA92CA84E552E7CFD9FF1200FC
:1038C00055CFCBFFCA841200CA941200D9CFE6FFAD
:1038D000E1CFD9FFB190FD0EDBCF57FFFE0EDBCF5E
:1038E00058FF13681468156A57CF16F058CF17F0B1
:1038F000186A1650135C106E17501458116E185039
:103900001558126E0C6A010E0D6E0E6A10C007F08B
:1039100011C008F012C009F074EC21F00750B36E2A
:1039200013681468156A57CF16F058CF17F0186A45
:103930001650135C106E17501458116E185015580D
:10394000126E0C6A010E0D6E0E6A10C007F011C0E7
:1039500008F012C009F074EC21F003C010F004C0AC
:1039600011F005C012F00350B26EA082A192A29293
:10397000B18EB198B19AB192B180E552E7CFD9FF3B
:10398000120013681468156A57CF16F058CF17F055
:10399000186A1650135C106E17501458116E185098
:1039A0001558126E0C6A010E0D6E0E6A10C007F0EB
:1039B00011C008F012C009F074EC21F00350B26E8F
:1039C00013681468156A57CF16F058CF17F0186AA5
:1039D0001650135C106E17501458116E185015586D
:1039E000126E0C6A010E0D6E0E6A10C007F011C047
:1039F00008F012C009F074EC21F007C010F008C004
:103A000011F009C012F00750B36EB1801200B190EE
:103A100012000F01612B000E62236951615D6A5132
:103A2000625904E3616B626B010E596F12000F0162
:103A3000632B000E64236B51635D6C51645904E386
:103A4000636B646B010E5A6F12000F01652B000E41
:103A500066236D51655D6E51665904E3656B666B57
:103A6000010E5B6F12000F01672B000E68236F5170
:103A7000675D7051685904E3676B686B010E5C6F9A
:103A80001200D9CFE6FFE1CFD9FFFD0EDBCF69FFF2
:103A9000FE0EDBCF6AFF0F01616B626B596BE55263
:103AA000E7CFD9FF1200D9CFE6FFE1CFD9FFFD0E56
:103AB000DBCF6BFFFE0EDBCF6CFF050E0D6E0E6ACB
:103AC0006BCF08F06CCF09F04EEC21F008C06BFF13
:103AD00009C06CFF0F01636B646B5A6BE552E7CF53
:103AE000D9FF1200D9CFE6FFE1CFD9FFFD0EDBCF22
:103AF0006FFFFE0EDBCF70FF0A0E0D6E0E6A6FCFEA
:103B000008F070CF09F04EEC21F008C06FFF09C03B
:103B100070FF0F01676B686B5C6BE552E7CFD9FFF5
:023B2000120091
:0E3B22000F0E946E82681200CF0E9414946EF3
:103B300082681200D9CFE6FFE1CFD9FF040EE1265B
:103B4000DE6ADD6ADECF10F0DDCF11F0D8901150C3
:103B500004E6040E105C000E115801E390D0DECF95
:103B6000E9FFDDCFEAFF490EE9260F0EEA22EF1C3E
:103B7000826E020EDB6A030EDB6A020EDBCF10F0F0
:103B8000030EDBCF11F0D890115004E6040E105C48
:103B9000000E11586EE2020EDBCFE9FF030EDBCF01
:103BA000EAFF4D0EE9260F0EEA22EF5082143FE1A4
:103BB000DECF14F0DDCF15F0D89014361536D8903E
:103BC00014361536020EDB501424E96E030EDB505A
:103BD0001520EA6ED890E936EA36290EE9260F0E4E
:103BE000EA22EECF12F0EFCF13F0010E1226000EF4
:103BF0001322DECF10F0DDCF11F0D8901036113641
:103C0000D89010361136020EDB501024E96E030EE8
:103C1000DB501120EA6ED890E936EA36290EE92603
:103C20000F0EEA2212C0EEFF13C0EDFF1BD0DECF55
:103C300010F0DDCF11F0D89010361136D890103634
:103C40001136020EDB501024E96E030EDB501120FA
:103C5000EA6ED890E936EA36290EE9260F0EEA22F6
:103C6000EE6AED6A020EDB2A030E01E286D7DB2A3A
:103C700084D7DF2A010E01E265D7DB2A63D7040E61
:103C8000E15C02E2E16AE552E16EE552E7CFD9FF7D
:103C90001200D9CFE6FFE1CFD9FF040EE126DE6A9C
:103CA000DD6ADECF10F0DDCF11F0D890115004E6C0
:103CB000020E105C000E115801E390D0DECFE9FF38
:103CC000DDCFEAFF490EE9260F0EEA22EF1C826ED5
:103CD000020EDB6A030EDB6A020EDBCF10F0030E6E
:103CE000DBCF11F0D890115004E6040E105C000EEA
:103CF00011586EE2020EDBCFE9FF030EDBCFEAFFC5
:103D00004D0EE9260F0EEA22EF5082143FE1DECF7E
:103D100014F0DDCF15F0D89014361536D89014363F
:103D20001536020EDB501424E96E030EDB5015200D
:103D3000EA6ED890E936EA36290EE9260F0EEA2215
:103D4000EECF12F0EFCF13F0010E1226000E132269
:103D5000DECF10F0DDCF11F0D89010361136D890AC
:103D600010361136020EDB501024E96E030EDB50C4
:103D70001120EA6ED890E936EA36290EE9260F0EB0
:103D8000EA2212C0EEFF13C0EDFF1BD0DECF10F011
:103D9000DDCF11F0D89010361136D890103611368C
:103DA000020EDB501024E96E030EDB501120EA6E88
:103DB000D890E936EA36290EE9260F0EEA22EE6A95
:103DC000ED6A020EDB2A030E01E286D7DB2A84D7D6
:103DD000DF2A010E01E265D7DB2A63D7040EE15C1E
:103DE00002E2E16AE552E16EE552E7CFD9FF120047
:103DF000D9CFE6FFE1CFD9FF040EE126DE6ADD6A06
:103E0000DECF10F0DDCF11F0FD0EDBCF12F0FE0E95
:103E1000DBCF13F011501318E8AE02D0133404D0E6
:103E20001250105C135011581DE2020EDB6A030E93
:103E3000DB6A020EDBCF10F0030EDBCF11F0D8905F
:103E4000115004E6EE0E105C000E115806E2020E50
:103E5000DB2A030EEEE3DB2AECD7DF2A010ED0E3E8
:103E6000DB2ACED7040EE15C02E2E16AE552E16EA4
:103E7000E552E7CFD9FF1200D9CFE6FFE1CFD9FF56
:103E8000040EE126DE6ADD6ADECF10F0DDCF11F030
:103E9000D890115004E6040E105C000E115875E223
:103EA000DECFE9FFDDCFEAFF490EE9260F0EEA2259
:103EB000EF1C826E020EDB6A030EDB6A020EDBCFA2
:103EC00010F0030EDBCF11F0D890115004E6040E71
:103ED000105C000E11584AE2DECF10F0DDCF11F079
:103EE000D89010361136D89010361136020EDB50AD
:103EF0001024E96E030EDB501120EA6ED890E936EB
:103F0000EA36290EE9260F0EEA22EE6AED6A020E63
:103F1000DBCFE9FF030EDBCFEAFF4D0EE9260F0EE4
:103F2000EA22EF5082141CE1DECF10F0DDCF11F059
:103F3000D89010361136D89010361136020EDB505C
:103F40001024E96E030EDB501120EA6ED890E9369A
:103F5000EA36290EE9260F0EEA22010EEE6EED6A10
:103F6000020EDB2A030EAAE3DB2AA8D78250816E59
:103F7000E80EE66E030EE66E3BDFE552E552DF2A01
:103F8000010E01E281D7DB2A7FD7040EE15C02E259
:0E3F9000E16AE552E16EE552E7CFD9FF12007B
:023F9E00F28EA1
:103FA000D08EF28C1200F19CF292F2881200D8CFDF
:103FB000E4FFE0CFE4FFE46EDACFE4FFE2CFDAFF24
:103FC000E9CFE4FFEACFE4FFF6CFE4FFF7CFE4FF69
:103FD000F5CFE4FFF3CFE4FFF4CFE4FFFACFE4FF43
:103FE00000EE00F0100EE80403E3EECFE4FFFBD791
:103FF00000EE10F00A0EE80403E3EECFE4FFFBD777
:10400000E652F2A407D05DEC1BF0F2945FEC1BF0DB
:1040100009EC1DF09EA007D048EC1CF09E9002EC2D
:104020001CF017EC1DF0A1A207D007EC1DF0A19227
:10403000C1EC1CF033EC1DF0F2B2F2929EAA03D058
:104040009E9AE3EC18F0E55200EE19F00A0EE8042F
:1040500003E3E5CFEDFFFBD700EE0FF0100EE80411
:1040600003E3E5CFEDFFFBD7E5CFFAFFE5CFF4FFA4
:10407000E5CFF3FFE5CFF5FFE5CFF7FFE5CFF6FF9F
:10408000E5CFEAFFE5CFE9FFE5CFDAFFE550E5CF81
:10409000E0FFE5CFD8FF1000DACFE4FFE2CFDAFF90
:1040A000E9CFE4FFEACFE4FFF6CFE4FFF7CFE4FF88
:1040B000F5CFE4FFF3CFE4FFF4CFE4FFFACFE4FF62
:1040C00000EE00F0100EE80403E3EECFE4FFFBD7B0
:1040D00000EE10F00A0EE80403E3EECFE4FFFBD796
:1040E000E652F2A407D05DEC1BF0F2945FEC1BF0FB
:1040F00009EC1DF09EA007D048EC1CF09E9002EC4D
:104100001CF017EC1DF0A1A207D007EC1DF0A19246
:10411000C1EC1CF033EC1DF0F2B2F2929EAA03D077
:104120009E9AE3EC18F0E55200EE19F00A0EE8044E
:1041300003E3E5CFEDFFFBD700EE0FF0100EE80430
:1041400003E3E5CFEDFFFBD7E5CFFAFFE5CFF4FFC3
:10415000E5CFF3FFE5CFF5FFE5CFF7FFE5CFF6FFBE
:0E416000E5CFEAFFE5CFE9FFE5CFDAFF11007A
:02416E005945B1
:104170004C4C4F5720323A0059454C4C4F57203148
:104180003A0059454C4C4F573D5245442D475245F6
:10419000454E0059454C4C4F5720323A20202000C4
:1041A000475245454E20323A2020200052454420B7
:1041B000313A2020200059454C4C4F5720313A20AD
:1041C00020200044454C41590052454420323A20B9
:1041D000202000475245454E20313A2020200044FF
:1041E000454C4159205245443220202020202000B7
:1041F00044454C4159205245443120202020202064
:104200000044454C41592059454C4C4F57312020D2
:10421000200044454C41592059454C4C4F573220C1
:104220002020004348414E47494E472052454432E2
:10423000004348414E47494E4720524544310041D2
:1042400050504C5920494E2059454C4C4F57004F27
:104250005554204F462052414E47450020202020F3
:07426000002E0020202000C9
:08426800006A0EAE3AEF21F0EE
:104270000E6C001E09AE3FEF21F0096C001EE3EC4E
:1042800022F009BE49EF21F000AE000C096C056C6C
:10429000000C00BE46EF21F00188FF0C006A0EAE54
:1042A00057EF21F00D6C0E1EE86A0E22001E09AEBB
:1042B0005FEF21F0086C091EE86A0922001EAFECCE
:1042C00022F009BE6FEF21F000AE000C086C091E51
:1042D000E86A0922046C051EE86A0522000C00BE8B
:1042E00066EF21F00188FF0C006A0EAE7FEF21F02F
:1042F0000C6C0D1E0E1EE86A0D220E22001E09AE69
:1043000089EF21F0076C081E091EE86A08220922BD
:10431000001E92EC22F009BE9CEF21F000AE000CD2
:10432000076C081E091EE86A08220922036C041E95
:10433000051E04220522000C00BE90EF21F001882A
:02434000FF0C70
:0E4342001E0EF66E000EF76E000EF86E0F01E6
:104350000900F550766F0900F550776F03E1766735
:1043600001D03DD00900F550716F0900F550726F12
:104370000900F550736F09000900F550E96E090056
:10438000F550EA6E090009000900F550746F090044
:10439000F550756F09000900F6CF78FFF7CF79FF68
:1043A000F8CF7AFF71CFF6FF72CFF7FF73CFF8FF28
:1043B0000F01745302E1755307E00900F550EE6EEA
:1043C0007407F8E27507F9D778CFF6FF79CFF7FFD2
:1043D0007ACFF8FF0F017607000E775BBFD7120088
:1043E0000F0E926E0B0EC16E040EC06E1200D9CF6E
:1043F000E6FFE1CFD9FF020EE126FE0EDB50040DF1
:10440000F350C26EC280C282C2B2FED7C450DE6E0A
:10441000DD6ADECF12F0DDCF13F0D89012361336FE
:10442000D89012361336060EC3CFE7FF070B04E011
:10443000E742E79EE806FCE1E7501224106E000E0A
:10444000132010C0DEFFDD6EDECF10F0DDCF11F0E7
:1044500010C0F3FF11C0F4FF020EE15C02E2E16A5A
:0C446000E552E16EE552E7CFD9FF1200F3
:04446C0006500B02E9
:10447000F3CF02F0F4CF03F00C02F3500326000E4A
:10448000F420046E06500D02F3500426000EF420B2
:10449000056E06500E02F350052607500B02F3502E
:1044A0000326F4500422000E052207500C02F3509C
:1044B0000426F450052207500D02F350052608503B
:1044C0000B02F3500426F450052208500C02F3505E
:0C44D000052609500B02F35005261200CF
:0444DC00056A046AFF
:1044E000036A026A200EE76ED89006360736083651
:1044F000093602360336043605360B50025C0C5082
:1045000003580D5004580E50055809E30B50025E35
:104510000C50035A0D50045A0E50055A062AE72E25
:04452000E4D71200CA
:0C452400056A046A036A180EE76ED8905E
:104530000736083609360336043605360C50035C58
:104540000D5004580E50055807E30C50035E0D50F3
:0E455000045A0E50055A072AE72EEAD7120029
:02455E00056AEC
:10456000046A100EE76ED890083609360436053610
:104570000D50045C0E50055805E30D50045E0E50BE
:0A458000055A082AE72EF0D71200B2
:06458A00800EF36E00EE4E
:1045900000F00F0E01D81200EA6002D0EE6AFCD7DC
:0A45A000F350E9601200EE6AFCD748
:0645AA001EEE00F02EEEF3
:1045B00000F0F86A019CA1EC21F003EC00F03AEC69
:0645C00000F0FBD7120021
:0A45C600056A080EE76ED89009366A
:1045D00005360E50055C02E3056E092AE72EF7D773
:0245E0001200C7
:0E45E2000000000000000000000000000000CB
:1045F00000000000000000000000010001000100B8
:024600000100B7
:0E4602000102040810204080000000000000AB
:104610000000FF000000000000000000000000009B
:0B46200000000000000000000000008F
:05462B0000000000008A
:104630000000001010101010101010181818181882
:104640001818181C1C1C1C1C1C1C1C1E1E1E1E1EAC
:104650001E1E1E1F1F1F1F1F1F1F1F000000000008
:10466000000000000000000000000000000000004A
:10467000000000000000000000000000000000003A
:0C4680000000000000000000000000002E
:04468C00FF0000002B
:104690000000000000000A0005000F000A000500ED
:0446A0000F00000007
:0C46A4000000000000000000000000000A
:1046B00000000000000000000000000000000000FA
:0C46C000000000001020408001020408EF
:020000040030CA
:0100010002FC
:0100020003FA
:010003001EDE
:010005008179
:010006008178
:010008000FE8
:01000900C036
:01000A000FE6
:01000B00E014
:01000C000FE4
:01000D0040B2
:00000001FF
